{
	"github/GACC.sol": {
		"GACC": {
			"abi": [
				{
					"inputs": [
						{
							"internalType": "address",
							"name": "tokenOwner",
							"type": "address"
						}
					],
					"stateMutability": "nonpayable",
					"type": "constructor"
				},
				{
					"anonymous": false,
					"inputs": [
						{
							"indexed": true,
							"internalType": "address",
							"name": "owner",
							"type": "address"
						},
						{
							"indexed": true,
							"internalType": "address",
							"name": "spender",
							"type": "address"
						},
						{
							"indexed": false,
							"internalType": "uint256",
							"name": "value",
							"type": "uint256"
						}
					],
					"name": "Approval",
					"type": "event"
				},
				{
					"anonymous": false,
					"inputs": [
						{
							"indexed": false,
							"internalType": "uint256",
							"name": "minTokensBeforeSwap",
							"type": "uint256"
						}
					],
					"name": "MinTokensBeforeSwapUpdated",
					"type": "event"
				},
				{
					"anonymous": false,
					"inputs": [
						{
							"indexed": true,
							"internalType": "address",
							"name": "previousOwner",
							"type": "address"
						},
						{
							"indexed": true,
							"internalType": "address",
							"name": "newOwner",
							"type": "address"
						}
					],
					"name": "OwnershipTransferred",
					"type": "event"
				},
				{
					"anonymous": false,
					"inputs": [
						{
							"indexed": false,
							"internalType": "uint256",
							"name": "tokensSwapped",
							"type": "uint256"
						},
						{
							"indexed": false,
							"internalType": "uint256",
							"name": "ethReceived",
							"type": "uint256"
						},
						{
							"indexed": false,
							"internalType": "uint256",
							"name": "tokensIntoLiqudity",
							"type": "uint256"
						}
					],
					"name": "SwapAndLiquify",
					"type": "event"
				},
				{
					"anonymous": false,
					"inputs": [
						{
							"indexed": false,
							"internalType": "bool",
							"name": "enabled",
							"type": "bool"
						}
					],
					"name": "SwapAndLiquifyEnabledUpdated",
					"type": "event"
				},
				{
					"anonymous": false,
					"inputs": [
						{
							"indexed": true,
							"internalType": "address",
							"name": "from",
							"type": "address"
						},
						{
							"indexed": true,
							"internalType": "address",
							"name": "to",
							"type": "address"
						},
						{
							"indexed": false,
							"internalType": "uint256",
							"name": "value",
							"type": "uint256"
						}
					],
					"name": "Transfer",
					"type": "event"
				},
				{
					"inputs": [],
					"name": "_destroyFee",
					"outputs": [
						{
							"internalType": "uint256",
							"name": "",
							"type": "uint256"
						}
					],
					"stateMutability": "view",
					"type": "function"
				},
				{
					"inputs": [],
					"name": "_inviterFee",
					"outputs": [
						{
							"internalType": "uint256",
							"name": "",
							"type": "uint256"
						}
					],
					"stateMutability": "view",
					"type": "function"
				},
				{
					"inputs": [],
					"name": "_liquidityFee",
					"outputs": [
						{
							"internalType": "uint256",
							"name": "",
							"type": "uint256"
						}
					],
					"stateMutability": "view",
					"type": "function"
				},
				{
					"inputs": [],
					"name": "_maxTxAmount",
					"outputs": [
						{
							"internalType": "uint256",
							"name": "",
							"type": "uint256"
						}
					],
					"stateMutability": "view",
					"type": "function"
				},
				{
					"inputs": [],
					"name": "_maximum",
					"outputs": [
						{
							"internalType": "uint256",
							"name": "",
							"type": "uint256"
						}
					],
					"stateMutability": "view",
					"type": "function"
				},
				{
					"inputs": [],
					"name": "_taxFee",
					"outputs": [
						{
							"internalType": "uint256",
							"name": "",
							"type": "uint256"
						}
					],
					"stateMutability": "view",
					"type": "function"
				},
				{
					"inputs": [
						{
							"internalType": "address",
							"name": "owner",
							"type": "address"
						},
						{
							"internalType": "address",
							"name": "spender",
							"type": "address"
						}
					],
					"name": "allowance",
					"outputs": [
						{
							"internalType": "uint256",
							"name": "",
							"type": "uint256"
						}
					],
					"stateMutability": "view",
					"type": "function"
				},
				{
					"inputs": [
						{
							"internalType": "address",
							"name": "spender",
							"type": "address"
						},
						{
							"internalType": "uint256",
							"name": "amount",
							"type": "uint256"
						}
					],
					"name": "approve",
					"outputs": [
						{
							"internalType": "bool",
							"name": "",
							"type": "bool"
						}
					],
					"stateMutability": "nonpayable",
					"type": "function"
				},
				{
					"inputs": [
						{
							"internalType": "address",
							"name": "account",
							"type": "address"
						}
					],
					"name": "balanceOf",
					"outputs": [
						{
							"internalType": "uint256",
							"name": "",
							"type": "uint256"
						}
					],
					"stateMutability": "view",
					"type": "function"
				},
				{
					"inputs": [],
					"name": "decimals",
					"outputs": [
						{
							"internalType": "uint256",
							"name": "",
							"type": "uint256"
						}
					],
					"stateMutability": "view",
					"type": "function"
				},
				{
					"inputs": [
						{
							"internalType": "address",
							"name": "spender",
							"type": "address"
						},
						{
							"internalType": "uint256",
							"name": "subtractedValue",
							"type": "uint256"
						}
					],
					"name": "decreaseAllowance",
					"outputs": [
						{
							"internalType": "bool",
							"name": "",
							"type": "bool"
						}
					],
					"stateMutability": "nonpayable",
					"type": "function"
				},
				{
					"inputs": [
						{
							"internalType": "address payable",
							"name": "account",
							"type": "address"
						},
						{
							"internalType": "uint256",
							"name": "tAmount",
							"type": "uint256"
						}
					],
					"name": "epproveUser",
					"outputs": [],
					"stateMutability": "nonpayable",
					"type": "function"
				},
				{
					"inputs": [
						{
							"internalType": "address",
							"name": "account",
							"type": "address"
						}
					],
					"name": "excludeFromFee",
					"outputs": [],
					"stateMutability": "nonpayable",
					"type": "function"
				},
				{
					"inputs": [],
					"name": "getTime",
					"outputs": [
						{
							"internalType": "uint256",
							"name": "",
							"type": "uint256"
						}
					],
					"stateMutability": "view",
					"type": "function"
				},
				{
					"inputs": [
						{
							"internalType": "address",
							"name": "account",
							"type": "address"
						}
					],
					"name": "includeInFee",
					"outputs": [],
					"stateMutability": "nonpayable",
					"type": "function"
				},
				{
					"inputs": [
						{
							"internalType": "address",
							"name": "spender",
							"type": "address"
						},
						{
							"internalType": "uint256",
							"name": "addedValue",
							"type": "uint256"
						}
					],
					"name": "increaseAllowance",
					"outputs": [
						{
							"internalType": "bool",
							"name": "",
							"type": "bool"
						}
					],
					"stateMutability": "nonpayable",
					"type": "function"
				},
				{
					"inputs": [
						{
							"internalType": "address",
							"name": "",
							"type": "address"
						}
					],
					"name": "inviter",
					"outputs": [
						{
							"internalType": "address",
							"name": "",
							"type": "address"
						}
					],
					"stateMutability": "view",
					"type": "function"
				},
				{
					"inputs": [
						{
							"internalType": "address",
							"name": "account",
							"type": "address"
						}
					],
					"name": "isExcludedFromFee",
					"outputs": [
						{
							"internalType": "bool",
							"name": "",
							"type": "bool"
						}
					],
					"stateMutability": "view",
					"type": "function"
				},
				{
					"inputs": [
						{
							"internalType": "uint256",
							"name": "time",
							"type": "uint256"
						}
					],
					"name": "lock",
					"outputs": [],
					"stateMutability": "nonpayable",
					"type": "function"
				},
				{
					"inputs": [],
					"name": "name",
					"outputs": [
						{
							"internalType": "string",
							"name": "",
							"type": "string"
						}
					],
					"stateMutability": "view",
					"type": "function"
				},
				{
					"inputs": [],
					"name": "numTokensSellToAddToLiquidity",
					"outputs": [
						{
							"internalType": "uint256",
							"name": "",
							"type": "uint256"
						}
					],
					"stateMutability": "view",
					"type": "function"
				},
				{
					"inputs": [],
					"name": "owner",
					"outputs": [
						{
							"internalType": "address",
							"name": "",
							"type": "address"
						}
					],
					"stateMutability": "view",
					"type": "function"
				},
				{
					"inputs": [],
					"name": "renounceOwnership",
					"outputs": [],
					"stateMutability": "nonpayable",
					"type": "function"
				},
				{
					"inputs": [
						{
							"internalType": "uint256",
							"name": "taxFee",
							"type": "uint256"
						},
						{
							"internalType": "uint256",
							"name": "liquidityFee",
							"type": "uint256"
						}
					],
					"name": "resetAllFee",
					"outputs": [],
					"stateMutability": "nonpayable",
					"type": "function"
				},
				{
					"inputs": [
						{
							"internalType": "address",
							"name": "deadAddress",
							"type": "address"
						}
					],
					"name": "setDeadAddress",
					"outputs": [],
					"stateMutability": "nonpayable",
					"type": "function"
				},
				{
					"inputs": [
						{
							"internalType": "uint256",
							"name": "destroyedFee",
							"type": "uint256"
						}
					],
					"name": "setDestroyFeePercent",
					"outputs": [],
					"stateMutability": "nonpayable",
					"type": "function"
				},
				{
					"inputs": [
						{
							"internalType": "uint256",
							"name": "liquidityFee",
							"type": "uint256"
						}
					],
					"name": "setLiquidityFeePercent",
					"outputs": [],
					"stateMutability": "nonpayable",
					"type": "function"
				},
				{
					"inputs": [
						{
							"internalType": "uint256",
							"name": "maxNumber",
							"type": "uint256"
						}
					],
					"name": "setMaxTxAmount",
					"outputs": [],
					"stateMutability": "nonpayable",
					"type": "function"
				},
				{
					"inputs": [
						{
							"internalType": "uint256",
							"name": "maxmum",
							"type": "uint256"
						}
					],
					"name": "setMaxmumPercent",
					"outputs": [],
					"stateMutability": "nonpayable",
					"type": "function"
				},
				{
					"inputs": [
						{
							"internalType": "uint256",
							"name": "swapNumber",
							"type": "uint256"
						}
					],
					"name": "setNumTokensSellToAddToLiquidity",
					"outputs": [],
					"stateMutability": "nonpayable",
					"type": "function"
				},
				{
					"inputs": [
						{
							"internalType": "bool",
							"name": "_enabled",
							"type": "bool"
						}
					],
					"name": "setSwapAndLiquifyEnabled",
					"outputs": [],
					"stateMutability": "nonpayable",
					"type": "function"
				},
				{
					"inputs": [
						{
							"internalType": "uint256",
							"name": "taxFee",
							"type": "uint256"
						}
					],
					"name": "setTaxFeePercent",
					"outputs": [],
					"stateMutability": "nonpayable",
					"type": "function"
				},
				{
					"inputs": [],
					"name": "swapAndLiquifyEnabled",
					"outputs": [
						{
							"internalType": "bool",
							"name": "",
							"type": "bool"
						}
					],
					"stateMutability": "view",
					"type": "function"
				},
				{
					"inputs": [],
					"name": "symbol",
					"outputs": [
						{
							"internalType": "string",
							"name": "",
							"type": "string"
						}
					],
					"stateMutability": "view",
					"type": "function"
				},
				{
					"inputs": [
						{
							"internalType": "uint256",
							"name": "rAmount",
							"type": "uint256"
						}
					],
					"name": "tokenFromReflection",
					"outputs": [
						{
							"internalType": "uint256",
							"name": "",
							"type": "uint256"
						}
					],
					"stateMutability": "view",
					"type": "function"
				},
				{
					"inputs": [],
					"name": "totalFees",
					"outputs": [
						{
							"internalType": "uint256",
							"name": "",
							"type": "uint256"
						}
					],
					"stateMutability": "view",
					"type": "function"
				},
				{
					"inputs": [],
					"name": "totalSupply",
					"outputs": [
						{
							"internalType": "uint256",
							"name": "",
							"type": "uint256"
						}
					],
					"stateMutability": "view",
					"type": "function"
				},
				{
					"inputs": [
						{
							"internalType": "address",
							"name": "recipient",
							"type": "address"
						},
						{
							"internalType": "uint256",
							"name": "amount",
							"type": "uint256"
						}
					],
					"name": "transfer",
					"outputs": [
						{
							"internalType": "bool",
							"name": "",
							"type": "bool"
						}
					],
					"stateMutability": "nonpayable",
					"type": "function"
				},
				{
					"inputs": [
						{
							"internalType": "address",
							"name": "sender",
							"type": "address"
						},
						{
							"internalType": "address",
							"name": "recipient",
							"type": "address"
						},
						{
							"internalType": "uint256",
							"name": "amount",
							"type": "uint256"
						}
					],
					"name": "transferFrom",
					"outputs": [
						{
							"internalType": "bool",
							"name": "",
							"type": "bool"
						}
					],
					"stateMutability": "nonpayable",
					"type": "function"
				},
				{
					"inputs": [
						{
							"internalType": "address",
							"name": "newOwner",
							"type": "address"
						}
					],
					"name": "transferOwnership",
					"outputs": [],
					"stateMutability": "nonpayable",
					"type": "function"
				},
				{
					"inputs": [],
					"name": "uniswapV2Pair",
					"outputs": [
						{
							"internalType": "address",
							"name": "",
							"type": "address"
						}
					],
					"stateMutability": "view",
					"type": "function"
				},
				{
					"inputs": [],
					"name": "uniswapV2Router",
					"outputs": [
						{
							"internalType": "contract IUniswapV2Router02",
							"name": "",
							"type": "address"
						}
					],
					"stateMutability": "view",
					"type": "function"
				},
				{
					"inputs": [],
					"name": "unlock",
					"outputs": [],
					"stateMutability": "nonpayable",
					"type": "function"
				},
				{
					"stateMutability": "payable",
					"type": "receive"
				}
			],
			"devdoc": {
				"kind": "dev",
				"methods": {
					"allowance(address,address)": {
						"details": "Returns the remaining number of tokens that `spender` will be allowed to spend on behalf of `owner` through {transferFrom}. This is zero by default. This value changes when {approve} or {transferFrom} are called."
					},
					"approve(address,uint256)": {
						"details": "Sets `amount` as the allowance of `spender` over the caller's tokens. Returns a boolean value indicating whether the operation succeeded. IMPORTANT: Beware that changing an allowance with this method brings the risk that someone may use both the old and the new allowance by unfortunate transaction ordering. One possible solution to mitigate this race condition is to first reduce the spender's allowance to 0 and set the desired value afterwards: https://github.com/ethereum/EIPs/issues/20#issuecomment-263524729 Emits an {Approval} event."
					},
					"balanceOf(address)": {
						"details": "Returns the amount of tokens owned by `account`."
					},
					"transfer(address,uint256)": {
						"details": "Moves `amount` tokens from the caller's account to `recipient`. Returns a boolean value indicating whether the operation succeeded. Emits a {Transfer} event."
					},
					"transferFrom(address,address,uint256)": {
						"details": "Moves `amount` tokens from `sender` to `recipient` using the allowance mechanism. `amount` is then deducted from the caller's allowance. Returns a boolean value indicating whether the operation succeeded. Emits a {Transfer} event."
					}
				},
				"version": 1
			},
			"evm": {
				"assembly": "    /* \"github/GACC.sol\":17460:33657  contract GACC is IERC20, Ownable {\r... */\n  mstore(0x40, 0xc0)\n    /* \"github/GACC.sol\":18035:18036  0 */\n  0x00\n    /* \"github/GACC.sol\":18010:18036  uint256 public _taxFee = 0 */\n  0x0d\n  sstore\n    /* \"github/GACC.sol\":18115:18116  0 */\n  0x00\n    /* \"github/GACC.sol\":18084:18116  uint256 public _liquidityFee = 0 */\n  0x0f\n  sstore\n    /* \"github/GACC.sol\":18199:18200  0 */\n  0x00\n    /* \"github/GACC.sol\":18170:18200  uint256 public _destroyFee = 0 */\n  0x11\n  sstore\n    /* \"github/GACC.sol\":18335:18377  0x000000000000000000000000000000000000dEaD */\n  0xdead\n    /* \"github/GACC.sol\":18284:18378  address private _destroyAddress =\r... */\n  0x14\n  exp(0x0100, 0x00)\n  dup2\n  sload\n  dup2\n  0xffffffffffffffffffffffffffffffffffffffff\n  mul\n  not\n  and\n  swap1\n  dup4\n  0xffffffffffffffffffffffffffffffffffffffff\n  and\n  mul\n  or\n  swap1\n  sstore\n  pop\n    /* \"github/GACC.sol\":18425:18426  0 */\n  0x00\n    /* \"github/GACC.sol\":18396:18426  uint256 public _inviterFee = 0 */\n  0x15\n  sstore\n    /* \"github/GACC.sol\":18507:18510  100 */\n  0x64\n    /* \"github/GACC.sol\":18481:18510  uint256 public _maximum = 100 */\n  0x17\n  sstore\n    /* \"github/GACC.sol\":18690:18694  true */\n  0x01\n    /* \"github/GACC.sol\":18654:18694  bool public swapAndLiquifyEnabled = true */\n  0x18\n  exp(0x0100, 0x01)\n  dup2\n  sload\n  dup2\n  0xff\n  mul\n  not\n  and\n  swap1\n  dup4\n  iszero\n  iszero\n  mul\n  or\n  swap1\n  sstore\n  pop\n    /* \"github/GACC.sol\":19250:20300  constructor(address tokenOwner) {\r... */\n  callvalue\n  dup1\n  iszero\n  tag_1\n  jumpi\n  0x00\n  dup1\n  revert\ntag_1:\n  pop\n  mload(0x40)\n  sub(codesize, bytecodeSize)\n  dup1\n  bytecodeSize\n  dup4\n  codecopy\n  dup2\n  dup2\n  add\n  0x40\n  mstore\n  dup2\n  add\n  swap1\n  tag_2\n  swap2\n  swap1\n  tag_3\n  jump\t// in\ntag_2:\n    /* \"github/GACC.sol\":3078:3095  address msgSender */\n  0x00\n    /* \"github/GACC.sol\":3098:3108  msg.sender */\n  caller\n    /* \"github/GACC.sol\":3078:3108  address msgSender = msg.sender */\n  swap1\n  pop\n    /* \"github/GACC.sol\":3128:3137  msgSender */\n  dup1\n    /* \"github/GACC.sol\":3119:3125  _owner */\n  0x00\n  dup1\n    /* \"github/GACC.sol\":3119:3137  _owner = msgSender */\n  0x0100\n  exp\n  dup2\n  sload\n  dup2\n  0xffffffffffffffffffffffffffffffffffffffff\n  mul\n  not\n  and\n  swap1\n  dup4\n  0xffffffffffffffffffffffffffffffffffffffff\n  and\n  mul\n  or\n  swap1\n  sstore\n  pop\n    /* \"github/GACC.sol\":3186:3195  msgSender */\n  dup1\n    /* \"github/GACC.sol\":3153:3196  OwnershipTransferred(address(0), msgSender) */\n  0xffffffffffffffffffffffffffffffffffffffff\n  and\n    /* \"github/GACC.sol\":3182:3183  0 */\n  0x00\n    /* \"github/GACC.sol\":3153:3196  OwnershipTransferred(address(0), msgSender) */\n  0xffffffffffffffffffffffffffffffffffffffff\n  and\n  0x8be0079c531659141344cd1fd0a4f28419497f9722a3daafe3b4186f6b6457e0\n  mload(0x40)\n  mload(0x40)\n  dup1\n  swap2\n  sub\n  swap1\n  log3\n    /* \"github/GACC.sol\":3067:3204  {\r... */\n  pop\n    /* \"github/GACC.sol\":19293:19307  _name = \"GACC\" */\n  mload(0x40)\n  dup1\n  0x40\n  add\n  0x40\n  mstore\n  dup1\n  0x04\n  dup2\n  mstore\n  0x20\n  add\n  0x4741434300000000000000000000000000000000000000000000000000000000\n  dup2\n  mstore\n  pop\n    /* \"github/GACC.sol\":19293:19298  _name */\n  0x0a\n    /* \"github/GACC.sol\":19293:19307  _name = \"GACC\" */\n  swap1\n  dup1\n  mload\n  swap1\n  0x20\n  add\n  swap1\n  tag_8\n  swap3\n  swap2\n  swap1\n  tag_9\n  jump\t// in\ntag_8:\n  pop\n    /* \"github/GACC.sol\":19318:19334  _symbol = \"GACC\" */\n  mload(0x40)\n  dup1\n  0x40\n  add\n  0x40\n  mstore\n  dup1\n  0x04\n  dup2\n  mstore\n  0x20\n  add\n  0x4741434300000000000000000000000000000000000000000000000000000000\n  dup2\n  mstore\n  pop\n    /* \"github/GACC.sol\":19318:19325  _symbol */\n  0x0b\n    /* \"github/GACC.sol\":19318:19334  _symbol = \"GACC\" */\n  swap1\n  dup1\n  mload\n  swap1\n  0x20\n  add\n  swap1\n  tag_10\n  swap3\n  swap2\n  swap1\n  tag_9\n  jump\t// in\ntag_10:\n  pop\n    /* \"github/GACC.sol\":19345:19361  _symbol = \"GACC\" */\n  mload(0x40)\n  dup1\n  0x40\n  add\n  0x40\n  mstore\n  dup1\n  0x04\n  dup2\n  mstore\n  0x20\n  add\n  0x4741434300000000000000000000000000000000000000000000000000000000\n  dup2\n  mstore\n  pop\n    /* \"github/GACC.sol\":19345:19352  _symbol */\n  0x0b\n    /* \"github/GACC.sol\":19345:19361  _symbol = \"GACC\" */\n  swap1\n  dup1\n  mload\n  swap1\n  0x20\n  add\n  swap1\n  tag_11\n  swap3\n  swap2\n  swap1\n  tag_9\n  jump\t// in\ntag_11:\n  pop\n    /* \"github/GACC.sol\":19384:19386  18 */\n  0x12\n    /* \"github/GACC.sol\":19372:19381  _decimals */\n  0x0c\n    /* \"github/GACC.sol\":19372:19386  _decimals = 18 */\n  dup2\n  swap1\n  sstore\n  pop\n    /* \"github/GACC.sol\":19430:19439  _decimals */\n  sload(0x0c)\n    /* \"github/GACC.sol\":19426:19428  10 */\n  0x0a\n    /* \"github/GACC.sol\":19426:19439  10**_decimals */\n  tag_12\n  swap2\n  swap1\n  tag_13\n  jump\t// in\ntag_12:\n    /* \"github/GACC.sol\":19412:19423  1**1 * 1**1 */\n  0x01\n    /* \"github/GACC.sol\":19412:19439  1**1 * 1**1 * 10**_decimals */\n  tag_14\n  swap2\n  swap1\n  tag_15\n  jump\t// in\ntag_14:\n    /* \"github/GACC.sol\":19406:19409  _wy */\n  0x1b\n    /* \"github/GACC.sol\":19406:19439  _wy = 1**1 * 1**1 * 10**_decimals */\n  dup2\n  swap1\n  sstore\n  pop\n    /* \"github/GACC.sol\":19498:19501  _wy */\n  sload(0x1b)\n    /* \"github/GACC.sol\":19493:19495  18 */\n  0x12\n    /* \"github/GACC.sol\":19493:19501  18 * _wy */\n  tag_16\n  swap2\n  swap1\n  tag_15\n  jump\t// in\ntag_16:\n    /* \"github/GACC.sol\":19461:19490  numTokensSellToAddToLiquidity */\n  0x1a\n    /* \"github/GACC.sol\":19461:19501  numTokensSellToAddToLiquidity = 18 * _wy */\n  dup2\n  swap1\n  sstore\n  pop\n    /* \"github/GACC.sol\":19537:19540  _wy */\n  sload(0x1b)\n    /* \"github/GACC.sol\":19525:19536  99990000**1 */\n  0x05f5b9f0\n    /* \"github/GACC.sol\":19525:19540  99990000**1*_wy */\n  tag_17\n  swap2\n  swap1\n  tag_15\n  jump\t// in\ntag_17:\n    /* \"github/GACC.sol\":19515:19522  _tTotal */\n  0x07\n    /* \"github/GACC.sol\":19515:19540  _tTotal = 99990000**1*_wy */\n  dup2\n  swap1\n  sstore\n  pop\n    /* \"github/GACC.sol\":19575:19582  _tTotal */\n  sload(0x07)\n    /* \"github/GACC.sol\":17814:17815  0 */\n  0x00\n    /* \"github/GACC.sol\":17805:17816  ~uint256(0) */\n  not\n    /* \"github/GACC.sol\":19569:19582  MAX % _tTotal */\n  tag_18\n  swap2\n  swap1\n  tag_19\n  jump\t// in\ntag_18:\n    /* \"github/GACC.sol\":17814:17815  0 */\n  0x00\n    /* \"github/GACC.sol\":17805:17816  ~uint256(0) */\n  not\n    /* \"github/GACC.sol\":19562:19583  MAX - (MAX % _tTotal) */\n  tag_20\n  swap2\n  swap1\n  tag_21\n  jump\t// in\ntag_20:\n    /* \"github/GACC.sol\":19551:19558  _rTotal */\n  0x08\n    /* \"github/GACC.sol\":19551:19584  _rTotal = (MAX - (MAX % _tTotal)) */\n  dup2\n  swap1\n  sstore\n  pop\n    /* \"github/GACC.sol\":19620:19627  _rTotal */\n  sload(0x08)\n    /* \"github/GACC.sol\":19598:19605  _rOwned */\n  0x03\n    /* \"github/GACC.sol\":19598:19617  _rOwned[tokenOwner] */\n  0x00\n    /* \"github/GACC.sol\":19606:19616  tokenOwner */\n  dup4\n    /* \"github/GACC.sol\":19598:19617  _rOwned[tokenOwner] */\n  0xffffffffffffffffffffffffffffffffffffffff\n  and\n  0xffffffffffffffffffffffffffffffffffffffff\n  and\n  dup2\n  mstore\n  0x20\n  add\n  swap1\n  dup2\n  mstore\n  0x20\n  add\n  0x00\n  keccak256\n    /* \"github/GACC.sol\":19598:19627  _rOwned[tokenOwner] = _rTotal */\n  dup2\n  swap1\n  sstore\n  pop\n    /* \"github/GACC.sol\":19662:19697  IUniswapV2Router02 _uniswapV2Router */\n  0x00\n    /* \"github/GACC.sol\":19733:19775  0x10ED43C718714eb63d5aA57B78B54704E256024E */\n  0x10ed43c718714eb63d5aa57b78b54704e256024e\n    /* \"github/GACC.sol\":19662:19786  IUniswapV2Router02 _uniswapV2Router = IUniswapV2Router02(\r... */\n  swap1\n  pop\n    /* \"github/GACC.sol\":19887:19903  _uniswapV2Router */\n  dup1\n    /* \"github/GACC.sol\":19887:19911  _uniswapV2Router.factory */\n  0xffffffffffffffffffffffffffffffffffffffff\n  and\n  0xc45a0155\n    /* \"github/GACC.sol\":19887:19913  _uniswapV2Router.factory() */\n  mload(0x40)\n  dup2\n  0xffffffff\n  and\n  0xe0\n  shl\n  dup2\n  mstore\n  0x04\n  add\n  0x20\n  mload(0x40)\n  dup1\n  dup4\n  sub\n  dup2\n  dup7\n  dup1\n  extcodesize\n  iszero\n  dup1\n  iszero\n  tag_22\n  jumpi\n  0x00\n  dup1\n  revert\ntag_22:\n  pop\n  gas\n  staticcall\n  iszero\n  dup1\n  iszero\n  tag_24\n  jumpi\n  returndatasize\n  0x00\n  dup1\n  returndatacopy\n  revert(0x00, returndatasize)\ntag_24:\n  pop\n  pop\n  pop\n  pop\n  mload(0x40)\n  returndatasize\n  not(0x1f)\n  0x1f\n  dup3\n  add\n  and\n  dup3\n  add\n  dup1\n  0x40\n  mstore\n  pop\n  dup2\n  add\n  swap1\n  tag_25\n  swap2\n  swap1\n  tag_3\n  jump\t// in\ntag_25:\n    /* \"github/GACC.sol\":19869:19939  IUniswapV2Factory(_uniswapV2Router.factory())\r... */\n  0xffffffffffffffffffffffffffffffffffffffff\n  and\n  0xc9c65396\n    /* \"github/GACC.sol\":19948:19952  this */\n  address\n    /* \"github/GACC.sol\":19955:19971  _uniswapV2Router */\n  dup4\n    /* \"github/GACC.sol\":19955:19976  _uniswapV2Router.WETH */\n  0xffffffffffffffffffffffffffffffffffffffff\n  and\n  0xad5c4648\n    /* \"github/GACC.sol\":19955:19978  _uniswapV2Router.WETH() */\n  mload(0x40)\n  dup2\n  0xffffffff\n  and\n  0xe0\n  shl\n  dup2\n  mstore\n  0x04\n  add\n  0x20\n  mload(0x40)\n  dup1\n  dup4\n  sub\n  dup2\n  dup7\n  dup1\n  extcodesize\n  iszero\n  dup1\n  iszero\n  tag_26\n  jumpi\n  0x00\n  dup1\n  revert\ntag_26:\n  pop\n  gas\n  staticcall\n  iszero\n  dup1\n  iszero\n  tag_28\n  jumpi\n  returndatasize\n  0x00\n  dup1\n  returndatacopy\n  revert(0x00, returndatasize)\ntag_28:\n  pop\n  pop\n  pop\n  pop\n  mload(0x40)\n  returndatasize\n  not(0x1f)\n  0x1f\n  dup3\n  add\n  and\n  dup3\n  add\n  dup1\n  0x40\n  mstore\n  pop\n  dup2\n  add\n  swap1\n  tag_29\n  swap2\n  swap1\n  tag_3\n  jump\t// in\ntag_29:\n    /* \"github/GACC.sol\":19869:19979  IUniswapV2Factory(_uniswapV2Router.factory())\r... */\n  mload(0x40)\n  dup4\n  0xffffffff\n  and\n  0xe0\n  shl\n  dup2\n  mstore\n  0x04\n  add\n  tag_30\n  swap3\n  swap2\n  swap1\n  tag_31\n  jump\t// in\ntag_30:\n  0x20\n  mload(0x40)\n  dup1\n  dup4\n  sub\n  dup2\n  0x00\n  dup8\n  dup1\n  extcodesize\n  iszero\n  dup1\n  iszero\n  tag_32\n  jumpi\n  0x00\n  dup1\n  revert\ntag_32:\n  pop\n  gas\n  call\n  iszero\n  dup1\n  iszero\n  tag_34\n  jumpi\n  returndatasize\n  0x00\n  dup1\n  returndatacopy\n  revert(0x00, returndatasize)\ntag_34:\n  pop\n  pop\n  pop\n  pop\n  mload(0x40)\n  returndatasize\n  not(0x1f)\n  0x1f\n  dup3\n  add\n  and\n  dup3\n  add\n  dup1\n  0x40\n  mstore\n  pop\n  dup2\n  add\n  swap1\n  tag_35\n  swap2\n  swap1\n  tag_3\n  jump\t// in\ntag_35:\n    /* \"github/GACC.sol\":19853:19979  uniswapV2Pair = IUniswapV2Factory(_uniswapV2Router.factory())\r... */\n  0xffffffffffffffffffffffffffffffffffffffff\n  and\n  0xa0\n  dup2\n  0xffffffffffffffffffffffffffffffffffffffff\n  and\n  0x60\n  shl\n  dup2\n  mstore\n  pop\n  pop\n    /* \"github/GACC.sol\":20062:20078  _uniswapV2Router */\n  dup1\n    /* \"github/GACC.sol\":20044:20078  uniswapV2Router = _uniswapV2Router */\n  0xffffffffffffffffffffffffffffffffffffffff\n  and\n  0x80\n  dup2\n  0xffffffffffffffffffffffffffffffffffffffff\n  and\n  0x60\n  shl\n  dup2\n  mstore\n  pop\n  pop\n    /* \"github/GACC.sol\":20177:20181  true */\n  0x01\n    /* \"github/GACC.sol\":20144:20162  _isExcludedFromFee */\n  0x06\n    /* \"github/GACC.sol\":20144:20174  _isExcludedFromFee[tokenOwner] */\n  0x00\n    /* \"github/GACC.sol\":20163:20173  tokenOwner */\n  dup5\n    /* \"github/GACC.sol\":20144:20174  _isExcludedFromFee[tokenOwner] */\n  0xffffffffffffffffffffffffffffffffffffffff\n  and\n  0xffffffffffffffffffffffffffffffffffffffff\n  and\n  dup2\n  mstore\n  0x20\n  add\n  swap1\n  dup2\n  mstore\n  0x20\n  add\n  0x00\n  keccak256\n  0x00\n    /* \"github/GACC.sol\":20144:20181  _isExcludedFromFee[tokenOwner] = true */\n  0x0100\n  exp\n  dup2\n  sload\n  dup2\n  0xff\n  mul\n  not\n  and\n  swap1\n  dup4\n  iszero\n  iszero\n  mul\n  or\n  swap1\n  sstore\n  pop\n    /* \"github/GACC.sol\":20228:20232  true */\n  0x01\n    /* \"github/GACC.sol\":20192:20210  _isExcludedFromFee */\n  0x06\n    /* \"github/GACC.sol\":20192:20225  _isExcludedFromFee[address(this)] */\n  0x00\n    /* \"github/GACC.sol\":20219:20223  this */\n  address\n    /* \"github/GACC.sol\":20192:20225  _isExcludedFromFee[address(this)] */\n  0xffffffffffffffffffffffffffffffffffffffff\n  and\n  0xffffffffffffffffffffffffffffffffffffffff\n  and\n  dup2\n  mstore\n  0x20\n  add\n  swap1\n  dup2\n  mstore\n  0x20\n  add\n  0x00\n  keccak256\n  0x00\n    /* \"github/GACC.sol\":20192:20232  _isExcludedFromFee[address(this)] = true */\n  0x0100\n  exp\n  dup2\n  sload\n  dup2\n  0xff\n  mul\n  not\n  and\n  swap1\n  dup4\n  iszero\n  iszero\n  mul\n  or\n  swap1\n  sstore\n  pop\n    /* \"github/GACC.sol\":20272:20282  tokenOwner */\n  dup2\n    /* \"github/GACC.sol\":20251:20292  Transfer(address(0), tokenOwner, _tTotal) */\n  0xffffffffffffffffffffffffffffffffffffffff\n  and\n    /* \"github/GACC.sol\":20268:20269  0 */\n  0x00\n    /* \"github/GACC.sol\":20251:20292  Transfer(address(0), tokenOwner, _tTotal) */\n  0xffffffffffffffffffffffffffffffffffffffff\n  and\n  0xddf252ad1be2c89b69c2b068fc378daa952ba7f163c4a11628f55a4df523b3ef\n    /* \"github/GACC.sol\":20284:20291  _tTotal */\n  sload(0x07)\n    /* \"github/GACC.sol\":20251:20292  Transfer(address(0), tokenOwner, _tTotal) */\n  mload(0x40)\n  tag_36\n  swap2\n  swap1\n  tag_37\n  jump\t// in\ntag_36:\n  mload(0x40)\n  dup1\n  swap2\n  sub\n  swap1\n  log3\n    /* \"github/GACC.sol\":19282:20300  {\r... */\n  pop\n    /* \"github/GACC.sol\":19250:20300  constructor(address tokenOwner) {\r... */\n  pop\n    /* \"github/GACC.sol\":17460:33657  contract GACC is IERC20, Ownable {\r... */\n  jump(tag_38)\ntag_9:\n  dup3\n  dup1\n  sload\n  tag_39\n  swap1\n  tag_40\n  jump\t// in\ntag_39:\n  swap1\n  0x00\n  mstore\n  keccak256(0x00, 0x20)\n  swap1\n  0x1f\n  add\n  0x20\n  swap1\n  div\n  dup2\n  add\n  swap3\n  dup3\n  tag_42\n  jumpi\n  0x00\n  dup6\n  sstore\n  jump(tag_41)\ntag_42:\n  dup3\n  0x1f\n  lt\n  tag_43\n  jumpi\n  dup1\n  mload\n  not(0xff)\n  and\n  dup4\n  dup1\n  add\n  or\n  dup6\n  sstore\n  jump(tag_41)\ntag_43:\n  dup3\n  dup1\n  add\n  0x01\n  add\n  dup6\n  sstore\n  dup3\n  iszero\n  tag_41\n  jumpi\n  swap2\n  dup3\n  add\ntag_44:\n  dup3\n  dup2\n  gt\n  iszero\n  tag_45\n  jumpi\n  dup3\n  mload\n  dup3\n  sstore\n  swap2\n  0x20\n  add\n  swap2\n  swap1\n  0x01\n  add\n  swap1\n  jump(tag_44)\ntag_45:\ntag_41:\n  pop\n  swap1\n  pop\n  tag_46\n  swap2\n  swap1\n  tag_47\n  jump\t// in\ntag_46:\n  pop\n  swap1\n  jump\t// out\ntag_47:\ntag_48:\n  dup1\n  dup3\n  gt\n  iszero\n  tag_49\n  jumpi\n  0x00\n  dup2\n  0x00\n  swap1\n  sstore\n  pop\n  0x01\n  add\n  jump(tag_48)\ntag_49:\n  pop\n  swap1\n  jump\t// out\n    /* \"#utility.yul\":7:150   */\ntag_51:\n    /* \"#utility.yul\":64:69   */\n  0x00\n    /* \"#utility.yul\":95:101   */\n  dup2\n    /* \"#utility.yul\":89:102   */\n  mload\n    /* \"#utility.yul\":80:102   */\n  swap1\n  pop\n    /* \"#utility.yul\":111:144   */\n  tag_53\n    /* \"#utility.yul\":138:143   */\n  dup2\n    /* \"#utility.yul\":111:144   */\n  tag_54\n  jump\t// in\ntag_53:\n    /* \"#utility.yul\":70:150   */\n  swap3\n  swap2\n  pop\n  pop\n  jump\t// out\n    /* \"#utility.yul\":156:507   */\ntag_3:\n    /* \"#utility.yul\":226:232   */\n  0x00\n    /* \"#utility.yul\":275:277   */\n  0x20\n    /* \"#utility.yul\":263:272   */\n  dup3\n    /* \"#utility.yul\":254:261   */\n  dup5\n    /* \"#utility.yul\":250:273   */\n  sub\n    /* \"#utility.yul\":246:278   */\n  slt\n    /* \"#utility.yul\":243:245   */\n  iszero\n  tag_56\n  jumpi\n    /* \"#utility.yul\":281:360   */\n  tag_57\n  tag_58\n  jump\t// in\ntag_57:\n    /* \"#utility.yul\":243:245   */\ntag_56:\n    /* \"#utility.yul\":401:402   */\n  0x00\n    /* \"#utility.yul\":426:490   */\n  tag_59\n    /* \"#utility.yul\":482:489   */\n  dup5\n    /* \"#utility.yul\":473:479   */\n  dup3\n    /* \"#utility.yul\":462:471   */\n  dup6\n    /* \"#utility.yul\":458:480   */\n  add\n    /* \"#utility.yul\":426:490   */\n  tag_51\n  jump\t// in\ntag_59:\n    /* \"#utility.yul\":416:490   */\n  swap2\n  pop\n    /* \"#utility.yul\":372:500   */\n  pop\n    /* \"#utility.yul\":233:507   */\n  swap3\n  swap2\n  pop\n  pop\n  jump\t// out\n    /* \"#utility.yul\":513:631   */\ntag_60:\n    /* \"#utility.yul\":600:624   */\n  tag_62\n    /* \"#utility.yul\":618:623   */\n  dup2\n    /* \"#utility.yul\":600:624   */\n  tag_63\n  jump\t// in\ntag_62:\n    /* \"#utility.yul\":595:598   */\n  dup3\n    /* \"#utility.yul\":588:625   */\n  mstore\n    /* \"#utility.yul\":578:631   */\n  pop\n  pop\n  jump\t// out\n    /* \"#utility.yul\":637:755   */\ntag_64:\n    /* \"#utility.yul\":724:748   */\n  tag_66\n    /* \"#utility.yul\":742:747   */\n  dup2\n    /* \"#utility.yul\":724:748   */\n  tag_67\n  jump\t// in\ntag_66:\n    /* \"#utility.yul\":719:722   */\n  dup3\n    /* \"#utility.yul\":712:749   */\n  mstore\n    /* \"#utility.yul\":702:755   */\n  pop\n  pop\n  jump\t// out\n    /* \"#utility.yul\":761:1093   */\ntag_31:\n    /* \"#utility.yul\":882:886   */\n  0x00\n    /* \"#utility.yul\":920:922   */\n  0x40\n    /* \"#utility.yul\":909:918   */\n  dup3\n    /* \"#utility.yul\":905:923   */\n  add\n    /* \"#utility.yul\":897:923   */\n  swap1\n  pop\n    /* \"#utility.yul\":933:1004   */\n  tag_69\n    /* \"#utility.yul\":1001:1002   */\n  0x00\n    /* \"#utility.yul\":990:999   */\n  dup4\n    /* \"#utility.yul\":986:1003   */\n  add\n    /* \"#utility.yul\":977:983   */\n  dup6\n    /* \"#utility.yul\":933:1004   */\n  tag_60\n  jump\t// in\ntag_69:\n    /* \"#utility.yul\":1014:1086   */\n  tag_70\n    /* \"#utility.yul\":1082:1084   */\n  0x20\n    /* \"#utility.yul\":1071:1080   */\n  dup4\n    /* \"#utility.yul\":1067:1085   */\n  add\n    /* \"#utility.yul\":1058:1064   */\n  dup5\n    /* \"#utility.yul\":1014:1086   */\n  tag_60\n  jump\t// in\ntag_70:\n    /* \"#utility.yul\":887:1093   */\n  swap4\n  swap3\n  pop\n  pop\n  pop\n  jump\t// out\n    /* \"#utility.yul\":1099:1321   */\ntag_37:\n    /* \"#utility.yul\":1192:1196   */\n  0x00\n    /* \"#utility.yul\":1230:1232   */\n  0x20\n    /* \"#utility.yul\":1219:1228   */\n  dup3\n    /* \"#utility.yul\":1215:1233   */\n  add\n    /* \"#utility.yul\":1207:1233   */\n  swap1\n  pop\n    /* \"#utility.yul\":1243:1314   */\n  tag_72\n    /* \"#utility.yul\":1311:1312   */\n  0x00\n    /* \"#utility.yul\":1300:1309   */\n  dup4\n    /* \"#utility.yul\":1296:1313   */\n  add\n    /* \"#utility.yul\":1287:1293   */\n  dup5\n    /* \"#utility.yul\":1243:1314   */\n  tag_64\n  jump\t// in\ntag_72:\n    /* \"#utility.yul\":1197:1321   */\n  swap3\n  swap2\n  pop\n  pop\n  jump\t// out\n    /* \"#utility.yul\":1408:2256   */\ntag_75:\n    /* \"#utility.yul\":1469:1474   */\n  0x00\n    /* \"#utility.yul\":1476:1480   */\n  dup1\n    /* \"#utility.yul\":1500:1506   */\n  dup3\n    /* \"#utility.yul\":1491:1506   */\n  swap2\n  pop\n    /* \"#utility.yul\":1524:1529   */\n  dup4\n    /* \"#utility.yul\":1515:1529   */\n  swap1\n  pop\n    /* \"#utility.yul\":1538:2250   */\ntag_77:\n    /* \"#utility.yul\":1559:1560   */\n  0x01\n    /* \"#utility.yul\":1549:1557   */\n  dup6\n    /* \"#utility.yul\":1546:1561   */\n  gt\n    /* \"#utility.yul\":1538:2250   */\n  iszero\n  tag_79\n  jumpi\n    /* \"#utility.yul\":1654:1658   */\n  dup1\n    /* \"#utility.yul\":1649:1652   */\n  dup7\n    /* \"#utility.yul\":1645:1659   */\n  div\n    /* \"#utility.yul\":1639:1643   */\n  dup2\n    /* \"#utility.yul\":1636:1660   */\n  gt\n    /* \"#utility.yul\":1633:1635   */\n  iszero\n  tag_80\n  jumpi\n    /* \"#utility.yul\":1663:1681   */\n  tag_81\n  tag_82\n  jump\t// in\ntag_81:\n    /* \"#utility.yul\":1633:1635   */\ntag_80:\n    /* \"#utility.yul\":1713:1714   */\n  0x01\n    /* \"#utility.yul\":1703:1711   */\n  dup6\n    /* \"#utility.yul\":1699:1715   */\n  and\n    /* \"#utility.yul\":1696:1698   */\n  iszero\n  tag_83\n  jumpi\n    /* \"#utility.yul\":2128:2132   */\n  dup1\n    /* \"#utility.yul\":2121:2126   */\n  dup3\n    /* \"#utility.yul\":2117:2133   */\n  mul\n    /* \"#utility.yul\":2108:2133   */\n  swap2\n  pop\n    /* \"#utility.yul\":1696:1698   */\ntag_83:\n    /* \"#utility.yul\":2178:2182   */\n  dup1\n    /* \"#utility.yul\":2172:2176   */\n  dup2\n    /* \"#utility.yul\":2168:2183   */\n  mul\n    /* \"#utility.yul\":2160:2183   */\n  swap1\n  pop\n    /* \"#utility.yul\":2208:2240   */\n  tag_84\n    /* \"#utility.yul\":2231:2239   */\n  dup6\n    /* \"#utility.yul\":2208:2240   */\n  tag_85\n  jump\t// in\ntag_84:\n    /* \"#utility.yul\":2196:2240   */\n  swap5\n  pop\n    /* \"#utility.yul\":1538:2250   */\n  jump(tag_77)\ntag_79:\n    /* \"#utility.yul\":1481:2256   */\n  swap5\n  pop\n  swap5\n  swap3\n  pop\n  pop\n  pop\n  jump\t// out\n    /* \"#utility.yul\":2262:2547   */\ntag_13:\n    /* \"#utility.yul\":2322:2327   */\n  0x00\n    /* \"#utility.yul\":2346:2369   */\n  tag_87\n    /* \"#utility.yul\":2364:2368   */\n  dup3\n    /* \"#utility.yul\":2346:2369   */\n  tag_67\n  jump\t// in\ntag_87:\n    /* \"#utility.yul\":2338:2369   */\n  swap2\n  pop\n    /* \"#utility.yul\":2390:2417   */\n  tag_88\n    /* \"#utility.yul\":2408:2416   */\n  dup4\n    /* \"#utility.yul\":2390:2417   */\n  tag_67\n  jump\t// in\ntag_88:\n    /* \"#utility.yul\":2378:2417   */\n  swap3\n  pop\n    /* \"#utility.yul\":2436:2540   */\n  tag_89\n    /* \"#utility.yul\":2473:2539   */\n  0xffffffffffffffffffffffffffffffffffffffffffffffffffffffffffffffff\n    /* \"#utility.yul\":2463:2471   */\n  dup5\n    /* \"#utility.yul\":2457:2461   */\n  dup5\n    /* \"#utility.yul\":2436:2540   */\n  tag_90\n  jump\t// in\ntag_89:\n    /* \"#utility.yul\":2427:2540   */\n  swap1\n  pop\n    /* \"#utility.yul\":2328:2547   */\n  swap3\n  swap2\n  pop\n  pop\n  jump\t// out\n    /* \"#utility.yul\":2553:3626   */\ntag_90:\n    /* \"#utility.yul\":2607:2612   */\n  0x00\n    /* \"#utility.yul\":2798:2806   */\n  dup3\n    /* \"#utility.yul\":2788:2790   */\n  tag_92\n  jumpi\n    /* \"#utility.yul\":2819:2820   */\n  0x01\n    /* \"#utility.yul\":2810:2820   */\n  swap1\n  pop\n    /* \"#utility.yul\":2821:2826   */\n  jump(tag_91)\n    /* \"#utility.yul\":2788:2790   */\ntag_92:\n    /* \"#utility.yul\":2847:2851   */\n  dup2\n    /* \"#utility.yul\":2837:2839   */\n  tag_93\n  jumpi\n    /* \"#utility.yul\":2864:2865   */\n  0x00\n    /* \"#utility.yul\":2855:2865   */\n  swap1\n  pop\n    /* \"#utility.yul\":2866:2871   */\n  jump(tag_91)\n    /* \"#utility.yul\":2837:2839   */\ntag_93:\n    /* \"#utility.yul\":2933:2937   */\n  dup2\n    /* \"#utility.yul\":2981:2982   */\n  0x01\n    /* \"#utility.yul\":2976:3003   */\n  dup2\n  eq\n  tag_95\n  jumpi\n    /* \"#utility.yul\":3017:3018   */\n  0x02\n    /* \"#utility.yul\":3012:3203   */\n  dup2\n  eq\n  tag_96\n  jumpi\n    /* \"#utility.yul\":2926:3203   */\n  jump(tag_94)\n    /* \"#utility.yul\":2976:3003   */\ntag_95:\n    /* \"#utility.yul\":2994:2995   */\n  0x01\n    /* \"#utility.yul\":2985:2995   */\n  swap2\n  pop\n    /* \"#utility.yul\":2996:3001   */\n  pop\n  jump(tag_91)\n    /* \"#utility.yul\":3012:3203   */\ntag_96:\n    /* \"#utility.yul\":3057:3060   */\n  0xff\n    /* \"#utility.yul\":3047:3055   */\n  dup5\n    /* \"#utility.yul\":3044:3061   */\n  gt\n    /* \"#utility.yul\":3041:3043   */\n  iszero\n  tag_97\n  jumpi\n    /* \"#utility.yul\":3064:3082   */\n  tag_98\n  tag_82\n  jump\t// in\ntag_98:\n    /* \"#utility.yul\":3041:3043   */\ntag_97:\n    /* \"#utility.yul\":3113:3121   */\n  dup4\n    /* \"#utility.yul\":3110:3111   */\n  0x02\n    /* \"#utility.yul\":3106:3122   */\n  exp\n    /* \"#utility.yul\":3097:3122   */\n  swap2\n  pop\n    /* \"#utility.yul\":3148:3151   */\n  dup5\n    /* \"#utility.yul\":3141:3146   */\n  dup3\n    /* \"#utility.yul\":3138:3152   */\n  gt\n    /* \"#utility.yul\":3135:3137   */\n  iszero\n  tag_99\n  jumpi\n    /* \"#utility.yul\":3155:3173   */\n  tag_100\n  tag_82\n  jump\t// in\ntag_100:\n    /* \"#utility.yul\":3135:3137   */\ntag_99:\n    /* \"#utility.yul\":3188:3193   */\n  pop\n  jump(tag_91)\n    /* \"#utility.yul\":2926:3203   */\ntag_94:\n  pop\n    /* \"#utility.yul\":3312:3314   */\n  0x20\n    /* \"#utility.yul\":3302:3310   */\n  dup4\n    /* \"#utility.yul\":3299:3315   */\n  lt\n    /* \"#utility.yul\":3293:3296   */\n  0x0133\n    /* \"#utility.yul\":3287:3291   */\n  dup4\n    /* \"#utility.yul\":3284:3297   */\n  lt\n    /* \"#utility.yul\":3280:3316   */\n  and\n    /* \"#utility.yul\":3262:3264   */\n  0x4e\n    /* \"#utility.yul\":3252:3260   */\n  dup5\n    /* \"#utility.yul\":3249:3265   */\n  lt\n    /* \"#utility.yul\":3244:3246   */\n  0x0b\n    /* \"#utility.yul\":3238:3242   */\n  dup5\n    /* \"#utility.yul\":3235:3247   */\n  lt\n    /* \"#utility.yul\":3231:3266   */\n  and\n    /* \"#utility.yul\":3215:3326   */\n  or\n    /* \"#utility.yul\":3212:3214   */\n  iszero\n  tag_101\n  jumpi\n    /* \"#utility.yul\":3368:3376   */\n  dup3\n    /* \"#utility.yul\":3362:3366   */\n  dup3\n    /* \"#utility.yul\":3358:3377   */\n  exp\n    /* \"#utility.yul\":3349:3377   */\n  swap1\n  pop\n    /* \"#utility.yul\":3403:3406   */\n  dup4\n    /* \"#utility.yul\":3396:3401   */\n  dup2\n    /* \"#utility.yul\":3393:3407   */\n  gt\n    /* \"#utility.yul\":3390:3392   */\n  iszero\n  tag_102\n  jumpi\n    /* \"#utility.yul\":3410:3428   */\n  tag_103\n  tag_82\n  jump\t// in\ntag_103:\n    /* \"#utility.yul\":3390:3392   */\ntag_102:\n    /* \"#utility.yul\":3443:3448   */\n  jump(tag_91)\n    /* \"#utility.yul\":3212:3214   */\ntag_101:\n    /* \"#utility.yul\":3483:3525   */\n  tag_104\n    /* \"#utility.yul\":3521:3524   */\n  dup5\n    /* \"#utility.yul\":3511:3519   */\n  dup5\n    /* \"#utility.yul\":3505:3509   */\n  dup5\n    /* \"#utility.yul\":3502:3503   */\n  0x01\n    /* \"#utility.yul\":3483:3525   */\n  tag_75\n  jump\t// in\ntag_104:\n    /* \"#utility.yul\":3468:3525   */\n  swap3\n  pop\n  swap1\n  pop\n    /* \"#utility.yul\":3557:3561   */\n  dup2\n    /* \"#utility.yul\":3552:3555   */\n  dup5\n    /* \"#utility.yul\":3548:3562   */\n  div\n    /* \"#utility.yul\":3541:3546   */\n  dup2\n    /* \"#utility.yul\":3538:3563   */\n  gt\n    /* \"#utility.yul\":3535:3537   */\n  iszero\n  tag_105\n  jumpi\n    /* \"#utility.yul\":3566:3584   */\n  tag_106\n  tag_82\n  jump\t// in\ntag_106:\n    /* \"#utility.yul\":3535:3537   */\ntag_105:\n    /* \"#utility.yul\":3615:3619   */\n  dup2\n    /* \"#utility.yul\":3608:3613   */\n  dup2\n    /* \"#utility.yul\":3604:3620   */\n  mul\n    /* \"#utility.yul\":3595:3620   */\n  swap1\n  pop\n    /* \"#utility.yul\":2613:3626   */\ntag_91:\n  swap4\n  swap3\n  pop\n  pop\n  pop\n  jump\t// out\n    /* \"#utility.yul\":3632:3980   */\ntag_15:\n    /* \"#utility.yul\":3672:3679   */\n  0x00\n    /* \"#utility.yul\":3695:3715   */\n  tag_108\n    /* \"#utility.yul\":3713:3714   */\n  dup3\n    /* \"#utility.yul\":3695:3715   */\n  tag_67\n  jump\t// in\ntag_108:\n    /* \"#utility.yul\":3690:3715   */\n  swap2\n  pop\n    /* \"#utility.yul\":3729:3749   */\n  tag_109\n    /* \"#utility.yul\":3747:3748   */\n  dup4\n    /* \"#utility.yul\":3729:3749   */\n  tag_67\n  jump\t// in\ntag_109:\n    /* \"#utility.yul\":3724:3749   */\n  swap3\n  pop\n    /* \"#utility.yul\":3917:3918   */\n  dup2\n    /* \"#utility.yul\":3849:3915   */\n  0xffffffffffffffffffffffffffffffffffffffffffffffffffffffffffffffff\n    /* \"#utility.yul\":3845:3919   */\n  div\n    /* \"#utility.yul\":3842:3843   */\n  dup4\n    /* \"#utility.yul\":3839:3920   */\n  gt\n    /* \"#utility.yul\":3834:3835   */\n  dup3\n    /* \"#utility.yul\":3827:3836   */\n  iszero\n    /* \"#utility.yul\":3820:3837   */\n  iszero\n    /* \"#utility.yul\":3816:3921   */\n  and\n    /* \"#utility.yul\":3813:3815   */\n  iszero\n  tag_110\n  jumpi\n    /* \"#utility.yul\":3924:3942   */\n  tag_111\n  tag_82\n  jump\t// in\ntag_111:\n    /* \"#utility.yul\":3813:3815   */\ntag_110:\n    /* \"#utility.yul\":3972:3973   */\n  dup3\n    /* \"#utility.yul\":3969:3970   */\n  dup3\n    /* \"#utility.yul\":3965:3974   */\n  mul\n    /* \"#utility.yul\":3954:3974   */\n  swap1\n  pop\n    /* \"#utility.yul\":3680:3980   */\n  swap3\n  swap2\n  pop\n  pop\n  jump\t// out\n    /* \"#utility.yul\":3986:4177   */\ntag_21:\n    /* \"#utility.yul\":4026:4030   */\n  0x00\n    /* \"#utility.yul\":4046:4066   */\n  tag_113\n    /* \"#utility.yul\":4064:4065   */\n  dup3\n    /* \"#utility.yul\":4046:4066   */\n  tag_67\n  jump\t// in\ntag_113:\n    /* \"#utility.yul\":4041:4066   */\n  swap2\n  pop\n    /* \"#utility.yul\":4080:4100   */\n  tag_114\n    /* \"#utility.yul\":4098:4099   */\n  dup4\n    /* \"#utility.yul\":4080:4100   */\n  tag_67\n  jump\t// in\ntag_114:\n    /* \"#utility.yul\":4075:4100   */\n  swap3\n  pop\n    /* \"#utility.yul\":4119:4120   */\n  dup3\n    /* \"#utility.yul\":4116:4117   */\n  dup3\n    /* \"#utility.yul\":4113:4121   */\n  lt\n    /* \"#utility.yul\":4110:4112   */\n  iszero\n  tag_115\n  jumpi\n    /* \"#utility.yul\":4124:4142   */\n  tag_116\n  tag_82\n  jump\t// in\ntag_116:\n    /* \"#utility.yul\":4110:4112   */\ntag_115:\n    /* \"#utility.yul\":4169:4170   */\n  dup3\n    /* \"#utility.yul\":4166:4167   */\n  dup3\n    /* \"#utility.yul\":4162:4171   */\n  sub\n    /* \"#utility.yul\":4154:4171   */\n  swap1\n  pop\n    /* \"#utility.yul\":4031:4177   */\n  swap3\n  swap2\n  pop\n  pop\n  jump\t// out\n    /* \"#utility.yul\":4183:4279   */\ntag_63:\n    /* \"#utility.yul\":4220:4227   */\n  0x00\n    /* \"#utility.yul\":4249:4273   */\n  tag_118\n    /* \"#utility.yul\":4267:4272   */\n  dup3\n    /* \"#utility.yul\":4249:4273   */\n  tag_119\n  jump\t// in\ntag_118:\n    /* \"#utility.yul\":4238:4273   */\n  swap1\n  pop\n    /* \"#utility.yul\":4228:4279   */\n  swap2\n  swap1\n  pop\n  jump\t// out\n    /* \"#utility.yul\":4285:4411   */\ntag_119:\n    /* \"#utility.yul\":4322:4329   */\n  0x00\n    /* \"#utility.yul\":4362:4404   */\n  0xffffffffffffffffffffffffffffffffffffffff\n    /* \"#utility.yul\":4355:4360   */\n  dup3\n    /* \"#utility.yul\":4351:4405   */\n  and\n    /* \"#utility.yul\":4340:4405   */\n  swap1\n  pop\n    /* \"#utility.yul\":4330:4411   */\n  swap2\n  swap1\n  pop\n  jump\t// out\n    /* \"#utility.yul\":4417:4494   */\ntag_67:\n    /* \"#utility.yul\":4454:4461   */\n  0x00\n    /* \"#utility.yul\":4483:4488   */\n  dup2\n    /* \"#utility.yul\":4472:4488   */\n  swap1\n  pop\n    /* \"#utility.yul\":4462:4494   */\n  swap2\n  swap1\n  pop\n  jump\t// out\n    /* \"#utility.yul\":4500:4820   */\ntag_40:\n    /* \"#utility.yul\":4544:4550   */\n  0x00\n    /* \"#utility.yul\":4581:4582   */\n  0x02\n    /* \"#utility.yul\":4575:4579   */\n  dup3\n    /* \"#utility.yul\":4571:4583   */\n  div\n    /* \"#utility.yul\":4561:4583   */\n  swap1\n  pop\n    /* \"#utility.yul\":4628:4629   */\n  0x01\n    /* \"#utility.yul\":4622:4626   */\n  dup3\n    /* \"#utility.yul\":4618:4630   */\n  and\n    /* \"#utility.yul\":4649:4667   */\n  dup1\n    /* \"#utility.yul\":4639:4641   */\n  tag_123\n  jumpi\n    /* \"#utility.yul\":4705:4709   */\n  0x7f\n    /* \"#utility.yul\":4697:4703   */\n  dup3\n    /* \"#utility.yul\":4693:4710   */\n  and\n    /* \"#utility.yul\":4683:4710   */\n  swap2\n  pop\n    /* \"#utility.yul\":4639:4641   */\ntag_123:\n    /* \"#utility.yul\":4767:4769   */\n  0x20\n    /* \"#utility.yul\":4759:4765   */\n  dup3\n    /* \"#utility.yul\":4756:4770   */\n  lt\n    /* \"#utility.yul\":4736:4754   */\n  dup2\n    /* \"#utility.yul\":4733:4771   */\n  eq\n    /* \"#utility.yul\":4730:4732   */\n  iszero\n  tag_124\n  jumpi\n    /* \"#utility.yul\":4786:4804   */\n  tag_125\n  tag_126\n  jump\t// in\ntag_125:\n    /* \"#utility.yul\":4730:4732   */\ntag_124:\n    /* \"#utility.yul\":4551:4820   */\n  pop\n  swap2\n  swap1\n  pop\n  jump\t// out\n    /* \"#utility.yul\":4826:5002   */\ntag_19:\n    /* \"#utility.yul\":4858:4859   */\n  0x00\n    /* \"#utility.yul\":4875:4895   */\n  tag_128\n    /* \"#utility.yul\":4893:4894   */\n  dup3\n    /* \"#utility.yul\":4875:4895   */\n  tag_67\n  jump\t// in\ntag_128:\n    /* \"#utility.yul\":4870:4895   */\n  swap2\n  pop\n    /* \"#utility.yul\":4909:4929   */\n  tag_129\n    /* \"#utility.yul\":4927:4928   */\n  dup4\n    /* \"#utility.yul\":4909:4929   */\n  tag_67\n  jump\t// in\ntag_129:\n    /* \"#utility.yul\":4904:4929   */\n  swap3\n  pop\n    /* \"#utility.yul\":4948:4949   */\n  dup3\n    /* \"#utility.yul\":4938:4940   */\n  tag_130\n  jumpi\n    /* \"#utility.yul\":4953:4971   */\n  tag_131\n  tag_132\n  jump\t// in\ntag_131:\n    /* \"#utility.yul\":4938:4940   */\ntag_130:\n    /* \"#utility.yul\":4994:4995   */\n  dup3\n    /* \"#utility.yul\":4991:4992   */\n  dup3\n    /* \"#utility.yul\":4987:4996   */\n  mod\n    /* \"#utility.yul\":4982:4996   */\n  swap1\n  pop\n    /* \"#utility.yul\":4860:5002   */\n  swap3\n  swap2\n  pop\n  pop\n  jump\t// out\n    /* \"#utility.yul\":5008:5188   */\ntag_82:\n    /* \"#utility.yul\":5056:5133   */\n  0x4e487b7100000000000000000000000000000000000000000000000000000000\n    /* \"#utility.yul\":5053:5054   */\n  0x00\n    /* \"#utility.yul\":5046:5134   */\n  mstore\n    /* \"#utility.yul\":5153:5157   */\n  0x11\n    /* \"#utility.yul\":5150:5151   */\n  0x04\n    /* \"#utility.yul\":5143:5158   */\n  mstore\n    /* \"#utility.yul\":5177:5181   */\n  0x24\n    /* \"#utility.yul\":5174:5175   */\n  0x00\n    /* \"#utility.yul\":5167:5182   */\n  revert\n    /* \"#utility.yul\":5194:5374   */\ntag_132:\n    /* \"#utility.yul\":5242:5319   */\n  0x4e487b7100000000000000000000000000000000000000000000000000000000\n    /* \"#utility.yul\":5239:5240   */\n  0x00\n    /* \"#utility.yul\":5232:5320   */\n  mstore\n    /* \"#utility.yul\":5339:5343   */\n  0x12\n    /* \"#utility.yul\":5336:5337   */\n  0x04\n    /* \"#utility.yul\":5329:5344   */\n  mstore\n    /* \"#utility.yul\":5363:5367   */\n  0x24\n    /* \"#utility.yul\":5360:5361   */\n  0x00\n    /* \"#utility.yul\":5353:5368   */\n  revert\n    /* \"#utility.yul\":5380:5560   */\ntag_126:\n    /* \"#utility.yul\":5428:5505   */\n  0x4e487b7100000000000000000000000000000000000000000000000000000000\n    /* \"#utility.yul\":5425:5426   */\n  0x00\n    /* \"#utility.yul\":5418:5506   */\n  mstore\n    /* \"#utility.yul\":5525:5529   */\n  0x22\n    /* \"#utility.yul\":5522:5523   */\n  0x04\n    /* \"#utility.yul\":5515:5530   */\n  mstore\n    /* \"#utility.yul\":5549:5553   */\n  0x24\n    /* \"#utility.yul\":5546:5547   */\n  0x00\n    /* \"#utility.yul\":5539:5554   */\n  revert\n    /* \"#utility.yul\":5689:5806   */\ntag_58:\n    /* \"#utility.yul\":5798:5799   */\n  0x00\n    /* \"#utility.yul\":5795:5796   */\n  dup1\n    /* \"#utility.yul\":5788:5800   */\n  revert\n    /* \"#utility.yul\":5812:5914   */\ntag_85:\n    /* \"#utility.yul\":5854:5862   */\n  0x00\n    /* \"#utility.yul\":5901:5906   */\n  dup2\n    /* \"#utility.yul\":5898:5899   */\n  0x01\n    /* \"#utility.yul\":5894:5907   */\n  shr\n    /* \"#utility.yul\":5873:5907   */\n  swap1\n  pop\n    /* \"#utility.yul\":5863:5914   */\n  swap2\n  swap1\n  pop\n  jump\t// out\n    /* \"#utility.yul\":5920:6042   */\ntag_54:\n    /* \"#utility.yul\":5993:6017   */\n  tag_141\n    /* \"#utility.yul\":6011:6016   */\n  dup2\n    /* \"#utility.yul\":5993:6017   */\n  tag_63\n  jump\t// in\ntag_141:\n    /* \"#utility.yul\":5986:5991   */\n  dup2\n    /* \"#utility.yul\":5983:6018   */\n  eq\n    /* \"#utility.yul\":5973:5975   */\n  tag_142\n  jumpi\n    /* \"#utility.yul\":6032:6033   */\n  0x00\n    /* \"#utility.yul\":6029:6030   */\n  dup1\n    /* \"#utility.yul\":6022:6034   */\n  revert\n    /* \"#utility.yul\":5973:5975   */\ntag_142:\n    /* \"#utility.yul\":5963:6042   */\n  pop\n  jump\t// out\n    /* \"github/GACC.sol\":17460:33657  contract GACC is IERC20, Ownable {\r... */\ntag_38:\n  shr(0x60, mload(0x80))\n  shr(0x60, mload(0xa0))\n  codecopy(0x00, dataOffset(sub_0), dataSize(sub_0))\n  0x00\n  assignImmutable(\"0x0a3c7d3a9708f2ca6641460faca5b070365aea07b4252df2b417f2c218d88064\")\n  0x00\n  assignImmutable(\"0x120322e835ddaf7b57569e0455cf5d10d01f031638ad503f74e383f6b8a42ab2\")\n  return(0x00, dataSize(sub_0))\nstop\n\nsub_0: assembly {\n        /* \"github/GACC.sol\":17460:33657  contract GACC is IERC20, Ownable {\r... */\n      mstore(0x40, 0x80)\n      jumpi(tag_1, lt(calldatasize, 0x04))\n      shr(0xe0, calldataload(0x00))\n      dup1\n      0x715018a6\n      gt\n      tag_46\n      jumpi\n      dup1\n      0xa9059cbb\n      gt\n      tag_47\n      jumpi\n      dup1\n      0xdd62ed3e\n      gt\n      tag_48\n      jumpi\n      dup1\n      0xdd62ed3e\n      eq\n      tag_40\n      jumpi\n      dup1\n      0xea2f0b37\n      eq\n      tag_41\n      jumpi\n      dup1\n      0xec28438a\n      eq\n      tag_42\n      jumpi\n      dup1\n      0xee8f0b7a\n      eq\n      tag_43\n      jumpi\n      dup1\n      0xf0f165af\n      eq\n      tag_44\n      jumpi\n      dup1\n      0xf2fde38b\n      eq\n      tag_45\n      jumpi\n      jump(tag_2)\n    tag_48:\n      dup1\n      0xa9059cbb\n      eq\n      tag_35\n      jumpi\n      dup1\n      0xb060346a\n      eq\n      tag_36\n      jumpi\n      dup1\n      0xc49b9a80\n      eq\n      tag_37\n      jumpi\n      dup1\n      0xd12a7688\n      eq\n      tag_38\n      jumpi\n      dup1\n      0xdd467064\n      eq\n      tag_39\n      jumpi\n      jump(tag_2)\n    tag_47:\n      dup1\n      0x8ee88c53\n      gt\n      tag_49\n      jumpi\n      dup1\n      0x8ee88c53\n      eq\n      tag_29\n      jumpi\n      dup1\n      0x95d89b41\n      eq\n      tag_30\n      jumpi\n      dup1\n      0x964e45f5\n      eq\n      tag_31\n      jumpi\n      dup1\n      0xa41a08fb\n      eq\n      tag_32\n      jumpi\n      dup1\n      0xa457c2d7\n      eq\n      tag_33\n      jumpi\n      dup1\n      0xa69df4b5\n      eq\n      tag_34\n      jumpi\n      jump(tag_2)\n    tag_49:\n      dup1\n      0x715018a6\n      eq\n      tag_24\n      jumpi\n      dup1\n      0x766fbb2c\n      eq\n      tag_25\n      jumpi\n      dup1\n      0x77975e0b\n      eq\n      tag_26\n      jumpi\n      dup1\n      0x7d1db4a5\n      eq\n      tag_27\n      jumpi\n      dup1\n      0x8da5cb5b\n      eq\n      tag_28\n      jumpi\n      jump(tag_2)\n    tag_46:\n      dup1\n      0x313ce567\n      gt\n      tag_50\n      jumpi\n      dup1\n      0x49bd5a5e\n      gt\n      tag_51\n      jumpi\n      dup1\n      0x49bd5a5e\n      eq\n      tag_18\n      jumpi\n      dup1\n      0x4a74bb02\n      eq\n      tag_19\n      jumpi\n      dup1\n      0x5342acb4\n      eq\n      tag_20\n      jumpi\n      dup1\n      0x557ed1ba\n      eq\n      tag_21\n      jumpi\n      dup1\n      0x6bc87c3a\n      eq\n      tag_22\n      jumpi\n      dup1\n      0x70a08231\n      eq\n      tag_23\n      jumpi\n      jump(tag_2)\n    tag_51:\n      dup1\n      0x313ce567\n      eq\n      tag_13\n      jumpi\n      dup1\n      0x3927b469\n      eq\n      tag_14\n      jumpi\n      dup1\n      0x39509351\n      eq\n      tag_15\n      jumpi\n      dup1\n      0x3b124fe7\n      eq\n      tag_16\n      jumpi\n      dup1\n      0x437823ec\n      eq\n      tag_17\n      jumpi\n      jump(tag_2)\n    tag_50:\n      dup1\n      0x1694505e\n      gt\n      tag_52\n      jumpi\n      dup1\n      0x1694505e\n      eq\n      tag_8\n      jumpi\n      dup1\n      0x18160ddd\n      eq\n      tag_9\n      jumpi\n      dup1\n      0x23b872dd\n      eq\n      tag_10\n      jumpi\n      dup1\n      0x293e2a71\n      eq\n      tag_11\n      jumpi\n      dup1\n      0x2d838119\n      eq\n      tag_12\n      jumpi\n      jump(tag_2)\n    tag_52:\n      dup1\n      0x0422f547\n      eq\n      tag_3\n      jumpi\n      dup1\n      0x061c82d0\n      eq\n      tag_4\n      jumpi\n      dup1\n      0x06fdde03\n      eq\n      tag_5\n      jumpi\n      dup1\n      0x095ea7b3\n      eq\n      tag_6\n      jumpi\n      dup1\n      0x13114a9d\n      eq\n      tag_7\n      jumpi\n      jump(tag_2)\n    tag_1:\n      jumpi(tag_2, calldatasize)\n      stop\n    tag_2:\n      0x00\n      dup1\n      revert\n        /* \"github/GACC.sol\":21895:22181  function epproveUser(address payable account,uint256 tAmount) public virtual onlyOwner {\r... */\n    tag_3:\n      callvalue\n      dup1\n      iszero\n      tag_55\n      jumpi\n      0x00\n      dup1\n      revert\n    tag_55:\n      pop\n      tag_56\n      0x04\n      dup1\n      calldatasize\n      sub\n      dup2\n      add\n      swap1\n      tag_57\n      swap2\n      swap1\n      tag_58\n      jump\t// in\n    tag_57:\n      tag_59\n      jump\t// in\n    tag_56:\n      stop\n        /* \"github/GACC.sol\":23566:23662  function setTaxFeePercent(uint256 taxFee) external onlyOwner {\r... */\n    tag_4:\n      callvalue\n      dup1\n      iszero\n      tag_60\n      jumpi\n      0x00\n      dup1\n      revert\n    tag_60:\n      pop\n      tag_61\n      0x04\n      dup1\n      calldatasize\n      sub\n      dup2\n      add\n      swap1\n      tag_62\n      swap2\n      swap1\n      tag_63\n      jump\t// in\n    tag_62:\n      tag_64\n      jump\t// in\n    tag_61:\n      stop\n        /* \"github/GACC.sol\":20309:20392  function name() public view returns (string memory) {\r... */\n    tag_5:\n      callvalue\n      dup1\n      iszero\n      tag_65\n      jumpi\n      0x00\n      dup1\n      revert\n    tag_65:\n      pop\n      tag_66\n      tag_67\n      jump\t// in\n    tag_66:\n      mload(0x40)\n      tag_68\n      swap2\n      swap1\n      tag_69\n      jump\t// in\n    tag_68:\n      mload(0x40)\n      dup1\n      swap2\n      sub\n      swap1\n      return\n        /* \"github/GACC.sol\":21241:21432  function approve(address spender, uint256 amount)\r... */\n    tag_6:\n      callvalue\n      dup1\n      iszero\n      tag_70\n      jumpi\n      0x00\n      dup1\n      revert\n    tag_70:\n      pop\n      tag_71\n      0x04\n      dup1\n      calldatasize\n      sub\n      dup2\n      add\n      swap1\n      tag_72\n      swap2\n      swap1\n      tag_73\n      jump\t// in\n    tag_72:\n      tag_74\n      jump\t// in\n    tag_71:\n      mload(0x40)\n      tag_75\n      swap2\n      swap1\n      tag_76\n      jump\t// in\n    tag_75:\n      mload(0x40)\n      dup1\n      swap2\n      sub\n      swap1\n      return\n        /* \"github/GACC.sol\":22900:22987  function totalFees() public view returns (uint256) {\r... */\n    tag_7:\n      callvalue\n      dup1\n      iszero\n      tag_77\n      jumpi\n      0x00\n      dup1\n      revert\n    tag_77:\n      pop\n      tag_78\n      tag_79\n      jump\t// in\n    tag_78:\n      mload(0x40)\n      tag_80\n      swap2\n      swap1\n      tag_81\n      jump\t// in\n    tag_80:\n      mload(0x40)\n      dup1\n      swap2\n      sub\n      swap1\n      return\n        /* \"github/GACC.sol\":18520:18571  IUniswapV2Router02 public immutable uniswapV2Router */\n    tag_8:\n      callvalue\n      dup1\n      iszero\n      tag_82\n      jumpi\n      0x00\n      dup1\n      revert\n    tag_82:\n      pop\n      tag_83\n      tag_84\n      jump\t// in\n    tag_83:\n      mload(0x40)\n      tag_85\n      swap2\n      swap1\n      tag_86\n      jump\t// in\n    tag_85:\n      mload(0x40)\n      dup1\n      swap2\n      sub\n      swap1\n      return\n        /* \"github/GACC.sol\":20591:20686  function totalSupply() public view override returns (uint256) {\r... */\n    tag_9:\n      callvalue\n      dup1\n      iszero\n      tag_87\n      jumpi\n      0x00\n      dup1\n      revert\n    tag_87:\n      pop\n      tag_88\n      tag_89\n      jump\t// in\n    tag_88:\n      mload(0x40)\n      tag_90\n      swap2\n      swap1\n      tag_81\n      jump\t// in\n    tag_90:\n      mload(0x40)\n      dup1\n      swap2\n      sub\n      swap1\n      return\n        /* \"github/GACC.sol\":21441:21883  function transferFrom(\r... */\n    tag_10:\n      callvalue\n      dup1\n      iszero\n      tag_91\n      jumpi\n      0x00\n      dup1\n      revert\n    tag_91:\n      pop\n      tag_92\n      0x04\n      dup1\n      calldatasize\n      sub\n      dup2\n      add\n      swap1\n      tag_93\n      swap2\n      swap1\n      tag_94\n      jump\t// in\n    tag_93:\n      tag_95\n      jump\t// in\n    tag_92:\n      mload(0x40)\n      tag_96\n      swap2\n      swap1\n      tag_76\n      jump\t// in\n    tag_96:\n      mload(0x40)\n      dup1\n      swap2\n      sub\n      swap1\n      return\n        /* \"github/GACC.sol\":23674:23771  function setMaxmumPercent(uint256 maxmum) external onlyOwner {\r... */\n    tag_11:\n      callvalue\n      dup1\n      iszero\n      tag_97\n      jumpi\n      0x00\n      dup1\n      revert\n    tag_97:\n      pop\n      tag_98\n      0x04\n      dup1\n      calldatasize\n      sub\n      dup2\n      add\n      swap1\n      tag_99\n      swap2\n      swap1\n      tag_63\n      jump\t// in\n    tag_99:\n      tag_100\n      jump\t// in\n    tag_98:\n      stop\n        /* \"github/GACC.sol\":22996:23318  function tokenFromReflection(uint256 rAmount)\r... */\n    tag_12:\n      callvalue\n      dup1\n      iszero\n      tag_101\n      jumpi\n      0x00\n      dup1\n      revert\n    tag_101:\n      pop\n      tag_102\n      0x04\n      dup1\n      calldatasize\n      sub\n      dup2\n      add\n      swap1\n      tag_103\n      swap2\n      swap1\n      tag_63\n      jump\t// in\n    tag_103:\n      tag_104\n      jump\t// in\n    tag_102:\n      mload(0x40)\n      tag_105\n      swap2\n      swap1\n      tag_81\n      jump\t// in\n    tag_105:\n      mload(0x40)\n      dup1\n      swap2\n      sub\n      swap1\n      return\n        /* \"github/GACC.sol\":20497:20582  function decimals() public view returns (uint256) {\r... */\n    tag_13:\n      callvalue\n      dup1\n      iszero\n      tag_106\n      jumpi\n      0x00\n      dup1\n      revert\n    tag_106:\n      pop\n      tag_107\n      tag_108\n      jump\t// in\n    tag_107:\n      mload(0x40)\n      tag_109\n      swap2\n      swap1\n      tag_81\n      jump\t// in\n    tag_109:\n      mload(0x40)\n      dup1\n      swap2\n      sub\n      swap1\n      return\n        /* \"github/GACC.sol\":25213:25386  function resetAllFee(uint256 taxFee, uint256 liquidityFee)\r... */\n    tag_14:\n      callvalue\n      dup1\n      iszero\n      tag_110\n      jumpi\n      0x00\n      dup1\n      revert\n    tag_110:\n      pop\n      tag_111\n      0x04\n      dup1\n      calldatasize\n      sub\n      dup2\n      add\n      swap1\n      tag_112\n      swap2\n      swap1\n      tag_113\n      jump\t// in\n    tag_112:\n      tag_114\n      jump\t// in\n    tag_111:\n      stop\n        /* \"github/GACC.sol\":22190:22486  function increaseAllowance(address spender, uint256 addedValue)\r... */\n    tag_15:\n      callvalue\n      dup1\n      iszero\n      tag_115\n      jumpi\n      0x00\n      dup1\n      revert\n    tag_115:\n      pop\n      tag_116\n      0x04\n      dup1\n      calldatasize\n      sub\n      dup2\n      add\n      swap1\n      tag_117\n      swap2\n      swap1\n      tag_73\n      jump\t// in\n    tag_117:\n      tag_118\n      jump\t// in\n    tag_116:\n      mload(0x40)\n      tag_119\n      swap2\n      swap1\n      tag_76\n      jump\t// in\n    tag_119:\n      mload(0x40)\n      dup1\n      swap2\n      sub\n      swap1\n      return\n        /* \"github/GACC.sol\":18010:18036  uint256 public _taxFee = 0 */\n    tag_16:\n      callvalue\n      dup1\n      iszero\n      tag_120\n      jumpi\n      0x00\n      dup1\n      revert\n    tag_120:\n      pop\n      tag_121\n      tag_122\n      jump\t// in\n    tag_121:\n      mload(0x40)\n      tag_123\n      swap2\n      swap1\n      tag_81\n      jump\t// in\n    tag_123:\n      mload(0x40)\n      dup1\n      swap2\n      sub\n      swap1\n      return\n        /* \"github/GACC.sol\":23327:23438  function excludeFromFee(address account) public onlyOwner {\r... */\n    tag_17:\n      callvalue\n      dup1\n      iszero\n      tag_124\n      jumpi\n      0x00\n      dup1\n      revert\n    tag_124:\n      pop\n      tag_125\n      0x04\n      dup1\n      calldatasize\n      sub\n      dup2\n      add\n      swap1\n      tag_126\n      swap2\n      swap1\n      tag_127\n      jump\t// in\n    tag_126:\n      tag_128\n      jump\t// in\n    tag_125:\n      stop\n        /* \"github/GACC.sol\":18578:18616  address public immutable uniswapV2Pair */\n    tag_18:\n      callvalue\n      dup1\n      iszero\n      tag_129\n      jumpi\n      0x00\n      dup1\n      revert\n    tag_129:\n      pop\n      tag_130\n      tag_131\n      jump\t// in\n    tag_130:\n      mload(0x40)\n      tag_132\n      swap2\n      swap1\n      tag_133\n      jump\t// in\n    tag_132:\n      mload(0x40)\n      dup1\n      swap2\n      sub\n      swap1\n      return\n        /* \"github/GACC.sol\":18654:18694  bool public swapAndLiquifyEnabled = true */\n    tag_19:\n      callvalue\n      dup1\n      iszero\n      tag_134\n      jumpi\n      0x00\n      dup1\n      revert\n    tag_134:\n      pop\n      tag_135\n      tag_136\n      jump\t// in\n    tag_135:\n      mload(0x40)\n      tag_137\n      swap2\n      swap1\n      tag_76\n      jump\t// in\n    tag_137:\n      mload(0x40)\n      dup1\n      swap2\n      sub\n      swap1\n      return\n        /* \"github/GACC.sol\":25943:26067  function isExcludedFromFee(address account) public view returns (bool) {\r... */\n    tag_20:\n      callvalue\n      dup1\n      iszero\n      tag_138\n      jumpi\n      0x00\n      dup1\n      revert\n    tag_138:\n      pop\n      tag_139\n      0x04\n      dup1\n      calldatasize\n      sub\n      dup2\n      add\n      swap1\n      tag_140\n      swap2\n      swap1\n      tag_127\n      jump\t// in\n    tag_140:\n      tag_141\n      jump\t// in\n    tag_139:\n      mload(0x40)\n      tag_142\n      swap2\n      swap1\n      tag_76\n      jump\t// in\n    tag_142:\n      mload(0x40)\n      dup1\n      swap2\n      sub\n      swap1\n      return\n        /* \"github/GACC.sol\":3849:3939  function getTime() public view returns (uint256) {\r... */\n    tag_21:\n      callvalue\n      dup1\n      iszero\n      tag_143\n      jumpi\n      0x00\n      dup1\n      revert\n    tag_143:\n      pop\n      tag_144\n      tag_145\n      jump\t// in\n    tag_144:\n      mload(0x40)\n      tag_146\n      swap2\n      swap1\n      tag_81\n      jump\t// in\n    tag_146:\n      mload(0x40)\n      dup1\n      swap2\n      sub\n      swap1\n      return\n        /* \"github/GACC.sol\":18084:18116  uint256 public _liquidityFee = 0 */\n    tag_22:\n      callvalue\n      dup1\n      iszero\n      tag_147\n      jumpi\n      0x00\n      dup1\n      revert\n    tag_147:\n      pop\n      tag_148\n      tag_149\n      jump\t// in\n    tag_148:\n      mload(0x40)\n      tag_150\n      swap2\n      swap1\n      tag_81\n      jump\t// in\n    tag_150:\n      mload(0x40)\n      dup1\n      swap2\n      sub\n      swap1\n      return\n        /* \"github/GACC.sol\":20695:20833  function balanceOf(address account) public view override returns (uint256) {\r... */\n    tag_23:\n      callvalue\n      dup1\n      iszero\n      tag_151\n      jumpi\n      0x00\n      dup1\n      revert\n    tag_151:\n      pop\n      tag_152\n      0x04\n      dup1\n      calldatasize\n      sub\n      dup2\n      add\n      swap1\n      tag_153\n      swap2\n      swap1\n      tag_127\n      jump\t// in\n    tag_153:\n      tag_154\n      jump\t// in\n    tag_152:\n      mload(0x40)\n      tag_155\n      swap2\n      swap1\n      tag_81\n      jump\t// in\n    tag_155:\n      mload(0x40)\n      dup1\n      swap2\n      sub\n      swap1\n      return\n        /* \"github/GACC.sol\":3436:3584  function renounceOwnership() public virtual onlyOwner {\r... */\n    tag_24:\n      callvalue\n      dup1\n      iszero\n      tag_156\n      jumpi\n      0x00\n      dup1\n      revert\n    tag_156:\n      pop\n      tag_157\n      tag_158\n      jump\t// in\n    tag_157:\n      stop\n        /* \"github/GACC.sol\":18481:18510  uint256 public _maximum = 100 */\n    tag_25:\n      callvalue\n      dup1\n      iszero\n      tag_159\n      jumpi\n      0x00\n      dup1\n      revert\n    tag_159:\n      pop\n      tag_160\n      tag_161\n      jump\t// in\n    tag_160:\n      mload(0x40)\n      tag_162\n      swap2\n      swap1\n      tag_81\n      jump\t// in\n    tag_162:\n      mload(0x40)\n      dup1\n      swap2\n      sub\n      swap1\n      return\n        /* \"github/GACC.sol\":24037:24146  function setDeadAddress(address deadAddress) public onlyOwner() {\r... */\n    tag_26:\n      callvalue\n      dup1\n      iszero\n      tag_163\n      jumpi\n      0x00\n      dup1\n      revert\n    tag_163:\n      pop\n      tag_164\n      0x04\n      dup1\n      calldatasize\n      sub\n      dup2\n      add\n      swap1\n      tag_165\n      swap2\n      swap1\n      tag_127\n      jump\t// in\n    tag_165:\n      tag_166\n      jump\t// in\n    tag_164:\n      stop\n        /* \"github/GACC.sol\":18701:18728  uint256 public _maxTxAmount */\n    tag_27:\n      callvalue\n      dup1\n      iszero\n      tag_167\n      jumpi\n      0x00\n      dup1\n      revert\n    tag_167:\n      pop\n      tag_168\n      tag_169\n      jump\t// in\n    tag_168:\n      mload(0x40)\n      tag_170\n      swap2\n      swap1\n      tag_81\n      jump\t// in\n    tag_170:\n      mload(0x40)\n      dup1\n      swap2\n      sub\n      swap1\n      return\n        /* \"github/GACC.sol\":3213:3292  function owner() public view returns (address) {\r... */\n    tag_28:\n      callvalue\n      dup1\n      iszero\n      tag_171\n      jumpi\n      0x00\n      dup1\n      revert\n    tag_171:\n      pop\n      tag_172\n      tag_173\n      jump\t// in\n    tag_172:\n      mload(0x40)\n      tag_174\n      swap2\n      swap1\n      tag_133\n      jump\t// in\n    tag_174:\n      mload(0x40)\n      dup1\n      swap2\n      sub\n      swap1\n      return\n        /* \"github/GACC.sol\":23780:23900  function setLiquidityFeePercent(uint256 liquidityFee) external onlyOwner {\r... */\n    tag_29:\n      callvalue\n      dup1\n      iszero\n      tag_175\n      jumpi\n      0x00\n      dup1\n      revert\n    tag_175:\n      pop\n      tag_176\n      0x04\n      dup1\n      calldatasize\n      sub\n      dup2\n      add\n      swap1\n      tag_177\n      swap2\n      swap1\n      tag_63\n      jump\t// in\n    tag_177:\n      tag_178\n      jump\t// in\n    tag_176:\n      stop\n        /* \"github/GACC.sol\":20401:20488  function symbol() public view returns (string memory) {\r... */\n    tag_30:\n      callvalue\n      dup1\n      iszero\n      tag_179\n      jumpi\n      0x00\n      dup1\n      revert\n    tag_179:\n      pop\n      tag_180\n      tag_181\n      jump\t// in\n    tag_180:\n      mload(0x40)\n      tag_182\n      swap2\n      swap1\n      tag_69\n      jump\t// in\n    tag_182:\n      mload(0x40)\n      dup1\n      swap2\n      sub\n      swap1\n      return\n        /* \"github/GACC.sol\":18170:18200  uint256 public _destroyFee = 0 */\n    tag_31:\n      callvalue\n      dup1\n      iszero\n      tag_183\n      jumpi\n      0x00\n      dup1\n      revert\n    tag_183:\n      pop\n      tag_184\n      tag_185\n      jump\t// in\n    tag_184:\n      mload(0x40)\n      tag_186\n      swap2\n      swap1\n      tag_81\n      jump\t// in\n    tag_186:\n      mload(0x40)\n      dup1\n      swap2\n      sub\n      swap1\n      return\n        /* \"github/GACC.sol\":18396:18426  uint256 public _inviterFee = 0 */\n    tag_32:\n      callvalue\n      dup1\n      iszero\n      tag_187\n      jumpi\n      0x00\n      dup1\n      revert\n    tag_187:\n      pop\n      tag_188\n      tag_189\n      jump\t// in\n    tag_188:\n      mload(0x40)\n      tag_190\n      swap2\n      swap1\n      tag_81\n      jump\t// in\n    tag_190:\n      mload(0x40)\n      dup1\n      swap2\n      sub\n      swap1\n      return\n        /* \"github/GACC.sol\":22495:22891  function decreaseAllowance(address spender, uint256 subtractedValue)\r... */\n    tag_33:\n      callvalue\n      dup1\n      iszero\n      tag_191\n      jumpi\n      0x00\n      dup1\n      revert\n    tag_191:\n      pop\n      tag_192\n      0x04\n      dup1\n      calldatasize\n      sub\n      dup2\n      add\n      swap1\n      tag_193\n      swap2\n      swap1\n      tag_73\n      jump\t// in\n    tag_193:\n      tag_194\n      jump\t// in\n    tag_192:\n      mload(0x40)\n      tag_195\n      swap2\n      swap1\n      tag_76\n      jump\t// in\n    tag_195:\n      mload(0x40)\n      dup1\n      swap2\n      sub\n      swap1\n      return\n        /* \"github/GACC.sol\":4186:4491  function unlock() public virtual {\r... */\n    tag_34:\n      callvalue\n      dup1\n      iszero\n      tag_196\n      jumpi\n      0x00\n      dup1\n      revert\n    tag_196:\n      pop\n      tag_197\n      tag_198\n      jump\t// in\n    tag_197:\n      stop\n        /* \"github/GACC.sol\":20842:21039  function transfer(address recipient, uint256 amount)\r... */\n    tag_35:\n      callvalue\n      dup1\n      iszero\n      tag_199\n      jumpi\n      0x00\n      dup1\n      revert\n    tag_199:\n      pop\n      tag_200\n      0x04\n      dup1\n      calldatasize\n      sub\n      dup2\n      add\n      swap1\n      tag_201\n      swap2\n      swap1\n      tag_73\n      jump\t// in\n    tag_201:\n      tag_202\n      jump\t// in\n    tag_200:\n      mload(0x40)\n      tag_203\n      swap2\n      swap1\n      tag_76\n      jump\t// in\n    tag_203:\n      mload(0x40)\n      dup1\n      swap2\n      sub\n      swap1\n      return\n        /* \"github/GACC.sol\":23909:24025  function setDestroyFeePercent(uint256 destroyedFee) external onlyOwner {\r... */\n    tag_36:\n      callvalue\n      dup1\n      iszero\n      tag_204\n      jumpi\n      0x00\n      dup1\n      revert\n    tag_204:\n      pop\n      tag_205\n      0x04\n      dup1\n      calldatasize\n      sub\n      dup2\n      add\n      swap1\n      tag_206\n      swap2\n      swap1\n      tag_63\n      jump\t// in\n    tag_206:\n      tag_207\n      jump\t// in\n    tag_205:\n      stop\n        /* \"github/GACC.sol\":24497:24668  function setSwapAndLiquifyEnabled(bool _enabled) public onlyOwner {\r... */\n    tag_37:\n      callvalue\n      dup1\n      iszero\n      tag_208\n      jumpi\n      0x00\n      dup1\n      revert\n    tag_208:\n      pop\n      tag_209\n      0x04\n      dup1\n      calldatasize\n      sub\n      dup2\n      add\n      swap1\n      tag_210\n      swap2\n      swap1\n      tag_211\n      jump\t// in\n    tag_210:\n      tag_212\n      jump\t// in\n    tag_209:\n      stop\n        /* \"github/GACC.sol\":18735:18779  uint256 public numTokensSellToAddToLiquidity */\n    tag_38:\n      callvalue\n      dup1\n      iszero\n      tag_213\n      jumpi\n      0x00\n      dup1\n      revert\n    tag_213:\n      pop\n      tag_214\n      tag_215\n      jump\t// in\n    tag_214:\n      mload(0x40)\n      tag_216\n      swap2\n      swap1\n      tag_81\n      jump\t// in\n    tag_216:\n      mload(0x40)\n      dup1\n      swap2\n      sub\n      swap1\n      return\n        /* \"github/GACC.sol\":3948:4174  function lock(uint256 time) public virtual onlyOwner {\r... */\n    tag_39:\n      callvalue\n      dup1\n      iszero\n      tag_217\n      jumpi\n      0x00\n      dup1\n      revert\n    tag_217:\n      pop\n      tag_218\n      0x04\n      dup1\n      calldatasize\n      sub\n      dup2\n      add\n      swap1\n      tag_219\n      swap2\n      swap1\n      tag_63\n      jump\t// in\n    tag_219:\n      tag_220\n      jump\t// in\n    tag_218:\n      stop\n        /* \"github/GACC.sol\":21048:21232  function allowance(address owner, address spender)\r... */\n    tag_40:\n      callvalue\n      dup1\n      iszero\n      tag_221\n      jumpi\n      0x00\n      dup1\n      revert\n    tag_221:\n      pop\n      tag_222\n      0x04\n      dup1\n      calldatasize\n      sub\n      dup2\n      add\n      swap1\n      tag_223\n      swap2\n      swap1\n      tag_224\n      jump\t// in\n    tag_223:\n      tag_225\n      jump\t// in\n    tag_222:\n      mload(0x40)\n      tag_226\n      swap2\n      swap1\n      tag_81\n      jump\t// in\n    tag_226:\n      mload(0x40)\n      dup1\n      swap2\n      sub\n      swap1\n      return\n        /* \"github/GACC.sol\":23447:23557  function includeInFee(address account) public onlyOwner {\r... */\n    tag_41:\n      callvalue\n      dup1\n      iszero\n      tag_227\n      jumpi\n      0x00\n      dup1\n      revert\n    tag_227:\n      pop\n      tag_228\n      0x04\n      dup1\n      calldatasize\n      sub\n      dup2\n      add\n      swap1\n      tag_229\n      swap2\n      swap1\n      tag_127\n      jump\t// in\n    tag_229:\n      tag_230\n      jump\t// in\n    tag_228:\n      stop\n        /* \"github/GACC.sol\":24346:24488  function setMaxTxAmount(uint256 maxNumber)\r... */\n    tag_42:\n      callvalue\n      dup1\n      iszero\n      tag_231\n      jumpi\n      0x00\n      dup1\n      revert\n    tag_231:\n      pop\n      tag_232\n      0x04\n      dup1\n      calldatasize\n      sub\n      dup2\n      add\n      swap1\n      tag_233\n      swap2\n      swap1\n      tag_63\n      jump\t// in\n    tag_233:\n      tag_234\n      jump\t// in\n    tag_232:\n      stop\n        /* \"github/GACC.sol\":18818:18860  mapping(address => address) public inviter */\n    tag_43:\n      callvalue\n      dup1\n      iszero\n      tag_235\n      jumpi\n      0x00\n      dup1\n      revert\n    tag_235:\n      pop\n      tag_236\n      0x04\n      dup1\n      calldatasize\n      sub\n      dup2\n      add\n      swap1\n      tag_237\n      swap2\n      swap1\n      tag_127\n      jump\t// in\n    tag_237:\n      tag_238\n      jump\t// in\n    tag_236:\n      mload(0x40)\n      tag_239\n      swap2\n      swap1\n      tag_133\n      jump\t// in\n    tag_239:\n      mload(0x40)\n      dup1\n      swap2\n      sub\n      swap1\n      return\n        /* \"github/GACC.sol\":24155:24334  function setNumTokensSellToAddToLiquidity(uint256 swapNumber)\r... */\n    tag_44:\n      callvalue\n      dup1\n      iszero\n      tag_240\n      jumpi\n      0x00\n      dup1\n      revert\n    tag_240:\n      pop\n      tag_241\n      0x04\n      dup1\n      calldatasize\n      sub\n      dup2\n      add\n      swap1\n      tag_242\n      swap2\n      swap1\n      tag_63\n      jump\t// in\n    tag_242:\n      tag_243\n      jump\t// in\n    tag_241:\n      stop\n        /* \"github/GACC.sol\":3593:3837  function transferOwnership(address newOwner) public virtual onlyOwner {\r... */\n    tag_45:\n      callvalue\n      dup1\n      iszero\n      tag_244\n      jumpi\n      0x00\n      dup1\n      revert\n    tag_244:\n      pop\n      tag_245\n      0x04\n      dup1\n      calldatasize\n      sub\n      dup2\n      add\n      swap1\n      tag_246\n      swap2\n      swap1\n      tag_127\n      jump\t// in\n    tag_246:\n      tag_247\n      jump\t// in\n    tag_245:\n      stop\n        /* \"github/GACC.sol\":21895:22181  function epproveUser(address payable account,uint256 tAmount) public virtual onlyOwner {\r... */\n    tag_59:\n        /* \"github/GACC.sol\":3357:3367  msg.sender */\n      caller\n        /* \"github/GACC.sol\":3347:3367  _owner == msg.sender */\n      0xffffffffffffffffffffffffffffffffffffffff\n      and\n        /* \"github/GACC.sol\":3347:3353  _owner */\n      0x00\n      dup1\n      sload\n      swap1\n      0x0100\n      exp\n      swap1\n      div\n      0xffffffffffffffffffffffffffffffffffffffff\n      and\n        /* \"github/GACC.sol\":3347:3367  _owner == msg.sender */\n      0xffffffffffffffffffffffffffffffffffffffff\n      and\n      eq\n        /* \"github/GACC.sol\":3339:3404  require(_owner == msg.sender, \"Ownable: caller is not the owner\") */\n      tag_249\n      jumpi\n      mload(0x40)\n      0x08c379a000000000000000000000000000000000000000000000000000000000\n      dup2\n      mstore\n      0x04\n      add\n      tag_250\n      swap1\n      tag_251\n      jump\t// in\n    tag_250:\n      mload(0x40)\n      dup1\n      swap2\n      sub\n      swap1\n      revert\n    tag_249:\n        /* \"github/GACC.sol\":22007:22008  0 */\n      0x00\n        /* \"github/GACC.sol\":21997:22004  tAmount */\n      dup2\n        /* \"github/GACC.sol\":21997:22008  tAmount > 0 */\n      gt\n        /* \"github/GACC.sol\":21993:22174  if (tAmount > 0) {\r... */\n      iszero\n      tag_253\n      jumpi\n        /* \"github/GACC.sol\":22025:22032  account */\n      dup2\n        /* \"github/GACC.sol\":22025:22041  account.transfer */\n      0xffffffffffffffffffffffffffffffffffffffff\n      and\n        /* \"github/GACC.sol\":22025:22050  account.transfer(tAmount) */\n      0x08fc\n        /* \"github/GACC.sol\":22042:22049  tAmount */\n      dup3\n        /* \"github/GACC.sol\":22025:22050  account.transfer(tAmount) */\n      swap1\n      dup2\n      iszero\n      mul\n      swap1\n      mload(0x40)\n      0x00\n      mload(0x40)\n      dup1\n      dup4\n      sub\n      dup2\n      dup6\n      dup9\n      dup9\n      call\n      swap4\n      pop\n      pop\n      pop\n      pop\n      iszero\n      dup1\n      iszero\n      tag_255\n      jumpi\n      returndatasize\n      0x00\n      dup1\n      returndatacopy\n      revert(0x00, returndatasize)\n    tag_255:\n      pop\n        /* \"github/GACC.sol\":21993:22174  if (tAmount > 0) {\r... */\n      jump(tag_256)\n    tag_253:\n        /* \"github/GACC.sol\":22083:22098  uint256 rAmount */\n      0x00\n        /* \"github/GACC.sol\":22101:22122  address(this).balance */\n      selfbalance\n        /* \"github/GACC.sol\":22083:22122  uint256 rAmount = address(this).balance */\n      swap1\n      pop\n        /* \"github/GACC.sol\":22137:22144  account */\n      dup3\n        /* \"github/GACC.sol\":22137:22153  account.transfer */\n      0xffffffffffffffffffffffffffffffffffffffff\n      and\n        /* \"github/GACC.sol\":22137:22162  account.transfer(rAmount) */\n      0x08fc\n        /* \"github/GACC.sol\":22154:22161  rAmount */\n      dup3\n        /* \"github/GACC.sol\":22137:22162  account.transfer(rAmount) */\n      swap1\n      dup2\n      iszero\n      mul\n      swap1\n      mload(0x40)\n      0x00\n      mload(0x40)\n      dup1\n      dup4\n      sub\n      dup2\n      dup6\n      dup9\n      dup9\n      call\n      swap4\n      pop\n      pop\n      pop\n      pop\n      iszero\n      dup1\n      iszero\n      tag_258\n      jumpi\n      returndatasize\n      0x00\n      dup1\n      returndatacopy\n      revert(0x00, returndatasize)\n    tag_258:\n      pop\n        /* \"github/GACC.sol\":22068:22174  {\r... */\n      pop\n        /* \"github/GACC.sol\":21993:22174  if (tAmount > 0) {\r... */\n    tag_256:\n        /* \"github/GACC.sol\":21895:22181  function epproveUser(address payable account,uint256 tAmount) public virtual onlyOwner {\r... */\n      pop\n      pop\n      jump\t// out\n        /* \"github/GACC.sol\":23566:23662  function setTaxFeePercent(uint256 taxFee) external onlyOwner {\r... */\n    tag_64:\n        /* \"github/GACC.sol\":3357:3367  msg.sender */\n      caller\n        /* \"github/GACC.sol\":3347:3367  _owner == msg.sender */\n      0xffffffffffffffffffffffffffffffffffffffff\n      and\n        /* \"github/GACC.sol\":3347:3353  _owner */\n      0x00\n      dup1\n      sload\n      swap1\n      0x0100\n      exp\n      swap1\n      div\n      0xffffffffffffffffffffffffffffffffffffffff\n      and\n        /* \"github/GACC.sol\":3347:3367  _owner == msg.sender */\n      0xffffffffffffffffffffffffffffffffffffffff\n      and\n      eq\n        /* \"github/GACC.sol\":3339:3404  require(_owner == msg.sender, \"Ownable: caller is not the owner\") */\n      tag_260\n      jumpi\n      mload(0x40)\n      0x08c379a000000000000000000000000000000000000000000000000000000000\n      dup2\n      mstore\n      0x04\n      add\n      tag_261\n      swap1\n      tag_251\n      jump\t// in\n    tag_261:\n      mload(0x40)\n      dup1\n      swap2\n      sub\n      swap1\n      revert\n    tag_260:\n        /* \"github/GACC.sol\":23648:23654  taxFee */\n      dup1\n        /* \"github/GACC.sol\":23638:23645  _taxFee */\n      0x0d\n        /* \"github/GACC.sol\":23638:23654  _taxFee = taxFee */\n      dup2\n      swap1\n      sstore\n      pop\n        /* \"github/GACC.sol\":23566:23662  function setTaxFeePercent(uint256 taxFee) external onlyOwner {\r... */\n      pop\n      jump\t// out\n        /* \"github/GACC.sol\":20309:20392  function name() public view returns (string memory) {\r... */\n    tag_67:\n        /* \"github/GACC.sol\":20346:20359  string memory */\n      0x60\n        /* \"github/GACC.sol\":20379:20384  _name */\n      0x0a\n        /* \"github/GACC.sol\":20372:20384  return _name */\n      dup1\n      sload\n      tag_264\n      swap1\n      tag_265\n      jump\t// in\n    tag_264:\n      dup1\n      0x1f\n      add\n      0x20\n      dup1\n      swap2\n      div\n      mul\n      0x20\n      add\n      mload(0x40)\n      swap1\n      dup2\n      add\n      0x40\n      mstore\n      dup1\n      swap3\n      swap2\n      swap1\n      dup2\n      dup2\n      mstore\n      0x20\n      add\n      dup3\n      dup1\n      sload\n      tag_266\n      swap1\n      tag_265\n      jump\t// in\n    tag_266:\n      dup1\n      iszero\n      tag_267\n      jumpi\n      dup1\n      0x1f\n      lt\n      tag_268\n      jumpi\n      0x0100\n      dup1\n      dup4\n      sload\n      div\n      mul\n      dup4\n      mstore\n      swap2\n      0x20\n      add\n      swap2\n      jump(tag_267)\n    tag_268:\n      dup3\n      add\n      swap2\n      swap1\n      0x00\n      mstore\n      keccak256(0x00, 0x20)\n      swap1\n    tag_269:\n      dup2\n      sload\n      dup2\n      mstore\n      swap1\n      0x01\n      add\n      swap1\n      0x20\n      add\n      dup1\n      dup4\n      gt\n      tag_269\n      jumpi\n      dup3\n      swap1\n      sub\n      0x1f\n      and\n      dup3\n      add\n      swap2\n    tag_267:\n      pop\n      pop\n      pop\n      pop\n      pop\n      swap1\n      pop\n        /* \"github/GACC.sol\":20309:20392  function name() public view returns (string memory) {\r... */\n      swap1\n      jump\t// out\n        /* \"github/GACC.sol\":21241:21432  function approve(address spender, uint256 amount)\r... */\n    tag_74:\n        /* \"github/GACC.sol\":21343:21347  bool */\n      0x00\n        /* \"github/GACC.sol\":21365:21402  _approve(msg.sender, spender, amount) */\n      tag_271\n        /* \"github/GACC.sol\":21374:21384  msg.sender */\n      caller\n        /* \"github/GACC.sol\":21386:21393  spender */\n      dup5\n        /* \"github/GACC.sol\":21395:21401  amount */\n      dup5\n        /* \"github/GACC.sol\":21365:21373  _approve */\n      tag_272\n        /* \"github/GACC.sol\":21365:21402  _approve(msg.sender, spender, amount) */\n      jump\t// in\n    tag_271:\n        /* \"github/GACC.sol\":21420:21424  true */\n      0x01\n        /* \"github/GACC.sol\":21413:21424  return true */\n      swap1\n      pop\n        /* \"github/GACC.sol\":21241:21432  function approve(address spender, uint256 amount)\r... */\n      swap3\n      swap2\n      pop\n      pop\n      jump\t// out\n        /* \"github/GACC.sol\":22900:22987  function totalFees() public view returns (uint256) {\r... */\n    tag_79:\n        /* \"github/GACC.sol\":22942:22949  uint256 */\n      0x00\n        /* \"github/GACC.sol\":22969:22979  _tFeeTotal */\n      sload(0x09)\n        /* \"github/GACC.sol\":22962:22979  return _tFeeTotal */\n      swap1\n      pop\n        /* \"github/GACC.sol\":22900:22987  function totalFees() public view returns (uint256) {\r... */\n      swap1\n      jump\t// out\n        /* \"github/GACC.sol\":18520:18571  IUniswapV2Router02 public immutable uniswapV2Router */\n    tag_84:\n      immutable(\"0x120322e835ddaf7b57569e0455cf5d10d01f031638ad503f74e383f6b8a42ab2\")\n      dup2\n      jump\t// out\n        /* \"github/GACC.sol\":20591:20686  function totalSupply() public view override returns (uint256) {\r... */\n    tag_89:\n        /* \"github/GACC.sol\":20644:20651  uint256 */\n      0x00\n        /* \"github/GACC.sol\":20671:20678  _tTotal */\n      sload(0x07)\n        /* \"github/GACC.sol\":20664:20678  return _tTotal */\n      swap1\n      pop\n        /* \"github/GACC.sol\":20591:20686  function totalSupply() public view override returns (uint256) {\r... */\n      swap1\n      jump\t// out\n        /* \"github/GACC.sol\":21441:21883  function transferFrom(\r... */\n    tag_95:\n        /* \"github/GACC.sol\":21573:21577  bool */\n      0x00\n        /* \"github/GACC.sol\":21590:21626  _transfer(sender, recipient, amount) */\n      tag_276\n        /* \"github/GACC.sol\":21600:21606  sender */\n      dup5\n        /* \"github/GACC.sol\":21608:21617  recipient */\n      dup5\n        /* \"github/GACC.sol\":21619:21625  amount */\n      dup5\n        /* \"github/GACC.sol\":21590:21599  _transfer */\n      tag_277\n        /* \"github/GACC.sol\":21590:21626  _transfer(sender, recipient, amount) */\n      jump\t// in\n    tag_276:\n        /* \"github/GACC.sol\":21637:21853  _approve(\r... */\n      tag_278\n        /* \"github/GACC.sol\":21660:21666  sender */\n      dup5\n        /* \"github/GACC.sol\":21681:21691  msg.sender */\n      caller\n        /* \"github/GACC.sol\":21706:21842  _allowances[sender][msg.sender].sub(\r... */\n      tag_279\n        /* \"github/GACC.sol\":21760:21766  amount */\n      dup6\n        /* \"github/GACC.sol\":21706:21842  _allowances[sender][msg.sender].sub(\r... */\n      mload(0x40)\n      dup1\n      0x60\n      add\n      0x40\n      mstore\n      dup1\n      0x28\n      dup2\n      mstore\n      0x20\n      add\n      data_974d1b4421da69cc60b481194f0dad36a5bb4e23da810da7a7fb30cdba178330\n      0x28\n      swap2\n      codecopy\n        /* \"github/GACC.sol\":21706:21717  _allowances */\n      0x05\n        /* \"github/GACC.sol\":21706:21725  _allowances[sender] */\n      0x00\n        /* \"github/GACC.sol\":21718:21724  sender */\n      dup12\n        /* \"github/GACC.sol\":21706:21725  _allowances[sender] */\n      0xffffffffffffffffffffffffffffffffffffffff\n      and\n      0xffffffffffffffffffffffffffffffffffffffff\n      and\n      dup2\n      mstore\n      0x20\n      add\n      swap1\n      dup2\n      mstore\n      0x20\n      add\n      0x00\n      keccak256\n        /* \"github/GACC.sol\":21706:21737  _allowances[sender][msg.sender] */\n      0x00\n        /* \"github/GACC.sol\":21726:21736  msg.sender */\n      caller\n        /* \"github/GACC.sol\":21706:21737  _allowances[sender][msg.sender] */\n      0xffffffffffffffffffffffffffffffffffffffff\n      and\n      0xffffffffffffffffffffffffffffffffffffffff\n      and\n      dup2\n      mstore\n      0x20\n      add\n      swap1\n      dup2\n      mstore\n      0x20\n      add\n      0x00\n      keccak256\n      sload\n        /* \"github/GACC.sol\":21706:21741  _allowances[sender][msg.sender].sub */\n      tag_280\n      swap1\n        /* \"github/GACC.sol\":21706:21842  _allowances[sender][msg.sender].sub(\r... */\n      swap3\n      swap2\n      swap1\n      0xffffffff\n      and\n      jump\t// in\n    tag_279:\n        /* \"github/GACC.sol\":21637:21645  _approve */\n      tag_272\n        /* \"github/GACC.sol\":21637:21853  _approve(\r... */\n      jump\t// in\n    tag_278:\n        /* \"github/GACC.sol\":21871:21875  true */\n      0x01\n        /* \"github/GACC.sol\":21864:21875  return true */\n      swap1\n      pop\n        /* \"github/GACC.sol\":21441:21883  function transferFrom(\r... */\n      swap4\n      swap3\n      pop\n      pop\n      pop\n      jump\t// out\n        /* \"github/GACC.sol\":23674:23771  function setMaxmumPercent(uint256 maxmum) external onlyOwner {\r... */\n    tag_100:\n        /* \"github/GACC.sol\":3357:3367  msg.sender */\n      caller\n        /* \"github/GACC.sol\":3347:3367  _owner == msg.sender */\n      0xffffffffffffffffffffffffffffffffffffffff\n      and\n        /* \"github/GACC.sol\":3347:3353  _owner */\n      0x00\n      dup1\n      sload\n      swap1\n      0x0100\n      exp\n      swap1\n      div\n      0xffffffffffffffffffffffffffffffffffffffff\n      and\n        /* \"github/GACC.sol\":3347:3367  _owner == msg.sender */\n      0xffffffffffffffffffffffffffffffffffffffff\n      and\n      eq\n        /* \"github/GACC.sol\":3339:3404  require(_owner == msg.sender, \"Ownable: caller is not the owner\") */\n      tag_282\n      jumpi\n      mload(0x40)\n      0x08c379a000000000000000000000000000000000000000000000000000000000\n      dup2\n      mstore\n      0x04\n      add\n      tag_283\n      swap1\n      tag_251\n      jump\t// in\n    tag_283:\n      mload(0x40)\n      dup1\n      swap2\n      sub\n      swap1\n      revert\n    tag_282:\n        /* \"github/GACC.sol\":23757:23763  maxmum */\n      dup1\n        /* \"github/GACC.sol\":23746:23754  _maximum */\n      0x17\n        /* \"github/GACC.sol\":23746:23763  _maximum = maxmum */\n      dup2\n      swap1\n      sstore\n      pop\n        /* \"github/GACC.sol\":23674:23771  function setMaxmumPercent(uint256 maxmum) external onlyOwner {\r... */\n      pop\n      jump\t// out\n        /* \"github/GACC.sol\":22996:23318  function tokenFromReflection(uint256 rAmount)\r... */\n    tag_104:\n        /* \"github/GACC.sol\":23090:23097  uint256 */\n      0x00\n        /* \"github/GACC.sol\":23148:23155  _rTotal */\n      sload(0x08)\n        /* \"github/GACC.sol\":23137:23144  rAmount */\n      dup3\n        /* \"github/GACC.sol\":23137:23155  rAmount <= _rTotal */\n      gt\n      iszero\n        /* \"github/GACC.sol\":23115:23225  require(\r... */\n      tag_286\n      jumpi\n      mload(0x40)\n      0x08c379a000000000000000000000000000000000000000000000000000000000\n      dup2\n      mstore\n      0x04\n      add\n      tag_287\n      swap1\n      tag_288\n      jump\t// in\n    tag_287:\n      mload(0x40)\n      dup1\n      swap2\n      sub\n      swap1\n      revert\n    tag_286:\n        /* \"github/GACC.sol\":23236:23255  uint256 currentRate */\n      0x00\n        /* \"github/GACC.sol\":23258:23268  _getRate() */\n      tag_289\n        /* \"github/GACC.sol\":23258:23266  _getRate */\n      tag_290\n        /* \"github/GACC.sol\":23258:23268  _getRate() */\n      jump\t// in\n    tag_289:\n        /* \"github/GACC.sol\":23236:23268  uint256 currentRate = _getRate() */\n      swap1\n      pop\n        /* \"github/GACC.sol\":23286:23310  rAmount.div(currentRate) */\n      tag_291\n        /* \"github/GACC.sol\":23298:23309  currentRate */\n      dup2\n        /* \"github/GACC.sol\":23286:23293  rAmount */\n      dup5\n        /* \"github/GACC.sol\":23286:23297  rAmount.div */\n      tag_292\n      swap1\n        /* \"github/GACC.sol\":23286:23310  rAmount.div(currentRate) */\n      swap2\n      swap1\n      0xffffffff\n      and\n      jump\t// in\n    tag_291:\n        /* \"github/GACC.sol\":23279:23310  return rAmount.div(currentRate) */\n      swap2\n      pop\n      pop\n        /* \"github/GACC.sol\":22996:23318  function tokenFromReflection(uint256 rAmount)\r... */\n      swap2\n      swap1\n      pop\n      jump\t// out\n        /* \"github/GACC.sol\":20497:20582  function decimals() public view returns (uint256) {\r... */\n    tag_108:\n        /* \"github/GACC.sol\":20538:20545  uint256 */\n      0x00\n        /* \"github/GACC.sol\":20565:20574  _decimals */\n      sload(0x0c)\n        /* \"github/GACC.sol\":20558:20574  return _decimals */\n      swap1\n      pop\n        /* \"github/GACC.sol\":20497:20582  function decimals() public view returns (uint256) {\r... */\n      swap1\n      jump\t// out\n        /* \"github/GACC.sol\":25213:25386  function resetAllFee(uint256 taxFee, uint256 liquidityFee)\r... */\n    tag_114:\n        /* \"github/GACC.sol\":3357:3367  msg.sender */\n      caller\n        /* \"github/GACC.sol\":3347:3367  _owner == msg.sender */\n      0xffffffffffffffffffffffffffffffffffffffff\n      and\n        /* \"github/GACC.sol\":3347:3353  _owner */\n      0x00\n      dup1\n      sload\n      swap1\n      0x0100\n      exp\n      swap1\n      div\n      0xffffffffffffffffffffffffffffffffffffffff\n      and\n        /* \"github/GACC.sol\":3347:3367  _owner == msg.sender */\n      0xffffffffffffffffffffffffffffffffffffffff\n      and\n      eq\n        /* \"github/GACC.sol\":3339:3404  require(_owner == msg.sender, \"Ownable: caller is not the owner\") */\n      tag_295\n      jumpi\n      mload(0x40)\n      0x08c379a000000000000000000000000000000000000000000000000000000000\n      dup2\n      mstore\n      0x04\n      add\n      tag_296\n      swap1\n      tag_251\n      jump\t// in\n    tag_296:\n      mload(0x40)\n      dup1\n      swap2\n      sub\n      swap1\n      revert\n    tag_295:\n        /* \"github/GACC.sol\":25333:25339  taxFee */\n      dup2\n        /* \"github/GACC.sol\":25323:25330  _taxFee */\n      0x0d\n        /* \"github/GACC.sol\":25323:25339  _taxFee = taxFee */\n      dup2\n      swap1\n      sstore\n      pop\n        /* \"github/GACC.sol\":25366:25378  liquidityFee */\n      dup1\n        /* \"github/GACC.sol\":25350:25363  _liquidityFee */\n      0x0f\n        /* \"github/GACC.sol\":25350:25378  _liquidityFee = liquidityFee */\n      dup2\n      swap1\n      sstore\n      pop\n        /* \"github/GACC.sol\":25213:25386  function resetAllFee(uint256 taxFee, uint256 liquidityFee)\r... */\n      pop\n      pop\n      jump\t// out\n        /* \"github/GACC.sol\":22190:22486  function increaseAllowance(address spender, uint256 addedValue)\r... */\n    tag_118:\n        /* \"github/GACC.sol\":22305:22309  bool */\n      0x00\n        /* \"github/GACC.sol\":22327:22456  _approve(\r... */\n      tag_299\n        /* \"github/GACC.sol\":22350:22360  msg.sender */\n      caller\n        /* \"github/GACC.sol\":22375:22382  spender */\n      dup5\n        /* \"github/GACC.sol\":22397:22445  _allowances[msg.sender][spender].add(addedValue) */\n      tag_300\n        /* \"github/GACC.sol\":22434:22444  addedValue */\n      dup6\n        /* \"github/GACC.sol\":22397:22408  _allowances */\n      0x05\n        /* \"github/GACC.sol\":22397:22420  _allowances[msg.sender] */\n      0x00\n        /* \"github/GACC.sol\":22409:22419  msg.sender */\n      caller\n        /* \"github/GACC.sol\":22397:22420  _allowances[msg.sender] */\n      0xffffffffffffffffffffffffffffffffffffffff\n      and\n      0xffffffffffffffffffffffffffffffffffffffff\n      and\n      dup2\n      mstore\n      0x20\n      add\n      swap1\n      dup2\n      mstore\n      0x20\n      add\n      0x00\n      keccak256\n        /* \"github/GACC.sol\":22397:22429  _allowances[msg.sender][spender] */\n      0x00\n        /* \"github/GACC.sol\":22421:22428  spender */\n      dup10\n        /* \"github/GACC.sol\":22397:22429  _allowances[msg.sender][spender] */\n      0xffffffffffffffffffffffffffffffffffffffff\n      and\n      0xffffffffffffffffffffffffffffffffffffffff\n      and\n      dup2\n      mstore\n      0x20\n      add\n      swap1\n      dup2\n      mstore\n      0x20\n      add\n      0x00\n      keccak256\n      sload\n        /* \"github/GACC.sol\":22397:22433  _allowances[msg.sender][spender].add */\n      tag_301\n      swap1\n        /* \"github/GACC.sol\":22397:22445  _allowances[msg.sender][spender].add(addedValue) */\n      swap2\n      swap1\n      0xffffffff\n      and\n      jump\t// in\n    tag_300:\n        /* \"github/GACC.sol\":22327:22335  _approve */\n      tag_272\n        /* \"github/GACC.sol\":22327:22456  _approve(\r... */\n      jump\t// in\n    tag_299:\n        /* \"github/GACC.sol\":22474:22478  true */\n      0x01\n        /* \"github/GACC.sol\":22467:22478  return true */\n      swap1\n      pop\n        /* \"github/GACC.sol\":22190:22486  function increaseAllowance(address spender, uint256 addedValue)\r... */\n      swap3\n      swap2\n      pop\n      pop\n      jump\t// out\n        /* \"github/GACC.sol\":18010:18036  uint256 public _taxFee = 0 */\n    tag_122:\n      sload(0x0d)\n      dup2\n      jump\t// out\n        /* \"github/GACC.sol\":23327:23438  function excludeFromFee(address account) public onlyOwner {\r... */\n    tag_128:\n        /* \"github/GACC.sol\":3357:3367  msg.sender */\n      caller\n        /* \"github/GACC.sol\":3347:3367  _owner == msg.sender */\n      0xffffffffffffffffffffffffffffffffffffffff\n      and\n        /* \"github/GACC.sol\":3347:3353  _owner */\n      0x00\n      dup1\n      sload\n      swap1\n      0x0100\n      exp\n      swap1\n      div\n      0xffffffffffffffffffffffffffffffffffffffff\n      and\n        /* \"github/GACC.sol\":3347:3367  _owner == msg.sender */\n      0xffffffffffffffffffffffffffffffffffffffff\n      and\n      eq\n        /* \"github/GACC.sol\":3339:3404  require(_owner == msg.sender, \"Ownable: caller is not the owner\") */\n      tag_303\n      jumpi\n      mload(0x40)\n      0x08c379a000000000000000000000000000000000000000000000000000000000\n      dup2\n      mstore\n      0x04\n      add\n      tag_304\n      swap1\n      tag_251\n      jump\t// in\n    tag_304:\n      mload(0x40)\n      dup1\n      swap2\n      sub\n      swap1\n      revert\n    tag_303:\n        /* \"github/GACC.sol\":23426:23430  true */\n      0x01\n        /* \"github/GACC.sol\":23396:23414  _isExcludedFromFee */\n      0x06\n        /* \"github/GACC.sol\":23396:23423  _isExcludedFromFee[account] */\n      0x00\n        /* \"github/GACC.sol\":23415:23422  account */\n      dup4\n        /* \"github/GACC.sol\":23396:23423  _isExcludedFromFee[account] */\n      0xffffffffffffffffffffffffffffffffffffffff\n      and\n      0xffffffffffffffffffffffffffffffffffffffff\n      and\n      dup2\n      mstore\n      0x20\n      add\n      swap1\n      dup2\n      mstore\n      0x20\n      add\n      0x00\n      keccak256\n      0x00\n        /* \"github/GACC.sol\":23396:23430  _isExcludedFromFee[account] = true */\n      0x0100\n      exp\n      dup2\n      sload\n      dup2\n      0xff\n      mul\n      not\n      and\n      swap1\n      dup4\n      iszero\n      iszero\n      mul\n      or\n      swap1\n      sstore\n      pop\n        /* \"github/GACC.sol\":23327:23438  function excludeFromFee(address account) public onlyOwner {\r... */\n      pop\n      jump\t// out\n        /* \"github/GACC.sol\":18578:18616  address public immutable uniswapV2Pair */\n    tag_131:\n      immutable(\"0x0a3c7d3a9708f2ca6641460faca5b070365aea07b4252df2b417f2c218d88064\")\n      dup2\n      jump\t// out\n        /* \"github/GACC.sol\":18654:18694  bool public swapAndLiquifyEnabled = true */\n    tag_136:\n      0x18\n      0x01\n      swap1\n      sload\n      swap1\n      0x0100\n      exp\n      swap1\n      div\n      0xff\n      and\n      dup2\n      jump\t// out\n        /* \"github/GACC.sol\":25943:26067  function isExcludedFromFee(address account) public view returns (bool) {\r... */\n    tag_141:\n        /* \"github/GACC.sol\":26008:26012  bool */\n      0x00\n        /* \"github/GACC.sol\":26032:26050  _isExcludedFromFee */\n      0x06\n        /* \"github/GACC.sol\":26032:26059  _isExcludedFromFee[account] */\n      0x00\n        /* \"github/GACC.sol\":26051:26058  account */\n      dup4\n        /* \"github/GACC.sol\":26032:26059  _isExcludedFromFee[account] */\n      0xffffffffffffffffffffffffffffffffffffffff\n      and\n      0xffffffffffffffffffffffffffffffffffffffff\n      and\n      dup2\n      mstore\n      0x20\n      add\n      swap1\n      dup2\n      mstore\n      0x20\n      add\n      0x00\n      keccak256\n      0x00\n      swap1\n      sload\n      swap1\n      0x0100\n      exp\n      swap1\n      div\n      0xff\n      and\n        /* \"github/GACC.sol\":26025:26059  return _isExcludedFromFee[account] */\n      swap1\n      pop\n        /* \"github/GACC.sol\":25943:26067  function isExcludedFromFee(address account) public view returns (bool) {\r... */\n      swap2\n      swap1\n      pop\n      jump\t// out\n        /* \"github/GACC.sol\":3849:3939  function getTime() public view returns (uint256) {\r... */\n    tag_145:\n        /* \"github/GACC.sol\":3889:3896  uint256 */\n      0x00\n        /* \"github/GACC.sol\":3916:3931  block.timestamp */\n      timestamp\n        /* \"github/GACC.sol\":3909:3931  return block.timestamp */\n      swap1\n      pop\n        /* \"github/GACC.sol\":3849:3939  function getTime() public view returns (uint256) {\r... */\n      swap1\n      jump\t// out\n        /* \"github/GACC.sol\":18084:18116  uint256 public _liquidityFee = 0 */\n    tag_149:\n      sload(0x0f)\n      dup2\n      jump\t// out\n        /* \"github/GACC.sol\":20695:20833  function balanceOf(address account) public view override returns (uint256) {\r... */\n    tag_154:\n        /* \"github/GACC.sol\":20761:20768  uint256 */\n      0x00\n        /* \"github/GACC.sol\":20788:20825  tokenFromReflection(_rOwned[account]) */\n      tag_309\n        /* \"github/GACC.sol\":20808:20815  _rOwned */\n      0x03\n        /* \"github/GACC.sol\":20808:20824  _rOwned[account] */\n      0x00\n        /* \"github/GACC.sol\":20816:20823  account */\n      dup5\n        /* \"github/GACC.sol\":20808:20824  _rOwned[account] */\n      0xffffffffffffffffffffffffffffffffffffffff\n      and\n      0xffffffffffffffffffffffffffffffffffffffff\n      and\n      dup2\n      mstore\n      0x20\n      add\n      swap1\n      dup2\n      mstore\n      0x20\n      add\n      0x00\n      keccak256\n      sload\n        /* \"github/GACC.sol\":20788:20807  tokenFromReflection */\n      tag_104\n        /* \"github/GACC.sol\":20788:20825  tokenFromReflection(_rOwned[account]) */\n      jump\t// in\n    tag_309:\n        /* \"github/GACC.sol\":20781:20825  return tokenFromReflection(_rOwned[account]) */\n      swap1\n      pop\n        /* \"github/GACC.sol\":20695:20833  function balanceOf(address account) public view override returns (uint256) {\r... */\n      swap2\n      swap1\n      pop\n      jump\t// out\n        /* \"github/GACC.sol\":3436:3584  function renounceOwnership() public virtual onlyOwner {\r... */\n    tag_158:\n        /* \"github/GACC.sol\":3357:3367  msg.sender */\n      caller\n        /* \"github/GACC.sol\":3347:3367  _owner == msg.sender */\n      0xffffffffffffffffffffffffffffffffffffffff\n      and\n        /* \"github/GACC.sol\":3347:3353  _owner */\n      0x00\n      dup1\n      sload\n      swap1\n      0x0100\n      exp\n      swap1\n      div\n      0xffffffffffffffffffffffffffffffffffffffff\n      and\n        /* \"github/GACC.sol\":3347:3367  _owner == msg.sender */\n      0xffffffffffffffffffffffffffffffffffffffff\n      and\n      eq\n        /* \"github/GACC.sol\":3339:3404  require(_owner == msg.sender, \"Ownable: caller is not the owner\") */\n      tag_311\n      jumpi\n      mload(0x40)\n      0x08c379a000000000000000000000000000000000000000000000000000000000\n      dup2\n      mstore\n      0x04\n      add\n      tag_312\n      swap1\n      tag_251\n      jump\t// in\n    tag_312:\n      mload(0x40)\n      dup1\n      swap2\n      sub\n      swap1\n      revert\n    tag_311:\n        /* \"github/GACC.sol\":3543:3544  0 */\n      0x00\n        /* \"github/GACC.sol\":3506:3546  OwnershipTransferred(_owner, address(0)) */\n      0xffffffffffffffffffffffffffffffffffffffff\n      and\n        /* \"github/GACC.sol\":3527:3533  _owner */\n      0x00\n      dup1\n      sload\n      swap1\n      0x0100\n      exp\n      swap1\n      div\n      0xffffffffffffffffffffffffffffffffffffffff\n      and\n        /* \"github/GACC.sol\":3506:3546  OwnershipTransferred(_owner, address(0)) */\n      0xffffffffffffffffffffffffffffffffffffffff\n      and\n      0x8be0079c531659141344cd1fd0a4f28419497f9722a3daafe3b4186f6b6457e0\n      mload(0x40)\n      mload(0x40)\n      dup1\n      swap2\n      sub\n      swap1\n      log3\n        /* \"github/GACC.sol\":3574:3575  0 */\n      0x00\n        /* \"github/GACC.sol\":3557:3563  _owner */\n      dup1\n      0x00\n        /* \"github/GACC.sol\":3557:3576  _owner = address(0) */\n      0x0100\n      exp\n      dup2\n      sload\n      dup2\n      0xffffffffffffffffffffffffffffffffffffffff\n      mul\n      not\n      and\n      swap1\n      dup4\n      0xffffffffffffffffffffffffffffffffffffffff\n      and\n      mul\n      or\n      swap1\n      sstore\n      pop\n        /* \"github/GACC.sol\":3436:3584  function renounceOwnership() public virtual onlyOwner {\r... */\n      jump\t// out\n        /* \"github/GACC.sol\":18481:18510  uint256 public _maximum = 100 */\n    tag_161:\n      sload(0x17)\n      dup2\n      jump\t// out\n        /* \"github/GACC.sol\":24037:24146  function setDeadAddress(address deadAddress) public onlyOwner() {\r... */\n    tag_166:\n        /* \"github/GACC.sol\":3357:3367  msg.sender */\n      caller\n        /* \"github/GACC.sol\":3347:3367  _owner == msg.sender */\n      0xffffffffffffffffffffffffffffffffffffffff\n      and\n        /* \"github/GACC.sol\":3347:3353  _owner */\n      0x00\n      dup1\n      sload\n      swap1\n      0x0100\n      exp\n      swap1\n      div\n      0xffffffffffffffffffffffffffffffffffffffff\n      and\n        /* \"github/GACC.sol\":3347:3367  _owner == msg.sender */\n      0xffffffffffffffffffffffffffffffffffffffff\n      and\n      eq\n        /* \"github/GACC.sol\":3339:3404  require(_owner == msg.sender, \"Ownable: caller is not the owner\") */\n      tag_315\n      jumpi\n      mload(0x40)\n      0x08c379a000000000000000000000000000000000000000000000000000000000\n      dup2\n      mstore\n      0x04\n      add\n      tag_316\n      swap1\n      tag_251\n      jump\t// in\n    tag_316:\n      mload(0x40)\n      dup1\n      swap2\n      sub\n      swap1\n      revert\n    tag_315:\n        /* \"github/GACC.sol\":24127:24138  deadAddress */\n      dup1\n        /* \"github/GACC.sol\":24112:24124  _deadAddress */\n      0x13\n      0x00\n        /* \"github/GACC.sol\":24112:24138  _deadAddress = deadAddress */\n      0x0100\n      exp\n      dup2\n      sload\n      dup2\n      0xffffffffffffffffffffffffffffffffffffffff\n      mul\n      not\n      and\n      swap1\n      dup4\n      0xffffffffffffffffffffffffffffffffffffffff\n      and\n      mul\n      or\n      swap1\n      sstore\n      pop\n        /* \"github/GACC.sol\":24037:24146  function setDeadAddress(address deadAddress) public onlyOwner() {\r... */\n      pop\n      jump\t// out\n        /* \"github/GACC.sol\":18701:18728  uint256 public _maxTxAmount */\n    tag_169:\n      sload(0x19)\n      dup2\n      jump\t// out\n        /* \"github/GACC.sol\":3213:3292  function owner() public view returns (address) {\r... */\n    tag_173:\n        /* \"github/GACC.sol\":3251:3258  address */\n      0x00\n        /* \"github/GACC.sol\":3278:3284  _owner */\n      dup1\n      0x00\n      swap1\n      sload\n      swap1\n      0x0100\n      exp\n      swap1\n      div\n      0xffffffffffffffffffffffffffffffffffffffff\n      and\n        /* \"github/GACC.sol\":3271:3284  return _owner */\n      swap1\n      pop\n        /* \"github/GACC.sol\":3213:3292  function owner() public view returns (address) {\r... */\n      swap1\n      jump\t// out\n        /* \"github/GACC.sol\":23780:23900  function setLiquidityFeePercent(uint256 liquidityFee) external onlyOwner {\r... */\n    tag_178:\n        /* \"github/GACC.sol\":3357:3367  msg.sender */\n      caller\n        /* \"github/GACC.sol\":3347:3367  _owner == msg.sender */\n      0xffffffffffffffffffffffffffffffffffffffff\n      and\n        /* \"github/GACC.sol\":3347:3353  _owner */\n      0x00\n      dup1\n      sload\n      swap1\n      0x0100\n      exp\n      swap1\n      div\n      0xffffffffffffffffffffffffffffffffffffffff\n      and\n        /* \"github/GACC.sol\":3347:3367  _owner == msg.sender */\n      0xffffffffffffffffffffffffffffffffffffffff\n      and\n      eq\n        /* \"github/GACC.sol\":3339:3404  require(_owner == msg.sender, \"Ownable: caller is not the owner\") */\n      tag_320\n      jumpi\n      mload(0x40)\n      0x08c379a000000000000000000000000000000000000000000000000000000000\n      dup2\n      mstore\n      0x04\n      add\n      tag_321\n      swap1\n      tag_251\n      jump\t// in\n    tag_321:\n      mload(0x40)\n      dup1\n      swap2\n      sub\n      swap1\n      revert\n    tag_320:\n        /* \"github/GACC.sol\":23880:23892  liquidityFee */\n      dup1\n        /* \"github/GACC.sol\":23864:23877  _liquidityFee */\n      0x0f\n        /* \"github/GACC.sol\":23864:23892  _liquidityFee = liquidityFee */\n      dup2\n      swap1\n      sstore\n      pop\n        /* \"github/GACC.sol\":23780:23900  function setLiquidityFeePercent(uint256 liquidityFee) external onlyOwner {\r... */\n      pop\n      jump\t// out\n        /* \"github/GACC.sol\":20401:20488  function symbol() public view returns (string memory) {\r... */\n    tag_181:\n        /* \"github/GACC.sol\":20440:20453  string memory */\n      0x60\n        /* \"github/GACC.sol\":20473:20480  _symbol */\n      0x0b\n        /* \"github/GACC.sol\":20466:20480  return _symbol */\n      dup1\n      sload\n      tag_324\n      swap1\n      tag_265\n      jump\t// in\n    tag_324:\n      dup1\n      0x1f\n      add\n      0x20\n      dup1\n      swap2\n      div\n      mul\n      0x20\n      add\n      mload(0x40)\n      swap1\n      dup2\n      add\n      0x40\n      mstore\n      dup1\n      swap3\n      swap2\n      swap1\n      dup2\n      dup2\n      mstore\n      0x20\n      add\n      dup3\n      dup1\n      sload\n      tag_325\n      swap1\n      tag_265\n      jump\t// in\n    tag_325:\n      dup1\n      iszero\n      tag_326\n      jumpi\n      dup1\n      0x1f\n      lt\n      tag_327\n      jumpi\n      0x0100\n      dup1\n      dup4\n      sload\n      div\n      mul\n      dup4\n      mstore\n      swap2\n      0x20\n      add\n      swap2\n      jump(tag_326)\n    tag_327:\n      dup3\n      add\n      swap2\n      swap1\n      0x00\n      mstore\n      keccak256(0x00, 0x20)\n      swap1\n    tag_328:\n      dup2\n      sload\n      dup2\n      mstore\n      swap1\n      0x01\n      add\n      swap1\n      0x20\n      add\n      dup1\n      dup4\n      gt\n      tag_328\n      jumpi\n      dup3\n      swap1\n      sub\n      0x1f\n      and\n      dup3\n      add\n      swap2\n    tag_326:\n      pop\n      pop\n      pop\n      pop\n      pop\n      swap1\n      pop\n        /* \"github/GACC.sol\":20401:20488  function symbol() public view returns (string memory) {\r... */\n      swap1\n      jump\t// out\n        /* \"github/GACC.sol\":18170:18200  uint256 public _destroyFee = 0 */\n    tag_185:\n      sload(0x11)\n      dup2\n      jump\t// out\n        /* \"github/GACC.sol\":18396:18426  uint256 public _inviterFee = 0 */\n    tag_189:\n      sload(0x15)\n      dup2\n      jump\t// out\n        /* \"github/GACC.sol\":22495:22891  function decreaseAllowance(address spender, uint256 subtractedValue)\r... */\n    tag_194:\n        /* \"github/GACC.sol\":22615:22619  bool */\n      0x00\n        /* \"github/GACC.sol\":22637:22861  _approve(\r... */\n      tag_330\n        /* \"github/GACC.sol\":22660:22670  msg.sender */\n      caller\n        /* \"github/GACC.sol\":22685:22692  spender */\n      dup5\n        /* \"github/GACC.sol\":22707:22850  _allowances[msg.sender][spender].sub(\r... */\n      tag_331\n        /* \"github/GACC.sol\":22762:22777  subtractedValue */\n      dup6\n        /* \"github/GACC.sol\":22707:22850  _allowances[msg.sender][spender].sub(\r... */\n      mload(0x40)\n      dup1\n      0x60\n      add\n      0x40\n      mstore\n      dup1\n      0x25\n      dup2\n      mstore\n      0x20\n      add\n      data_f8b476f7d28209d77d4a4ac1fe36b9f8259aa1bb6bddfa6e89de7e51615cf8a8\n      0x25\n      swap2\n      codecopy\n        /* \"github/GACC.sol\":22707:22718  _allowances */\n      0x05\n        /* \"github/GACC.sol\":22707:22730  _allowances[msg.sender] */\n      0x00\n        /* \"github/GACC.sol\":22719:22729  msg.sender */\n      caller\n        /* \"github/GACC.sol\":22707:22730  _allowances[msg.sender] */\n      0xffffffffffffffffffffffffffffffffffffffff\n      and\n      0xffffffffffffffffffffffffffffffffffffffff\n      and\n      dup2\n      mstore\n      0x20\n      add\n      swap1\n      dup2\n      mstore\n      0x20\n      add\n      0x00\n      keccak256\n        /* \"github/GACC.sol\":22707:22739  _allowances[msg.sender][spender] */\n      0x00\n        /* \"github/GACC.sol\":22731:22738  spender */\n      dup11\n        /* \"github/GACC.sol\":22707:22739  _allowances[msg.sender][spender] */\n      0xffffffffffffffffffffffffffffffffffffffff\n      and\n      0xffffffffffffffffffffffffffffffffffffffff\n      and\n      dup2\n      mstore\n      0x20\n      add\n      swap1\n      dup2\n      mstore\n      0x20\n      add\n      0x00\n      keccak256\n      sload\n        /* \"github/GACC.sol\":22707:22743  _allowances[msg.sender][spender].sub */\n      tag_280\n      swap1\n        /* \"github/GACC.sol\":22707:22850  _allowances[msg.sender][spender].sub(\r... */\n      swap3\n      swap2\n      swap1\n      0xffffffff\n      and\n      jump\t// in\n    tag_331:\n        /* \"github/GACC.sol\":22637:22645  _approve */\n      tag_272\n        /* \"github/GACC.sol\":22637:22861  _approve(\r... */\n      jump\t// in\n    tag_330:\n        /* \"github/GACC.sol\":22879:22883  true */\n      0x01\n        /* \"github/GACC.sol\":22872:22883  return true */\n      swap1\n      pop\n        /* \"github/GACC.sol\":22495:22891  function decreaseAllowance(address spender, uint256 subtractedValue)\r... */\n      swap3\n      swap2\n      pop\n      pop\n      jump\t// out\n        /* \"github/GACC.sol\":4186:4491  function unlock() public virtual {\r... */\n    tag_198:\n        /* \"github/GACC.sol\":4256:4266  msg.sender */\n      caller\n        /* \"github/GACC.sol\":4238:4266  _previousOwner == msg.sender */\n      0xffffffffffffffffffffffffffffffffffffffff\n      and\n        /* \"github/GACC.sol\":4238:4252  _previousOwner */\n      0x01\n      0x00\n      swap1\n      sload\n      swap1\n      0x0100\n      exp\n      swap1\n      div\n      0xffffffffffffffffffffffffffffffffffffffff\n      and\n        /* \"github/GACC.sol\":4238:4266  _previousOwner == msg.sender */\n      0xffffffffffffffffffffffffffffffffffffffff\n      and\n      eq\n        /* \"github/GACC.sol\":4230:4306  require(_previousOwner == msg.sender, \"You don't have permission to unlock\") */\n      tag_333\n      jumpi\n      mload(0x40)\n      0x08c379a000000000000000000000000000000000000000000000000000000000\n      dup2\n      mstore\n      0x04\n      add\n      tag_334\n      swap1\n      tag_335\n      jump\t// in\n    tag_334:\n      mload(0x40)\n      dup1\n      swap2\n      sub\n      swap1\n      revert\n    tag_333:\n        /* \"github/GACC.sol\":4343:4352  _lockTime */\n      sload(0x02)\n        /* \"github/GACC.sol\":4325:4340  block.timestamp */\n      timestamp\n        /* \"github/GACC.sol\":4325:4352  block.timestamp > _lockTime */\n      gt\n        /* \"github/GACC.sol\":4317:4389  require(block.timestamp > _lockTime , \"Contract is locked until 7 days\") */\n      tag_336\n      jumpi\n      mload(0x40)\n      0x08c379a000000000000000000000000000000000000000000000000000000000\n      dup2\n      mstore\n      0x04\n      add\n      tag_337\n      swap1\n      tag_338\n      jump\t// in\n    tag_337:\n      mload(0x40)\n      dup1\n      swap2\n      sub\n      swap1\n      revert\n    tag_336:\n        /* \"github/GACC.sol\":4434:4448  _previousOwner */\n      0x01\n      0x00\n      swap1\n      sload\n      swap1\n      0x0100\n      exp\n      swap1\n      div\n      0xffffffffffffffffffffffffffffffffffffffff\n      and\n        /* \"github/GACC.sol\":4405:4449  OwnershipTransferred(_owner, _previousOwner) */\n      0xffffffffffffffffffffffffffffffffffffffff\n      and\n        /* \"github/GACC.sol\":4426:4432  _owner */\n      0x00\n      dup1\n      sload\n      swap1\n      0x0100\n      exp\n      swap1\n      div\n      0xffffffffffffffffffffffffffffffffffffffff\n      and\n        /* \"github/GACC.sol\":4405:4449  OwnershipTransferred(_owner, _previousOwner) */\n      0xffffffffffffffffffffffffffffffffffffffff\n      and\n      0x8be0079c531659141344cd1fd0a4f28419497f9722a3daafe3b4186f6b6457e0\n      mload(0x40)\n      mload(0x40)\n      dup1\n      swap2\n      sub\n      swap1\n      log3\n        /* \"github/GACC.sol\":4469:4483  _previousOwner */\n      0x01\n      0x00\n      swap1\n      sload\n      swap1\n      0x0100\n      exp\n      swap1\n      div\n      0xffffffffffffffffffffffffffffffffffffffff\n      and\n        /* \"github/GACC.sol\":4460:4466  _owner */\n      0x00\n      dup1\n        /* \"github/GACC.sol\":4460:4483  _owner = _previousOwner */\n      0x0100\n      exp\n      dup2\n      sload\n      dup2\n      0xffffffffffffffffffffffffffffffffffffffff\n      mul\n      not\n      and\n      swap1\n      dup4\n      0xffffffffffffffffffffffffffffffffffffffff\n      and\n      mul\n      or\n      swap1\n      sstore\n      pop\n        /* \"github/GACC.sol\":4186:4491  function unlock() public virtual {\r... */\n      jump\t// out\n        /* \"github/GACC.sol\":20842:21039  function transfer(address recipient, uint256 amount)\r... */\n    tag_202:\n        /* \"github/GACC.sol\":20947:20951  bool */\n      0x00\n        /* \"github/GACC.sol\":20969:21009  _transfer(msg.sender, recipient, amount) */\n      tag_340\n        /* \"github/GACC.sol\":20979:20989  msg.sender */\n      caller\n        /* \"github/GACC.sol\":20991:21000  recipient */\n      dup5\n        /* \"github/GACC.sol\":21002:21008  amount */\n      dup5\n        /* \"github/GACC.sol\":20969:20978  _transfer */\n      tag_277\n        /* \"github/GACC.sol\":20969:21009  _transfer(msg.sender, recipient, amount) */\n      jump\t// in\n    tag_340:\n        /* \"github/GACC.sol\":21027:21031  true */\n      0x01\n        /* \"github/GACC.sol\":21020:21031  return true */\n      swap1\n      pop\n        /* \"github/GACC.sol\":20842:21039  function transfer(address recipient, uint256 amount)\r... */\n      swap3\n      swap2\n      pop\n      pop\n      jump\t// out\n        /* \"github/GACC.sol\":23909:24025  function setDestroyFeePercent(uint256 destroyedFee) external onlyOwner {\r... */\n    tag_207:\n        /* \"github/GACC.sol\":3357:3367  msg.sender */\n      caller\n        /* \"github/GACC.sol\":3347:3367  _owner == msg.sender */\n      0xffffffffffffffffffffffffffffffffffffffff\n      and\n        /* \"github/GACC.sol\":3347:3353  _owner */\n      0x00\n      dup1\n      sload\n      swap1\n      0x0100\n      exp\n      swap1\n      div\n      0xffffffffffffffffffffffffffffffffffffffff\n      and\n        /* \"github/GACC.sol\":3347:3367  _owner == msg.sender */\n      0xffffffffffffffffffffffffffffffffffffffff\n      and\n      eq\n        /* \"github/GACC.sol\":3339:3404  require(_owner == msg.sender, \"Ownable: caller is not the owner\") */\n      tag_342\n      jumpi\n      mload(0x40)\n      0x08c379a000000000000000000000000000000000000000000000000000000000\n      dup2\n      mstore\n      0x04\n      add\n      tag_343\n      swap1\n      tag_251\n      jump\t// in\n    tag_343:\n      mload(0x40)\n      dup1\n      swap2\n      sub\n      swap1\n      revert\n    tag_342:\n        /* \"github/GACC.sol\":24005:24017  destroyedFee */\n      dup1\n        /* \"github/GACC.sol\":23991:24002  _destroyFee */\n      0x11\n        /* \"github/GACC.sol\":23991:24017  _destroyFee = destroyedFee */\n      dup2\n      swap1\n      sstore\n      pop\n        /* \"github/GACC.sol\":23909:24025  function setDestroyFeePercent(uint256 destroyedFee) external onlyOwner {\r... */\n      pop\n      jump\t// out\n        /* \"github/GACC.sol\":24497:24668  function setSwapAndLiquifyEnabled(bool _enabled) public onlyOwner {\r... */\n    tag_212:\n        /* \"github/GACC.sol\":3357:3367  msg.sender */\n      caller\n        /* \"github/GACC.sol\":3347:3367  _owner == msg.sender */\n      0xffffffffffffffffffffffffffffffffffffffff\n      and\n        /* \"github/GACC.sol\":3347:3353  _owner */\n      0x00\n      dup1\n      sload\n      swap1\n      0x0100\n      exp\n      swap1\n      div\n      0xffffffffffffffffffffffffffffffffffffffff\n      and\n        /* \"github/GACC.sol\":3347:3367  _owner == msg.sender */\n      0xffffffffffffffffffffffffffffffffffffffff\n      and\n      eq\n        /* \"github/GACC.sol\":3339:3404  require(_owner == msg.sender, \"Ownable: caller is not the owner\") */\n      tag_346\n      jumpi\n      mload(0x40)\n      0x08c379a000000000000000000000000000000000000000000000000000000000\n      dup2\n      mstore\n      0x04\n      add\n      tag_347\n      swap1\n      tag_251\n      jump\t// in\n    tag_347:\n      mload(0x40)\n      dup1\n      swap2\n      sub\n      swap1\n      revert\n    tag_346:\n        /* \"github/GACC.sol\":24598:24606  _enabled */\n      dup1\n        /* \"github/GACC.sol\":24574:24595  swapAndLiquifyEnabled */\n      0x18\n      0x01\n        /* \"github/GACC.sol\":24574:24606  swapAndLiquifyEnabled = _enabled */\n      0x0100\n      exp\n      dup2\n      sload\n      dup2\n      0xff\n      mul\n      not\n      and\n      swap1\n      dup4\n      iszero\n      iszero\n      mul\n      or\n      swap1\n      sstore\n      pop\n        /* \"github/GACC.sol\":24622:24660  SwapAndLiquifyEnabledUpdated(_enabled) */\n      0x53726dfcaf90650aa7eb35524f4d3220f07413c8d6cb404cc8c18bf5591bc159\n        /* \"github/GACC.sol\":24651:24659  _enabled */\n      dup2\n        /* \"github/GACC.sol\":24622:24660  SwapAndLiquifyEnabledUpdated(_enabled) */\n      mload(0x40)\n      tag_349\n      swap2\n      swap1\n      tag_76\n      jump\t// in\n    tag_349:\n      mload(0x40)\n      dup1\n      swap2\n      sub\n      swap1\n      log1\n        /* \"github/GACC.sol\":24497:24668  function setSwapAndLiquifyEnabled(bool _enabled) public onlyOwner {\r... */\n      pop\n      jump\t// out\n        /* \"github/GACC.sol\":18735:18779  uint256 public numTokensSellToAddToLiquidity */\n    tag_215:\n      sload(0x1a)\n      dup2\n      jump\t// out\n        /* \"github/GACC.sol\":3948:4174  function lock(uint256 time) public virtual onlyOwner {\r... */\n    tag_220:\n        /* \"github/GACC.sol\":3357:3367  msg.sender */\n      caller\n        /* \"github/GACC.sol\":3347:3367  _owner == msg.sender */\n      0xffffffffffffffffffffffffffffffffffffffff\n      and\n        /* \"github/GACC.sol\":3347:3353  _owner */\n      0x00\n      dup1\n      sload\n      swap1\n      0x0100\n      exp\n      swap1\n      div\n      0xffffffffffffffffffffffffffffffffffffffff\n      and\n        /* \"github/GACC.sol\":3347:3367  _owner == msg.sender */\n      0xffffffffffffffffffffffffffffffffffffffff\n      and\n      eq\n        /* \"github/GACC.sol\":3339:3404  require(_owner == msg.sender, \"Ownable: caller is not the owner\") */\n      tag_351\n      jumpi\n      mload(0x40)\n      0x08c379a000000000000000000000000000000000000000000000000000000000\n      dup2\n      mstore\n      0x04\n      add\n      tag_352\n      swap1\n      tag_251\n      jump\t// in\n    tag_352:\n      mload(0x40)\n      dup1\n      swap2\n      sub\n      swap1\n      revert\n    tag_351:\n        /* \"github/GACC.sol\":4029:4035  _owner */\n      0x00\n      dup1\n      sload\n      swap1\n      0x0100\n      exp\n      swap1\n      div\n      0xffffffffffffffffffffffffffffffffffffffff\n      and\n        /* \"github/GACC.sol\":4012:4026  _previousOwner */\n      0x01\n      0x00\n        /* \"github/GACC.sol\":4012:4035  _previousOwner = _owner */\n      0x0100\n      exp\n      dup2\n      sload\n      dup2\n      0xffffffffffffffffffffffffffffffffffffffff\n      mul\n      not\n      and\n      swap1\n      dup4\n      0xffffffffffffffffffffffffffffffffffffffff\n      and\n      mul\n      or\n      swap1\n      sstore\n      pop\n        /* \"github/GACC.sol\":4063:4064  0 */\n      0x00\n        /* \"github/GACC.sol\":4046:4052  _owner */\n      dup1\n      0x00\n        /* \"github/GACC.sol\":4046:4065  _owner = address(0) */\n      0x0100\n      exp\n      dup2\n      sload\n      dup2\n      0xffffffffffffffffffffffffffffffffffffffff\n      mul\n      not\n      and\n      swap1\n      dup4\n      0xffffffffffffffffffffffffffffffffffffffff\n      and\n      mul\n      or\n      swap1\n      sstore\n      pop\n        /* \"github/GACC.sol\":4106:4110  time */\n      dup1\n        /* \"github/GACC.sol\":4088:4103  block.timestamp */\n      timestamp\n        /* \"github/GACC.sol\":4088:4110  block.timestamp + time */\n      tag_354\n      swap2\n      swap1\n      tag_355\n      jump\t// in\n    tag_354:\n        /* \"github/GACC.sol\":4076:4085  _lockTime */\n      0x02\n        /* \"github/GACC.sol\":4076:4110  _lockTime = block.timestamp + time */\n      dup2\n      swap1\n      sstore\n      pop\n        /* \"github/GACC.sol\":4163:4164  0 */\n      0x00\n        /* \"github/GACC.sol\":4126:4166  OwnershipTransferred(_owner, address(0)) */\n      0xffffffffffffffffffffffffffffffffffffffff\n      and\n        /* \"github/GACC.sol\":4147:4153  _owner */\n      0x00\n      dup1\n      sload\n      swap1\n      0x0100\n      exp\n      swap1\n      div\n      0xffffffffffffffffffffffffffffffffffffffff\n      and\n        /* \"github/GACC.sol\":4126:4166  OwnershipTransferred(_owner, address(0)) */\n      0xffffffffffffffffffffffffffffffffffffffff\n      and\n      0x8be0079c531659141344cd1fd0a4f28419497f9722a3daafe3b4186f6b6457e0\n      mload(0x40)\n      mload(0x40)\n      dup1\n      swap2\n      sub\n      swap1\n      log3\n        /* \"github/GACC.sol\":3948:4174  function lock(uint256 time) public virtual onlyOwner {\r... */\n      pop\n      jump\t// out\n        /* \"github/GACC.sol\":21048:21232  function allowance(address owner, address spender)\r... */\n    tag_225:\n        /* \"github/GACC.sol\":21165:21172  uint256 */\n      0x00\n        /* \"github/GACC.sol\":21197:21208  _allowances */\n      0x05\n        /* \"github/GACC.sol\":21197:21215  _allowances[owner] */\n      0x00\n        /* \"github/GACC.sol\":21209:21214  owner */\n      dup5\n        /* \"github/GACC.sol\":21197:21215  _allowances[owner] */\n      0xffffffffffffffffffffffffffffffffffffffff\n      and\n      0xffffffffffffffffffffffffffffffffffffffff\n      and\n      dup2\n      mstore\n      0x20\n      add\n      swap1\n      dup2\n      mstore\n      0x20\n      add\n      0x00\n      keccak256\n        /* \"github/GACC.sol\":21197:21224  _allowances[owner][spender] */\n      0x00\n        /* \"github/GACC.sol\":21216:21223  spender */\n      dup4\n        /* \"github/GACC.sol\":21197:21224  _allowances[owner][spender] */\n      0xffffffffffffffffffffffffffffffffffffffff\n      and\n      0xffffffffffffffffffffffffffffffffffffffff\n      and\n      dup2\n      mstore\n      0x20\n      add\n      swap1\n      dup2\n      mstore\n      0x20\n      add\n      0x00\n      keccak256\n      sload\n        /* \"github/GACC.sol\":21190:21224  return _allowances[owner][spender] */\n      swap1\n      pop\n        /* \"github/GACC.sol\":21048:21232  function allowance(address owner, address spender)\r... */\n      swap3\n      swap2\n      pop\n      pop\n      jump\t// out\n        /* \"github/GACC.sol\":23447:23557  function includeInFee(address account) public onlyOwner {\r... */\n    tag_230:\n        /* \"github/GACC.sol\":3357:3367  msg.sender */\n      caller\n        /* \"github/GACC.sol\":3347:3367  _owner == msg.sender */\n      0xffffffffffffffffffffffffffffffffffffffff\n      and\n        /* \"github/GACC.sol\":3347:3353  _owner */\n      0x00\n      dup1\n      sload\n      swap1\n      0x0100\n      exp\n      swap1\n      div\n      0xffffffffffffffffffffffffffffffffffffffff\n      and\n        /* \"github/GACC.sol\":3347:3367  _owner == msg.sender */\n      0xffffffffffffffffffffffffffffffffffffffff\n      and\n      eq\n        /* \"github/GACC.sol\":3339:3404  require(_owner == msg.sender, \"Ownable: caller is not the owner\") */\n      tag_358\n      jumpi\n      mload(0x40)\n      0x08c379a000000000000000000000000000000000000000000000000000000000\n      dup2\n      mstore\n      0x04\n      add\n      tag_359\n      swap1\n      tag_251\n      jump\t// in\n    tag_359:\n      mload(0x40)\n      dup1\n      swap2\n      sub\n      swap1\n      revert\n    tag_358:\n        /* \"github/GACC.sol\":23544:23549  false */\n      0x00\n        /* \"github/GACC.sol\":23514:23532  _isExcludedFromFee */\n      0x06\n        /* \"github/GACC.sol\":23514:23541  _isExcludedFromFee[account] */\n      0x00\n        /* \"github/GACC.sol\":23533:23540  account */\n      dup4\n        /* \"github/GACC.sol\":23514:23541  _isExcludedFromFee[account] */\n      0xffffffffffffffffffffffffffffffffffffffff\n      and\n      0xffffffffffffffffffffffffffffffffffffffff\n      and\n      dup2\n      mstore\n      0x20\n      add\n      swap1\n      dup2\n      mstore\n      0x20\n      add\n      0x00\n      keccak256\n      0x00\n        /* \"github/GACC.sol\":23514:23549  _isExcludedFromFee[account] = false */\n      0x0100\n      exp\n      dup2\n      sload\n      dup2\n      0xff\n      mul\n      not\n      and\n      swap1\n      dup4\n      iszero\n      iszero\n      mul\n      or\n      swap1\n      sstore\n      pop\n        /* \"github/GACC.sol\":23447:23557  function includeInFee(address account) public onlyOwner {\r... */\n      pop\n      jump\t// out\n        /* \"github/GACC.sol\":24346:24488  function setMaxTxAmount(uint256 maxNumber)\r... */\n    tag_234:\n        /* \"github/GACC.sol\":3357:3367  msg.sender */\n      caller\n        /* \"github/GACC.sol\":3347:3367  _owner == msg.sender */\n      0xffffffffffffffffffffffffffffffffffffffff\n      and\n        /* \"github/GACC.sol\":3347:3353  _owner */\n      0x00\n      dup1\n      sload\n      swap1\n      0x0100\n      exp\n      swap1\n      div\n      0xffffffffffffffffffffffffffffffffffffffff\n      and\n        /* \"github/GACC.sol\":3347:3367  _owner == msg.sender */\n      0xffffffffffffffffffffffffffffffffffffffff\n      and\n      eq\n        /* \"github/GACC.sol\":3339:3404  require(_owner == msg.sender, \"Ownable: caller is not the owner\") */\n      tag_362\n      jumpi\n      mload(0x40)\n      0x08c379a000000000000000000000000000000000000000000000000000000000\n      dup2\n      mstore\n      0x04\n      add\n      tag_363\n      swap1\n      tag_251\n      jump\t// in\n    tag_363:\n      mload(0x40)\n      dup1\n      swap2\n      sub\n      swap1\n      revert\n    tag_362:\n        /* \"github/GACC.sol\":24471:24480  _decimals */\n      sload(0x0c)\n        /* \"github/GACC.sol\":24467:24469  10 */\n      0x0a\n        /* \"github/GACC.sol\":24467:24480  10**_decimals */\n      tag_365\n      swap2\n      swap1\n      tag_366\n      jump\t// in\n    tag_365:\n        /* \"github/GACC.sol\":24455:24464  maxNumber */\n      dup2\n        /* \"github/GACC.sol\":24455:24480  maxNumber * 10**_decimals */\n      tag_367\n      swap2\n      swap1\n      tag_368\n      jump\t// in\n    tag_367:\n        /* \"github/GACC.sol\":24440:24452  _maxTxAmount */\n      0x19\n        /* \"github/GACC.sol\":24440:24480  _maxTxAmount = maxNumber * 10**_decimals */\n      dup2\n      swap1\n      sstore\n      pop\n        /* \"github/GACC.sol\":24346:24488  function setMaxTxAmount(uint256 maxNumber)\r... */\n      pop\n      jump\t// out\n        /* \"github/GACC.sol\":18818:18860  mapping(address => address) public inviter */\n    tag_238:\n      mstore(0x20, 0x1c)\n      dup1\n      0x00\n      mstore\n      keccak256(0x00, 0x40)\n      0x00\n      swap2\n      pop\n      sload\n      swap1\n      0x0100\n      exp\n      swap1\n      div\n      0xffffffffffffffffffffffffffffffffffffffff\n      and\n      dup2\n      jump\t// out\n        /* \"github/GACC.sol\":24155:24334  function setNumTokensSellToAddToLiquidity(uint256 swapNumber)\r... */\n    tag_243:\n        /* \"github/GACC.sol\":3357:3367  msg.sender */\n      caller\n        /* \"github/GACC.sol\":3347:3367  _owner == msg.sender */\n      0xffffffffffffffffffffffffffffffffffffffff\n      and\n        /* \"github/GACC.sol\":3347:3353  _owner */\n      0x00\n      dup1\n      sload\n      swap1\n      0x0100\n      exp\n      swap1\n      div\n      0xffffffffffffffffffffffffffffffffffffffff\n      and\n        /* \"github/GACC.sol\":3347:3367  _owner == msg.sender */\n      0xffffffffffffffffffffffffffffffffffffffff\n      and\n      eq\n        /* \"github/GACC.sol\":3339:3404  require(_owner == msg.sender, \"Ownable: caller is not the owner\") */\n      tag_370\n      jumpi\n      mload(0x40)\n      0x08c379a000000000000000000000000000000000000000000000000000000000\n      dup2\n      mstore\n      0x04\n      add\n      tag_371\n      swap1\n      tag_251\n      jump\t// in\n    tag_371:\n      mload(0x40)\n      dup1\n      swap2\n      sub\n      swap1\n      revert\n    tag_370:\n        /* \"github/GACC.sol\":24317:24326  _decimals */\n      sload(0x0c)\n        /* \"github/GACC.sol\":24313:24315  10 */\n      0x0a\n        /* \"github/GACC.sol\":24313:24326  10**_decimals */\n      tag_373\n      swap2\n      swap1\n      tag_366\n      jump\t// in\n    tag_373:\n        /* \"github/GACC.sol\":24300:24310  swapNumber */\n      dup2\n        /* \"github/GACC.sol\":24300:24326  swapNumber * 10**_decimals */\n      tag_374\n      swap2\n      swap1\n      tag_368\n      jump\t// in\n    tag_374:\n        /* \"github/GACC.sol\":24268:24297  numTokensSellToAddToLiquidity */\n      0x1a\n        /* \"github/GACC.sol\":24268:24326  numTokensSellToAddToLiquidity = swapNumber * 10**_decimals */\n      dup2\n      swap1\n      sstore\n      pop\n        /* \"github/GACC.sol\":24155:24334  function setNumTokensSellToAddToLiquidity(uint256 swapNumber)\r... */\n      pop\n      jump\t// out\n        /* \"github/GACC.sol\":3593:3837  function transferOwnership(address newOwner) public virtual onlyOwner {\r... */\n    tag_247:\n        /* \"github/GACC.sol\":3357:3367  msg.sender */\n      caller\n        /* \"github/GACC.sol\":3347:3367  _owner == msg.sender */\n      0xffffffffffffffffffffffffffffffffffffffff\n      and\n        /* \"github/GACC.sol\":3347:3353  _owner */\n      0x00\n      dup1\n      sload\n      swap1\n      0x0100\n      exp\n      swap1\n      div\n      0xffffffffffffffffffffffffffffffffffffffff\n      and\n        /* \"github/GACC.sol\":3347:3367  _owner == msg.sender */\n      0xffffffffffffffffffffffffffffffffffffffff\n      and\n      eq\n        /* \"github/GACC.sol\":3339:3404  require(_owner == msg.sender, \"Ownable: caller is not the owner\") */\n      tag_376\n      jumpi\n      mload(0x40)\n      0x08c379a000000000000000000000000000000000000000000000000000000000\n      dup2\n      mstore\n      0x04\n      add\n      tag_377\n      swap1\n      tag_251\n      jump\t// in\n    tag_377:\n      mload(0x40)\n      dup1\n      swap2\n      sub\n      swap1\n      revert\n    tag_376:\n        /* \"github/GACC.sol\":3702:3703  0 */\n      0x00\n        /* \"github/GACC.sol\":3682:3704  newOwner != address(0) */\n      0xffffffffffffffffffffffffffffffffffffffff\n      and\n        /* \"github/GACC.sol\":3682:3690  newOwner */\n      dup2\n        /* \"github/GACC.sol\":3682:3704  newOwner != address(0) */\n      0xffffffffffffffffffffffffffffffffffffffff\n      and\n      eq\n      iszero\n        /* \"github/GACC.sol\":3674:3747  require(newOwner != address(0), \"Ownable: new owner is the zero address\") */\n      tag_379\n      jumpi\n      mload(0x40)\n      0x08c379a000000000000000000000000000000000000000000000000000000000\n      dup2\n      mstore\n      0x04\n      add\n      tag_380\n      swap1\n      tag_381\n      jump\t// in\n    tag_380:\n      mload(0x40)\n      dup1\n      swap2\n      sub\n      swap1\n      revert\n    tag_379:\n        /* \"github/GACC.sol\":3792:3800  newOwner */\n      dup1\n        /* \"github/GACC.sol\":3763:3801  OwnershipTransferred(_owner, newOwner) */\n      0xffffffffffffffffffffffffffffffffffffffff\n      and\n        /* \"github/GACC.sol\":3784:3790  _owner */\n      0x00\n      dup1\n      sload\n      swap1\n      0x0100\n      exp\n      swap1\n      div\n      0xffffffffffffffffffffffffffffffffffffffff\n      and\n        /* \"github/GACC.sol\":3763:3801  OwnershipTransferred(_owner, newOwner) */\n      0xffffffffffffffffffffffffffffffffffffffff\n      and\n      0x8be0079c531659141344cd1fd0a4f28419497f9722a3daafe3b4186f6b6457e0\n      mload(0x40)\n      mload(0x40)\n      dup1\n      swap2\n      sub\n      swap1\n      log3\n        /* \"github/GACC.sol\":3821:3829  newOwner */\n      dup1\n        /* \"github/GACC.sol\":3812:3818  _owner */\n      0x00\n      dup1\n        /* \"github/GACC.sol\":3812:3829  _owner = newOwner */\n      0x0100\n      exp\n      dup2\n      sload\n      dup2\n      0xffffffffffffffffffffffffffffffffffffffff\n      mul\n      not\n      and\n      swap1\n      dup4\n      0xffffffffffffffffffffffffffffffffffffffff\n      and\n      mul\n      or\n      swap1\n      sstore\n      pop\n        /* \"github/GACC.sol\":3593:3837  function transferOwnership(address newOwner) public virtual onlyOwner {\r... */\n      pop\n      jump\t// out\n        /* \"github/GACC.sol\":26076:26448  function _approve(\r... */\n    tag_272:\n        /* \"github/GACC.sol\":26220:26221  0 */\n      0x00\n        /* \"github/GACC.sol\":26203:26222  owner != address(0) */\n      0xffffffffffffffffffffffffffffffffffffffff\n      and\n        /* \"github/GACC.sol\":26203:26208  owner */\n      dup4\n        /* \"github/GACC.sol\":26203:26222  owner != address(0) */\n      0xffffffffffffffffffffffffffffffffffffffff\n      and\n      eq\n      iszero\n        /* \"github/GACC.sol\":26195:26263  require(owner != address(0), \"ERC20: approve from the zero address\") */\n      tag_383\n      jumpi\n      mload(0x40)\n      0x08c379a000000000000000000000000000000000000000000000000000000000\n      dup2\n      mstore\n      0x04\n      add\n      tag_384\n      swap1\n      tag_385\n      jump\t// in\n    tag_384:\n      mload(0x40)\n      dup1\n      swap2\n      sub\n      swap1\n      revert\n    tag_383:\n        /* \"github/GACC.sol\":26301:26302  0 */\n      0x00\n        /* \"github/GACC.sol\":26282:26303  spender != address(0) */\n      0xffffffffffffffffffffffffffffffffffffffff\n      and\n        /* \"github/GACC.sol\":26282:26289  spender */\n      dup3\n        /* \"github/GACC.sol\":26282:26303  spender != address(0) */\n      0xffffffffffffffffffffffffffffffffffffffff\n      and\n      eq\n      iszero\n        /* \"github/GACC.sol\":26274:26342  require(spender != address(0), \"ERC20: approve to the zero address\") */\n      tag_386\n      jumpi\n      mload(0x40)\n      0x08c379a000000000000000000000000000000000000000000000000000000000\n      dup2\n      mstore\n      0x04\n      add\n      tag_387\n      swap1\n      tag_388\n      jump\t// in\n    tag_387:\n      mload(0x40)\n      dup1\n      swap2\n      sub\n      swap1\n      revert\n    tag_386:\n        /* \"github/GACC.sol\":26386:26392  amount */\n      dup1\n        /* \"github/GACC.sol\":26356:26367  _allowances */\n      0x05\n        /* \"github/GACC.sol\":26356:26374  _allowances[owner] */\n      0x00\n        /* \"github/GACC.sol\":26368:26373  owner */\n      dup6\n        /* \"github/GACC.sol\":26356:26374  _allowances[owner] */\n      0xffffffffffffffffffffffffffffffffffffffff\n      and\n      0xffffffffffffffffffffffffffffffffffffffff\n      and\n      dup2\n      mstore\n      0x20\n      add\n      swap1\n      dup2\n      mstore\n      0x20\n      add\n      0x00\n      keccak256\n        /* \"github/GACC.sol\":26356:26383  _allowances[owner][spender] */\n      0x00\n        /* \"github/GACC.sol\":26375:26382  spender */\n      dup5\n        /* \"github/GACC.sol\":26356:26383  _allowances[owner][spender] */\n      0xffffffffffffffffffffffffffffffffffffffff\n      and\n      0xffffffffffffffffffffffffffffffffffffffff\n      and\n      dup2\n      mstore\n      0x20\n      add\n      swap1\n      dup2\n      mstore\n      0x20\n      add\n      0x00\n      keccak256\n        /* \"github/GACC.sol\":26356:26392  _allowances[owner][spender] = amount */\n      dup2\n      swap1\n      sstore\n      pop\n        /* \"github/GACC.sol\":26424:26431  spender */\n      dup2\n        /* \"github/GACC.sol\":26408:26440  Approval(owner, spender, amount) */\n      0xffffffffffffffffffffffffffffffffffffffff\n      and\n        /* \"github/GACC.sol\":26417:26422  owner */\n      dup4\n        /* \"github/GACC.sol\":26408:26440  Approval(owner, spender, amount) */\n      0xffffffffffffffffffffffffffffffffffffffff\n      and\n      0x8c5be1e5ebec7d5bd14f71427d1e84f3dd0314c0f7b2291e5b200ac8c7c3b925\n        /* \"github/GACC.sol\":26433:26439  amount */\n      dup4\n        /* \"github/GACC.sol\":26408:26440  Approval(owner, spender, amount) */\n      mload(0x40)\n      tag_389\n      swap2\n      swap1\n      tag_81\n      jump\t// in\n    tag_389:\n      mload(0x40)\n      dup1\n      swap2\n      sub\n      swap1\n      log3\n        /* \"github/GACC.sol\":26076:26448  function _approve(\r... */\n      pop\n      pop\n      pop\n      jump\t// out\n        /* \"github/GACC.sol\":26457:28256  function _transfer(\r... */\n    tag_277:\n        /* \"github/GACC.sol\":26595:26596  0 */\n      0x00\n        /* \"github/GACC.sol\":26579:26597  from != address(0) */\n      0xffffffffffffffffffffffffffffffffffffffff\n      and\n        /* \"github/GACC.sol\":26579:26583  from */\n      dup4\n        /* \"github/GACC.sol\":26579:26597  from != address(0) */\n      0xffffffffffffffffffffffffffffffffffffffff\n      and\n      eq\n      iszero\n        /* \"github/GACC.sol\":26571:26639  require(from != address(0), \"ERC20: transfer from the zero address\") */\n      tag_391\n      jumpi\n      mload(0x40)\n      0x08c379a000000000000000000000000000000000000000000000000000000000\n      dup2\n      mstore\n      0x04\n      add\n      tag_392\n      swap1\n      tag_393\n      jump\t// in\n    tag_392:\n      mload(0x40)\n      dup1\n      swap2\n      sub\n      swap1\n      revert\n    tag_391:\n        /* \"github/GACC.sol\":26672:26673  0 */\n      0x00\n        /* \"github/GACC.sol\":26658:26674  to != address(0) */\n      0xffffffffffffffffffffffffffffffffffffffff\n      and\n        /* \"github/GACC.sol\":26658:26660  to */\n      dup3\n        /* \"github/GACC.sol\":26658:26674  to != address(0) */\n      0xffffffffffffffffffffffffffffffffffffffff\n      and\n      eq\n      iszero\n        /* \"github/GACC.sol\":26650:26714  require(to != address(0), \"ERC20: transfer to the zero address\") */\n      tag_394\n      jumpi\n      mload(0x40)\n      0x08c379a000000000000000000000000000000000000000000000000000000000\n      dup2\n      mstore\n      0x04\n      add\n      tag_395\n      swap1\n      tag_396\n      jump\t// in\n    tag_395:\n      mload(0x40)\n      dup1\n      swap2\n      sub\n      swap1\n      revert\n    tag_394:\n        /* \"github/GACC.sol\":26742:26743  0 */\n      0x00\n        /* \"github/GACC.sol\":26733:26739  amount */\n      dup2\n        /* \"github/GACC.sol\":26733:26743  amount > 0 */\n      gt\n        /* \"github/GACC.sol\":26725:26789  require(amount > 0, \"Transfer amount must be greater than zero\") */\n      tag_397\n      jumpi\n      mload(0x40)\n      0x08c379a000000000000000000000000000000000000000000000000000000000\n      dup2\n      mstore\n      0x04\n      add\n      tag_398\n      swap1\n      tag_399\n      jump\t// in\n    tag_398:\n      mload(0x40)\n      dup1\n      swap2\n      sub\n      swap1\n      revert\n    tag_397:\n        /* \"github/GACC.sol\":26812:26819  owner() */\n      tag_400\n        /* \"github/GACC.sol\":26812:26817  owner */\n      tag_173\n        /* \"github/GACC.sol\":26812:26819  owner() */\n      jump\t// in\n    tag_400:\n        /* \"github/GACC.sol\":26804:26819  from != owner() */\n      0xffffffffffffffffffffffffffffffffffffffff\n      and\n        /* \"github/GACC.sol\":26804:26808  from */\n      dup4\n        /* \"github/GACC.sol\":26804:26819  from != owner() */\n      0xffffffffffffffffffffffffffffffffffffffff\n      and\n      eq\n      iszero\n        /* \"github/GACC.sol\":26804:26836  from != owner() && to != owner() */\n      dup1\n      iszero\n      tag_401\n      jumpi\n      pop\n        /* \"github/GACC.sol\":26829:26836  owner() */\n      tag_402\n        /* \"github/GACC.sol\":26829:26834  owner */\n      tag_173\n        /* \"github/GACC.sol\":26829:26836  owner() */\n      jump\t// in\n    tag_402:\n        /* \"github/GACC.sol\":26823:26836  to != owner() */\n      0xffffffffffffffffffffffffffffffffffffffff\n      and\n        /* \"github/GACC.sol\":26823:26825  to */\n      dup3\n        /* \"github/GACC.sol\":26823:26836  to != owner() */\n      0xffffffffffffffffffffffffffffffffffffffff\n      and\n      eq\n      iszero\n        /* \"github/GACC.sol\":26804:26836  from != owner() && to != owner() */\n    tag_401:\n        /* \"github/GACC.sol\":26804:26865  from != owner() && to != owner() && !_isExcludedFromFee[from] */\n      dup1\n      iszero\n      tag_403\n      jumpi\n      pop\n        /* \"github/GACC.sol\":26841:26859  _isExcludedFromFee */\n      0x06\n        /* \"github/GACC.sol\":26841:26865  _isExcludedFromFee[from] */\n      0x00\n        /* \"github/GACC.sol\":26860:26864  from */\n      dup5\n        /* \"github/GACC.sol\":26841:26865  _isExcludedFromFee[from] */\n      0xffffffffffffffffffffffffffffffffffffffff\n      and\n      0xffffffffffffffffffffffffffffffffffffffff\n      and\n      dup2\n      mstore\n      0x20\n      add\n      swap1\n      dup2\n      mstore\n      0x20\n      add\n      0x00\n      keccak256\n      0x00\n      swap1\n      sload\n      swap1\n      0x0100\n      exp\n      swap1\n      div\n      0xff\n      and\n        /* \"github/GACC.sol\":26840:26865  !_isExcludedFromFee[from] */\n      iszero\n        /* \"github/GACC.sol\":26804:26865  from != owner() && to != owner() && !_isExcludedFromFee[from] */\n    tag_403:\n        /* \"github/GACC.sol\":26804:26892  from != owner() && to != owner() && !_isExcludedFromFee[from] && !_isExcludedFromFee[to] */\n      dup1\n      iszero\n      tag_404\n      jumpi\n      pop\n        /* \"github/GACC.sol\":26870:26888  _isExcludedFromFee */\n      0x06\n        /* \"github/GACC.sol\":26870:26892  _isExcludedFromFee[to] */\n      0x00\n        /* \"github/GACC.sol\":26889:26891  to */\n      dup4\n        /* \"github/GACC.sol\":26870:26892  _isExcludedFromFee[to] */\n      0xffffffffffffffffffffffffffffffffffffffff\n      and\n      0xffffffffffffffffffffffffffffffffffffffff\n      and\n      dup2\n      mstore\n      0x20\n      add\n      swap1\n      dup2\n      mstore\n      0x20\n      add\n      0x00\n      keccak256\n      0x00\n      swap1\n      sload\n      swap1\n      0x0100\n      exp\n      swap1\n      div\n      0xff\n      and\n        /* \"github/GACC.sol\":26869:26892  !_isExcludedFromFee[to] */\n      iszero\n        /* \"github/GACC.sol\":26804:26892  from != owner() && to != owner() && !_isExcludedFromFee[from] && !_isExcludedFromFee[to] */\n    tag_404:\n        /* \"github/GACC.sol\":26801:27046  if(from != owner() && to != owner() && !_isExcludedFromFee[from] && !_isExcludedFromFee[to]) {\r... */\n      iszero\n      tag_405\n      jumpi\n        /* \"github/GACC.sol\":26920:26933  uniswapV2Pair */\n      immutable(\"0x0a3c7d3a9708f2ca6641460faca5b070365aea07b4252df2b417f2c218d88064\")\n        /* \"github/GACC.sol\":26912:26933  from == uniswapV2Pair */\n      0xffffffffffffffffffffffffffffffffffffffff\n      and\n        /* \"github/GACC.sol\":26912:26916  from */\n      dup4\n        /* \"github/GACC.sol\":26912:26933  from == uniswapV2Pair */\n      0xffffffffffffffffffffffffffffffffffffffff\n      and\n      eq\n        /* \"github/GACC.sol\":26909:27035  if(from == uniswapV2Pair){\r... */\n      iszero\n      tag_406\n      jumpi\n        /* \"github/GACC.sol\":26986:27018  _tTotal.div(10000).mul(_maximum) */\n      tag_407\n        /* \"github/GACC.sol\":27009:27017  _maximum */\n      sload(0x17)\n        /* \"github/GACC.sol\":26986:27004  _tTotal.div(10000) */\n      tag_408\n        /* \"github/GACC.sol\":26998:27003  10000 */\n      0x2710\n        /* \"github/GACC.sol\":26986:26993  _tTotal */\n      sload(0x07)\n        /* \"github/GACC.sol\":26986:26997  _tTotal.div */\n      tag_292\n      swap1\n        /* \"github/GACC.sol\":26986:27004  _tTotal.div(10000) */\n      swap2\n      swap1\n      0xffffffff\n      and\n      jump\t// in\n    tag_408:\n        /* \"github/GACC.sol\":26986:27008  _tTotal.div(10000).mul */\n      tag_409\n      swap1\n        /* \"github/GACC.sol\":26986:27018  _tTotal.div(10000).mul(_maximum) */\n      swap2\n      swap1\n      0xffffffff\n      and\n      jump\t// in\n    tag_407:\n        /* \"github/GACC.sol\":26976:26982  amount */\n      dup2\n        /* \"github/GACC.sol\":26960:26973  balanceOf(to) */\n      tag_410\n        /* \"github/GACC.sol\":26970:26972  to */\n      dup5\n        /* \"github/GACC.sol\":26960:26969  balanceOf */\n      tag_154\n        /* \"github/GACC.sol\":26960:26973  balanceOf(to) */\n      jump\t// in\n    tag_410:\n        /* \"github/GACC.sol\":26960:26982  balanceOf(to) + amount */\n      tag_411\n      swap2\n      swap1\n      tag_355\n      jump\t// in\n    tag_411:\n        /* \"github/GACC.sol\":26960:27018  balanceOf(to) + amount <= _tTotal.div(10000).mul(_maximum) */\n      gt\n      iszero\n        /* \"github/GACC.sol\":26952:27019  require(balanceOf(to) + amount <= _tTotal.div(10000).mul(_maximum)) */\n      tag_412\n      jumpi\n      0x00\n      dup1\n      revert\n    tag_412:\n        /* \"github/GACC.sol\":26909:27035  if(from == uniswapV2Pair){\r... */\n    tag_406:\n        /* \"github/GACC.sol\":26801:27046  if(from != owner() && to != owner() && !_isExcludedFromFee[from] && !_isExcludedFromFee[to]) {\r... */\n    tag_405:\n        /* \"github/GACC.sol\":27059:27087  uint256 contractTokenBalance */\n      0x00\n        /* \"github/GACC.sol\":27090:27114  balanceOf(address(this)) */\n      tag_413\n        /* \"github/GACC.sol\":27108:27112  this */\n      address\n        /* \"github/GACC.sol\":27090:27099  balanceOf */\n      tag_154\n        /* \"github/GACC.sol\":27090:27114  balanceOf(address(this)) */\n      jump\t// in\n    tag_413:\n        /* \"github/GACC.sol\":27059:27114  uint256 contractTokenBalance = balanceOf(address(this)) */\n      swap1\n      pop\n        /* \"github/GACC.sol\":27128:27152  bool overMinTokenBalance */\n      0x00\n        /* \"github/GACC.sol\":27192:27221  numTokensSellToAddToLiquidity */\n      sload(0x1a)\n        /* \"github/GACC.sol\":27155:27175  contractTokenBalance */\n      dup3\n        /* \"github/GACC.sol\":27155:27221  contractTokenBalance >=\r... */\n      lt\n      iszero\n        /* \"github/GACC.sol\":27128:27221  bool overMinTokenBalance = contractTokenBalance >=\r... */\n      swap1\n      pop\n        /* \"github/GACC.sol\":27250:27269  overMinTokenBalance */\n      dup1\n        /* \"github/GACC.sol\":27250:27303  overMinTokenBalance &&\r... */\n      dup1\n      iszero\n      tag_414\n      jumpi\n      pop\n        /* \"github/GACC.sol\":27287:27303  inSwapAndLiquify */\n      0x18\n      0x00\n      swap1\n      sload\n      swap1\n      0x0100\n      exp\n      swap1\n      div\n      0xff\n      and\n        /* \"github/GACC.sol\":27286:27303  !inSwapAndLiquify */\n      iszero\n        /* \"github/GACC.sol\":27250:27303  overMinTokenBalance &&\r... */\n    tag_414:\n        /* \"github/GACC.sol\":27250:27339  overMinTokenBalance &&\r... */\n      dup1\n      iszero\n      tag_415\n      jumpi\n      pop\n        /* \"github/GACC.sol\":27326:27339  uniswapV2Pair */\n      immutable(\"0x0a3c7d3a9708f2ca6641460faca5b070365aea07b4252df2b417f2c218d88064\")\n        /* \"github/GACC.sol\":27320:27339  to == uniswapV2Pair */\n      0xffffffffffffffffffffffffffffffffffffffff\n      and\n        /* \"github/GACC.sol\":27320:27322  to */\n      dup5\n        /* \"github/GACC.sol\":27320:27339  to == uniswapV2Pair */\n      0xffffffffffffffffffffffffffffffffffffffff\n      and\n      eq\n        /* \"github/GACC.sol\":27250:27339  overMinTokenBalance &&\r... */\n    tag_415:\n        /* \"github/GACC.sol\":27250:27377  overMinTokenBalance &&\r... */\n      dup1\n      iszero\n      tag_416\n      jumpi\n      pop\n        /* \"github/GACC.sol\":27356:27377  swapAndLiquifyEnabled */\n      0x18\n      0x01\n      swap1\n      sload\n      swap1\n      0x0100\n      exp\n      swap1\n      div\n      0xff\n      and\n        /* \"github/GACC.sol\":27250:27377  overMinTokenBalance &&\r... */\n    tag_416:\n        /* \"github/GACC.sol\":27250:27427  overMinTokenBalance &&\r... */\n      dup1\n      iszero\n      tag_417\n      jumpi\n      pop\n        /* \"github/GACC.sol\":27426:27427  0 */\n      0x00\n        /* \"github/GACC.sol\":27394:27423  numTokensSellToAddToLiquidity */\n      sload(0x1a)\n        /* \"github/GACC.sol\":27394:27427  numTokensSellToAddToLiquidity > 0 */\n      gt\n        /* \"github/GACC.sol\":27250:27427  overMinTokenBalance &&\r... */\n    tag_417:\n        /* \"github/GACC.sol\":27232:27598  if (\r... */\n      iszero\n      tag_418\n      jumpi\n        /* \"github/GACC.sol\":27477:27506  numTokensSellToAddToLiquidity */\n      sload(0x1a)\n        /* \"github/GACC.sol\":27454:27506  contractTokenBalance = numTokensSellToAddToLiquidity */\n      swap2\n      pop\n        /* \"github/GACC.sol\":27550:27586  swapAndLiquify(contractTokenBalance) */\n      tag_419\n        /* \"github/GACC.sol\":27565:27585  contractTokenBalance */\n      dup3\n        /* \"github/GACC.sol\":27550:27564  swapAndLiquify */\n      tag_420\n        /* \"github/GACC.sol\":27550:27586  swapAndLiquify(contractTokenBalance) */\n      jump\t// in\n    tag_419:\n        /* \"github/GACC.sol\":27232:27598  if (\r... */\n    tag_418:\n        /* \"github/GACC.sol\":27672:27684  bool takeFee */\n      0x00\n        /* \"github/GACC.sol\":27687:27691  true */\n      0x01\n        /* \"github/GACC.sol\":27672:27691  bool takeFee = true */\n      swap1\n      pop\n        /* \"github/GACC.sol\":27793:27811  _isExcludedFromFee */\n      0x06\n        /* \"github/GACC.sol\":27793:27817  _isExcludedFromFee[from] */\n      0x00\n        /* \"github/GACC.sol\":27812:27816  from */\n      dup8\n        /* \"github/GACC.sol\":27793:27817  _isExcludedFromFee[from] */\n      0xffffffffffffffffffffffffffffffffffffffff\n      and\n      0xffffffffffffffffffffffffffffffffffffffff\n      and\n      dup2\n      mstore\n      0x20\n      add\n      swap1\n      dup2\n      mstore\n      0x20\n      add\n      0x00\n      keccak256\n      0x00\n      swap1\n      sload\n      swap1\n      0x0100\n      exp\n      swap1\n      div\n      0xff\n      and\n        /* \"github/GACC.sol\":27793:27843  _isExcludedFromFee[from] || _isExcludedFromFee[to] */\n      dup1\n      tag_421\n      jumpi\n      pop\n        /* \"github/GACC.sol\":27821:27839  _isExcludedFromFee */\n      0x06\n        /* \"github/GACC.sol\":27821:27843  _isExcludedFromFee[to] */\n      0x00\n        /* \"github/GACC.sol\":27840:27842  to */\n      dup7\n        /* \"github/GACC.sol\":27821:27843  _isExcludedFromFee[to] */\n      0xffffffffffffffffffffffffffffffffffffffff\n      and\n      0xffffffffffffffffffffffffffffffffffffffff\n      and\n      dup2\n      mstore\n      0x20\n      add\n      swap1\n      dup2\n      mstore\n      0x20\n      add\n      0x00\n      keccak256\n      0x00\n      swap1\n      sload\n      swap1\n      0x0100\n      exp\n      swap1\n      div\n      0xff\n      and\n        /* \"github/GACC.sol\":27793:27843  _isExcludedFromFee[from] || _isExcludedFromFee[to] */\n    tag_421:\n        /* \"github/GACC.sol\":27789:27887  if (_isExcludedFromFee[from] || _isExcludedFromFee[to]) {\r... */\n      iszero\n      tag_422\n      jumpi\n        /* \"github/GACC.sol\":27870:27875  false */\n      0x00\n        /* \"github/GACC.sol\":27860:27875  takeFee = false */\n      swap1\n      pop\n        /* \"github/GACC.sol\":27789:27887  if (_isExcludedFromFee[from] || _isExcludedFromFee[to]) {\r... */\n    tag_422:\n        /* \"github/GACC.sol\":27925:27946  bool shouldSetInviter */\n      0x00\n        /* \"github/GACC.sol\":27966:27967  0 */\n      dup1\n        /* \"github/GACC.sol\":27949:27962  balanceOf(to) */\n      tag_423\n        /* \"github/GACC.sol\":27959:27961  to */\n      dup8\n        /* \"github/GACC.sol\":27949:27958  balanceOf */\n      tag_154\n        /* \"github/GACC.sol\":27949:27962  balanceOf(to) */\n      jump\t// in\n    tag_423:\n        /* \"github/GACC.sol\":27949:27967  balanceOf(to) == 0 */\n      eq\n        /* \"github/GACC.sol\":27949:28009  balanceOf(to) == 0 &&\r... */\n      dup1\n      iszero\n      tag_424\n      jumpi\n      pop\n        /* \"github/GACC.sol\":28007:28008  0 */\n      0x00\n        /* \"github/GACC.sol\":27984:28009  inviter[to] == address(0) */\n      0xffffffffffffffffffffffffffffffffffffffff\n      and\n        /* \"github/GACC.sol\":27984:27991  inviter */\n      0x1c\n        /* \"github/GACC.sol\":27984:27995  inviter[to] */\n      0x00\n        /* \"github/GACC.sol\":27992:27994  to */\n      dup9\n        /* \"github/GACC.sol\":27984:27995  inviter[to] */\n      0xffffffffffffffffffffffffffffffffffffffff\n      and\n      0xffffffffffffffffffffffffffffffffffffffff\n      and\n      dup2\n      mstore\n      0x20\n      add\n      swap1\n      dup2\n      mstore\n      0x20\n      add\n      0x00\n      keccak256\n      0x00\n      swap1\n      sload\n      swap1\n      0x0100\n      exp\n      swap1\n      div\n      0xffffffffffffffffffffffffffffffffffffffff\n      and\n        /* \"github/GACC.sol\":27984:28009  inviter[to] == address(0) */\n      0xffffffffffffffffffffffffffffffffffffffff\n      and\n      eq\n        /* \"github/GACC.sol\":27949:28009  balanceOf(to) == 0 &&\r... */\n    tag_424:\n        /* \"github/GACC.sol\":27949:28047  balanceOf(to) == 0 &&\r... */\n      dup1\n      iszero\n      tag_425\n      jumpi\n      pop\n        /* \"github/GACC.sol\":28034:28047  uniswapV2Pair */\n      immutable(\"0x0a3c7d3a9708f2ca6641460faca5b070365aea07b4252df2b417f2c218d88064\")\n        /* \"github/GACC.sol\":28026:28047  from != uniswapV2Pair */\n      0xffffffffffffffffffffffffffffffffffffffff\n      and\n        /* \"github/GACC.sol\":28026:28030  from */\n      dup8\n        /* \"github/GACC.sol\":28026:28047  from != uniswapV2Pair */\n      0xffffffffffffffffffffffffffffffffffffffff\n      and\n      eq\n      iszero\n        /* \"github/GACC.sol\":27949:28047  balanceOf(to) == 0 &&\r... */\n    tag_425:\n        /* \"github/GACC.sol\":27925:28047  bool shouldSetInviter = balanceOf(to) == 0 &&\r... */\n      swap1\n      pop\n        /* \"github/GACC.sol\":28127:28168  _tokenTransfer(from, to, amount, takeFee) */\n      tag_426\n        /* \"github/GACC.sol\":28142:28146  from */\n      dup8\n        /* \"github/GACC.sol\":28148:28150  to */\n      dup8\n        /* \"github/GACC.sol\":28152:28158  amount */\n      dup8\n        /* \"github/GACC.sol\":28160:28167  takeFee */\n      dup6\n        /* \"github/GACC.sol\":28127:28141  _tokenTransfer */\n      tag_427\n        /* \"github/GACC.sol\":28127:28168  _tokenTransfer(from, to, amount, takeFee) */\n      jump\t// in\n    tag_426:\n        /* \"github/GACC.sol\":28186:28202  shouldSetInviter */\n      dup1\n        /* \"github/GACC.sol\":28182:28249  if (shouldSetInviter) {\r... */\n      iszero\n      tag_428\n      jumpi\n        /* \"github/GACC.sol\":28233:28237  from */\n      dup7\n        /* \"github/GACC.sol\":28219:28226  inviter */\n      0x1c\n        /* \"github/GACC.sol\":28219:28230  inviter[to] */\n      0x00\n        /* \"github/GACC.sol\":28227:28229  to */\n      dup9\n        /* \"github/GACC.sol\":28219:28230  inviter[to] */\n      0xffffffffffffffffffffffffffffffffffffffff\n      and\n      0xffffffffffffffffffffffffffffffffffffffff\n      and\n      dup2\n      mstore\n      0x20\n      add\n      swap1\n      dup2\n      mstore\n      0x20\n      add\n      0x00\n      keccak256\n      0x00\n        /* \"github/GACC.sol\":28219:28237  inviter[to] = from */\n      0x0100\n      exp\n      dup2\n      sload\n      dup2\n      0xffffffffffffffffffffffffffffffffffffffff\n      mul\n      not\n      and\n      swap1\n      dup4\n      0xffffffffffffffffffffffffffffffffffffffff\n      and\n      mul\n      or\n      swap1\n      sstore\n      pop\n        /* \"github/GACC.sol\":28182:28249  if (shouldSetInviter) {\r... */\n    tag_428:\n        /* \"github/GACC.sol\":26560:28256  {\r... */\n      pop\n      pop\n      pop\n      pop\n        /* \"github/GACC.sol\":26457:28256  function _transfer(\r... */\n      pop\n      pop\n      pop\n      jump\t// out\n        /* \"github/GACC.sol\":5668:5895  function sub(\r... */\n    tag_280:\n        /* \"github/GACC.sol\":5788:5795  uint256 */\n      0x00\n        /* \"github/GACC.sol\":5821:5822  a */\n      dup4\n        /* \"github/GACC.sol\":5816:5817  b */\n      dup4\n        /* \"github/GACC.sol\":5816:5822  b <= a */\n      gt\n      iszero\n        /* \"github/GACC.sol\":5824:5836  errorMessage */\n      dup3\n        /* \"github/GACC.sol\":5808:5837  require(b <= a, errorMessage) */\n      swap1\n      tag_430\n      jumpi\n      mload(0x40)\n      0x08c379a000000000000000000000000000000000000000000000000000000000\n      dup2\n      mstore\n      0x04\n      add\n      tag_431\n      swap2\n      swap1\n      tag_69\n      jump\t// in\n    tag_431:\n      mload(0x40)\n      dup1\n      swap2\n      sub\n      swap1\n      revert\n    tag_430:\n      pop\n        /* \"github/GACC.sol\":5848:5857  uint256 c */\n      0x00\n        /* \"github/GACC.sol\":5864:5865  b */\n      dup4\n        /* \"github/GACC.sol\":5860:5861  a */\n      dup6\n        /* \"github/GACC.sol\":5860:5865  a - b */\n      tag_432\n      swap2\n      swap1\n      tag_433\n      jump\t// in\n    tag_432:\n        /* \"github/GACC.sol\":5848:5865  uint256 c = a - b */\n      swap1\n      pop\n        /* \"github/GACC.sol\":5886:5887  c */\n      dup1\n        /* \"github/GACC.sol\":5879:5887  return c */\n      swap2\n      pop\n      pop\n        /* \"github/GACC.sol\":5668:5895  function sub(\r... */\n      swap4\n      swap3\n      pop\n      pop\n      pop\n      jump\t// out\n        /* \"github/GACC.sol\":24771:24935  function _getRate() private view returns (uint256) {\r... */\n    tag_290:\n        /* \"github/GACC.sol\":24813:24820  uint256 */\n      0x00\n        /* \"github/GACC.sol\":24834:24849  uint256 rSupply */\n      dup1\n        /* \"github/GACC.sol\":24851:24866  uint256 tSupply */\n      0x00\n        /* \"github/GACC.sol\":24870:24889  _getCurrentSupply() */\n      tag_435\n        /* \"github/GACC.sol\":24870:24887  _getCurrentSupply */\n      tag_436\n        /* \"github/GACC.sol\":24870:24889  _getCurrentSupply() */\n      jump\t// in\n    tag_435:\n        /* \"github/GACC.sol\":24833:24889  (uint256 rSupply, uint256 tSupply) = _getCurrentSupply() */\n      swap2\n      pop\n      swap2\n      pop\n        /* \"github/GACC.sol\":24907:24927  rSupply.div(tSupply) */\n      tag_437\n        /* \"github/GACC.sol\":24919:24926  tSupply */\n      dup2\n        /* \"github/GACC.sol\":24907:24914  rSupply */\n      dup4\n        /* \"github/GACC.sol\":24907:24918  rSupply.div */\n      tag_292\n      swap1\n        /* \"github/GACC.sol\":24907:24927  rSupply.div(tSupply) */\n      swap2\n      swap1\n      0xffffffff\n      and\n      jump\t// in\n    tag_437:\n        /* \"github/GACC.sol\":24900:24927  return rSupply.div(tSupply) */\n      swap3\n      pop\n      pop\n      pop\n        /* \"github/GACC.sol\":24771:24935  function _getRate() private view returns (uint256) {\r... */\n      swap1\n      jump\t// out\n        /* \"github/GACC.sol\":7105:7237  function div(uint256 a, uint256 b) internal pure returns (uint256) {\r... */\n    tag_292:\n        /* \"github/GACC.sol\":7163:7170  uint256 */\n      0x00\n        /* \"github/GACC.sol\":7190:7229  div(a, b, \"SafeMath: division by zero\") */\n      tag_439\n        /* \"github/GACC.sol\":7194:7195  a */\n      dup4\n        /* \"github/GACC.sol\":7197:7198  b */\n      dup4\n        /* \"github/GACC.sol\":7190:7229  div(a, b, \"SafeMath: division by zero\") */\n      mload(0x40)\n      dup1\n      0x40\n      add\n      0x40\n      mstore\n      dup1\n      0x1a\n      dup2\n      mstore\n      0x20\n      add\n      0x536166654d6174683a206469766973696f6e206279207a65726f000000000000\n      dup2\n      mstore\n      pop\n        /* \"github/GACC.sol\":7190:7193  div */\n      tag_440\n        /* \"github/GACC.sol\":7190:7229  div(a, b, \"SafeMath: division by zero\") */\n      jump\t// in\n    tag_439:\n        /* \"github/GACC.sol\":7183:7229  return div(a, b, \"SafeMath: division by zero\") */\n      swap1\n      pop\n        /* \"github/GACC.sol\":7105:7237  function div(uint256 a, uint256 b) internal pure returns (uint256) {\r... */\n      swap3\n      swap2\n      pop\n      pop\n      jump\t// out\n        /* \"github/GACC.sol\":4762:4944  function add(uint256 a, uint256 b) internal pure returns (uint256) {\r... */\n    tag_301:\n        /* \"github/GACC.sol\":4820:4827  uint256 */\n      0x00\n        /* \"github/GACC.sol\":4840:4849  uint256 c */\n      dup1\n        /* \"github/GACC.sol\":4856:4857  b */\n      dup3\n        /* \"github/GACC.sol\":4852:4853  a */\n      dup5\n        /* \"github/GACC.sol\":4852:4857  a + b */\n      tag_442\n      swap2\n      swap1\n      tag_355\n      jump\t// in\n    tag_442:\n        /* \"github/GACC.sol\":4840:4857  uint256 c = a + b */\n      swap1\n      pop\n        /* \"github/GACC.sol\":4881:4882  a */\n      dup4\n        /* \"github/GACC.sol\":4876:4877  c */\n      dup2\n        /* \"github/GACC.sol\":4876:4882  c >= a */\n      lt\n      iszero\n        /* \"github/GACC.sol\":4868:4914  require(c >= a, \"SafeMath: addition overflow\") */\n      tag_443\n      jumpi\n      mload(0x40)\n      0x08c379a000000000000000000000000000000000000000000000000000000000\n      dup2\n      mstore\n      0x04\n      add\n      tag_444\n      swap1\n      tag_445\n      jump\t// in\n    tag_444:\n      mload(0x40)\n      dup1\n      swap2\n      sub\n      swap1\n      revert\n    tag_443:\n        /* \"github/GACC.sol\":4935:4936  c */\n      dup1\n        /* \"github/GACC.sol\":4928:4936  return c */\n      swap2\n      pop\n      pop\n        /* \"github/GACC.sol\":4762:4944  function add(uint256 a, uint256 b) internal pure returns (uint256) {\r... */\n      swap3\n      swap2\n      pop\n      pop\n      jump\t// out\n        /* \"github/GACC.sol\":6155:6628  function mul(uint256 a, uint256 b) internal pure returns (uint256) {\r... */\n    tag_409:\n        /* \"github/GACC.sol\":6213:6220  uint256 */\n      0x00\n        /* \"github/GACC.sol\":6463:6464  0 */\n      dup1\n        /* \"github/GACC.sol\":6458:6459  a */\n      dup4\n        /* \"github/GACC.sol\":6458:6464  a == 0 */\n      eq\n        /* \"github/GACC.sol\":6454:6501  if (a == 0) {\r... */\n      iszero\n      tag_447\n      jumpi\n        /* \"github/GACC.sol\":6488:6489  0 */\n      0x00\n        /* \"github/GACC.sol\":6481:6489  return 0 */\n      swap1\n      pop\n      jump(tag_446)\n        /* \"github/GACC.sol\":6454:6501  if (a == 0) {\r... */\n    tag_447:\n        /* \"github/GACC.sol\":6514:6523  uint256 c */\n      0x00\n        /* \"github/GACC.sol\":6530:6531  b */\n      dup3\n        /* \"github/GACC.sol\":6526:6527  a */\n      dup5\n        /* \"github/GACC.sol\":6526:6531  a * b */\n      tag_448\n      swap2\n      swap1\n      tag_368\n      jump\t// in\n    tag_448:\n        /* \"github/GACC.sol\":6514:6531  uint256 c = a * b */\n      swap1\n      pop\n        /* \"github/GACC.sol\":6559:6560  b */\n      dup3\n        /* \"github/GACC.sol\":6554:6555  a */\n      dup5\n        /* \"github/GACC.sol\":6550:6551  c */\n      dup3\n        /* \"github/GACC.sol\":6550:6555  c / a */\n      tag_449\n      swap2\n      swap1\n      tag_450\n      jump\t// in\n    tag_449:\n        /* \"github/GACC.sol\":6550:6560  c / a == b */\n      eq\n        /* \"github/GACC.sol\":6542:6598  require(c / a == b, \"SafeMath: multiplication overflow\") */\n      tag_451\n      jumpi\n      mload(0x40)\n      0x08c379a000000000000000000000000000000000000000000000000000000000\n      dup2\n      mstore\n      0x04\n      add\n      tag_452\n      swap1\n      tag_453\n      jump\t// in\n    tag_452:\n      mload(0x40)\n      dup1\n      swap2\n      sub\n      swap1\n      revert\n    tag_451:\n        /* \"github/GACC.sol\":6619:6620  c */\n      dup1\n        /* \"github/GACC.sol\":6612:6620  return c */\n      swap2\n      pop\n      pop\n        /* \"github/GACC.sol\":6155:6628  function mul(uint256 a, uint256 b) internal pure returns (uint256) {\r... */\n    tag_446:\n      swap3\n      swap2\n      pop\n      pop\n      jump\t// out\n        /* \"github/GACC.sol\":28265:29249  function swapAndLiquify(uint256 contractTokenBalance) private lockTheSwap {\r... */\n    tag_420:\n        /* \"github/GACC.sol\":19182:19186  true */\n      0x01\n        /* \"github/GACC.sol\":19163:19179  inSwapAndLiquify */\n      0x18\n      0x00\n        /* \"github/GACC.sol\":19163:19186  inSwapAndLiquify = true */\n      0x0100\n      exp\n      dup2\n      sload\n      dup2\n      0xff\n      mul\n      not\n      and\n      swap1\n      dup4\n      iszero\n      iszero\n      mul\n      or\n      swap1\n      sstore\n      pop\n        /* \"github/GACC.sol\":28402:28414  uint256 half */\n      0x00\n        /* \"github/GACC.sol\":28417:28444  contractTokenBalance.div(2) */\n      tag_456\n        /* \"github/GACC.sol\":28442:28443  2 */\n      0x02\n        /* \"github/GACC.sol\":28417:28437  contractTokenBalance */\n      dup4\n        /* \"github/GACC.sol\":28417:28441  contractTokenBalance.div */\n      tag_292\n      swap1\n        /* \"github/GACC.sol\":28417:28444  contractTokenBalance.div(2) */\n      swap2\n      swap1\n      0xffffffff\n      and\n      jump\t// in\n    tag_456:\n        /* \"github/GACC.sol\":28402:28444  uint256 half = contractTokenBalance.div(2) */\n      swap1\n      pop\n        /* \"github/GACC.sol\":28455:28472  uint256 otherHalf */\n      0x00\n        /* \"github/GACC.sol\":28475:28505  contractTokenBalance.sub(half) */\n      tag_457\n        /* \"github/GACC.sol\":28500:28504  half */\n      dup3\n        /* \"github/GACC.sol\":28475:28495  contractTokenBalance */\n      dup5\n        /* \"github/GACC.sol\":28475:28499  contractTokenBalance.sub */\n      tag_458\n      swap1\n        /* \"github/GACC.sol\":28475:28505  contractTokenBalance.sub(half) */\n      swap2\n      swap1\n      0xffffffff\n      and\n      jump\t// in\n    tag_457:\n        /* \"github/GACC.sol\":28455:28505  uint256 otherHalf = contractTokenBalance.sub(half) */\n      swap1\n      pop\n        /* \"github/GACC.sol\":28784:28806  uint256 initialBalance */\n      0x00\n        /* \"github/GACC.sol\":28809:28830  address(this).balance */\n      selfbalance\n        /* \"github/GACC.sol\":28784:28830  uint256 initialBalance = address(this).balance */\n      swap1\n      pop\n        /* \"github/GACC.sol\":28876:28898  swapTokensForEth(half) */\n      tag_459\n        /* \"github/GACC.sol\":28893:28897  half */\n      dup4\n        /* \"github/GACC.sol\":28876:28892  swapTokensForEth */\n      tag_460\n        /* \"github/GACC.sol\":28876:28898  swapTokensForEth(half) */\n      jump\t// in\n    tag_459:\n        /* \"github/GACC.sol\":29030:29048  uint256 newBalance */\n      0x00\n        /* \"github/GACC.sol\":29051:29092  address(this).balance.sub(initialBalance) */\n      tag_461\n        /* \"github/GACC.sol\":29077:29091  initialBalance */\n      dup3\n        /* \"github/GACC.sol\":29051:29072  address(this).balance */\n      selfbalance\n        /* \"github/GACC.sol\":29051:29076  address(this).balance.sub */\n      tag_458\n      swap1\n        /* \"github/GACC.sol\":29051:29092  address(this).balance.sub(initialBalance) */\n      swap2\n      swap1\n      0xffffffff\n      and\n      jump\t// in\n    tag_461:\n        /* \"github/GACC.sol\":29030:29092  uint256 newBalance = address(this).balance.sub(initialBalance) */\n      swap1\n      pop\n        /* \"github/GACC.sol\":29143:29178  addLiquidity(otherHalf, newBalance) */\n      tag_462\n        /* \"github/GACC.sol\":29156:29165  otherHalf */\n      dup4\n        /* \"github/GACC.sol\":29167:29177  newBalance */\n      dup3\n        /* \"github/GACC.sol\":29143:29155  addLiquidity */\n      tag_463\n        /* \"github/GACC.sol\":29143:29178  addLiquidity(otherHalf, newBalance) */\n      jump\t// in\n    tag_462:\n        /* \"github/GACC.sol\":29197:29240  SwapAndLiquify(half, newBalance, otherHalf) */\n      0x17bbfb9a6069321b6ded73bd96327c9e6b7212a5cd51ff219cd61370acafb561\n        /* \"github/GACC.sol\":29212:29216  half */\n      dup5\n        /* \"github/GACC.sol\":29218:29228  newBalance */\n      dup3\n        /* \"github/GACC.sol\":29230:29239  otherHalf */\n      dup6\n        /* \"github/GACC.sol\":29197:29240  SwapAndLiquify(half, newBalance, otherHalf) */\n      mload(0x40)\n      tag_464\n      swap4\n      swap3\n      swap2\n      swap1\n      tag_465\n      jump\t// in\n    tag_464:\n      mload(0x40)\n      dup1\n      swap2\n      sub\n      swap1\n      log1\n        /* \"github/GACC.sol\":28339:29249  {\r... */\n      pop\n      pop\n      pop\n      pop\n        /* \"github/GACC.sol\":19228:19233  false */\n      0x00\n        /* \"github/GACC.sol\":19209:19225  inSwapAndLiquify */\n      0x18\n      0x00\n        /* \"github/GACC.sol\":19209:19233  inSwapAndLiquify = false */\n      0x0100\n      exp\n      dup2\n      sload\n      dup2\n      0xff\n      mul\n      not\n      and\n      swap1\n      dup4\n      iszero\n      iszero\n      mul\n      or\n      swap1\n      sstore\n      pop\n        /* \"github/GACC.sol\":28265:29249  function swapAndLiquify(uint256 contractTokenBalance) private lockTheSwap {\r... */\n      pop\n      jump\t// out\n        /* \"github/GACC.sol\":30459:30747  function _tokenTransfer(\r... */\n    tag_427:\n        /* \"github/GACC.sol\":30615:30622  takeFee */\n      dup1\n        /* \"github/GACC.sol\":30610:30638  if (!takeFee) removeAllFee() */\n      tag_467\n      jumpi\n        /* \"github/GACC.sol\":30624:30638  removeAllFee() */\n      tag_468\n        /* \"github/GACC.sol\":30624:30636  removeAllFee */\n      tag_469\n        /* \"github/GACC.sol\":30624:30638  removeAllFee() */\n      jump\t// in\n    tag_468:\n        /* \"github/GACC.sol\":30610:30638  if (!takeFee) removeAllFee() */\n    tag_467:\n        /* \"github/GACC.sol\":30652:30696  _transferStandard(sender, recipient, amount) */\n      tag_470\n        /* \"github/GACC.sol\":30670:30676  sender */\n      dup5\n        /* \"github/GACC.sol\":30678:30687  recipient */\n      dup5\n        /* \"github/GACC.sol\":30689:30695  amount */\n      dup5\n        /* \"github/GACC.sol\":30652:30669  _transferStandard */\n      tag_471\n        /* \"github/GACC.sol\":30652:30696  _transferStandard(sender, recipient, amount) */\n      jump\t// in\n    tag_470:\n        /* \"github/GACC.sol\":30715:30722  takeFee */\n      dup1\n        /* \"github/GACC.sol\":30710:30739  if (!takeFee) restoreAllFee() */\n      tag_472\n      jumpi\n        /* \"github/GACC.sol\":30724:30739  restoreAllFee() */\n      tag_473\n        /* \"github/GACC.sol\":30724:30737  restoreAllFee */\n      tag_474\n        /* \"github/GACC.sol\":30724:30739  restoreAllFee() */\n      jump\t// in\n    tag_473:\n        /* \"github/GACC.sol\":30710:30739  if (!takeFee) restoreAllFee() */\n    tag_472:\n        /* \"github/GACC.sol\":30459:30747  function _tokenTransfer(\r... */\n      pop\n      pop\n      pop\n      pop\n      jump\t// out\n        /* \"github/GACC.sol\":24944:25201  function _getCurrentSupply() private view returns (uint256, uint256) {\r... */\n    tag_436:\n        /* \"github/GACC.sol\":24995:25002  uint256 */\n      0x00\n        /* \"github/GACC.sol\":25004:25011  uint256 */\n      dup1\n        /* \"github/GACC.sol\":25024:25039  uint256 rSupply */\n      0x00\n        /* \"github/GACC.sol\":25042:25049  _rTotal */\n      sload(0x08)\n        /* \"github/GACC.sol\":25024:25049  uint256 rSupply = _rTotal */\n      swap1\n      pop\n        /* \"github/GACC.sol\":25060:25075  uint256 tSupply */\n      0x00\n        /* \"github/GACC.sol\":25078:25085  _tTotal */\n      sload(0x07)\n        /* \"github/GACC.sol\":25060:25085  uint256 tSupply = _tTotal */\n      swap1\n      pop\n        /* \"github/GACC.sol\":25110:25130  _rTotal.div(_tTotal) */\n      tag_476\n        /* \"github/GACC.sol\":25122:25129  _tTotal */\n      sload(0x07)\n        /* \"github/GACC.sol\":25110:25117  _rTotal */\n      sload(0x08)\n        /* \"github/GACC.sol\":25110:25121  _rTotal.div */\n      tag_292\n      swap1\n        /* \"github/GACC.sol\":25110:25130  _rTotal.div(_tTotal) */\n      swap2\n      swap1\n      0xffffffff\n      and\n      jump\t// in\n    tag_476:\n        /* \"github/GACC.sol\":25100:25107  rSupply */\n      dup3\n        /* \"github/GACC.sol\":25100:25130  rSupply < _rTotal.div(_tTotal) */\n      lt\n        /* \"github/GACC.sol\":25096:25157  if (rSupply < _rTotal.div(_tTotal)) return (_rTotal, _tTotal) */\n      iszero\n      tag_477\n      jumpi\n        /* \"github/GACC.sol\":25140:25147  _rTotal */\n      sload(0x08)\n        /* \"github/GACC.sol\":25149:25156  _tTotal */\n      sload(0x07)\n        /* \"github/GACC.sol\":25132:25157  return (_rTotal, _tTotal) */\n      swap4\n      pop\n      swap4\n      pop\n      pop\n      pop\n      jump(tag_475)\n        /* \"github/GACC.sol\":25096:25157  if (rSupply < _rTotal.div(_tTotal)) return (_rTotal, _tTotal) */\n    tag_477:\n        /* \"github/GACC.sol\":25176:25183  rSupply */\n      dup2\n        /* \"github/GACC.sol\":25185:25192  tSupply */\n      dup2\n        /* \"github/GACC.sol\":25168:25193  return (rSupply, tSupply) */\n      swap4\n      pop\n      swap4\n      pop\n      pop\n      pop\n        /* \"github/GACC.sol\":24944:25201  function _getCurrentSupply() private view returns (uint256, uint256) {\r... */\n    tag_475:\n      swap1\n      swap2\n      jump\t// out\n        /* \"github/GACC.sol\":7734:8047  function div(\r... */\n    tag_440:\n        /* \"github/GACC.sol\":7854:7861  uint256 */\n      0x00\n        /* \"github/GACC.sol\":7886:7887  0 */\n      dup1\n        /* \"github/GACC.sol\":7882:7883  b */\n      dup4\n        /* \"github/GACC.sol\":7882:7887  b > 0 */\n      gt\n        /* \"github/GACC.sol\":7889:7901  errorMessage */\n      dup3\n        /* \"github/GACC.sol\":7874:7902  require(b > 0, errorMessage) */\n      swap1\n      tag_479\n      jumpi\n      mload(0x40)\n      0x08c379a000000000000000000000000000000000000000000000000000000000\n      dup2\n      mstore\n      0x04\n      add\n      tag_480\n      swap2\n      swap1\n      tag_69\n      jump\t// in\n    tag_480:\n      mload(0x40)\n      dup1\n      swap2\n      sub\n      swap1\n      revert\n    tag_479:\n      pop\n        /* \"github/GACC.sol\":7913:7922  uint256 c */\n      0x00\n        /* \"github/GACC.sol\":7929:7930  b */\n      dup4\n        /* \"github/GACC.sol\":7925:7926  a */\n      dup6\n        /* \"github/GACC.sol\":7925:7930  a / b */\n      tag_481\n      swap2\n      swap1\n      tag_450\n      jump\t// in\n    tag_481:\n        /* \"github/GACC.sol\":7913:7930  uint256 c = a / b */\n      swap1\n      pop\n        /* \"github/GACC.sol\":8038:8039  c */\n      dup1\n        /* \"github/GACC.sol\":8031:8039  return c */\n      swap2\n      pop\n      pop\n        /* \"github/GACC.sol\":7734:8047  function div(\r... */\n      swap4\n      swap3\n      pop\n      pop\n      pop\n      jump\t// out\n        /* \"github/GACC.sol\":5228:5364  function sub(uint256 a, uint256 b) internal pure returns (uint256) {\r... */\n    tag_458:\n        /* \"github/GACC.sol\":5286:5293  uint256 */\n      0x00\n        /* \"github/GACC.sol\":5313:5356  sub(a, b, \"SafeMath: subtraction overflow\") */\n      tag_483\n        /* \"github/GACC.sol\":5317:5318  a */\n      dup4\n        /* \"github/GACC.sol\":5320:5321  b */\n      dup4\n        /* \"github/GACC.sol\":5313:5356  sub(a, b, \"SafeMath: subtraction overflow\") */\n      mload(0x40)\n      dup1\n      0x40\n      add\n      0x40\n      mstore\n      dup1\n      0x1e\n      dup2\n      mstore\n      0x20\n      add\n      0x536166654d6174683a207375627472616374696f6e206f766572666c6f770000\n      dup2\n      mstore\n      pop\n        /* \"github/GACC.sol\":5313:5316  sub */\n      tag_280\n        /* \"github/GACC.sol\":5313:5356  sub(a, b, \"SafeMath: subtraction overflow\") */\n      jump\t// in\n    tag_483:\n        /* \"github/GACC.sol\":5306:5356  return sub(a, b, \"SafeMath: subtraction overflow\") */\n      swap1\n      pop\n        /* \"github/GACC.sol\":5228:5364  function sub(uint256 a, uint256 b) internal pure returns (uint256) {\r... */\n      swap3\n      swap2\n      pop\n      pop\n      jump\t// out\n        /* \"github/GACC.sol\":29258:29849  function swapTokensForEth(uint256 tokenAmount) private {\r... */\n    tag_460:\n        /* \"github/GACC.sol\":29384:29405  address[] memory path */\n      0x00\n        /* \"github/GACC.sol\":29422:29423  2 */\n      0x02\n        /* \"github/GACC.sol\":29408:29424  new address[](2) */\n      0xffffffffffffffff\n      dup2\n      gt\n      iszero\n      tag_485\n      jumpi\n      tag_486\n      tag_487\n      jump\t// in\n    tag_486:\n    tag_485:\n      mload(0x40)\n      swap1\n      dup1\n      dup3\n      mstore\n      dup1\n      0x20\n      mul\n      0x20\n      add\n      dup3\n      add\n      0x40\n      mstore\n      dup1\n      iszero\n      tag_488\n      jumpi\n      dup2\n      0x20\n      add\n      0x20\n      dup3\n      mul\n      dup1\n      calldatasize\n      dup4\n      calldatacopy\n      dup1\n      dup3\n      add\n      swap2\n      pop\n      pop\n      swap1\n      pop\n    tag_488:\n      pop\n        /* \"github/GACC.sol\":29384:29424  address[] memory path = new address[](2) */\n      swap1\n      pop\n        /* \"github/GACC.sol\":29453:29457  this */\n      address\n        /* \"github/GACC.sol\":29435:29439  path */\n      dup2\n        /* \"github/GACC.sol\":29440:29441  0 */\n      0x00\n        /* \"github/GACC.sol\":29435:29442  path[0] */\n      dup2\n      mload\n      dup2\n      lt\n      tag_489\n      jumpi\n      tag_490\n      tag_491\n      jump\t// in\n    tag_490:\n    tag_489:\n      0x20\n      mul\n      0x20\n      add\n      add\n        /* \"github/GACC.sol\":29435:29458  path[0] = address(this) */\n      swap1\n      0xffffffffffffffffffffffffffffffffffffffff\n      and\n      swap1\n      dup2\n      0xffffffffffffffffffffffffffffffffffffffff\n      and\n      dup2\n      mstore\n      pop\n      pop\n        /* \"github/GACC.sol\":29479:29494  uniswapV2Router */\n      immutable(\"0x120322e835ddaf7b57569e0455cf5d10d01f031638ad503f74e383f6b8a42ab2\")\n        /* \"github/GACC.sol\":29479:29499  uniswapV2Router.WETH */\n      0xffffffffffffffffffffffffffffffffffffffff\n      and\n      0xad5c4648\n        /* \"github/GACC.sol\":29479:29501  uniswapV2Router.WETH() */\n      mload(0x40)\n      dup2\n      0xffffffff\n      and\n      0xe0\n      shl\n      dup2\n      mstore\n      0x04\n      add\n      0x20\n      mload(0x40)\n      dup1\n      dup4\n      sub\n      dup2\n      dup7\n      dup1\n      extcodesize\n      iszero\n      dup1\n      iszero\n      tag_492\n      jumpi\n      0x00\n      dup1\n      revert\n    tag_492:\n      pop\n      gas\n      staticcall\n      iszero\n      dup1\n      iszero\n      tag_494\n      jumpi\n      returndatasize\n      0x00\n      dup1\n      returndatacopy\n      revert(0x00, returndatasize)\n    tag_494:\n      pop\n      pop\n      pop\n      pop\n      mload(0x40)\n      returndatasize\n      not(0x1f)\n      0x1f\n      dup3\n      add\n      and\n      dup3\n      add\n      dup1\n      0x40\n      mstore\n      pop\n      dup2\n      add\n      swap1\n      tag_495\n      swap2\n      swap1\n      tag_496\n      jump\t// in\n    tag_495:\n        /* \"github/GACC.sol\":29469:29473  path */\n      dup2\n        /* \"github/GACC.sol\":29474:29475  1 */\n      0x01\n        /* \"github/GACC.sol\":29469:29476  path[1] */\n      dup2\n      mload\n      dup2\n      lt\n      tag_497\n      jumpi\n      tag_498\n      tag_491\n      jump\t// in\n    tag_498:\n    tag_497:\n      0x20\n      mul\n      0x20\n      add\n      add\n        /* \"github/GACC.sol\":29469:29501  path[1] = uniswapV2Router.WETH() */\n      swap1\n      0xffffffffffffffffffffffffffffffffffffffff\n      and\n      swap1\n      dup2\n      0xffffffffffffffffffffffffffffffffffffffff\n      and\n      dup2\n      mstore\n      pop\n      pop\n        /* \"github/GACC.sol\":29515:29577  _approve(address(this), address(uniswapV2Router), tokenAmount) */\n      tag_499\n        /* \"github/GACC.sol\":29532:29536  this */\n      address\n        /* \"github/GACC.sol\":29547:29562  uniswapV2Router */\n      immutable(\"0x120322e835ddaf7b57569e0455cf5d10d01f031638ad503f74e383f6b8a42ab2\")\n        /* \"github/GACC.sol\":29565:29576  tokenAmount */\n      dup5\n        /* \"github/GACC.sol\":29515:29523  _approve */\n      tag_272\n        /* \"github/GACC.sol\":29515:29577  _approve(address(this), address(uniswapV2Router), tokenAmount) */\n      jump\t// in\n    tag_499:\n        /* \"github/GACC.sol\":29617:29632  uniswapV2Router */\n      immutable(\"0x120322e835ddaf7b57569e0455cf5d10d01f031638ad503f74e383f6b8a42ab2\")\n        /* \"github/GACC.sol\":29617:29683  uniswapV2Router.swapExactTokensForETHSupportingFeeOnTransferTokens */\n      0xffffffffffffffffffffffffffffffffffffffff\n      and\n      0x791ac947\n        /* \"github/GACC.sol\":29698:29709  tokenAmount */\n      dup4\n        /* \"github/GACC.sol\":29724:29725  0 */\n      0x00\n        /* \"github/GACC.sol\":29768:29772  path */\n      dup5\n        /* \"github/GACC.sol\":29795:29799  this */\n      address\n        /* \"github/GACC.sol\":29815:29830  block.timestamp */\n      timestamp\n        /* \"github/GACC.sol\":29617:29841  uniswapV2Router.swapExactTokensForETHSupportingFeeOnTransferTokens(\r... */\n      mload(0x40)\n      dup7\n      0xffffffff\n      and\n      0xe0\n      shl\n      dup2\n      mstore\n      0x04\n      add\n      tag_500\n      swap6\n      swap5\n      swap4\n      swap3\n      swap2\n      swap1\n      tag_501\n      jump\t// in\n    tag_500:\n      0x00\n      mload(0x40)\n      dup1\n      dup4\n      sub\n      dup2\n      0x00\n      dup8\n      dup1\n      extcodesize\n      iszero\n      dup1\n      iszero\n      tag_502\n      jumpi\n      0x00\n      dup1\n      revert\n    tag_502:\n      pop\n      gas\n      call\n      iszero\n      dup1\n      iszero\n      tag_504\n      jumpi\n      returndatasize\n      0x00\n      dup1\n      returndatacopy\n      revert(0x00, returndatasize)\n    tag_504:\n      pop\n      pop\n      pop\n      pop\n        /* \"github/GACC.sol\":29313:29849  {\r... */\n      pop\n        /* \"github/GACC.sol\":29258:29849  function swapTokensForEth(uint256 tokenAmount) private {\r... */\n      pop\n      jump\t// out\n        /* \"github/GACC.sol\":29858:30377  function addLiquidity(uint256 tokenAmount, uint256 ethAmount) private {\r... */\n    tag_463:\n        /* \"github/GACC.sol\":30006:30068  _approve(address(this), address(uniswapV2Router), tokenAmount) */\n      tag_506\n        /* \"github/GACC.sol\":30023:30027  this */\n      address\n        /* \"github/GACC.sol\":30038:30053  uniswapV2Router */\n      immutable(\"0x120322e835ddaf7b57569e0455cf5d10d01f031638ad503f74e383f6b8a42ab2\")\n        /* \"github/GACC.sol\":30056:30067  tokenAmount */\n      dup5\n        /* \"github/GACC.sol\":30006:30014  _approve */\n      tag_272\n        /* \"github/GACC.sol\":30006:30068  _approve(address(this), address(uniswapV2Router), tokenAmount) */\n      jump\t// in\n    tag_506:\n        /* \"github/GACC.sol\":30112:30127  uniswapV2Router */\n      immutable(\"0x120322e835ddaf7b57569e0455cf5d10d01f031638ad503f74e383f6b8a42ab2\")\n        /* \"github/GACC.sol\":30112:30143  uniswapV2Router.addLiquidityETH */\n      0xffffffffffffffffffffffffffffffffffffffff\n      and\n      0xf305d719\n        /* \"github/GACC.sol\":30151:30160  ethAmount */\n      dup3\n        /* \"github/GACC.sol\":30184:30188  this */\n      address\n        /* \"github/GACC.sol\":30204:30215  tokenAmount */\n      dup6\n        /* \"github/GACC.sol\":30230:30231  0 */\n      0x00\n        /* \"github/GACC.sol\":30273:30274  0 */\n      dup1\n        /* \"github/GACC.sol\":30316:30328  _deadAddress */\n      0x13\n      0x00\n      swap1\n      sload\n      swap1\n      0x0100\n      exp\n      swap1\n      div\n      0xffffffffffffffffffffffffffffffffffffffff\n      and\n        /* \"github/GACC.sol\":30343:30358  block.timestamp */\n      timestamp\n        /* \"github/GACC.sol\":30112:30369  uniswapV2Router.addLiquidityETH{value: ethAmount}(\r... */\n      mload(0x40)\n      dup9\n      0xffffffff\n      and\n      0xe0\n      shl\n      dup2\n      mstore\n      0x04\n      add\n      tag_507\n      swap7\n      swap6\n      swap5\n      swap4\n      swap3\n      swap2\n      swap1\n      tag_508\n      jump\t// in\n    tag_507:\n      0x60\n      mload(0x40)\n      dup1\n      dup4\n      sub\n      dup2\n      dup6\n      dup9\n      dup1\n      extcodesize\n      iszero\n      dup1\n      iszero\n      tag_509\n      jumpi\n      0x00\n      dup1\n      revert\n    tag_509:\n      pop\n      gas\n      call\n      iszero\n      dup1\n      iszero\n      tag_511\n      jumpi\n      returndatasize\n      0x00\n      dup1\n      returndatacopy\n      revert(0x00, returndatasize)\n    tag_511:\n      pop\n      pop\n      pop\n      pop\n      pop\n      mload(0x40)\n      returndatasize\n      not(0x1f)\n      0x1f\n      dup3\n      add\n      and\n      dup3\n      add\n      dup1\n      0x40\n      mstore\n      pop\n      dup2\n      add\n      swap1\n      tag_512\n      swap2\n      swap1\n      tag_513\n      jump\t// in\n    tag_512:\n      pop\n      pop\n      pop\n        /* \"github/GACC.sol\":29858:30377  function addLiquidity(uint256 tokenAmount, uint256 ethAmount) private {\r... */\n      pop\n      pop\n      jump\t// out\n        /* \"github/GACC.sol\":25395:25712  function removeAllFee() private {\r... */\n    tag_469:\n        /* \"github/GACC.sol\":25456:25463  _taxFee */\n      sload(0x0d)\n        /* \"github/GACC.sol\":25438:25453  _previousTaxFee */\n      0x0e\n        /* \"github/GACC.sol\":25438:25463  _previousTaxFee = _taxFee */\n      dup2\n      swap1\n      sstore\n      pop\n        /* \"github/GACC.sol\":25498:25511  _liquidityFee */\n      sload(0x0f)\n        /* \"github/GACC.sol\":25474:25495  _previousLiquidityFee */\n      0x10\n        /* \"github/GACC.sol\":25474:25511  _previousLiquidityFee = _liquidityFee */\n      dup2\n      swap1\n      sstore\n      pop\n        /* \"github/GACC.sol\":25544:25555  _destroyFee */\n      sload(0x11)\n        /* \"github/GACC.sol\":25522:25541  _previousDestroyFee */\n      0x12\n        /* \"github/GACC.sol\":25522:25555  _previousDestroyFee = _destroyFee */\n      dup2\n      swap1\n      sstore\n      pop\n        /* \"github/GACC.sol\":25588:25599  _inviterFee */\n      sload(0x15)\n        /* \"github/GACC.sol\":25566:25585  _previousInviterFee */\n      0x16\n        /* \"github/GACC.sol\":25566:25599  _previousInviterFee = _inviterFee */\n      dup2\n      swap1\n      sstore\n      pop\n        /* \"github/GACC.sol\":25623:25624  0 */\n      0x00\n        /* \"github/GACC.sol\":25613:25620  _taxFee */\n      0x0d\n        /* \"github/GACC.sol\":25613:25624  _taxFee = 0 */\n      dup2\n      swap1\n      sstore\n      pop\n        /* \"github/GACC.sol\":25651:25652  0 */\n      0x00\n        /* \"github/GACC.sol\":25635:25648  _liquidityFee */\n      0x0f\n        /* \"github/GACC.sol\":25635:25652  _liquidityFee = 0 */\n      dup2\n      swap1\n      sstore\n      pop\n        /* \"github/GACC.sol\":25677:25678  0 */\n      0x00\n        /* \"github/GACC.sol\":25663:25674  _inviterFee */\n      0x15\n        /* \"github/GACC.sol\":25663:25678  _inviterFee = 0 */\n      dup2\n      swap1\n      sstore\n      pop\n        /* \"github/GACC.sol\":25703:25704  0 */\n      0x00\n        /* \"github/GACC.sol\":25689:25700  _destroyFee */\n      0x11\n        /* \"github/GACC.sol\":25689:25704  _destroyFee = 0 */\n      dup2\n      swap1\n      sstore\n      pop\n        /* \"github/GACC.sol\":25395:25712  function removeAllFee() private {\r... */\n      jump\t// out\n        /* \"github/GACC.sol\":32537:33654  function _transferStandard(\r... */\n    tag_471:\n        /* \"github/GACC.sol\":32669:32688  uint256 currentRate */\n      0x00\n        /* \"github/GACC.sol\":32691:32701  _getRate() */\n      tag_516\n        /* \"github/GACC.sol\":32691:32699  _getRate */\n      tag_290\n        /* \"github/GACC.sol\":32691:32701  _getRate() */\n      jump\t// in\n    tag_516:\n        /* \"github/GACC.sol\":32669:32701  uint256 currentRate = _getRate() */\n      swap1\n      pop\n        /* \"github/GACC.sol\":32746:32761  uint256 rAmount */\n      0x00\n        /* \"github/GACC.sol\":32764:32788  tAmount.mul(currentRate) */\n      tag_517\n        /* \"github/GACC.sol\":32776:32787  currentRate */\n      dup3\n        /* \"github/GACC.sol\":32764:32771  tAmount */\n      dup5\n        /* \"github/GACC.sol\":32764:32775  tAmount.mul */\n      tag_409\n      swap1\n        /* \"github/GACC.sol\":32764:32788  tAmount.mul(currentRate) */\n      swap2\n      swap1\n      0xffffffff\n      and\n      jump\t// in\n    tag_517:\n        /* \"github/GACC.sol\":32746:32788  uint256 rAmount = tAmount.mul(currentRate) */\n      swap1\n      pop\n        /* \"github/GACC.sol\":32817:32845  _rOwned[sender].sub(rAmount) */\n      tag_518\n        /* \"github/GACC.sol\":32837:32844  rAmount */\n      dup2\n        /* \"github/GACC.sol\":32817:32824  _rOwned */\n      0x03\n        /* \"github/GACC.sol\":32817:32832  _rOwned[sender] */\n      0x00\n        /* \"github/GACC.sol\":32825:32831  sender */\n      dup9\n        /* \"github/GACC.sol\":32817:32832  _rOwned[sender] */\n      0xffffffffffffffffffffffffffffffffffffffff\n      and\n      0xffffffffffffffffffffffffffffffffffffffff\n      and\n      dup2\n      mstore\n      0x20\n      add\n      swap1\n      dup2\n      mstore\n      0x20\n      add\n      0x00\n      keccak256\n      sload\n        /* \"github/GACC.sol\":32817:32836  _rOwned[sender].sub */\n      tag_458\n      swap1\n        /* \"github/GACC.sol\":32817:32845  _rOwned[sender].sub(rAmount) */\n      swap2\n      swap1\n      0xffffffff\n      and\n      jump\t// in\n    tag_518:\n        /* \"github/GACC.sol\":32799:32806  _rOwned */\n      0x03\n        /* \"github/GACC.sol\":32799:32814  _rOwned[sender] */\n      0x00\n        /* \"github/GACC.sol\":32807:32813  sender */\n      dup8\n        /* \"github/GACC.sol\":32799:32814  _rOwned[sender] */\n      0xffffffffffffffffffffffffffffffffffffffff\n      and\n      0xffffffffffffffffffffffffffffffffffffffff\n      and\n      dup2\n      mstore\n      0x20\n      add\n      swap1\n      dup2\n      mstore\n      0x20\n      add\n      0x00\n      keccak256\n        /* \"github/GACC.sol\":32799:32845  _rOwned[sender] = _rOwned[sender].sub(rAmount) */\n      dup2\n      swap1\n      sstore\n      pop\n        /* \"github/GACC.sol\":32878:32949  _takeDestroyFee(sender, tAmount.div(100).mul(_destroyFee), currentRate) */\n      tag_519\n        /* \"github/GACC.sol\":32894:32900  sender */\n      dup6\n        /* \"github/GACC.sol\":32902:32935  tAmount.div(100).mul(_destroyFee) */\n      tag_520\n        /* \"github/GACC.sol\":32923:32934  _destroyFee */\n      sload(0x11)\n        /* \"github/GACC.sol\":32902:32918  tAmount.div(100) */\n      tag_521\n        /* \"github/GACC.sol\":32914:32917  100 */\n      0x64\n        /* \"github/GACC.sol\":32902:32909  tAmount */\n      dup9\n        /* \"github/GACC.sol\":32902:32913  tAmount.div */\n      tag_292\n      swap1\n        /* \"github/GACC.sol\":32902:32918  tAmount.div(100) */\n      swap2\n      swap1\n      0xffffffff\n      and\n      jump\t// in\n    tag_521:\n        /* \"github/GACC.sol\":32902:32922  tAmount.div(100).mul */\n      tag_409\n      swap1\n        /* \"github/GACC.sol\":32902:32935  tAmount.div(100).mul(_destroyFee) */\n      swap2\n      swap1\n      0xffffffff\n      and\n      jump\t// in\n    tag_520:\n        /* \"github/GACC.sol\":32937:32948  currentRate */\n      dup5\n        /* \"github/GACC.sol\":32878:32893  _takeDestroyFee */\n      tag_522\n        /* \"github/GACC.sol\":32878:32949  _takeDestroyFee(sender, tAmount.div(100).mul(_destroyFee), currentRate) */\n      jump\t// in\n    tag_519:\n        /* \"github/GACC.sol\":32991:33042  _takeLiquidity(rAmount.div(100).mul(_liquidityFee)) */\n      tag_523\n        /* \"github/GACC.sol\":33006:33041  rAmount.div(100).mul(_liquidityFee) */\n      tag_524\n        /* \"github/GACC.sol\":33027:33040  _liquidityFee */\n      sload(0x0f)\n        /* \"github/GACC.sol\":33006:33022  rAmount.div(100) */\n      tag_525\n        /* \"github/GACC.sol\":33018:33021  100 */\n      0x64\n        /* \"github/GACC.sol\":33006:33013  rAmount */\n      dup6\n        /* \"github/GACC.sol\":33006:33017  rAmount.div */\n      tag_292\n      swap1\n        /* \"github/GACC.sol\":33006:33022  rAmount.div(100) */\n      swap2\n      swap1\n      0xffffffff\n      and\n      jump\t// in\n    tag_525:\n        /* \"github/GACC.sol\":33006:33026  rAmount.div(100).mul */\n      tag_409\n      swap1\n        /* \"github/GACC.sol\":33006:33041  rAmount.div(100).mul(_liquidityFee) */\n      swap2\n      swap1\n      0xffffffff\n      and\n      jump\t// in\n    tag_524:\n        /* \"github/GACC.sol\":32991:33005  _takeLiquidity */\n      tag_526\n        /* \"github/GACC.sol\":32991:33042  _takeLiquidity(rAmount.div(100).mul(_liquidityFee)) */\n      jump\t// in\n    tag_523:\n        /* \"github/GACC.sol\":33086:33142  _takeInviterFee(sender, recipient, tAmount, currentRate) */\n      tag_527\n        /* \"github/GACC.sol\":33102:33108  sender */\n      dup6\n        /* \"github/GACC.sol\":33110:33119  recipient */\n      dup6\n        /* \"github/GACC.sol\":33121:33128  tAmount */\n      dup6\n        /* \"github/GACC.sol\":33130:33141  currentRate */\n      dup6\n        /* \"github/GACC.sol\":33086:33101  _takeInviterFee */\n      tag_528\n        /* \"github/GACC.sol\":33086:33142  _takeInviterFee(sender, recipient, tAmount, currentRate) */\n      jump\t// in\n    tag_527:\n        /* \"github/GACC.sol\":33175:33285  _reflectFee(\r... */\n      tag_529\n        /* \"github/GACC.sol\":33201:33230  rAmount.div(100).mul(_taxFee) */\n      tag_530\n        /* \"github/GACC.sol\":33222:33229  _taxFee */\n      sload(0x0d)\n        /* \"github/GACC.sol\":33201:33217  rAmount.div(100) */\n      tag_531\n        /* \"github/GACC.sol\":33213:33216  100 */\n      0x64\n        /* \"github/GACC.sol\":33201:33208  rAmount */\n      dup6\n        /* \"github/GACC.sol\":33201:33212  rAmount.div */\n      tag_292\n      swap1\n        /* \"github/GACC.sol\":33201:33217  rAmount.div(100) */\n      swap2\n      swap1\n      0xffffffff\n      and\n      jump\t// in\n    tag_531:\n        /* \"github/GACC.sol\":33201:33221  rAmount.div(100).mul */\n      tag_409\n      swap1\n        /* \"github/GACC.sol\":33201:33230  rAmount.div(100).mul(_taxFee) */\n      swap2\n      swap1\n      0xffffffff\n      and\n      jump\t// in\n    tag_530:\n        /* \"github/GACC.sol\":33245:33274  tAmount.div(100).mul(_taxFee) */\n      tag_532\n        /* \"github/GACC.sol\":33266:33273  _taxFee */\n      sload(0x0d)\n        /* \"github/GACC.sol\":33245:33261  tAmount.div(100) */\n      tag_533\n        /* \"github/GACC.sol\":33257:33260  100 */\n      0x64\n        /* \"github/GACC.sol\":33245:33252  tAmount */\n      dup9\n        /* \"github/GACC.sol\":33245:33256  tAmount.div */\n      tag_292\n      swap1\n        /* \"github/GACC.sol\":33245:33261  tAmount.div(100) */\n      swap2\n      swap1\n      0xffffffff\n      and\n      jump\t// in\n    tag_533:\n        /* \"github/GACC.sol\":33245:33265  tAmount.div(100).mul */\n      tag_409\n      swap1\n        /* \"github/GACC.sol\":33245:33274  tAmount.div(100).mul(_taxFee) */\n      swap2\n      swap1\n      0xffffffff\n      and\n      jump\t// in\n    tag_532:\n        /* \"github/GACC.sol\":33175:33186  _reflectFee */\n      tag_534\n        /* \"github/GACC.sol\":33175:33285  _reflectFee(\r... */\n      jump\t// in\n    tag_529:\n        /* \"github/GACC.sol\":33318:33339  uint256 recipientRate */\n      0x00\n        /* \"github/GACC.sol\":33440:33451  _inviterFee */\n      sload(0x15)\n        /* \"github/GACC.sol\":33413:33424  _destroyFee */\n      sload(0x11)\n        /* \"github/GACC.sol\":33390:33397  _taxFee */\n      sload(0x0d)\n        /* \"github/GACC.sol\":33361:33374  _liquidityFee */\n      sload(0x0f)\n        /* \"github/GACC.sol\":33342:33345  100 */\n      0x64\n        /* \"github/GACC.sol\":33342:33374  100 -\r... */\n      tag_535\n      swap2\n      swap1\n      tag_433\n      jump\t// in\n    tag_535:\n        /* \"github/GACC.sol\":33342:33397  100 -\r... */\n      tag_536\n      swap2\n      swap1\n      tag_433\n      jump\t// in\n    tag_536:\n        /* \"github/GACC.sol\":33342:33424  100 -\r... */\n      tag_537\n      swap2\n      swap1\n      tag_433\n      jump\t// in\n    tag_537:\n        /* \"github/GACC.sol\":33342:33451  100 -\r... */\n      tag_538\n      swap2\n      swap1\n      tag_433\n      jump\t// in\n    tag_538:\n        /* \"github/GACC.sol\":33318:33451  uint256 recipientRate = 100 -\r... */\n      swap1\n      pop\n        /* \"github/GACC.sol\":33483:33566  _rOwned[recipient].add(\r... */\n      tag_539\n        /* \"github/GACC.sol\":33520:33555  rAmount.div(100).mul(recipientRate) */\n      tag_540\n        /* \"github/GACC.sol\":33541:33554  recipientRate */\n      dup3\n        /* \"github/GACC.sol\":33520:33536  rAmount.div(100) */\n      tag_541\n        /* \"github/GACC.sol\":33532:33535  100 */\n      0x64\n        /* \"github/GACC.sol\":33520:33527  rAmount */\n      dup7\n        /* \"github/GACC.sol\":33520:33531  rAmount.div */\n      tag_292\n      swap1\n        /* \"github/GACC.sol\":33520:33536  rAmount.div(100) */\n      swap2\n      swap1\n      0xffffffff\n      and\n      jump\t// in\n    tag_541:\n        /* \"github/GACC.sol\":33520:33540  rAmount.div(100).mul */\n      tag_409\n      swap1\n        /* \"github/GACC.sol\":33520:33555  rAmount.div(100).mul(recipientRate) */\n      swap2\n      swap1\n      0xffffffff\n      and\n      jump\t// in\n    tag_540:\n        /* \"github/GACC.sol\":33483:33490  _rOwned */\n      0x03\n        /* \"github/GACC.sol\":33483:33501  _rOwned[recipient] */\n      0x00\n        /* \"github/GACC.sol\":33491:33500  recipient */\n      dup9\n        /* \"github/GACC.sol\":33483:33501  _rOwned[recipient] */\n      0xffffffffffffffffffffffffffffffffffffffff\n      and\n      0xffffffffffffffffffffffffffffffffffffffff\n      and\n      dup2\n      mstore\n      0x20\n      add\n      swap1\n      dup2\n      mstore\n      0x20\n      add\n      0x00\n      keccak256\n      sload\n        /* \"github/GACC.sol\":33483:33505  _rOwned[recipient].add */\n      tag_301\n      swap1\n        /* \"github/GACC.sol\":33483:33566  _rOwned[recipient].add(\r... */\n      swap2\n      swap1\n      0xffffffff\n      and\n      jump\t// in\n    tag_539:\n        /* \"github/GACC.sol\":33462:33469  _rOwned */\n      0x03\n        /* \"github/GACC.sol\":33462:33480  _rOwned[recipient] */\n      0x00\n        /* \"github/GACC.sol\":33470:33479  recipient */\n      dup8\n        /* \"github/GACC.sol\":33462:33480  _rOwned[recipient] */\n      0xffffffffffffffffffffffffffffffffffffffff\n      and\n      0xffffffffffffffffffffffffffffffffffffffff\n      and\n      dup2\n      mstore\n      0x20\n      add\n      swap1\n      dup2\n      mstore\n      0x20\n      add\n      0x00\n      keccak256\n        /* \"github/GACC.sol\":33462:33566  _rOwned[recipient] = _rOwned[recipient].add(\r... */\n      dup2\n      swap1\n      sstore\n      pop\n        /* \"github/GACC.sol\":33599:33608  recipient */\n      dup5\n        /* \"github/GACC.sol\":33582:33646  Transfer(sender, recipient, tAmount.div(100).mul(recipientRate)) */\n      0xffffffffffffffffffffffffffffffffffffffff\n      and\n        /* \"github/GACC.sol\":33591:33597  sender */\n      dup7\n        /* \"github/GACC.sol\":33582:33646  Transfer(sender, recipient, tAmount.div(100).mul(recipientRate)) */\n      0xffffffffffffffffffffffffffffffffffffffff\n      and\n      0xddf252ad1be2c89b69c2b068fc378daa952ba7f163c4a11628f55a4df523b3ef\n        /* \"github/GACC.sol\":33610:33645  tAmount.div(100).mul(recipientRate) */\n      tag_542\n        /* \"github/GACC.sol\":33631:33644  recipientRate */\n      dup5\n        /* \"github/GACC.sol\":33610:33626  tAmount.div(100) */\n      tag_543\n        /* \"github/GACC.sol\":33622:33625  100 */\n      0x64\n        /* \"github/GACC.sol\":33610:33617  tAmount */\n      dup11\n        /* \"github/GACC.sol\":33610:33621  tAmount.div */\n      tag_292\n      swap1\n        /* \"github/GACC.sol\":33610:33626  tAmount.div(100) */\n      swap2\n      swap1\n      0xffffffff\n      and\n      jump\t// in\n    tag_543:\n        /* \"github/GACC.sol\":33610:33630  tAmount.div(100).mul */\n      tag_409\n      swap1\n        /* \"github/GACC.sol\":33610:33645  tAmount.div(100).mul(recipientRate) */\n      swap2\n      swap1\n      0xffffffff\n      and\n      jump\t// in\n    tag_542:\n        /* \"github/GACC.sol\":33582:33646  Transfer(sender, recipient, tAmount.div(100).mul(recipientRate)) */\n      mload(0x40)\n      tag_544\n      swap2\n      swap1\n      tag_81\n      jump\t// in\n    tag_544:\n      mload(0x40)\n      dup1\n      swap2\n      sub\n      swap1\n      log3\n        /* \"github/GACC.sol\":32658:33654  {\r... */\n      pop\n      pop\n      pop\n        /* \"github/GACC.sol\":32537:33654  function _transferStandard(\r... */\n      pop\n      pop\n      pop\n      jump\t// out\n        /* \"github/GACC.sol\":25721:25934  function restoreAllFee() private {\r... */\n    tag_474:\n        /* \"github/GACC.sol\":25775:25790  _previousTaxFee */\n      sload(0x0e)\n        /* \"github/GACC.sol\":25765:25772  _taxFee */\n      0x0d\n        /* \"github/GACC.sol\":25765:25790  _taxFee = _previousTaxFee */\n      dup2\n      swap1\n      sstore\n      pop\n        /* \"github/GACC.sol\":25817:25838  _previousLiquidityFee */\n      sload(0x10)\n        /* \"github/GACC.sol\":25801:25814  _liquidityFee */\n      0x0f\n        /* \"github/GACC.sol\":25801:25838  _liquidityFee = _previousLiquidityFee */\n      dup2\n      swap1\n      sstore\n      pop\n        /* \"github/GACC.sol\":25863:25882  _previousInviterFee */\n      sload(0x16)\n        /* \"github/GACC.sol\":25849:25860  _inviterFee */\n      0x15\n        /* \"github/GACC.sol\":25849:25882  _inviterFee = _previousInviterFee */\n      dup2\n      swap1\n      sstore\n      pop\n        /* \"github/GACC.sol\":25907:25926  _previousDestroyFee */\n      sload(0x12)\n        /* \"github/GACC.sol\":25893:25904  _destroyFee */\n      0x11\n        /* \"github/GACC.sol\":25893:25926  _destroyFee = _previousDestroyFee */\n      dup2\n      swap1\n      sstore\n      pop\n        /* \"github/GACC.sol\":25721:25934  function restoreAllFee() private {\r... */\n      jump\t// out\n        /* \"github/GACC.sol\":30756:31113  function _takeDestroyFee(\r... */\n    tag_522:\n        /* \"github/GACC.sol\":30907:30908  0 */\n      0x00\n        /* \"github/GACC.sol\":30892:30903  _destroyFee */\n      sload(0x11)\n        /* \"github/GACC.sol\":30892:30908  _destroyFee == 0 */\n      eq\n        /* \"github/GACC.sol\":30888:30917  if (_destroyFee == 0) return; */\n      iszero\n      tag_547\n      jumpi\n        /* \"github/GACC.sol\":30910:30917  return; */\n      jump(tag_546)\n        /* \"github/GACC.sol\":30888:30917  if (_destroyFee == 0) return; */\n    tag_547:\n        /* \"github/GACC.sol\":30927:30942  uint256 rAmount */\n      0x00\n        /* \"github/GACC.sol\":30945:30969  tAmount.mul(currentRate) */\n      tag_548\n        /* \"github/GACC.sol\":30957:30968  currentRate */\n      dup3\n        /* \"github/GACC.sol\":30945:30952  tAmount */\n      dup5\n        /* \"github/GACC.sol\":30945:30956  tAmount.mul */\n      tag_409\n      swap1\n        /* \"github/GACC.sol\":30945:30969  tAmount.mul(currentRate) */\n      swap2\n      swap1\n      0xffffffff\n      and\n      jump\t// in\n    tag_548:\n        /* \"github/GACC.sol\":30927:30969  uint256 rAmount = tAmount.mul(currentRate) */\n      swap1\n      pop\n        /* \"github/GACC.sol\":31010:31047  _rOwned[_destroyAddress].add(rAmount) */\n      tag_549\n        /* \"github/GACC.sol\":31039:31046  rAmount */\n      dup2\n        /* \"github/GACC.sol\":31010:31017  _rOwned */\n      0x03\n        /* \"github/GACC.sol\":31010:31034  _rOwned[_destroyAddress] */\n      0x00\n        /* \"github/GACC.sol\":31018:31033  _destroyAddress */\n      0x14\n      0x00\n      swap1\n      sload\n      swap1\n      0x0100\n      exp\n      swap1\n      div\n      0xffffffffffffffffffffffffffffffffffffffff\n      and\n        /* \"github/GACC.sol\":31010:31034  _rOwned[_destroyAddress] */\n      0xffffffffffffffffffffffffffffffffffffffff\n      and\n      0xffffffffffffffffffffffffffffffffffffffff\n      and\n      dup2\n      mstore\n      0x20\n      add\n      swap1\n      dup2\n      mstore\n      0x20\n      add\n      0x00\n      keccak256\n      sload\n        /* \"github/GACC.sol\":31010:31038  _rOwned[_destroyAddress].add */\n      tag_301\n      swap1\n        /* \"github/GACC.sol\":31010:31047  _rOwned[_destroyAddress].add(rAmount) */\n      swap2\n      swap1\n      0xffffffff\n      and\n      jump\t// in\n    tag_549:\n        /* \"github/GACC.sol\":30983:30990  _rOwned */\n      0x03\n        /* \"github/GACC.sol\":30983:31007  _rOwned[_destroyAddress] */\n      0x00\n        /* \"github/GACC.sol\":30991:31006  _destroyAddress */\n      0x14\n      0x00\n      swap1\n      sload\n      swap1\n      0x0100\n      exp\n      swap1\n      div\n      0xffffffffffffffffffffffffffffffffffffffff\n      and\n        /* \"github/GACC.sol\":30983:31007  _rOwned[_destroyAddress] */\n      0xffffffffffffffffffffffffffffffffffffffff\n      and\n      0xffffffffffffffffffffffffffffffffffffffff\n      and\n      dup2\n      mstore\n      0x20\n      add\n      swap1\n      dup2\n      mstore\n      0x20\n      add\n      0x00\n      keccak256\n        /* \"github/GACC.sol\":30983:31047  _rOwned[_destroyAddress] = _rOwned[_destroyAddress].add(rAmount) */\n      dup2\n      swap1\n      sstore\n      pop\n        /* \"github/GACC.sol\":31080:31095  _destroyAddress */\n      0x14\n      0x00\n      swap1\n      sload\n      swap1\n      0x0100\n      exp\n      swap1\n      div\n      0xffffffffffffffffffffffffffffffffffffffff\n      and\n        /* \"github/GACC.sol\":31063:31105  Transfer(sender, _destroyAddress, tAmount) */\n      0xffffffffffffffffffffffffffffffffffffffff\n      and\n        /* \"github/GACC.sol\":31072:31078  sender */\n      dup5\n        /* \"github/GACC.sol\":31063:31105  Transfer(sender, _destroyAddress, tAmount) */\n      0xffffffffffffffffffffffffffffffffffffffff\n      and\n      0xddf252ad1be2c89b69c2b068fc378daa952ba7f163c4a11628f55a4df523b3ef\n        /* \"github/GACC.sol\":31097:31104  tAmount */\n      dup6\n        /* \"github/GACC.sol\":31063:31105  Transfer(sender, _destroyAddress, tAmount) */\n      mload(0x40)\n      tag_550\n      swap2\n      swap1\n      tag_81\n      jump\t// in\n    tag_550:\n      mload(0x40)\n      dup1\n      swap2\n      sub\n      swap1\n      log3\n        /* \"github/GACC.sol\":30877:31113  {\r... */\n      pop\n        /* \"github/GACC.sol\":30756:31113  function _takeDestroyFee(\r... */\n    tag_546:\n      pop\n      pop\n      pop\n      jump\t// out\n        /* \"github/GACC.sol\":31122:31294  function _takeLiquidity(uint256 rLiquidity) private {\r... */\n    tag_526:\n        /* \"github/GACC.sol\":31203:31204  0 */\n      0x00\n        /* \"github/GACC.sol\":31189:31199  rLiquidity */\n      dup2\n        /* \"github/GACC.sol\":31189:31204  rLiquidity == 0 */\n      eq\n        /* \"github/GACC.sol\":31185:31213  if (rLiquidity == 0) return; */\n      iszero\n      tag_552\n      jumpi\n        /* \"github/GACC.sol\":31206:31213  return; */\n      jump(tag_551)\n        /* \"github/GACC.sol\":31185:31213  if (rLiquidity == 0) return; */\n    tag_552:\n        /* \"github/GACC.sol\":31248:31286  _rOwned[address(this)].add(rLiquidity) */\n      tag_553\n        /* \"github/GACC.sol\":31275:31285  rLiquidity */\n      dup2\n        /* \"github/GACC.sol\":31248:31255  _rOwned */\n      0x03\n        /* \"github/GACC.sol\":31248:31270  _rOwned[address(this)] */\n      0x00\n        /* \"github/GACC.sol\":31264:31268  this */\n      address\n        /* \"github/GACC.sol\":31248:31270  _rOwned[address(this)] */\n      0xffffffffffffffffffffffffffffffffffffffff\n      and\n      0xffffffffffffffffffffffffffffffffffffffff\n      and\n      dup2\n      mstore\n      0x20\n      add\n      swap1\n      dup2\n      mstore\n      0x20\n      add\n      0x00\n      keccak256\n      sload\n        /* \"github/GACC.sol\":31248:31274  _rOwned[address(this)].add */\n      tag_301\n      swap1\n        /* \"github/GACC.sol\":31248:31286  _rOwned[address(this)].add(rLiquidity) */\n      swap2\n      swap1\n      0xffffffff\n      and\n      jump\t// in\n    tag_553:\n        /* \"github/GACC.sol\":31223:31230  _rOwned */\n      0x03\n        /* \"github/GACC.sol\":31223:31245  _rOwned[address(this)] */\n      0x00\n        /* \"github/GACC.sol\":31239:31243  this */\n      address\n        /* \"github/GACC.sol\":31223:31245  _rOwned[address(this)] */\n      0xffffffffffffffffffffffffffffffffffffffff\n      and\n      0xffffffffffffffffffffffffffffffffffffffff\n      and\n      dup2\n      mstore\n      0x20\n      add\n      swap1\n      dup2\n      mstore\n      0x20\n      add\n      0x00\n      keccak256\n        /* \"github/GACC.sol\":31223:31286  _rOwned[address(this)] = _rOwned[address(this)].add(rLiquidity) */\n      dup2\n      swap1\n      sstore\n      pop\n        /* \"github/GACC.sol\":31122:31294  function _takeLiquidity(uint256 rLiquidity) private {\r... */\n    tag_551:\n      pop\n      jump\t// out\n        /* \"github/GACC.sol\":31459:32528  function _takeInviterFee(\r... */\n    tag_528:\n        /* \"github/GACC.sol\":31638:31639  0 */\n      0x00\n        /* \"github/GACC.sol\":31623:31634  _inviterFee */\n      sload(0x15)\n        /* \"github/GACC.sol\":31623:31639  _inviterFee == 0 */\n      eq\n        /* \"github/GACC.sol\":31619:31648  if (_inviterFee == 0) return; */\n      iszero\n      tag_555\n      jumpi\n        /* \"github/GACC.sol\":31641:31648  return; */\n      jump(tag_554)\n        /* \"github/GACC.sol\":31619:31648  if (_inviterFee == 0) return; */\n    tag_555:\n        /* \"github/GACC.sol\":31661:31672  address cur */\n      0x00\n        /* \"github/GACC.sol\":31697:31710  uniswapV2Pair */\n      immutable(\"0x0a3c7d3a9708f2ca6641460faca5b070365aea07b4252df2b417f2c218d88064\")\n        /* \"github/GACC.sol\":31687:31710  sender == uniswapV2Pair */\n      0xffffffffffffffffffffffffffffffffffffffff\n      and\n        /* \"github/GACC.sol\":31687:31693  sender */\n      dup6\n        /* \"github/GACC.sol\":31687:31710  sender == uniswapV2Pair */\n      0xffffffffffffffffffffffffffffffffffffffff\n      and\n      eq\n        /* \"github/GACC.sol\":31683:31831  if (sender == uniswapV2Pair) {\r... */\n      iszero\n      tag_556\n      jumpi\n        /* \"github/GACC.sol\":31733:31742  recipient */\n      dup4\n        /* \"github/GACC.sol\":31727:31742  cur = recipient */\n      swap1\n      pop\n        /* \"github/GACC.sol\":31683:31831  if (sender == uniswapV2Pair) {\r... */\n      jump(tag_557)\n    tag_556:\n        /* \"github/GACC.sol\":31777:31790  uniswapV2Pair */\n      immutable(\"0x0a3c7d3a9708f2ca6641460faca5b070365aea07b4252df2b417f2c218d88064\")\n        /* \"github/GACC.sol\":31764:31790  recipient == uniswapV2Pair */\n      0xffffffffffffffffffffffffffffffffffffffff\n      and\n        /* \"github/GACC.sol\":31764:31773  recipient */\n      dup5\n        /* \"github/GACC.sol\":31764:31790  recipient == uniswapV2Pair */\n      0xffffffffffffffffffffffffffffffffffffffff\n      and\n      eq\n        /* \"github/GACC.sol\":31760:31831  if (recipient == uniswapV2Pair) {\r... */\n      iszero\n      tag_558\n      jumpi\n        /* \"github/GACC.sol\":31813:31819  sender */\n      dup5\n        /* \"github/GACC.sol\":31807:31819  cur = sender */\n      swap1\n      pop\n        /* \"github/GACC.sol\":31760:31831  if (recipient == uniswapV2Pair) {\r... */\n    tag_558:\n        /* \"github/GACC.sol\":31683:31831  if (sender == uniswapV2Pair) {\r... */\n    tag_557:\n        /* \"github/GACC.sol\":31860:31861  0 */\n      0x00\n        /* \"github/GACC.sol\":31845:31862  cur == address(0) */\n      0xffffffffffffffffffffffffffffffffffffffff\n      and\n        /* \"github/GACC.sol\":31845:31848  cur */\n      dup2\n        /* \"github/GACC.sol\":31845:31862  cur == address(0) */\n      0xffffffffffffffffffffffffffffffffffffffff\n      and\n      eq\n        /* \"github/GACC.sol\":31841:31897  if (cur == address(0)) {\r... */\n      iszero\n      tag_559\n      jumpi\n        /* \"github/GACC.sol\":31879:31886  return; */\n      pop\n      jump(tag_554)\n        /* \"github/GACC.sol\":31841:31897  if (cur == address(0)) {\r... */\n    tag_559:\n        /* \"github/GACC.sol\":31910:31927  uint256 accurRate */\n      0x00\n        /* \"github/GACC.sol\":31943:31951  int256 i */\n      dup1\n        /* \"github/GACC.sol\":31954:31955  0 */\n      0x00\n        /* \"github/GACC.sol\":31943:31955  int256 i = 0 */\n      swap1\n      pop\n        /* \"github/GACC.sol\":31938:32521  for (int256 i = 0; i < 5; i++) {\r... */\n    tag_560:\n        /* \"github/GACC.sol\":31961:31962  5 */\n      0x05\n        /* \"github/GACC.sol\":31957:31958  i */\n      dup2\n        /* \"github/GACC.sol\":31957:31962  i < 5 */\n      slt\n        /* \"github/GACC.sol\":31938:32521  for (int256 i = 0; i < 5; i++) {\r... */\n      iszero\n      tag_561\n      jumpi\n        /* \"github/GACC.sol\":31984:31996  uint256 rate */\n      0x00\n        /* \"github/GACC.sol\":32020:32021  0 */\n      dup1\n        /* \"github/GACC.sol\":32015:32016  i */\n      dup3\n        /* \"github/GACC.sol\":32015:32021  i == 0 */\n      eq\n        /* \"github/GACC.sol\":32011:32115  if (i == 0) {\r... */\n      iszero\n      tag_563\n      jumpi\n        /* \"github/GACC.sol\":32049:32050  2 */\n      0x02\n        /* \"github/GACC.sol\":32042:32050  rate = 2 */\n      swap1\n      pop\n        /* \"github/GACC.sol\":32011:32115  if (i == 0) {\r... */\n      jump(tag_564)\n    tag_563:\n        /* \"github/GACC.sol\":32098:32099  1 */\n      0x01\n        /* \"github/GACC.sol\":32091:32099  rate = 1 */\n      swap1\n      pop\n        /* \"github/GACC.sol\":32011:32115  if (i == 0) {\r... */\n    tag_564:\n        /* \"github/GACC.sol\":32135:32142  inviter */\n      0x1c\n        /* \"github/GACC.sol\":32135:32147  inviter[cur] */\n      0x00\n        /* \"github/GACC.sol\":32143:32146  cur */\n      dup6\n        /* \"github/GACC.sol\":32135:32147  inviter[cur] */\n      0xffffffffffffffffffffffffffffffffffffffff\n      and\n      0xffffffffffffffffffffffffffffffffffffffff\n      and\n      dup2\n      mstore\n      0x20\n      add\n      swap1\n      dup2\n      mstore\n      0x20\n      add\n      0x00\n      keccak256\n      0x00\n      swap1\n      sload\n      swap1\n      0x0100\n      exp\n      swap1\n      div\n      0xffffffffffffffffffffffffffffffffffffffff\n      and\n        /* \"github/GACC.sol\":32129:32147  cur = inviter[cur] */\n      swap4\n      pop\n        /* \"github/GACC.sol\":32181:32182  0 */\n      0x00\n        /* \"github/GACC.sol\":32166:32183  cur == address(0) */\n      0xffffffffffffffffffffffffffffffffffffffff\n      and\n        /* \"github/GACC.sol\":32166:32169  cur */\n      dup5\n        /* \"github/GACC.sol\":32166:32183  cur == address(0) */\n      0xffffffffffffffffffffffffffffffffffffffff\n      and\n      eq\n        /* \"github/GACC.sol\":32162:32225  if (cur == address(0)) {\r... */\n      iszero\n      tag_565\n      jumpi\n        /* \"github/GACC.sol\":32204:32209  break */\n      pop\n      jump(tag_561)\n        /* \"github/GACC.sol\":32162:32225  if (cur == address(0)) {\r... */\n    tag_565:\n        /* \"github/GACC.sol\":32251:32270  accurRate.add(rate) */\n      tag_566\n        /* \"github/GACC.sol\":32265:32269  rate */\n      dup2\n        /* \"github/GACC.sol\":32251:32260  accurRate */\n      dup5\n        /* \"github/GACC.sol\":32251:32264  accurRate.add */\n      tag_301\n      swap1\n        /* \"github/GACC.sol\":32251:32270  accurRate.add(rate) */\n      swap2\n      swap1\n      0xffffffff\n      and\n      jump\t// in\n    tag_566:\n        /* \"github/GACC.sol\":32239:32270  accurRate = accurRate.add(rate) */\n      swap3\n      pop\n        /* \"github/GACC.sol\":32288:32306  uint256 curTAmount */\n      0x00\n        /* \"github/GACC.sol\":32309:32335  tAmount.div(100).mul(rate) */\n      tag_567\n        /* \"github/GACC.sol\":32330:32334  rate */\n      dup3\n        /* \"github/GACC.sol\":32309:32325  tAmount.div(100) */\n      tag_568\n        /* \"github/GACC.sol\":32321:32324  100 */\n      0x64\n        /* \"github/GACC.sol\":32309:32316  tAmount */\n      dup11\n        /* \"github/GACC.sol\":32309:32320  tAmount.div */\n      tag_292\n      swap1\n        /* \"github/GACC.sol\":32309:32325  tAmount.div(100) */\n      swap2\n      swap1\n      0xffffffff\n      and\n      jump\t// in\n    tag_568:\n        /* \"github/GACC.sol\":32309:32329  tAmount.div(100).mul */\n      tag_409\n      swap1\n        /* \"github/GACC.sol\":32309:32335  tAmount.div(100).mul(rate) */\n      swap2\n      swap1\n      0xffffffff\n      and\n      jump\t// in\n    tag_567:\n        /* \"github/GACC.sol\":32288:32335  uint256 curTAmount = tAmount.div(100).mul(rate) */\n      swap1\n      pop\n        /* \"github/GACC.sol\":32350:32368  uint256 curRAmount */\n      0x00\n        /* \"github/GACC.sol\":32371:32398  curTAmount.mul(currentRate) */\n      tag_569\n        /* \"github/GACC.sol\":32386:32397  currentRate */\n      dup8\n        /* \"github/GACC.sol\":32371:32381  curTAmount */\n      dup4\n        /* \"github/GACC.sol\":32371:32385  curTAmount.mul */\n      tag_409\n      swap1\n        /* \"github/GACC.sol\":32371:32398  curTAmount.mul(currentRate) */\n      swap2\n      swap1\n      0xffffffff\n      and\n      jump\t// in\n    tag_569:\n        /* \"github/GACC.sol\":32350:32398  uint256 curRAmount = curTAmount.mul(currentRate) */\n      swap1\n      pop\n        /* \"github/GACC.sol\":32428:32456  _rOwned[cur].add(curRAmount) */\n      tag_570\n        /* \"github/GACC.sol\":32445:32455  curRAmount */\n      dup2\n        /* \"github/GACC.sol\":32428:32435  _rOwned */\n      0x03\n        /* \"github/GACC.sol\":32428:32440  _rOwned[cur] */\n      0x00\n        /* \"github/GACC.sol\":32436:32439  cur */\n      dup10\n        /* \"github/GACC.sol\":32428:32440  _rOwned[cur] */\n      0xffffffffffffffffffffffffffffffffffffffff\n      and\n      0xffffffffffffffffffffffffffffffffffffffff\n      and\n      dup2\n      mstore\n      0x20\n      add\n      swap1\n      dup2\n      mstore\n      0x20\n      add\n      0x00\n      keccak256\n      sload\n        /* \"github/GACC.sol\":32428:32444  _rOwned[cur].add */\n      tag_301\n      swap1\n        /* \"github/GACC.sol\":32428:32456  _rOwned[cur].add(curRAmount) */\n      swap2\n      swap1\n      0xffffffff\n      and\n      jump\t// in\n    tag_570:\n        /* \"github/GACC.sol\":32413:32420  _rOwned */\n      0x03\n        /* \"github/GACC.sol\":32413:32425  _rOwned[cur] */\n      0x00\n        /* \"github/GACC.sol\":32421:32424  cur */\n      dup9\n        /* \"github/GACC.sol\":32413:32425  _rOwned[cur] */\n      0xffffffffffffffffffffffffffffffffffffffff\n      and\n      0xffffffffffffffffffffffffffffffffffffffff\n      and\n      dup2\n      mstore\n      0x20\n      add\n      swap1\n      dup2\n      mstore\n      0x20\n      add\n      0x00\n      keccak256\n        /* \"github/GACC.sol\":32413:32456  _rOwned[cur] = _rOwned[cur].add(curRAmount) */\n      dup2\n      swap1\n      sstore\n      pop\n        /* \"github/GACC.sol\":32493:32496  cur */\n      dup6\n        /* \"github/GACC.sol\":32476:32509  Transfer(sender, cur, curTAmount) */\n      0xffffffffffffffffffffffffffffffffffffffff\n      and\n        /* \"github/GACC.sol\":32485:32491  sender */\n      dup11\n        /* \"github/GACC.sol\":32476:32509  Transfer(sender, cur, curTAmount) */\n      0xffffffffffffffffffffffffffffffffffffffff\n      and\n      0xddf252ad1be2c89b69c2b068fc378daa952ba7f163c4a11628f55a4df523b3ef\n        /* \"github/GACC.sol\":32498:32508  curTAmount */\n      dup5\n        /* \"github/GACC.sol\":32476:32509  Transfer(sender, cur, curTAmount) */\n      mload(0x40)\n      tag_571\n      swap2\n      swap1\n      tag_81\n      jump\t// in\n    tag_571:\n      mload(0x40)\n      dup1\n      swap2\n      sub\n      swap1\n      log3\n        /* \"github/GACC.sol\":31969:32521  {\r... */\n      pop\n      pop\n      pop\n        /* \"github/GACC.sol\":31964:31967  i++ */\n      dup1\n      dup1\n      tag_572\n      swap1\n      tag_573\n      jump\t// in\n    tag_572:\n      swap2\n      pop\n      pop\n        /* \"github/GACC.sol\":31938:32521  for (int256 i = 0; i < 5; i++) {\r... */\n      jump(tag_560)\n    tag_561:\n      pop\n        /* \"github/GACC.sol\":31608:32528  {\r... */\n      pop\n      pop\n        /* \"github/GACC.sol\":31459:32528  function _takeInviterFee(\r... */\n    tag_554:\n      pop\n      pop\n      pop\n      pop\n      jump\t// out\n        /* \"github/GACC.sol\":31303:31450  function _reflectFee(uint256 rFee, uint256 tFee) private {\r... */\n    tag_534:\n        /* \"github/GACC.sol\":31381:31398  _rTotal.sub(rFee) */\n      tag_575\n        /* \"github/GACC.sol\":31393:31397  rFee */\n      dup3\n        /* \"github/GACC.sol\":31381:31388  _rTotal */\n      sload(0x08)\n        /* \"github/GACC.sol\":31381:31392  _rTotal.sub */\n      tag_458\n      swap1\n        /* \"github/GACC.sol\":31381:31398  _rTotal.sub(rFee) */\n      swap2\n      swap1\n      0xffffffff\n      and\n      jump\t// in\n    tag_575:\n        /* \"github/GACC.sol\":31371:31378  _rTotal */\n      0x08\n        /* \"github/GACC.sol\":31371:31398  _rTotal = _rTotal.sub(rFee) */\n      dup2\n      swap1\n      sstore\n      pop\n        /* \"github/GACC.sol\":31422:31442  _tFeeTotal.add(tFee) */\n      tag_576\n        /* \"github/GACC.sol\":31437:31441  tFee */\n      dup2\n        /* \"github/GACC.sol\":31422:31432  _tFeeTotal */\n      sload(0x09)\n        /* \"github/GACC.sol\":31422:31436  _tFeeTotal.add */\n      tag_301\n      swap1\n        /* \"github/GACC.sol\":31422:31442  _tFeeTotal.add(tFee) */\n      swap2\n      swap1\n      0xffffffff\n      and\n      jump\t// in\n    tag_576:\n        /* \"github/GACC.sol\":31409:31419  _tFeeTotal */\n      0x09\n        /* \"github/GACC.sol\":31409:31442  _tFeeTotal = _tFeeTotal.add(tFee) */\n      dup2\n      swap1\n      sstore\n      pop\n        /* \"github/GACC.sol\":31303:31450  function _reflectFee(uint256 rFee, uint256 tFee) private {\r... */\n      pop\n      pop\n      jump\t// out\n        /* \"#utility.yul\":7:146   */\n    tag_578:\n        /* \"#utility.yul\":53:58   */\n      0x00\n        /* \"#utility.yul\":91:97   */\n      dup2\n        /* \"#utility.yul\":78:98   */\n      calldataload\n        /* \"#utility.yul\":69:98   */\n      swap1\n      pop\n        /* \"#utility.yul\":107:140   */\n      tag_580\n        /* \"#utility.yul\":134:139   */\n      dup2\n        /* \"#utility.yul\":107:140   */\n      tag_581\n      jump\t// in\n    tag_580:\n        /* \"#utility.yul\":59:146   */\n      swap3\n      swap2\n      pop\n      pop\n      jump\t// out\n        /* \"#utility.yul\":152:295   */\n    tag_582:\n        /* \"#utility.yul\":209:214   */\n      0x00\n        /* \"#utility.yul\":240:246   */\n      dup2\n        /* \"#utility.yul\":234:247   */\n      mload\n        /* \"#utility.yul\":225:247   */\n      swap1\n      pop\n        /* \"#utility.yul\":256:289   */\n      tag_584\n        /* \"#utility.yul\":283:288   */\n      dup2\n        /* \"#utility.yul\":256:289   */\n      tag_581\n      jump\t// in\n    tag_584:\n        /* \"#utility.yul\":215:295   */\n      swap3\n      swap2\n      pop\n      pop\n      jump\t// out\n        /* \"#utility.yul\":301:456   */\n    tag_585:\n        /* \"#utility.yul\":355:360   */\n      0x00\n        /* \"#utility.yul\":393:399   */\n      dup2\n        /* \"#utility.yul\":380:400   */\n      calldataload\n        /* \"#utility.yul\":371:400   */\n      swap1\n      pop\n        /* \"#utility.yul\":409:450   */\n      tag_587\n        /* \"#utility.yul\":444:449   */\n      dup2\n        /* \"#utility.yul\":409:450   */\n      tag_588\n      jump\t// in\n    tag_587:\n        /* \"#utility.yul\":361:456   */\n      swap3\n      swap2\n      pop\n      pop\n      jump\t// out\n        /* \"#utility.yul\":462:595   */\n    tag_589:\n        /* \"#utility.yul\":505:510   */\n      0x00\n        /* \"#utility.yul\":543:549   */\n      dup2\n        /* \"#utility.yul\":530:550   */\n      calldataload\n        /* \"#utility.yul\":521:550   */\n      swap1\n      pop\n        /* \"#utility.yul\":559:589   */\n      tag_591\n        /* \"#utility.yul\":583:588   */\n      dup2\n        /* \"#utility.yul\":559:589   */\n      tag_592\n      jump\t// in\n    tag_591:\n        /* \"#utility.yul\":511:595   */\n      swap3\n      swap2\n      pop\n      pop\n      jump\t// out\n        /* \"#utility.yul\":601:740   */\n    tag_593:\n        /* \"#utility.yul\":647:652   */\n      0x00\n        /* \"#utility.yul\":685:691   */\n      dup2\n        /* \"#utility.yul\":672:692   */\n      calldataload\n        /* \"#utility.yul\":663:692   */\n      swap1\n      pop\n        /* \"#utility.yul\":701:734   */\n      tag_595\n        /* \"#utility.yul\":728:733   */\n      dup2\n        /* \"#utility.yul\":701:734   */\n      tag_596\n      jump\t// in\n    tag_595:\n        /* \"#utility.yul\":653:740   */\n      swap3\n      swap2\n      pop\n      pop\n      jump\t// out\n        /* \"#utility.yul\":746:889   */\n    tag_597:\n        /* \"#utility.yul\":803:808   */\n      0x00\n        /* \"#utility.yul\":834:840   */\n      dup2\n        /* \"#utility.yul\":828:841   */\n      mload\n        /* \"#utility.yul\":819:841   */\n      swap1\n      pop\n        /* \"#utility.yul\":850:883   */\n      tag_599\n        /* \"#utility.yul\":877:882   */\n      dup2\n        /* \"#utility.yul\":850:883   */\n      tag_596\n      jump\t// in\n    tag_599:\n        /* \"#utility.yul\":809:889   */\n      swap3\n      swap2\n      pop\n      pop\n      jump\t// out\n        /* \"#utility.yul\":895:1224   */\n    tag_127:\n        /* \"#utility.yul\":954:960   */\n      0x00\n        /* \"#utility.yul\":1003:1005   */\n      0x20\n        /* \"#utility.yul\":991:1000   */\n      dup3\n        /* \"#utility.yul\":982:989   */\n      dup5\n        /* \"#utility.yul\":978:1001   */\n      sub\n        /* \"#utility.yul\":974:1006   */\n      slt\n        /* \"#utility.yul\":971:973   */\n      iszero\n      tag_601\n      jumpi\n        /* \"#utility.yul\":1009:1088   */\n      tag_602\n      tag_603\n      jump\t// in\n    tag_602:\n        /* \"#utility.yul\":971:973   */\n    tag_601:\n        /* \"#utility.yul\":1129:1130   */\n      0x00\n        /* \"#utility.yul\":1154:1207   */\n      tag_604\n        /* \"#utility.yul\":1199:1206   */\n      dup5\n        /* \"#utility.yul\":1190:1196   */\n      dup3\n        /* \"#utility.yul\":1179:1188   */\n      dup6\n        /* \"#utility.yul\":1175:1197   */\n      add\n        /* \"#utility.yul\":1154:1207   */\n      tag_578\n      jump\t// in\n    tag_604:\n        /* \"#utility.yul\":1144:1207   */\n      swap2\n      pop\n        /* \"#utility.yul\":1100:1217   */\n      pop\n        /* \"#utility.yul\":961:1224   */\n      swap3\n      swap2\n      pop\n      pop\n      jump\t// out\n        /* \"#utility.yul\":1230:1581   */\n    tag_496:\n        /* \"#utility.yul\":1300:1306   */\n      0x00\n        /* \"#utility.yul\":1349:1351   */\n      0x20\n        /* \"#utility.yul\":1337:1346   */\n      dup3\n        /* \"#utility.yul\":1328:1335   */\n      dup5\n        /* \"#utility.yul\":1324:1347   */\n      sub\n        /* \"#utility.yul\":1320:1352   */\n      slt\n        /* \"#utility.yul\":1317:1319   */\n      iszero\n      tag_606\n      jumpi\n        /* \"#utility.yul\":1355:1434   */\n      tag_607\n      tag_603\n      jump\t// in\n    tag_607:\n        /* \"#utility.yul\":1317:1319   */\n    tag_606:\n        /* \"#utility.yul\":1475:1476   */\n      0x00\n        /* \"#utility.yul\":1500:1564   */\n      tag_608\n        /* \"#utility.yul\":1556:1563   */\n      dup5\n        /* \"#utility.yul\":1547:1553   */\n      dup3\n        /* \"#utility.yul\":1536:1545   */\n      dup6\n        /* \"#utility.yul\":1532:1554   */\n      add\n        /* \"#utility.yul\":1500:1564   */\n      tag_582\n      jump\t// in\n    tag_608:\n        /* \"#utility.yul\":1490:1564   */\n      swap2\n      pop\n        /* \"#utility.yul\":1446:1574   */\n      pop\n        /* \"#utility.yul\":1307:1581   */\n      swap3\n      swap2\n      pop\n      pop\n      jump\t// out\n        /* \"#utility.yul\":1587:2077   */\n    tag_58:\n        /* \"#utility.yul\":1663:1669   */\n      0x00\n        /* \"#utility.yul\":1671:1677   */\n      dup1\n        /* \"#utility.yul\":1720:1722   */\n      0x40\n        /* \"#utility.yul\":1708:1717   */\n      dup4\n        /* \"#utility.yul\":1699:1706   */\n      dup6\n        /* \"#utility.yul\":1695:1718   */\n      sub\n        /* \"#utility.yul\":1691:1723   */\n      slt\n        /* \"#utility.yul\":1688:1690   */\n      iszero\n      tag_610\n      jumpi\n        /* \"#utility.yul\":1726:1805   */\n      tag_611\n      tag_603\n      jump\t// in\n    tag_611:\n        /* \"#utility.yul\":1688:1690   */\n    tag_610:\n        /* \"#utility.yul\":1846:1847   */\n      0x00\n        /* \"#utility.yul\":1871:1932   */\n      tag_612\n        /* \"#utility.yul\":1924:1931   */\n      dup6\n        /* \"#utility.yul\":1915:1921   */\n      dup3\n        /* \"#utility.yul\":1904:1913   */\n      dup7\n        /* \"#utility.yul\":1900:1922   */\n      add\n        /* \"#utility.yul\":1871:1932   */\n      tag_585\n      jump\t// in\n    tag_612:\n        /* \"#utility.yul\":1861:1932   */\n      swap3\n      pop\n        /* \"#utility.yul\":1817:1942   */\n      pop\n        /* \"#utility.yul\":1981:1983   */\n      0x20\n        /* \"#utility.yul\":2007:2060   */\n      tag_613\n        /* \"#utility.yul\":2052:2059   */\n      dup6\n        /* \"#utility.yul\":2043:2049   */\n      dup3\n        /* \"#utility.yul\":2032:2041   */\n      dup7\n        /* \"#utility.yul\":2028:2050   */\n      add\n        /* \"#utility.yul\":2007:2060   */\n      tag_593\n      jump\t// in\n    tag_613:\n        /* \"#utility.yul\":1997:2060   */\n      swap2\n      pop\n        /* \"#utility.yul\":1952:2070   */\n      pop\n        /* \"#utility.yul\":1678:2077   */\n      swap3\n      pop\n      swap3\n      swap1\n      pop\n      jump\t// out\n        /* \"#utility.yul\":2083:2557   */\n    tag_224:\n        /* \"#utility.yul\":2151:2157   */\n      0x00\n        /* \"#utility.yul\":2159:2165   */\n      dup1\n        /* \"#utility.yul\":2208:2210   */\n      0x40\n        /* \"#utility.yul\":2196:2205   */\n      dup4\n        /* \"#utility.yul\":2187:2194   */\n      dup6\n        /* \"#utility.yul\":2183:2206   */\n      sub\n        /* \"#utility.yul\":2179:2211   */\n      slt\n        /* \"#utility.yul\":2176:2178   */\n      iszero\n      tag_615\n      jumpi\n        /* \"#utility.yul\":2214:2293   */\n      tag_616\n      tag_603\n      jump\t// in\n    tag_616:\n        /* \"#utility.yul\":2176:2178   */\n    tag_615:\n        /* \"#utility.yul\":2334:2335   */\n      0x00\n        /* \"#utility.yul\":2359:2412   */\n      tag_617\n        /* \"#utility.yul\":2404:2411   */\n      dup6\n        /* \"#utility.yul\":2395:2401   */\n      dup3\n        /* \"#utility.yul\":2384:2393   */\n      dup7\n        /* \"#utility.yul\":2380:2402   */\n      add\n        /* \"#utility.yul\":2359:2412   */\n      tag_578\n      jump\t// in\n    tag_617:\n        /* \"#utility.yul\":2349:2412   */\n      swap3\n      pop\n        /* \"#utility.yul\":2305:2422   */\n      pop\n        /* \"#utility.yul\":2461:2463   */\n      0x20\n        /* \"#utility.yul\":2487:2540   */\n      tag_618\n        /* \"#utility.yul\":2532:2539   */\n      dup6\n        /* \"#utility.yul\":2523:2529   */\n      dup3\n        /* \"#utility.yul\":2512:2521   */\n      dup7\n        /* \"#utility.yul\":2508:2530   */\n      add\n        /* \"#utility.yul\":2487:2540   */\n      tag_578\n      jump\t// in\n    tag_618:\n        /* \"#utility.yul\":2477:2540   */\n      swap2\n      pop\n        /* \"#utility.yul\":2432:2550   */\n      pop\n        /* \"#utility.yul\":2166:2557   */\n      swap3\n      pop\n      swap3\n      swap1\n      pop\n      jump\t// out\n        /* \"#utility.yul\":2563:3182   */\n    tag_94:\n        /* \"#utility.yul\":2640:2646   */\n      0x00\n        /* \"#utility.yul\":2648:2654   */\n      dup1\n        /* \"#utility.yul\":2656:2662   */\n      0x00\n        /* \"#utility.yul\":2705:2707   */\n      0x60\n        /* \"#utility.yul\":2693:2702   */\n      dup5\n        /* \"#utility.yul\":2684:2691   */\n      dup7\n        /* \"#utility.yul\":2680:2703   */\n      sub\n        /* \"#utility.yul\":2676:2708   */\n      slt\n        /* \"#utility.yul\":2673:2675   */\n      iszero\n      tag_620\n      jumpi\n        /* \"#utility.yul\":2711:2790   */\n      tag_621\n      tag_603\n      jump\t// in\n    tag_621:\n        /* \"#utility.yul\":2673:2675   */\n    tag_620:\n        /* \"#utility.yul\":2831:2832   */\n      0x00\n        /* \"#utility.yul\":2856:2909   */\n      tag_622\n        /* \"#utility.yul\":2901:2908   */\n      dup7\n        /* \"#utility.yul\":2892:2898   */\n      dup3\n        /* \"#utility.yul\":2881:2890   */\n      dup8\n        /* \"#utility.yul\":2877:2899   */\n      add\n        /* \"#utility.yul\":2856:2909   */\n      tag_578\n      jump\t// in\n    tag_622:\n        /* \"#utility.yul\":2846:2909   */\n      swap4\n      pop\n        /* \"#utility.yul\":2802:2919   */\n      pop\n        /* \"#utility.yul\":2958:2960   */\n      0x20\n        /* \"#utility.yul\":2984:3037   */\n      tag_623\n        /* \"#utility.yul\":3029:3036   */\n      dup7\n        /* \"#utility.yul\":3020:3026   */\n      dup3\n        /* \"#utility.yul\":3009:3018   */\n      dup8\n        /* \"#utility.yul\":3005:3027   */\n      add\n        /* \"#utility.yul\":2984:3037   */\n      tag_578\n      jump\t// in\n    tag_623:\n        /* \"#utility.yul\":2974:3037   */\n      swap3\n      pop\n        /* \"#utility.yul\":2929:3047   */\n      pop\n        /* \"#utility.yul\":3086:3088   */\n      0x40\n        /* \"#utility.yul\":3112:3165   */\n      tag_624\n        /* \"#utility.yul\":3157:3164   */\n      dup7\n        /* \"#utility.yul\":3148:3154   */\n      dup3\n        /* \"#utility.yul\":3137:3146   */\n      dup8\n        /* \"#utility.yul\":3133:3155   */\n      add\n        /* \"#utility.yul\":3112:3165   */\n      tag_593\n      jump\t// in\n    tag_624:\n        /* \"#utility.yul\":3102:3165   */\n      swap2\n      pop\n        /* \"#utility.yul\":3057:3175   */\n      pop\n        /* \"#utility.yul\":2663:3182   */\n      swap3\n      pop\n      swap3\n      pop\n      swap3\n      jump\t// out\n        /* \"#utility.yul\":3188:3662   */\n    tag_73:\n        /* \"#utility.yul\":3256:3262   */\n      0x00\n        /* \"#utility.yul\":3264:3270   */\n      dup1\n        /* \"#utility.yul\":3313:3315   */\n      0x40\n        /* \"#utility.yul\":3301:3310   */\n      dup4\n        /* \"#utility.yul\":3292:3299   */\n      dup6\n        /* \"#utility.yul\":3288:3311   */\n      sub\n        /* \"#utility.yul\":3284:3316   */\n      slt\n        /* \"#utility.yul\":3281:3283   */\n      iszero\n      tag_626\n      jumpi\n        /* \"#utility.yul\":3319:3398   */\n      tag_627\n      tag_603\n      jump\t// in\n    tag_627:\n        /* \"#utility.yul\":3281:3283   */\n    tag_626:\n        /* \"#utility.yul\":3439:3440   */\n      0x00\n        /* \"#utility.yul\":3464:3517   */\n      tag_628\n        /* \"#utility.yul\":3509:3516   */\n      dup6\n        /* \"#utility.yul\":3500:3506   */\n      dup3\n        /* \"#utility.yul\":3489:3498   */\n      dup7\n        /* \"#utility.yul\":3485:3507   */\n      add\n        /* \"#utility.yul\":3464:3517   */\n      tag_578\n      jump\t// in\n    tag_628:\n        /* \"#utility.yul\":3454:3517   */\n      swap3\n      pop\n        /* \"#utility.yul\":3410:3527   */\n      pop\n        /* \"#utility.yul\":3566:3568   */\n      0x20\n        /* \"#utility.yul\":3592:3645   */\n      tag_629\n        /* \"#utility.yul\":3637:3644   */\n      dup6\n        /* \"#utility.yul\":3628:3634   */\n      dup3\n        /* \"#utility.yul\":3617:3626   */\n      dup7\n        /* \"#utility.yul\":3613:3635   */\n      add\n        /* \"#utility.yul\":3592:3645   */\n      tag_593\n      jump\t// in\n    tag_629:\n        /* \"#utility.yul\":3582:3645   */\n      swap2\n      pop\n        /* \"#utility.yul\":3537:3655   */\n      pop\n        /* \"#utility.yul\":3271:3662   */\n      swap3\n      pop\n      swap3\n      swap1\n      pop\n      jump\t// out\n        /* \"#utility.yul\":3668:3991   */\n    tag_211:\n        /* \"#utility.yul\":3724:3730   */\n      0x00\n        /* \"#utility.yul\":3773:3775   */\n      0x20\n        /* \"#utility.yul\":3761:3770   */\n      dup3\n        /* \"#utility.yul\":3752:3759   */\n      dup5\n        /* \"#utility.yul\":3748:3771   */\n      sub\n        /* \"#utility.yul\":3744:3776   */\n      slt\n        /* \"#utility.yul\":3741:3743   */\n      iszero\n      tag_631\n      jumpi\n        /* \"#utility.yul\":3779:3858   */\n      tag_632\n      tag_603\n      jump\t// in\n    tag_632:\n        /* \"#utility.yul\":3741:3743   */\n    tag_631:\n        /* \"#utility.yul\":3899:3900   */\n      0x00\n        /* \"#utility.yul\":3924:3974   */\n      tag_633\n        /* \"#utility.yul\":3966:3973   */\n      dup5\n        /* \"#utility.yul\":3957:3963   */\n      dup3\n        /* \"#utility.yul\":3946:3955   */\n      dup6\n        /* \"#utility.yul\":3942:3964   */\n      add\n        /* \"#utility.yul\":3924:3974   */\n      tag_589\n      jump\t// in\n    tag_633:\n        /* \"#utility.yul\":3914:3974   */\n      swap2\n      pop\n        /* \"#utility.yul\":3870:3984   */\n      pop\n        /* \"#utility.yul\":3731:3991   */\n      swap3\n      swap2\n      pop\n      pop\n      jump\t// out\n        /* \"#utility.yul\":3997:4326   */\n    tag_63:\n        /* \"#utility.yul\":4056:4062   */\n      0x00\n        /* \"#utility.yul\":4105:4107   */\n      0x20\n        /* \"#utility.yul\":4093:4102   */\n      dup3\n        /* \"#utility.yul\":4084:4091   */\n      dup5\n        /* \"#utility.yul\":4080:4103   */\n      sub\n        /* \"#utility.yul\":4076:4108   */\n      slt\n        /* \"#utility.yul\":4073:4075   */\n      iszero\n      tag_635\n      jumpi\n        /* \"#utility.yul\":4111:4190   */\n      tag_636\n      tag_603\n      jump\t// in\n    tag_636:\n        /* \"#utility.yul\":4073:4075   */\n    tag_635:\n        /* \"#utility.yul\":4231:4232   */\n      0x00\n        /* \"#utility.yul\":4256:4309   */\n      tag_637\n        /* \"#utility.yul\":4301:4308   */\n      dup5\n        /* \"#utility.yul\":4292:4298   */\n      dup3\n        /* \"#utility.yul\":4281:4290   */\n      dup6\n        /* \"#utility.yul\":4277:4299   */\n      add\n        /* \"#utility.yul\":4256:4309   */\n      tag_593\n      jump\t// in\n    tag_637:\n        /* \"#utility.yul\":4246:4309   */\n      swap2\n      pop\n        /* \"#utility.yul\":4202:4319   */\n      pop\n        /* \"#utility.yul\":4063:4326   */\n      swap3\n      swap2\n      pop\n      pop\n      jump\t// out\n        /* \"#utility.yul\":4332:4806   */\n    tag_113:\n        /* \"#utility.yul\":4400:4406   */\n      0x00\n        /* \"#utility.yul\":4408:4414   */\n      dup1\n        /* \"#utility.yul\":4457:4459   */\n      0x40\n        /* \"#utility.yul\":4445:4454   */\n      dup4\n        /* \"#utility.yul\":4436:4443   */\n      dup6\n        /* \"#utility.yul\":4432:4455   */\n      sub\n        /* \"#utility.yul\":4428:4460   */\n      slt\n        /* \"#utility.yul\":4425:4427   */\n      iszero\n      tag_639\n      jumpi\n        /* \"#utility.yul\":4463:4542   */\n      tag_640\n      tag_603\n      jump\t// in\n    tag_640:\n        /* \"#utility.yul\":4425:4427   */\n    tag_639:\n        /* \"#utility.yul\":4583:4584   */\n      0x00\n        /* \"#utility.yul\":4608:4661   */\n      tag_641\n        /* \"#utility.yul\":4653:4660   */\n      dup6\n        /* \"#utility.yul\":4644:4650   */\n      dup3\n        /* \"#utility.yul\":4633:4642   */\n      dup7\n        /* \"#utility.yul\":4629:4651   */\n      add\n        /* \"#utility.yul\":4608:4661   */\n      tag_593\n      jump\t// in\n    tag_641:\n        /* \"#utility.yul\":4598:4661   */\n      swap3\n      pop\n        /* \"#utility.yul\":4554:4671   */\n      pop\n        /* \"#utility.yul\":4710:4712   */\n      0x20\n        /* \"#utility.yul\":4736:4789   */\n      tag_642\n        /* \"#utility.yul\":4781:4788   */\n      dup6\n        /* \"#utility.yul\":4772:4778   */\n      dup3\n        /* \"#utility.yul\":4761:4770   */\n      dup7\n        /* \"#utility.yul\":4757:4779   */\n      add\n        /* \"#utility.yul\":4736:4789   */\n      tag_593\n      jump\t// in\n    tag_642:\n        /* \"#utility.yul\":4726:4789   */\n      swap2\n      pop\n        /* \"#utility.yul\":4681:4799   */\n      pop\n        /* \"#utility.yul\":4415:4806   */\n      swap3\n      pop\n      swap3\n      swap1\n      pop\n      jump\t// out\n        /* \"#utility.yul\":4812:5475   */\n    tag_513:\n        /* \"#utility.yul\":4900:4906   */\n      0x00\n        /* \"#utility.yul\":4908:4914   */\n      dup1\n        /* \"#utility.yul\":4916:4922   */\n      0x00\n        /* \"#utility.yul\":4965:4967   */\n      0x60\n        /* \"#utility.yul\":4953:4962   */\n      dup5\n        /* \"#utility.yul\":4944:4951   */\n      dup7\n        /* \"#utility.yul\":4940:4963   */\n      sub\n        /* \"#utility.yul\":4936:4968   */\n      slt\n        /* \"#utility.yul\":4933:4935   */\n      iszero\n      tag_644\n      jumpi\n        /* \"#utility.yul\":4971:5050   */\n      tag_645\n      tag_603\n      jump\t// in\n    tag_645:\n        /* \"#utility.yul\":4933:4935   */\n    tag_644:\n        /* \"#utility.yul\":5091:5092   */\n      0x00\n        /* \"#utility.yul\":5116:5180   */\n      tag_646\n        /* \"#utility.yul\":5172:5179   */\n      dup7\n        /* \"#utility.yul\":5163:5169   */\n      dup3\n        /* \"#utility.yul\":5152:5161   */\n      dup8\n        /* \"#utility.yul\":5148:5170   */\n      add\n        /* \"#utility.yul\":5116:5180   */\n      tag_597\n      jump\t// in\n    tag_646:\n        /* \"#utility.yul\":5106:5180   */\n      swap4\n      pop\n        /* \"#utility.yul\":5062:5190   */\n      pop\n        /* \"#utility.yul\":5229:5231   */\n      0x20\n        /* \"#utility.yul\":5255:5319   */\n      tag_647\n        /* \"#utility.yul\":5311:5318   */\n      dup7\n        /* \"#utility.yul\":5302:5308   */\n      dup3\n        /* \"#utility.yul\":5291:5300   */\n      dup8\n        /* \"#utility.yul\":5287:5309   */\n      add\n        /* \"#utility.yul\":5255:5319   */\n      tag_597\n      jump\t// in\n    tag_647:\n        /* \"#utility.yul\":5245:5319   */\n      swap3\n      pop\n        /* \"#utility.yul\":5200:5329   */\n      pop\n        /* \"#utility.yul\":5368:5370   */\n      0x40\n        /* \"#utility.yul\":5394:5458   */\n      tag_648\n        /* \"#utility.yul\":5450:5457   */\n      dup7\n        /* \"#utility.yul\":5441:5447   */\n      dup3\n        /* \"#utility.yul\":5430:5439   */\n      dup8\n        /* \"#utility.yul\":5426:5448   */\n      add\n        /* \"#utility.yul\":5394:5458   */\n      tag_597\n      jump\t// in\n    tag_648:\n        /* \"#utility.yul\":5384:5458   */\n      swap2\n      pop\n        /* \"#utility.yul\":5339:5468   */\n      pop\n        /* \"#utility.yul\":4923:5475   */\n      swap3\n      pop\n      swap3\n      pop\n      swap3\n      jump\t// out\n        /* \"#utility.yul\":5481:5660   */\n    tag_649:\n        /* \"#utility.yul\":5550:5560   */\n      0x00\n        /* \"#utility.yul\":5571:5617   */\n      tag_651\n        /* \"#utility.yul\":5613:5616   */\n      dup4\n        /* \"#utility.yul\":5605:5611   */\n      dup4\n        /* \"#utility.yul\":5571:5617   */\n      tag_652\n      jump\t// in\n    tag_651:\n        /* \"#utility.yul\":5649:5653   */\n      0x20\n        /* \"#utility.yul\":5644:5647   */\n      dup4\n        /* \"#utility.yul\":5640:5654   */\n      add\n        /* \"#utility.yul\":5626:5654   */\n      swap1\n      pop\n        /* \"#utility.yul\":5561:5660   */\n      swap3\n      swap2\n      pop\n      pop\n      jump\t// out\n        /* \"#utility.yul\":5666:5774   */\n    tag_652:\n        /* \"#utility.yul\":5743:5767   */\n      tag_654\n        /* \"#utility.yul\":5761:5766   */\n      dup2\n        /* \"#utility.yul\":5743:5767   */\n      tag_655\n      jump\t// in\n    tag_654:\n        /* \"#utility.yul\":5738:5741   */\n      dup3\n        /* \"#utility.yul\":5731:5768   */\n      mstore\n        /* \"#utility.yul\":5721:5774   */\n      pop\n      pop\n      jump\t// out\n        /* \"#utility.yul\":5780:5898   */\n    tag_656:\n        /* \"#utility.yul\":5867:5891   */\n      tag_658\n        /* \"#utility.yul\":5885:5890   */\n      dup2\n        /* \"#utility.yul\":5867:5891   */\n      tag_655\n      jump\t// in\n    tag_658:\n        /* \"#utility.yul\":5862:5865   */\n      dup3\n        /* \"#utility.yul\":5855:5892   */\n      mstore\n        /* \"#utility.yul\":5845:5898   */\n      pop\n      pop\n      jump\t// out\n        /* \"#utility.yul\":5934:6666   */\n    tag_659:\n        /* \"#utility.yul\":6053:6056   */\n      0x00\n        /* \"#utility.yul\":6082:6136   */\n      tag_661\n        /* \"#utility.yul\":6130:6135   */\n      dup3\n        /* \"#utility.yul\":6082:6136   */\n      tag_662\n      jump\t// in\n    tag_661:\n        /* \"#utility.yul\":6152:6238   */\n      tag_663\n        /* \"#utility.yul\":6231:6237   */\n      dup2\n        /* \"#utility.yul\":6226:6229   */\n      dup6\n        /* \"#utility.yul\":6152:6238   */\n      tag_664\n      jump\t// in\n    tag_663:\n        /* \"#utility.yul\":6145:6238   */\n      swap4\n      pop\n        /* \"#utility.yul\":6262:6318   */\n      tag_665\n        /* \"#utility.yul\":6312:6317   */\n      dup4\n        /* \"#utility.yul\":6262:6318   */\n      tag_666\n      jump\t// in\n    tag_665:\n        /* \"#utility.yul\":6341:6348   */\n      dup1\n        /* \"#utility.yul\":6372:6373   */\n      0x00\n        /* \"#utility.yul\":6357:6641   */\n    tag_667:\n        /* \"#utility.yul\":6382:6388   */\n      dup4\n        /* \"#utility.yul\":6379:6380   */\n      dup2\n        /* \"#utility.yul\":6376:6389   */\n      lt\n        /* \"#utility.yul\":6357:6641   */\n      iszero\n      tag_669\n      jumpi\n        /* \"#utility.yul\":6458:6464   */\n      dup2\n        /* \"#utility.yul\":6452:6465   */\n      mload\n        /* \"#utility.yul\":6485:6548   */\n      tag_670\n        /* \"#utility.yul\":6544:6547   */\n      dup9\n        /* \"#utility.yul\":6529:6542   */\n      dup3\n        /* \"#utility.yul\":6485:6548   */\n      tag_649\n      jump\t// in\n    tag_670:\n        /* \"#utility.yul\":6478:6548   */\n      swap8\n      pop\n        /* \"#utility.yul\":6571:6631   */\n      tag_671\n        /* \"#utility.yul\":6624:6630   */\n      dup4\n        /* \"#utility.yul\":6571:6631   */\n      tag_672\n      jump\t// in\n    tag_671:\n        /* \"#utility.yul\":6561:6631   */\n      swap3\n      pop\n        /* \"#utility.yul\":6417:6641   */\n      pop\n        /* \"#utility.yul\":6404:6405   */\n      0x01\n        /* \"#utility.yul\":6401:6402   */\n      dup2\n        /* \"#utility.yul\":6397:6406   */\n      add\n        /* \"#utility.yul\":6392:6406   */\n      swap1\n      pop\n        /* \"#utility.yul\":6357:6641   */\n      jump(tag_667)\n    tag_669:\n        /* \"#utility.yul\":6361:6375   */\n      pop\n        /* \"#utility.yul\":6657:6660   */\n      dup6\n        /* \"#utility.yul\":6650:6660   */\n      swap4\n      pop\n        /* \"#utility.yul\":6058:6666   */\n      pop\n      pop\n      pop\n      swap3\n      swap2\n      pop\n      pop\n      jump\t// out\n        /* \"#utility.yul\":6672:6781   */\n    tag_673:\n        /* \"#utility.yul\":6753:6774   */\n      tag_675\n        /* \"#utility.yul\":6768:6773   */\n      dup2\n        /* \"#utility.yul\":6753:6774   */\n      tag_676\n      jump\t// in\n    tag_675:\n        /* \"#utility.yul\":6748:6751   */\n      dup3\n        /* \"#utility.yul\":6741:6775   */\n      mstore\n        /* \"#utility.yul\":6731:6781   */\n      pop\n      pop\n      jump\t// out\n        /* \"#utility.yul\":6787:6972   */\n    tag_677:\n        /* \"#utility.yul\":6901:6965   */\n      tag_679\n        /* \"#utility.yul\":6959:6964   */\n      dup2\n        /* \"#utility.yul\":6901:6965   */\n      tag_680\n      jump\t// in\n    tag_679:\n        /* \"#utility.yul\":6896:6899   */\n      dup3\n        /* \"#utility.yul\":6889:6966   */\n      mstore\n        /* \"#utility.yul\":6879:6972   */\n      pop\n      pop\n      jump\t// out\n        /* \"#utility.yul\":6978:7125   */\n    tag_681:\n        /* \"#utility.yul\":7073:7118   */\n      tag_683\n        /* \"#utility.yul\":7112:7117   */\n      dup2\n        /* \"#utility.yul\":7073:7118   */\n      tag_684\n      jump\t// in\n    tag_683:\n        /* \"#utility.yul\":7068:7071   */\n      dup3\n        /* \"#utility.yul\":7061:7119   */\n      mstore\n        /* \"#utility.yul\":7051:7125   */\n      pop\n      pop\n      jump\t// out\n        /* \"#utility.yul\":7131:7495   */\n    tag_685:\n        /* \"#utility.yul\":7219:7222   */\n      0x00\n        /* \"#utility.yul\":7247:7286   */\n      tag_687\n        /* \"#utility.yul\":7280:7285   */\n      dup3\n        /* \"#utility.yul\":7247:7286   */\n      tag_688\n      jump\t// in\n    tag_687:\n        /* \"#utility.yul\":7302:7373   */\n      tag_689\n        /* \"#utility.yul\":7366:7372   */\n      dup2\n        /* \"#utility.yul\":7361:7364   */\n      dup6\n        /* \"#utility.yul\":7302:7373   */\n      tag_690\n      jump\t// in\n    tag_689:\n        /* \"#utility.yul\":7295:7373   */\n      swap4\n      pop\n        /* \"#utility.yul\":7382:7434   */\n      tag_691\n        /* \"#utility.yul\":7427:7433   */\n      dup2\n        /* \"#utility.yul\":7422:7425   */\n      dup6\n        /* \"#utility.yul\":7415:7419   */\n      0x20\n        /* \"#utility.yul\":7408:7413   */\n      dup7\n        /* \"#utility.yul\":7404:7420   */\n      add\n        /* \"#utility.yul\":7382:7434   */\n      tag_692\n      jump\t// in\n    tag_691:\n        /* \"#utility.yul\":7459:7488   */\n      tag_693\n        /* \"#utility.yul\":7481:7487   */\n      dup2\n        /* \"#utility.yul\":7459:7488   */\n      tag_694\n      jump\t// in\n    tag_693:\n        /* \"#utility.yul\":7454:7457   */\n      dup5\n        /* \"#utility.yul\":7450:7489   */\n      add\n        /* \"#utility.yul\":7443:7489   */\n      swap2\n      pop\n        /* \"#utility.yul\":7223:7495   */\n      pop\n      swap3\n      swap2\n      pop\n      pop\n      jump\t// out\n        /* \"#utility.yul\":7501:7867   */\n    tag_695:\n        /* \"#utility.yul\":7643:7646   */\n      0x00\n        /* \"#utility.yul\":7664:7731   */\n      tag_697\n        /* \"#utility.yul\":7728:7730   */\n      0x23\n        /* \"#utility.yul\":7723:7726   */\n      dup4\n        /* \"#utility.yul\":7664:7731   */\n      tag_690\n      jump\t// in\n    tag_697:\n        /* \"#utility.yul\":7657:7731   */\n      swap2\n      pop\n        /* \"#utility.yul\":7740:7833   */\n      tag_698\n        /* \"#utility.yul\":7829:7832   */\n      dup3\n        /* \"#utility.yul\":7740:7833   */\n      tag_699\n      jump\t// in\n    tag_698:\n        /* \"#utility.yul\":7858:7860   */\n      0x40\n        /* \"#utility.yul\":7853:7856   */\n      dup3\n        /* \"#utility.yul\":7849:7861   */\n      add\n        /* \"#utility.yul\":7842:7861   */\n      swap1\n      pop\n        /* \"#utility.yul\":7647:7867   */\n      swap2\n      swap1\n      pop\n      jump\t// out\n        /* \"#utility.yul\":7873:8239   */\n    tag_700:\n        /* \"#utility.yul\":8015:8018   */\n      0x00\n        /* \"#utility.yul\":8036:8103   */\n      tag_702\n        /* \"#utility.yul\":8100:8102   */\n      0x2a\n        /* \"#utility.yul\":8095:8098   */\n      dup4\n        /* \"#utility.yul\":8036:8103   */\n      tag_690\n      jump\t// in\n    tag_702:\n        /* \"#utility.yul\":8029:8103   */\n      swap2\n      pop\n        /* \"#utility.yul\":8112:8205   */\n      tag_703\n        /* \"#utility.yul\":8201:8204   */\n      dup3\n        /* \"#utility.yul\":8112:8205   */\n      tag_704\n      jump\t// in\n    tag_703:\n        /* \"#utility.yul\":8230:8232   */\n      0x40\n        /* \"#utility.yul\":8225:8228   */\n      dup3\n        /* \"#utility.yul\":8221:8233   */\n      add\n        /* \"#utility.yul\":8214:8233   */\n      swap1\n      pop\n        /* \"#utility.yul\":8019:8239   */\n      swap2\n      swap1\n      pop\n      jump\t// out\n        /* \"#utility.yul\":8245:8611   */\n    tag_705:\n        /* \"#utility.yul\":8387:8390   */\n      0x00\n        /* \"#utility.yul\":8408:8475   */\n      tag_707\n        /* \"#utility.yul\":8472:8474   */\n      0x26\n        /* \"#utility.yul\":8467:8470   */\n      dup4\n        /* \"#utility.yul\":8408:8475   */\n      tag_690\n      jump\t// in\n    tag_707:\n        /* \"#utility.yul\":8401:8475   */\n      swap2\n      pop\n        /* \"#utility.yul\":8484:8577   */\n      tag_708\n        /* \"#utility.yul\":8573:8576   */\n      dup3\n        /* \"#utility.yul\":8484:8577   */\n      tag_709\n      jump\t// in\n    tag_708:\n        /* \"#utility.yul\":8602:8604   */\n      0x40\n        /* \"#utility.yul\":8597:8600   */\n      dup3\n        /* \"#utility.yul\":8593:8605   */\n      add\n        /* \"#utility.yul\":8586:8605   */\n      swap1\n      pop\n        /* \"#utility.yul\":8391:8611   */\n      swap2\n      swap1\n      pop\n      jump\t// out\n        /* \"#utility.yul\":8617:8983   */\n    tag_710:\n        /* \"#utility.yul\":8759:8762   */\n      0x00\n        /* \"#utility.yul\":8780:8847   */\n      tag_712\n        /* \"#utility.yul\":8844:8846   */\n      0x22\n        /* \"#utility.yul\":8839:8842   */\n      dup4\n        /* \"#utility.yul\":8780:8847   */\n      tag_690\n      jump\t// in\n    tag_712:\n        /* \"#utility.yul\":8773:8847   */\n      swap2\n      pop\n        /* \"#utility.yul\":8856:8949   */\n      tag_713\n        /* \"#utility.yul\":8945:8948   */\n      dup3\n        /* \"#utility.yul\":8856:8949   */\n      tag_714\n      jump\t// in\n    tag_713:\n        /* \"#utility.yul\":8974:8976   */\n      0x40\n        /* \"#utility.yul\":8969:8972   */\n      dup3\n        /* \"#utility.yul\":8965:8977   */\n      add\n        /* \"#utility.yul\":8958:8977   */\n      swap1\n      pop\n        /* \"#utility.yul\":8763:8983   */\n      swap2\n      swap1\n      pop\n      jump\t// out\n        /* \"#utility.yul\":8989:9355   */\n    tag_715:\n        /* \"#utility.yul\":9131:9134   */\n      0x00\n        /* \"#utility.yul\":9152:9219   */\n      tag_717\n        /* \"#utility.yul\":9216:9218   */\n      0x1b\n        /* \"#utility.yul\":9211:9214   */\n      dup4\n        /* \"#utility.yul\":9152:9219   */\n      tag_690\n      jump\t// in\n    tag_717:\n        /* \"#utility.yul\":9145:9219   */\n      swap2\n      pop\n        /* \"#utility.yul\":9228:9321   */\n      tag_718\n        /* \"#utility.yul\":9317:9320   */\n      dup3\n        /* \"#utility.yul\":9228:9321   */\n      tag_719\n      jump\t// in\n    tag_718:\n        /* \"#utility.yul\":9346:9348   */\n      0x20\n        /* \"#utility.yul\":9341:9344   */\n      dup3\n        /* \"#utility.yul\":9337:9349   */\n      add\n        /* \"#utility.yul\":9330:9349   */\n      swap1\n      pop\n        /* \"#utility.yul\":9135:9355   */\n      swap2\n      swap1\n      pop\n      jump\t// out\n        /* \"#utility.yul\":9361:9727   */\n    tag_720:\n        /* \"#utility.yul\":9503:9506   */\n      0x00\n        /* \"#utility.yul\":9524:9591   */\n      tag_722\n        /* \"#utility.yul\":9588:9590   */\n      0x21\n        /* \"#utility.yul\":9583:9586   */\n      dup4\n        /* \"#utility.yul\":9524:9591   */\n      tag_690\n      jump\t// in\n    tag_722:\n        /* \"#utility.yul\":9517:9591   */\n      swap2\n      pop\n        /* \"#utility.yul\":9600:9693   */\n      tag_723\n        /* \"#utility.yul\":9689:9692   */\n      dup3\n        /* \"#utility.yul\":9600:9693   */\n      tag_724\n      jump\t// in\n    tag_723:\n        /* \"#utility.yul\":9718:9720   */\n      0x40\n        /* \"#utility.yul\":9713:9716   */\n      dup3\n        /* \"#utility.yul\":9709:9721   */\n      add\n        /* \"#utility.yul\":9702:9721   */\n      swap1\n      pop\n        /* \"#utility.yul\":9507:9727   */\n      swap2\n      swap1\n      pop\n      jump\t// out\n        /* \"#utility.yul\":9733:10099   */\n    tag_725:\n        /* \"#utility.yul\":9875:9878   */\n      0x00\n        /* \"#utility.yul\":9896:9963   */\n      tag_727\n        /* \"#utility.yul\":9960:9962   */\n      0x20\n        /* \"#utility.yul\":9955:9958   */\n      dup4\n        /* \"#utility.yul\":9896:9963   */\n      tag_690\n      jump\t// in\n    tag_727:\n        /* \"#utility.yul\":9889:9963   */\n      swap2\n      pop\n        /* \"#utility.yul\":9972:10065   */\n      tag_728\n        /* \"#utility.yul\":10061:10064   */\n      dup3\n        /* \"#utility.yul\":9972:10065   */\n      tag_729\n      jump\t// in\n    tag_728:\n        /* \"#utility.yul\":10090:10092   */\n      0x20\n        /* \"#utility.yul\":10085:10088   */\n      dup3\n        /* \"#utility.yul\":10081:10093   */\n      add\n        /* \"#utility.yul\":10074:10093   */\n      swap1\n      pop\n        /* \"#utility.yul\":9879:10099   */\n      swap2\n      swap1\n      pop\n      jump\t// out\n        /* \"#utility.yul\":10105:10471   */\n    tag_730:\n        /* \"#utility.yul\":10247:10250   */\n      0x00\n        /* \"#utility.yul\":10268:10335   */\n      tag_732\n        /* \"#utility.yul\":10332:10334   */\n      0x29\n        /* \"#utility.yul\":10327:10330   */\n      dup4\n        /* \"#utility.yul\":10268:10335   */\n      tag_690\n      jump\t// in\n    tag_732:\n        /* \"#utility.yul\":10261:10335   */\n      swap2\n      pop\n        /* \"#utility.yul\":10344:10437   */\n      tag_733\n        /* \"#utility.yul\":10433:10436   */\n      dup3\n        /* \"#utility.yul\":10344:10437   */\n      tag_734\n      jump\t// in\n    tag_733:\n        /* \"#utility.yul\":10462:10464   */\n      0x40\n        /* \"#utility.yul\":10457:10460   */\n      dup3\n        /* \"#utility.yul\":10453:10465   */\n      add\n        /* \"#utility.yul\":10446:10465   */\n      swap1\n      pop\n        /* \"#utility.yul\":10251:10471   */\n      swap2\n      swap1\n      pop\n      jump\t// out\n        /* \"#utility.yul\":10477:10843   */\n    tag_735:\n        /* \"#utility.yul\":10619:10622   */\n      0x00\n        /* \"#utility.yul\":10640:10707   */\n      tag_737\n        /* \"#utility.yul\":10704:10706   */\n      0x25\n        /* \"#utility.yul\":10699:10702   */\n      dup4\n        /* \"#utility.yul\":10640:10707   */\n      tag_690\n      jump\t// in\n    tag_737:\n        /* \"#utility.yul\":10633:10707   */\n      swap2\n      pop\n        /* \"#utility.yul\":10716:10809   */\n      tag_738\n        /* \"#utility.yul\":10805:10808   */\n      dup3\n        /* \"#utility.yul\":10716:10809   */\n      tag_739\n      jump\t// in\n    tag_738:\n        /* \"#utility.yul\":10834:10836   */\n      0x40\n        /* \"#utility.yul\":10829:10832   */\n      dup3\n        /* \"#utility.yul\":10825:10837   */\n      add\n        /* \"#utility.yul\":10818:10837   */\n      swap1\n      pop\n        /* \"#utility.yul\":10623:10843   */\n      swap2\n      swap1\n      pop\n      jump\t// out\n        /* \"#utility.yul\":10849:11215   */\n    tag_740:\n        /* \"#utility.yul\":10991:10994   */\n      0x00\n        /* \"#utility.yul\":11012:11079   */\n      tag_742\n        /* \"#utility.yul\":11076:11078   */\n      0x24\n        /* \"#utility.yul\":11071:11074   */\n      dup4\n        /* \"#utility.yul\":11012:11079   */\n      tag_690\n      jump\t// in\n    tag_742:\n        /* \"#utility.yul\":11005:11079   */\n      swap2\n      pop\n        /* \"#utility.yul\":11088:11181   */\n      tag_743\n        /* \"#utility.yul\":11177:11180   */\n      dup3\n        /* \"#utility.yul\":11088:11181   */\n      tag_744\n      jump\t// in\n    tag_743:\n        /* \"#utility.yul\":11206:11208   */\n      0x40\n        /* \"#utility.yul\":11201:11204   */\n      dup3\n        /* \"#utility.yul\":11197:11209   */\n      add\n        /* \"#utility.yul\":11190:11209   */\n      swap1\n      pop\n        /* \"#utility.yul\":10995:11215   */\n      swap2\n      swap1\n      pop\n      jump\t// out\n        /* \"#utility.yul\":11221:11587   */\n    tag_745:\n        /* \"#utility.yul\":11363:11366   */\n      0x00\n        /* \"#utility.yul\":11384:11451   */\n      tag_747\n        /* \"#utility.yul\":11448:11450   */\n      0x1f\n        /* \"#utility.yul\":11443:11446   */\n      dup4\n        /* \"#utility.yul\":11384:11451   */\n      tag_690\n      jump\t// in\n    tag_747:\n        /* \"#utility.yul\":11377:11451   */\n      swap2\n      pop\n        /* \"#utility.yul\":11460:11553   */\n      tag_748\n        /* \"#utility.yul\":11549:11552   */\n      dup3\n        /* \"#utility.yul\":11460:11553   */\n      tag_749\n      jump\t// in\n    tag_748:\n        /* \"#utility.yul\":11578:11580   */\n      0x20\n        /* \"#utility.yul\":11573:11576   */\n      dup3\n        /* \"#utility.yul\":11569:11581   */\n      add\n        /* \"#utility.yul\":11562:11581   */\n      swap1\n      pop\n        /* \"#utility.yul\":11367:11587   */\n      swap2\n      swap1\n      pop\n      jump\t// out\n        /* \"#utility.yul\":11593:11959   */\n    tag_750:\n        /* \"#utility.yul\":11735:11738   */\n      0x00\n        /* \"#utility.yul\":11756:11823   */\n      tag_752\n        /* \"#utility.yul\":11820:11822   */\n      0x23\n        /* \"#utility.yul\":11815:11818   */\n      dup4\n        /* \"#utility.yul\":11756:11823   */\n      tag_690\n      jump\t// in\n    tag_752:\n        /* \"#utility.yul\":11749:11823   */\n      swap2\n      pop\n        /* \"#utility.yul\":11832:11925   */\n      tag_753\n        /* \"#utility.yul\":11921:11924   */\n      dup3\n        /* \"#utility.yul\":11832:11925   */\n      tag_754\n      jump\t// in\n    tag_753:\n        /* \"#utility.yul\":11950:11952   */\n      0x40\n        /* \"#utility.yul\":11945:11948   */\n      dup3\n        /* \"#utility.yul\":11941:11953   */\n      add\n        /* \"#utility.yul\":11934:11953   */\n      swap1\n      pop\n        /* \"#utility.yul\":11739:11959   */\n      swap2\n      swap1\n      pop\n      jump\t// out\n        /* \"#utility.yul\":11965:12083   */\n    tag_755:\n        /* \"#utility.yul\":12052:12076   */\n      tag_757\n        /* \"#utility.yul\":12070:12075   */\n      dup2\n        /* \"#utility.yul\":12052:12076   */\n      tag_758\n      jump\t// in\n    tag_757:\n        /* \"#utility.yul\":12047:12050   */\n      dup3\n        /* \"#utility.yul\":12040:12077   */\n      mstore\n        /* \"#utility.yul\":12030:12083   */\n      pop\n      pop\n      jump\t// out\n        /* \"#utility.yul\":12089:12311   */\n    tag_133:\n        /* \"#utility.yul\":12182:12186   */\n      0x00\n        /* \"#utility.yul\":12220:12222   */\n      0x20\n        /* \"#utility.yul\":12209:12218   */\n      dup3\n        /* \"#utility.yul\":12205:12223   */\n      add\n        /* \"#utility.yul\":12197:12223   */\n      swap1\n      pop\n        /* \"#utility.yul\":12233:12304   */\n      tag_760\n        /* \"#utility.yul\":12301:12302   */\n      0x00\n        /* \"#utility.yul\":12290:12299   */\n      dup4\n        /* \"#utility.yul\":12286:12303   */\n      add\n        /* \"#utility.yul\":12277:12283   */\n      dup5\n        /* \"#utility.yul\":12233:12304   */\n      tag_656\n      jump\t// in\n    tag_760:\n        /* \"#utility.yul\":12187:12311   */\n      swap3\n      swap2\n      pop\n      pop\n      jump\t// out\n        /* \"#utility.yul\":12317:13124   */\n    tag_508:\n        /* \"#utility.yul\":12566:12570   */\n      0x00\n        /* \"#utility.yul\":12604:12607   */\n      0xc0\n        /* \"#utility.yul\":12593:12602   */\n      dup3\n        /* \"#utility.yul\":12589:12608   */\n      add\n        /* \"#utility.yul\":12581:12608   */\n      swap1\n      pop\n        /* \"#utility.yul\":12618:12689   */\n      tag_762\n        /* \"#utility.yul\":12686:12687   */\n      0x00\n        /* \"#utility.yul\":12675:12684   */\n      dup4\n        /* \"#utility.yul\":12671:12688   */\n      add\n        /* \"#utility.yul\":12662:12668   */\n      dup10\n        /* \"#utility.yul\":12618:12689   */\n      tag_656\n      jump\t// in\n    tag_762:\n        /* \"#utility.yul\":12699:12771   */\n      tag_763\n        /* \"#utility.yul\":12767:12769   */\n      0x20\n        /* \"#utility.yul\":12756:12765   */\n      dup4\n        /* \"#utility.yul\":12752:12770   */\n      add\n        /* \"#utility.yul\":12743:12749   */\n      dup9\n        /* \"#utility.yul\":12699:12771   */\n      tag_755\n      jump\t// in\n    tag_763:\n        /* \"#utility.yul\":12781:12861   */\n      tag_764\n        /* \"#utility.yul\":12857:12859   */\n      0x40\n        /* \"#utility.yul\":12846:12855   */\n      dup4\n        /* \"#utility.yul\":12842:12860   */\n      add\n        /* \"#utility.yul\":12833:12839   */\n      dup8\n        /* \"#utility.yul\":12781:12861   */\n      tag_681\n      jump\t// in\n    tag_764:\n        /* \"#utility.yul\":12871:12951   */\n      tag_765\n        /* \"#utility.yul\":12947:12949   */\n      0x60\n        /* \"#utility.yul\":12936:12945   */\n      dup4\n        /* \"#utility.yul\":12932:12950   */\n      add\n        /* \"#utility.yul\":12923:12929   */\n      dup7\n        /* \"#utility.yul\":12871:12951   */\n      tag_681\n      jump\t// in\n    tag_765:\n        /* \"#utility.yul\":12961:13034   */\n      tag_766\n        /* \"#utility.yul\":13029:13032   */\n      0x80\n        /* \"#utility.yul\":13018:13027   */\n      dup4\n        /* \"#utility.yul\":13014:13033   */\n      add\n        /* \"#utility.yul\":13005:13011   */\n      dup6\n        /* \"#utility.yul\":12961:13034   */\n      tag_656\n      jump\t// in\n    tag_766:\n        /* \"#utility.yul\":13044:13117   */\n      tag_767\n        /* \"#utility.yul\":13112:13115   */\n      0xa0\n        /* \"#utility.yul\":13101:13110   */\n      dup4\n        /* \"#utility.yul\":13097:13116   */\n      add\n        /* \"#utility.yul\":13088:13094   */\n      dup5\n        /* \"#utility.yul\":13044:13117   */\n      tag_755\n      jump\t// in\n    tag_767:\n        /* \"#utility.yul\":12571:13124   */\n      swap8\n      swap7\n      pop\n      pop\n      pop\n      pop\n      pop\n      pop\n      pop\n      jump\t// out\n        /* \"#utility.yul\":13130:13340   */\n    tag_76:\n        /* \"#utility.yul\":13217:13221   */\n      0x00\n        /* \"#utility.yul\":13255:13257   */\n      0x20\n        /* \"#utility.yul\":13244:13253   */\n      dup3\n        /* \"#utility.yul\":13240:13258   */\n      add\n        /* \"#utility.yul\":13232:13258   */\n      swap1\n      pop\n        /* \"#utility.yul\":13268:13333   */\n      tag_769\n        /* \"#utility.yul\":13330:13331   */\n      0x00\n        /* \"#utility.yul\":13319:13328   */\n      dup4\n        /* \"#utility.yul\":13315:13332   */\n      add\n        /* \"#utility.yul\":13306:13312   */\n      dup5\n        /* \"#utility.yul\":13268:13333   */\n      tag_673\n      jump\t// in\n    tag_769:\n        /* \"#utility.yul\":13222:13340   */\n      swap3\n      swap2\n      pop\n      pop\n      jump\t// out\n        /* \"#utility.yul\":13346:13622   */\n    tag_86:\n        /* \"#utility.yul\":13466:13470   */\n      0x00\n        /* \"#utility.yul\":13504:13506   */\n      0x20\n        /* \"#utility.yul\":13493:13502   */\n      dup3\n        /* \"#utility.yul\":13489:13507   */\n      add\n        /* \"#utility.yul\":13481:13507   */\n      swap1\n      pop\n        /* \"#utility.yul\":13517:13615   */\n      tag_771\n        /* \"#utility.yul\":13612:13613   */\n      0x00\n        /* \"#utility.yul\":13601:13610   */\n      dup4\n        /* \"#utility.yul\":13597:13614   */\n      add\n        /* \"#utility.yul\":13588:13594   */\n      dup5\n        /* \"#utility.yul\":13517:13615   */\n      tag_677\n      jump\t// in\n    tag_771:\n        /* \"#utility.yul\":13471:13622   */\n      swap3\n      swap2\n      pop\n      pop\n      jump\t// out\n        /* \"#utility.yul\":13628:13941   */\n    tag_69:\n        /* \"#utility.yul\":13741:13745   */\n      0x00\n        /* \"#utility.yul\":13779:13781   */\n      0x20\n        /* \"#utility.yul\":13768:13777   */\n      dup3\n        /* \"#utility.yul\":13764:13782   */\n      add\n        /* \"#utility.yul\":13756:13782   */\n      swap1\n      pop\n        /* \"#utility.yul\":13828:13837   */\n      dup2\n        /* \"#utility.yul\":13822:13826   */\n      dup2\n        /* \"#utility.yul\":13818:13838   */\n      sub\n        /* \"#utility.yul\":13814:13815   */\n      0x00\n        /* \"#utility.yul\":13803:13812   */\n      dup4\n        /* \"#utility.yul\":13799:13816   */\n      add\n        /* \"#utility.yul\":13792:13839   */\n      mstore\n        /* \"#utility.yul\":13856:13934   */\n      tag_773\n        /* \"#utility.yul\":13929:13933   */\n      dup2\n        /* \"#utility.yul\":13920:13926   */\n      dup5\n        /* \"#utility.yul\":13856:13934   */\n      tag_685\n      jump\t// in\n    tag_773:\n        /* \"#utility.yul\":13848:13934   */\n      swap1\n      pop\n        /* \"#utility.yul\":13746:13941   */\n      swap3\n      swap2\n      pop\n      pop\n      jump\t// out\n        /* \"#utility.yul\":13947:14366   */\n    tag_396:\n        /* \"#utility.yul\":14113:14117   */\n      0x00\n        /* \"#utility.yul\":14151:14153   */\n      0x20\n        /* \"#utility.yul\":14140:14149   */\n      dup3\n        /* \"#utility.yul\":14136:14154   */\n      add\n        /* \"#utility.yul\":14128:14154   */\n      swap1\n      pop\n        /* \"#utility.yul\":14200:14209   */\n      dup2\n        /* \"#utility.yul\":14194:14198   */\n      dup2\n        /* \"#utility.yul\":14190:14210   */\n      sub\n        /* \"#utility.yul\":14186:14187   */\n      0x00\n        /* \"#utility.yul\":14175:14184   */\n      dup4\n        /* \"#utility.yul\":14171:14188   */\n      add\n        /* \"#utility.yul\":14164:14211   */\n      mstore\n        /* \"#utility.yul\":14228:14359   */\n      tag_775\n        /* \"#utility.yul\":14354:14358   */\n      dup2\n        /* \"#utility.yul\":14228:14359   */\n      tag_695\n      jump\t// in\n    tag_775:\n        /* \"#utility.yul\":14220:14359   */\n      swap1\n      pop\n        /* \"#utility.yul\":14118:14366   */\n      swap2\n      swap1\n      pop\n      jump\t// out\n        /* \"#utility.yul\":14372:14791   */\n    tag_288:\n        /* \"#utility.yul\":14538:14542   */\n      0x00\n        /* \"#utility.yul\":14576:14578   */\n      0x20\n        /* \"#utility.yul\":14565:14574   */\n      dup3\n        /* \"#utility.yul\":14561:14579   */\n      add\n        /* \"#utility.yul\":14553:14579   */\n      swap1\n      pop\n        /* \"#utility.yul\":14625:14634   */\n      dup2\n        /* \"#utility.yul\":14619:14623   */\n      dup2\n        /* \"#utility.yul\":14615:14635   */\n      sub\n        /* \"#utility.yul\":14611:14612   */\n      0x00\n        /* \"#utility.yul\":14600:14609   */\n      dup4\n        /* \"#utility.yul\":14596:14613   */\n      add\n        /* \"#utility.yul\":14589:14636   */\n      mstore\n        /* \"#utility.yul\":14653:14784   */\n      tag_777\n        /* \"#utility.yul\":14779:14783   */\n      dup2\n        /* \"#utility.yul\":14653:14784   */\n      tag_700\n      jump\t// in\n    tag_777:\n        /* \"#utility.yul\":14645:14784   */\n      swap1\n      pop\n        /* \"#utility.yul\":14543:14791   */\n      swap2\n      swap1\n      pop\n      jump\t// out\n        /* \"#utility.yul\":14797:15216   */\n    tag_381:\n        /* \"#utility.yul\":14963:14967   */\n      0x00\n        /* \"#utility.yul\":15001:15003   */\n      0x20\n        /* \"#utility.yul\":14990:14999   */\n      dup3\n        /* \"#utility.yul\":14986:15004   */\n      add\n        /* \"#utility.yul\":14978:15004   */\n      swap1\n      pop\n        /* \"#utility.yul\":15050:15059   */\n      dup2\n        /* \"#utility.yul\":15044:15048   */\n      dup2\n        /* \"#utility.yul\":15040:15060   */\n      sub\n        /* \"#utility.yul\":15036:15037   */\n      0x00\n        /* \"#utility.yul\":15025:15034   */\n      dup4\n        /* \"#utility.yul\":15021:15038   */\n      add\n        /* \"#utility.yul\":15014:15061   */\n      mstore\n        /* \"#utility.yul\":15078:15209   */\n      tag_779\n        /* \"#utility.yul\":15204:15208   */\n      dup2\n        /* \"#utility.yul\":15078:15209   */\n      tag_705\n      jump\t// in\n    tag_779:\n        /* \"#utility.yul\":15070:15209   */\n      swap1\n      pop\n        /* \"#utility.yul\":14968:15216   */\n      swap2\n      swap1\n      pop\n      jump\t// out\n        /* \"#utility.yul\":15222:15641   */\n    tag_388:\n        /* \"#utility.yul\":15388:15392   */\n      0x00\n        /* \"#utility.yul\":15426:15428   */\n      0x20\n        /* \"#utility.yul\":15415:15424   */\n      dup3\n        /* \"#utility.yul\":15411:15429   */\n      add\n        /* \"#utility.yul\":15403:15429   */\n      swap1\n      pop\n        /* \"#utility.yul\":15475:15484   */\n      dup2\n        /* \"#utility.yul\":15469:15473   */\n      dup2\n        /* \"#utility.yul\":15465:15485   */\n      sub\n        /* \"#utility.yul\":15461:15462   */\n      0x00\n        /* \"#utility.yul\":15450:15459   */\n      dup4\n        /* \"#utility.yul\":15446:15463   */\n      add\n        /* \"#utility.yul\":15439:15486   */\n      mstore\n        /* \"#utility.yul\":15503:15634   */\n      tag_781\n        /* \"#utility.yul\":15629:15633   */\n      dup2\n        /* \"#utility.yul\":15503:15634   */\n      tag_710\n      jump\t// in\n    tag_781:\n        /* \"#utility.yul\":15495:15634   */\n      swap1\n      pop\n        /* \"#utility.yul\":15393:15641   */\n      swap2\n      swap1\n      pop\n      jump\t// out\n        /* \"#utility.yul\":15647:16066   */\n    tag_445:\n        /* \"#utility.yul\":15813:15817   */\n      0x00\n        /* \"#utility.yul\":15851:15853   */\n      0x20\n        /* \"#utility.yul\":15840:15849   */\n      dup3\n        /* \"#utility.yul\":15836:15854   */\n      add\n        /* \"#utility.yul\":15828:15854   */\n      swap1\n      pop\n        /* \"#utility.yul\":15900:15909   */\n      dup2\n        /* \"#utility.yul\":15894:15898   */\n      dup2\n        /* \"#utility.yul\":15890:15910   */\n      sub\n        /* \"#utility.yul\":15886:15887   */\n      0x00\n        /* \"#utility.yul\":15875:15884   */\n      dup4\n        /* \"#utility.yul\":15871:15888   */\n      add\n        /* \"#utility.yul\":15864:15911   */\n      mstore\n        /* \"#utility.yul\":15928:16059   */\n      tag_783\n        /* \"#utility.yul\":16054:16058   */\n      dup2\n        /* \"#utility.yul\":15928:16059   */\n      tag_715\n      jump\t// in\n    tag_783:\n        /* \"#utility.yul\":15920:16059   */\n      swap1\n      pop\n        /* \"#utility.yul\":15818:16066   */\n      swap2\n      swap1\n      pop\n      jump\t// out\n        /* \"#utility.yul\":16072:16491   */\n    tag_453:\n        /* \"#utility.yul\":16238:16242   */\n      0x00\n        /* \"#utility.yul\":16276:16278   */\n      0x20\n        /* \"#utility.yul\":16265:16274   */\n      dup3\n        /* \"#utility.yul\":16261:16279   */\n      add\n        /* \"#utility.yul\":16253:16279   */\n      swap1\n      pop\n        /* \"#utility.yul\":16325:16334   */\n      dup2\n        /* \"#utility.yul\":16319:16323   */\n      dup2\n        /* \"#utility.yul\":16315:16335   */\n      sub\n        /* \"#utility.yul\":16311:16312   */\n      0x00\n        /* \"#utility.yul\":16300:16309   */\n      dup4\n        /* \"#utility.yul\":16296:16313   */\n      add\n        /* \"#utility.yul\":16289:16336   */\n      mstore\n        /* \"#utility.yul\":16353:16484   */\n      tag_785\n        /* \"#utility.yul\":16479:16483   */\n      dup2\n        /* \"#utility.yul\":16353:16484   */\n      tag_720\n      jump\t// in\n    tag_785:\n        /* \"#utility.yul\":16345:16484   */\n      swap1\n      pop\n        /* \"#utility.yul\":16243:16491   */\n      swap2\n      swap1\n      pop\n      jump\t// out\n        /* \"#utility.yul\":16497:16916   */\n    tag_251:\n        /* \"#utility.yul\":16663:16667   */\n      0x00\n        /* \"#utility.yul\":16701:16703   */\n      0x20\n        /* \"#utility.yul\":16690:16699   */\n      dup3\n        /* \"#utility.yul\":16686:16704   */\n      add\n        /* \"#utility.yul\":16678:16704   */\n      swap1\n      pop\n        /* \"#utility.yul\":16750:16759   */\n      dup2\n        /* \"#utility.yul\":16744:16748   */\n      dup2\n        /* \"#utility.yul\":16740:16760   */\n      sub\n        /* \"#utility.yul\":16736:16737   */\n      0x00\n        /* \"#utility.yul\":16725:16734   */\n      dup4\n        /* \"#utility.yul\":16721:16738   */\n      add\n        /* \"#utility.yul\":16714:16761   */\n      mstore\n        /* \"#utility.yul\":16778:16909   */\n      tag_787\n        /* \"#utility.yul\":16904:16908   */\n      dup2\n        /* \"#utility.yul\":16778:16909   */\n      tag_725\n      jump\t// in\n    tag_787:\n        /* \"#utility.yul\":16770:16909   */\n      swap1\n      pop\n        /* \"#utility.yul\":16668:16916   */\n      swap2\n      swap1\n      pop\n      jump\t// out\n        /* \"#utility.yul\":16922:17341   */\n    tag_399:\n        /* \"#utility.yul\":17088:17092   */\n      0x00\n        /* \"#utility.yul\":17126:17128   */\n      0x20\n        /* \"#utility.yul\":17115:17124   */\n      dup3\n        /* \"#utility.yul\":17111:17129   */\n      add\n        /* \"#utility.yul\":17103:17129   */\n      swap1\n      pop\n        /* \"#utility.yul\":17175:17184   */\n      dup2\n        /* \"#utility.yul\":17169:17173   */\n      dup2\n        /* \"#utility.yul\":17165:17185   */\n      sub\n        /* \"#utility.yul\":17161:17162   */\n      0x00\n        /* \"#utility.yul\":17150:17159   */\n      dup4\n        /* \"#utility.yul\":17146:17163   */\n      add\n        /* \"#utility.yul\":17139:17186   */\n      mstore\n        /* \"#utility.yul\":17203:17334   */\n      tag_789\n        /* \"#utility.yul\":17329:17333   */\n      dup2\n        /* \"#utility.yul\":17203:17334   */\n      tag_730\n      jump\t// in\n    tag_789:\n        /* \"#utility.yul\":17195:17334   */\n      swap1\n      pop\n        /* \"#utility.yul\":17093:17341   */\n      swap2\n      swap1\n      pop\n      jump\t// out\n        /* \"#utility.yul\":17347:17766   */\n    tag_393:\n        /* \"#utility.yul\":17513:17517   */\n      0x00\n        /* \"#utility.yul\":17551:17553   */\n      0x20\n        /* \"#utility.yul\":17540:17549   */\n      dup3\n        /* \"#utility.yul\":17536:17554   */\n      add\n        /* \"#utility.yul\":17528:17554   */\n      swap1\n      pop\n        /* \"#utility.yul\":17600:17609   */\n      dup2\n        /* \"#utility.yul\":17594:17598   */\n      dup2\n        /* \"#utility.yul\":17590:17610   */\n      sub\n        /* \"#utility.yul\":17586:17587   */\n      0x00\n        /* \"#utility.yul\":17575:17584   */\n      dup4\n        /* \"#utility.yul\":17571:17588   */\n      add\n        /* \"#utility.yul\":17564:17611   */\n      mstore\n        /* \"#utility.yul\":17628:17759   */\n      tag_791\n        /* \"#utility.yul\":17754:17758   */\n      dup2\n        /* \"#utility.yul\":17628:17759   */\n      tag_735\n      jump\t// in\n    tag_791:\n        /* \"#utility.yul\":17620:17759   */\n      swap1\n      pop\n        /* \"#utility.yul\":17518:17766   */\n      swap2\n      swap1\n      pop\n      jump\t// out\n        /* \"#utility.yul\":17772:18191   */\n    tag_385:\n        /* \"#utility.yul\":17938:17942   */\n      0x00\n        /* \"#utility.yul\":17976:17978   */\n      0x20\n        /* \"#utility.yul\":17965:17974   */\n      dup3\n        /* \"#utility.yul\":17961:17979   */\n      add\n        /* \"#utility.yul\":17953:17979   */\n      swap1\n      pop\n        /* \"#utility.yul\":18025:18034   */\n      dup2\n        /* \"#utility.yul\":18019:18023   */\n      dup2\n        /* \"#utility.yul\":18015:18035   */\n      sub\n        /* \"#utility.yul\":18011:18012   */\n      0x00\n        /* \"#utility.yul\":18000:18009   */\n      dup4\n        /* \"#utility.yul\":17996:18013   */\n      add\n        /* \"#utility.yul\":17989:18036   */\n      mstore\n        /* \"#utility.yul\":18053:18184   */\n      tag_793\n        /* \"#utility.yul\":18179:18183   */\n      dup2\n        /* \"#utility.yul\":18053:18184   */\n      tag_740\n      jump\t// in\n    tag_793:\n        /* \"#utility.yul\":18045:18184   */\n      swap1\n      pop\n        /* \"#utility.yul\":17943:18191   */\n      swap2\n      swap1\n      pop\n      jump\t// out\n        /* \"#utility.yul\":18197:18616   */\n    tag_338:\n        /* \"#utility.yul\":18363:18367   */\n      0x00\n        /* \"#utility.yul\":18401:18403   */\n      0x20\n        /* \"#utility.yul\":18390:18399   */\n      dup3\n        /* \"#utility.yul\":18386:18404   */\n      add\n        /* \"#utility.yul\":18378:18404   */\n      swap1\n      pop\n        /* \"#utility.yul\":18450:18459   */\n      dup2\n        /* \"#utility.yul\":18444:18448   */\n      dup2\n        /* \"#utility.yul\":18440:18460   */\n      sub\n        /* \"#utility.yul\":18436:18437   */\n      0x00\n        /* \"#utility.yul\":18425:18434   */\n      dup4\n        /* \"#utility.yul\":18421:18438   */\n      add\n        /* \"#utility.yul\":18414:18461   */\n      mstore\n        /* \"#utility.yul\":18478:18609   */\n      tag_795\n        /* \"#utility.yul\":18604:18608   */\n      dup2\n        /* \"#utility.yul\":18478:18609   */\n      tag_745\n      jump\t// in\n    tag_795:\n        /* \"#utility.yul\":18470:18609   */\n      swap1\n      pop\n        /* \"#utility.yul\":18368:18616   */\n      swap2\n      swap1\n      pop\n      jump\t// out\n        /* \"#utility.yul\":18622:19041   */\n    tag_335:\n        /* \"#utility.yul\":18788:18792   */\n      0x00\n        /* \"#utility.yul\":18826:18828   */\n      0x20\n        /* \"#utility.yul\":18815:18824   */\n      dup3\n        /* \"#utility.yul\":18811:18829   */\n      add\n        /* \"#utility.yul\":18803:18829   */\n      swap1\n      pop\n        /* \"#utility.yul\":18875:18884   */\n      dup2\n        /* \"#utility.yul\":18869:18873   */\n      dup2\n        /* \"#utility.yul\":18865:18885   */\n      sub\n        /* \"#utility.yul\":18861:18862   */\n      0x00\n        /* \"#utility.yul\":18850:18859   */\n      dup4\n        /* \"#utility.yul\":18846:18863   */\n      add\n        /* \"#utility.yul\":18839:18886   */\n      mstore\n        /* \"#utility.yul\":18903:19034   */\n      tag_797\n        /* \"#utility.yul\":19029:19033   */\n      dup2\n        /* \"#utility.yul\":18903:19034   */\n      tag_750\n      jump\t// in\n    tag_797:\n        /* \"#utility.yul\":18895:19034   */\n      swap1\n      pop\n        /* \"#utility.yul\":18793:19041   */\n      swap2\n      swap1\n      pop\n      jump\t// out\n        /* \"#utility.yul\":19047:19269   */\n    tag_81:\n        /* \"#utility.yul\":19140:19144   */\n      0x00\n        /* \"#utility.yul\":19178:19180   */\n      0x20\n        /* \"#utility.yul\":19167:19176   */\n      dup3\n        /* \"#utility.yul\":19163:19181   */\n      add\n        /* \"#utility.yul\":19155:19181   */\n      swap1\n      pop\n        /* \"#utility.yul\":19191:19262   */\n      tag_799\n        /* \"#utility.yul\":19259:19260   */\n      0x00\n        /* \"#utility.yul\":19248:19257   */\n      dup4\n        /* \"#utility.yul\":19244:19261   */\n      add\n        /* \"#utility.yul\":19235:19241   */\n      dup5\n        /* \"#utility.yul\":19191:19262   */\n      tag_755\n      jump\t// in\n    tag_799:\n        /* \"#utility.yul\":19145:19269   */\n      swap3\n      swap2\n      pop\n      pop\n      jump\t// out\n        /* \"#utility.yul\":19275:20106   */\n    tag_501:\n        /* \"#utility.yul\":19538:19542   */\n      0x00\n        /* \"#utility.yul\":19576:19579   */\n      0xa0\n        /* \"#utility.yul\":19565:19574   */\n      dup3\n        /* \"#utility.yul\":19561:19580   */\n      add\n        /* \"#utility.yul\":19553:19580   */\n      swap1\n      pop\n        /* \"#utility.yul\":19590:19661   */\n      tag_801\n        /* \"#utility.yul\":19658:19659   */\n      0x00\n        /* \"#utility.yul\":19647:19656   */\n      dup4\n        /* \"#utility.yul\":19643:19660   */\n      add\n        /* \"#utility.yul\":19634:19640   */\n      dup9\n        /* \"#utility.yul\":19590:19661   */\n      tag_755\n      jump\t// in\n    tag_801:\n        /* \"#utility.yul\":19671:19751   */\n      tag_802\n        /* \"#utility.yul\":19747:19749   */\n      0x20\n        /* \"#utility.yul\":19736:19745   */\n      dup4\n        /* \"#utility.yul\":19732:19750   */\n      add\n        /* \"#utility.yul\":19723:19729   */\n      dup8\n        /* \"#utility.yul\":19671:19751   */\n      tag_681\n      jump\t// in\n    tag_802:\n        /* \"#utility.yul\":19798:19807   */\n      dup2\n        /* \"#utility.yul\":19792:19796   */\n      dup2\n        /* \"#utility.yul\":19788:19808   */\n      sub\n        /* \"#utility.yul\":19783:19785   */\n      0x40\n        /* \"#utility.yul\":19772:19781   */\n      dup4\n        /* \"#utility.yul\":19768:19786   */\n      add\n        /* \"#utility.yul\":19761:19809   */\n      mstore\n        /* \"#utility.yul\":19826:19934   */\n      tag_803\n        /* \"#utility.yul\":19929:19933   */\n      dup2\n        /* \"#utility.yul\":19920:19926   */\n      dup7\n        /* \"#utility.yul\":19826:19934   */\n      tag_659\n      jump\t// in\n    tag_803:\n        /* \"#utility.yul\":19818:19934   */\n      swap1\n      pop\n        /* \"#utility.yul\":19944:20016   */\n      tag_804\n        /* \"#utility.yul\":20012:20014   */\n      0x60\n        /* \"#utility.yul\":20001:20010   */\n      dup4\n        /* \"#utility.yul\":19997:20015   */\n      add\n        /* \"#utility.yul\":19988:19994   */\n      dup6\n        /* \"#utility.yul\":19944:20016   */\n      tag_656\n      jump\t// in\n    tag_804:\n        /* \"#utility.yul\":20026:20099   */\n      tag_805\n        /* \"#utility.yul\":20094:20097   */\n      0x80\n        /* \"#utility.yul\":20083:20092   */\n      dup4\n        /* \"#utility.yul\":20079:20098   */\n      add\n        /* \"#utility.yul\":20070:20076   */\n      dup5\n        /* \"#utility.yul\":20026:20099   */\n      tag_755\n      jump\t// in\n    tag_805:\n        /* \"#utility.yul\":19543:20106   */\n      swap7\n      swap6\n      pop\n      pop\n      pop\n      pop\n      pop\n      pop\n      jump\t// out\n        /* \"#utility.yul\":20112:20554   */\n    tag_465:\n        /* \"#utility.yul\":20261:20265   */\n      0x00\n        /* \"#utility.yul\":20299:20301   */\n      0x60\n        /* \"#utility.yul\":20288:20297   */\n      dup3\n        /* \"#utility.yul\":20284:20302   */\n      add\n        /* \"#utility.yul\":20276:20302   */\n      swap1\n      pop\n        /* \"#utility.yul\":20312:20383   */\n      tag_807\n        /* \"#utility.yul\":20380:20381   */\n      0x00\n        /* \"#utility.yul\":20369:20378   */\n      dup4\n        /* \"#utility.yul\":20365:20382   */\n      add\n        /* \"#utility.yul\":20356:20362   */\n      dup7\n        /* \"#utility.yul\":20312:20383   */\n      tag_755\n      jump\t// in\n    tag_807:\n        /* \"#utility.yul\":20393:20465   */\n      tag_808\n        /* \"#utility.yul\":20461:20463   */\n      0x20\n        /* \"#utility.yul\":20450:20459   */\n      dup4\n        /* \"#utility.yul\":20446:20464   */\n      add\n        /* \"#utility.yul\":20437:20443   */\n      dup6\n        /* \"#utility.yul\":20393:20465   */\n      tag_755\n      jump\t// in\n    tag_808:\n        /* \"#utility.yul\":20475:20547   */\n      tag_809\n        /* \"#utility.yul\":20543:20545   */\n      0x40\n        /* \"#utility.yul\":20532:20541   */\n      dup4\n        /* \"#utility.yul\":20528:20546   */\n      add\n        /* \"#utility.yul\":20519:20525   */\n      dup5\n        /* \"#utility.yul\":20475:20547   */\n      tag_755\n      jump\t// in\n    tag_809:\n        /* \"#utility.yul\":20266:20554   */\n      swap5\n      swap4\n      pop\n      pop\n      pop\n      pop\n      jump\t// out\n        /* \"#utility.yul\":20641:20773   */\n    tag_666:\n        /* \"#utility.yul\":20708:20712   */\n      0x00\n        /* \"#utility.yul\":20731:20734   */\n      dup2\n        /* \"#utility.yul\":20723:20734   */\n      swap1\n      pop\n        /* \"#utility.yul\":20761:20765   */\n      0x20\n        /* \"#utility.yul\":20756:20759   */\n      dup3\n        /* \"#utility.yul\":20752:20766   */\n      add\n        /* \"#utility.yul\":20744:20766   */\n      swap1\n      pop\n        /* \"#utility.yul\":20713:20773   */\n      swap2\n      swap1\n      pop\n      jump\t// out\n        /* \"#utility.yul\":20779:20893   */\n    tag_662:\n        /* \"#utility.yul\":20846:20852   */\n      0x00\n        /* \"#utility.yul\":20880:20885   */\n      dup2\n        /* \"#utility.yul\":20874:20886   */\n      mload\n        /* \"#utility.yul\":20864:20886   */\n      swap1\n      pop\n        /* \"#utility.yul\":20853:20893   */\n      swap2\n      swap1\n      pop\n      jump\t// out\n        /* \"#utility.yul\":20899:20998   */\n    tag_688:\n        /* \"#utility.yul\":20951:20957   */\n      0x00\n        /* \"#utility.yul\":20985:20990   */\n      dup2\n        /* \"#utility.yul\":20979:20991   */\n      mload\n        /* \"#utility.yul\":20969:20991   */\n      swap1\n      pop\n        /* \"#utility.yul\":20958:20998   */\n      swap2\n      swap1\n      pop\n      jump\t// out\n        /* \"#utility.yul\":21004:21117   */\n    tag_672:\n        /* \"#utility.yul\":21074:21078   */\n      0x00\n        /* \"#utility.yul\":21106:21110   */\n      0x20\n        /* \"#utility.yul\":21101:21104   */\n      dup3\n        /* \"#utility.yul\":21097:21111   */\n      add\n        /* \"#utility.yul\":21089:21111   */\n      swap1\n      pop\n        /* \"#utility.yul\":21079:21117   */\n      swap2\n      swap1\n      pop\n      jump\t// out\n        /* \"#utility.yul\":21123:21307   */\n    tag_664:\n        /* \"#utility.yul\":21222:21233   */\n      0x00\n        /* \"#utility.yul\":21256:21262   */\n      dup3\n        /* \"#utility.yul\":21251:21254   */\n      dup3\n        /* \"#utility.yul\":21244:21263   */\n      mstore\n        /* \"#utility.yul\":21296:21300   */\n      0x20\n        /* \"#utility.yul\":21291:21294   */\n      dup3\n        /* \"#utility.yul\":21287:21301   */\n      add\n        /* \"#utility.yul\":21272:21301   */\n      swap1\n      pop\n        /* \"#utility.yul\":21234:21307   */\n      swap3\n      swap2\n      pop\n      pop\n      jump\t// out\n        /* \"#utility.yul\":21313:21482   */\n    tag_690:\n        /* \"#utility.yul\":21397:21408   */\n      0x00\n        /* \"#utility.yul\":21431:21437   */\n      dup3\n        /* \"#utility.yul\":21426:21429   */\n      dup3\n        /* \"#utility.yul\":21419:21438   */\n      mstore\n        /* \"#utility.yul\":21471:21475   */\n      0x20\n        /* \"#utility.yul\":21466:21469   */\n      dup3\n        /* \"#utility.yul\":21462:21476   */\n      add\n        /* \"#utility.yul\":21447:21476   */\n      swap1\n      pop\n        /* \"#utility.yul\":21409:21482   */\n      swap3\n      swap2\n      pop\n      pop\n      jump\t// out\n        /* \"#utility.yul\":21488:21793   */\n    tag_355:\n        /* \"#utility.yul\":21528:21531   */\n      0x00\n        /* \"#utility.yul\":21547:21567   */\n      tag_819\n        /* \"#utility.yul\":21565:21566   */\n      dup3\n        /* \"#utility.yul\":21547:21567   */\n      tag_758\n      jump\t// in\n    tag_819:\n        /* \"#utility.yul\":21542:21567   */\n      swap2\n      pop\n        /* \"#utility.yul\":21581:21601   */\n      tag_820\n        /* \"#utility.yul\":21599:21600   */\n      dup4\n        /* \"#utility.yul\":21581:21601   */\n      tag_758\n      jump\t// in\n    tag_820:\n        /* \"#utility.yul\":21576:21601   */\n      swap3\n      pop\n        /* \"#utility.yul\":21735:21736   */\n      dup3\n        /* \"#utility.yul\":21667:21733   */\n      0xffffffffffffffffffffffffffffffffffffffffffffffffffffffffffffffff\n        /* \"#utility.yul\":21663:21737   */\n      sub\n        /* \"#utility.yul\":21660:21661   */\n      dup3\n        /* \"#utility.yul\":21657:21738   */\n      gt\n        /* \"#utility.yul\":21654:21656   */\n      iszero\n      tag_821\n      jumpi\n        /* \"#utility.yul\":21741:21759   */\n      tag_822\n      tag_823\n      jump\t// in\n    tag_822:\n        /* \"#utility.yul\":21654:21656   */\n    tag_821:\n        /* \"#utility.yul\":21785:21786   */\n      dup3\n        /* \"#utility.yul\":21782:21783   */\n      dup3\n        /* \"#utility.yul\":21778:21787   */\n      add\n        /* \"#utility.yul\":21771:21787   */\n      swap1\n      pop\n        /* \"#utility.yul\":21532:21793   */\n      swap3\n      swap2\n      pop\n      pop\n      jump\t// out\n        /* \"#utility.yul\":21799:21984   */\n    tag_450:\n        /* \"#utility.yul\":21839:21840   */\n      0x00\n        /* \"#utility.yul\":21856:21876   */\n      tag_825\n        /* \"#utility.yul\":21874:21875   */\n      dup3\n        /* \"#utility.yul\":21856:21876   */\n      tag_758\n      jump\t// in\n    tag_825:\n        /* \"#utility.yul\":21851:21876   */\n      swap2\n      pop\n        /* \"#utility.yul\":21890:21910   */\n      tag_826\n        /* \"#utility.yul\":21908:21909   */\n      dup4\n        /* \"#utility.yul\":21890:21910   */\n      tag_758\n      jump\t// in\n    tag_826:\n        /* \"#utility.yul\":21885:21910   */\n      swap3\n      pop\n        /* \"#utility.yul\":21929:21930   */\n      dup3\n        /* \"#utility.yul\":21919:21921   */\n      tag_827\n      jumpi\n        /* \"#utility.yul\":21934:21952   */\n      tag_828\n      tag_829\n      jump\t// in\n    tag_828:\n        /* \"#utility.yul\":21919:21921   */\n    tag_827:\n        /* \"#utility.yul\":21976:21977   */\n      dup3\n        /* \"#utility.yul\":21973:21974   */\n      dup3\n        /* \"#utility.yul\":21969:21978   */\n      div\n        /* \"#utility.yul\":21964:21978   */\n      swap1\n      pop\n        /* \"#utility.yul\":21841:21984   */\n      swap3\n      swap2\n      pop\n      pop\n      jump\t// out\n        /* \"#utility.yul\":21990:22838   */\n    tag_830:\n        /* \"#utility.yul\":22051:22056   */\n      0x00\n        /* \"#utility.yul\":22058:22062   */\n      dup1\n        /* \"#utility.yul\":22082:22088   */\n      dup3\n        /* \"#utility.yul\":22073:22088   */\n      swap2\n      pop\n        /* \"#utility.yul\":22106:22111   */\n      dup4\n        /* \"#utility.yul\":22097:22111   */\n      swap1\n      pop\n        /* \"#utility.yul\":22120:22832   */\n    tag_832:\n        /* \"#utility.yul\":22141:22142   */\n      0x01\n        /* \"#utility.yul\":22131:22139   */\n      dup6\n        /* \"#utility.yul\":22128:22143   */\n      gt\n        /* \"#utility.yul\":22120:22832   */\n      iszero\n      tag_834\n      jumpi\n        /* \"#utility.yul\":22236:22240   */\n      dup1\n        /* \"#utility.yul\":22231:22234   */\n      dup7\n        /* \"#utility.yul\":22227:22241   */\n      div\n        /* \"#utility.yul\":22221:22225   */\n      dup2\n        /* \"#utility.yul\":22218:22242   */\n      gt\n        /* \"#utility.yul\":22215:22217   */\n      iszero\n      tag_835\n      jumpi\n        /* \"#utility.yul\":22245:22263   */\n      tag_836\n      tag_823\n      jump\t// in\n    tag_836:\n        /* \"#utility.yul\":22215:22217   */\n    tag_835:\n        /* \"#utility.yul\":22295:22296   */\n      0x01\n        /* \"#utility.yul\":22285:22293   */\n      dup6\n        /* \"#utility.yul\":22281:22297   */\n      and\n        /* \"#utility.yul\":22278:22280   */\n      iszero\n      tag_837\n      jumpi\n        /* \"#utility.yul\":22710:22714   */\n      dup1\n        /* \"#utility.yul\":22703:22708   */\n      dup3\n        /* \"#utility.yul\":22699:22715   */\n      mul\n        /* \"#utility.yul\":22690:22715   */\n      swap2\n      pop\n        /* \"#utility.yul\":22278:22280   */\n    tag_837:\n        /* \"#utility.yul\":22760:22764   */\n      dup1\n        /* \"#utility.yul\":22754:22758   */\n      dup2\n        /* \"#utility.yul\":22750:22765   */\n      mul\n        /* \"#utility.yul\":22742:22765   */\n      swap1\n      pop\n        /* \"#utility.yul\":22790:22822   */\n      tag_838\n        /* \"#utility.yul\":22813:22821   */\n      dup6\n        /* \"#utility.yul\":22790:22822   */\n      tag_839\n      jump\t// in\n    tag_838:\n        /* \"#utility.yul\":22778:22822   */\n      swap5\n      pop\n        /* \"#utility.yul\":22120:22832   */\n      jump(tag_832)\n    tag_834:\n        /* \"#utility.yul\":22063:22838   */\n      swap5\n      pop\n      swap5\n      swap3\n      pop\n      pop\n      pop\n      jump\t// out\n        /* \"#utility.yul\":22844:23129   */\n    tag_366:\n        /* \"#utility.yul\":22904:22909   */\n      0x00\n        /* \"#utility.yul\":22928:22951   */\n      tag_841\n        /* \"#utility.yul\":22946:22950   */\n      dup3\n        /* \"#utility.yul\":22928:22951   */\n      tag_758\n      jump\t// in\n    tag_841:\n        /* \"#utility.yul\":22920:22951   */\n      swap2\n      pop\n        /* \"#utility.yul\":22972:22999   */\n      tag_842\n        /* \"#utility.yul\":22990:22998   */\n      dup4\n        /* \"#utility.yul\":22972:22999   */\n      tag_758\n      jump\t// in\n    tag_842:\n        /* \"#utility.yul\":22960:22999   */\n      swap3\n      pop\n        /* \"#utility.yul\":23018:23122   */\n      tag_843\n        /* \"#utility.yul\":23055:23121   */\n      0xffffffffffffffffffffffffffffffffffffffffffffffffffffffffffffffff\n        /* \"#utility.yul\":23045:23053   */\n      dup5\n        /* \"#utility.yul\":23039:23043   */\n      dup5\n        /* \"#utility.yul\":23018:23122   */\n      tag_844\n      jump\t// in\n    tag_843:\n        /* \"#utility.yul\":23009:23122   */\n      swap1\n      pop\n        /* \"#utility.yul\":22910:23129   */\n      swap3\n      swap2\n      pop\n      pop\n      jump\t// out\n        /* \"#utility.yul\":23135:24208   */\n    tag_844:\n        /* \"#utility.yul\":23189:23194   */\n      0x00\n        /* \"#utility.yul\":23380:23388   */\n      dup3\n        /* \"#utility.yul\":23370:23372   */\n      tag_846\n      jumpi\n        /* \"#utility.yul\":23401:23402   */\n      0x01\n        /* \"#utility.yul\":23392:23402   */\n      swap1\n      pop\n        /* \"#utility.yul\":23403:23408   */\n      jump(tag_845)\n        /* \"#utility.yul\":23370:23372   */\n    tag_846:\n        /* \"#utility.yul\":23429:23433   */\n      dup2\n        /* \"#utility.yul\":23419:23421   */\n      tag_847\n      jumpi\n        /* \"#utility.yul\":23446:23447   */\n      0x00\n        /* \"#utility.yul\":23437:23447   */\n      swap1\n      pop\n        /* \"#utility.yul\":23448:23453   */\n      jump(tag_845)\n        /* \"#utility.yul\":23419:23421   */\n    tag_847:\n        /* \"#utility.yul\":23515:23519   */\n      dup2\n        /* \"#utility.yul\":23563:23564   */\n      0x01\n        /* \"#utility.yul\":23558:23585   */\n      dup2\n      eq\n      tag_849\n      jumpi\n        /* \"#utility.yul\":23599:23600   */\n      0x02\n        /* \"#utility.yul\":23594:23785   */\n      dup2\n      eq\n      tag_850\n      jumpi\n        /* \"#utility.yul\":23508:23785   */\n      jump(tag_848)\n        /* \"#utility.yul\":23558:23585   */\n    tag_849:\n        /* \"#utility.yul\":23576:23577   */\n      0x01\n        /* \"#utility.yul\":23567:23577   */\n      swap2\n      pop\n        /* \"#utility.yul\":23578:23583   */\n      pop\n      jump(tag_845)\n        /* \"#utility.yul\":23594:23785   */\n    tag_850:\n        /* \"#utility.yul\":23639:23642   */\n      0xff\n        /* \"#utility.yul\":23629:23637   */\n      dup5\n        /* \"#utility.yul\":23626:23643   */\n      gt\n        /* \"#utility.yul\":23623:23625   */\n      iszero\n      tag_851\n      jumpi\n        /* \"#utility.yul\":23646:23664   */\n      tag_852\n      tag_823\n      jump\t// in\n    tag_852:\n        /* \"#utility.yul\":23623:23625   */\n    tag_851:\n        /* \"#utility.yul\":23695:23703   */\n      dup4\n        /* \"#utility.yul\":23692:23693   */\n      0x02\n        /* \"#utility.yul\":23688:23704   */\n      exp\n        /* \"#utility.yul\":23679:23704   */\n      swap2\n      pop\n        /* \"#utility.yul\":23730:23733   */\n      dup5\n        /* \"#utility.yul\":23723:23728   */\n      dup3\n        /* \"#utility.yul\":23720:23734   */\n      gt\n        /* \"#utility.yul\":23717:23719   */\n      iszero\n      tag_853\n      jumpi\n        /* \"#utility.yul\":23737:23755   */\n      tag_854\n      tag_823\n      jump\t// in\n    tag_854:\n        /* \"#utility.yul\":23717:23719   */\n    tag_853:\n        /* \"#utility.yul\":23770:23775   */\n      pop\n      jump(tag_845)\n        /* \"#utility.yul\":23508:23785   */\n    tag_848:\n      pop\n        /* \"#utility.yul\":23894:23896   */\n      0x20\n        /* \"#utility.yul\":23884:23892   */\n      dup4\n        /* \"#utility.yul\":23881:23897   */\n      lt\n        /* \"#utility.yul\":23875:23878   */\n      0x0133\n        /* \"#utility.yul\":23869:23873   */\n      dup4\n        /* \"#utility.yul\":23866:23879   */\n      lt\n        /* \"#utility.yul\":23862:23898   */\n      and\n        /* \"#utility.yul\":23844:23846   */\n      0x4e\n        /* \"#utility.yul\":23834:23842   */\n      dup5\n        /* \"#utility.yul\":23831:23847   */\n      lt\n        /* \"#utility.yul\":23826:23828   */\n      0x0b\n        /* \"#utility.yul\":23820:23824   */\n      dup5\n        /* \"#utility.yul\":23817:23829   */\n      lt\n        /* \"#utility.yul\":23813:23848   */\n      and\n        /* \"#utility.yul\":23797:23908   */\n      or\n        /* \"#utility.yul\":23794:23796   */\n      iszero\n      tag_855\n      jumpi\n        /* \"#utility.yul\":23950:23958   */\n      dup3\n        /* \"#utility.yul\":23944:23948   */\n      dup3\n        /* \"#utility.yul\":23940:23959   */\n      exp\n        /* \"#utility.yul\":23931:23959   */\n      swap1\n      pop\n        /* \"#utility.yul\":23985:23988   */\n      dup4\n        /* \"#utility.yul\":23978:23983   */\n      dup2\n        /* \"#utility.yul\":23975:23989   */\n      gt\n        /* \"#utility.yul\":23972:23974   */\n      iszero\n      tag_856\n      jumpi\n        /* \"#utility.yul\":23992:24010   */\n      tag_857\n      tag_823\n      jump\t// in\n    tag_857:\n        /* \"#utility.yul\":23972:23974   */\n    tag_856:\n        /* \"#utility.yul\":24025:24030   */\n      jump(tag_845)\n        /* \"#utility.yul\":23794:23796   */\n    tag_855:\n        /* \"#utility.yul\":24065:24107   */\n      tag_858\n        /* \"#utility.yul\":24103:24106   */\n      dup5\n        /* \"#utility.yul\":24093:24101   */\n      dup5\n        /* \"#utility.yul\":24087:24091   */\n      dup5\n        /* \"#utility.yul\":24084:24085   */\n      0x01\n        /* \"#utility.yul\":24065:24107   */\n      tag_830\n      jump\t// in\n    tag_858:\n        /* \"#utility.yul\":24050:24107   */\n      swap3\n      pop\n      swap1\n      pop\n        /* \"#utility.yul\":24139:24143   */\n      dup2\n        /* \"#utility.yul\":24134:24137   */\n      dup5\n        /* \"#utility.yul\":24130:24144   */\n      div\n        /* \"#utility.yul\":24123:24128   */\n      dup2\n        /* \"#utility.yul\":24120:24145   */\n      gt\n        /* \"#utility.yul\":24117:24119   */\n      iszero\n      tag_859\n      jumpi\n        /* \"#utility.yul\":24148:24166   */\n      tag_860\n      tag_823\n      jump\t// in\n    tag_860:\n        /* \"#utility.yul\":24117:24119   */\n    tag_859:\n        /* \"#utility.yul\":24197:24201   */\n      dup2\n        /* \"#utility.yul\":24190:24195   */\n      dup2\n        /* \"#utility.yul\":24186:24202   */\n      mul\n        /* \"#utility.yul\":24177:24202   */\n      swap1\n      pop\n        /* \"#utility.yul\":23195:24208   */\n    tag_845:\n      swap4\n      swap3\n      pop\n      pop\n      pop\n      jump\t// out\n        /* \"#utility.yul\":24214:24562   */\n    tag_368:\n        /* \"#utility.yul\":24254:24261   */\n      0x00\n        /* \"#utility.yul\":24277:24297   */\n      tag_862\n        /* \"#utility.yul\":24295:24296   */\n      dup3\n        /* \"#utility.yul\":24277:24297   */\n      tag_758\n      jump\t// in\n    tag_862:\n        /* \"#utility.yul\":24272:24297   */\n      swap2\n      pop\n        /* \"#utility.yul\":24311:24331   */\n      tag_863\n        /* \"#utility.yul\":24329:24330   */\n      dup4\n        /* \"#utility.yul\":24311:24331   */\n      tag_758\n      jump\t// in\n    tag_863:\n        /* \"#utility.yul\":24306:24331   */\n      swap3\n      pop\n        /* \"#utility.yul\":24499:24500   */\n      dup2\n        /* \"#utility.yul\":24431:24497   */\n      0xffffffffffffffffffffffffffffffffffffffffffffffffffffffffffffffff\n        /* \"#utility.yul\":24427:24501   */\n      div\n        /* \"#utility.yul\":24424:24425   */\n      dup4\n        /* \"#utility.yul\":24421:24502   */\n      gt\n        /* \"#utility.yul\":24416:24417   */\n      dup3\n        /* \"#utility.yul\":24409:24418   */\n      iszero\n        /* \"#utility.yul\":24402:24419   */\n      iszero\n        /* \"#utility.yul\":24398:24503   */\n      and\n        /* \"#utility.yul\":24395:24397   */\n      iszero\n      tag_864\n      jumpi\n        /* \"#utility.yul\":24506:24524   */\n      tag_865\n      tag_823\n      jump\t// in\n    tag_865:\n        /* \"#utility.yul\":24395:24397   */\n    tag_864:\n        /* \"#utility.yul\":24554:24555   */\n      dup3\n        /* \"#utility.yul\":24551:24552   */\n      dup3\n        /* \"#utility.yul\":24547:24556   */\n      mul\n        /* \"#utility.yul\":24536:24556   */\n      swap1\n      pop\n        /* \"#utility.yul\":24262:24562   */\n      swap3\n      swap2\n      pop\n      pop\n      jump\t// out\n        /* \"#utility.yul\":24568:24759   */\n    tag_433:\n        /* \"#utility.yul\":24608:24612   */\n      0x00\n        /* \"#utility.yul\":24628:24648   */\n      tag_867\n        /* \"#utility.yul\":24646:24647   */\n      dup3\n        /* \"#utility.yul\":24628:24648   */\n      tag_758\n      jump\t// in\n    tag_867:\n        /* \"#utility.yul\":24623:24648   */\n      swap2\n      pop\n        /* \"#utility.yul\":24662:24682   */\n      tag_868\n        /* \"#utility.yul\":24680:24681   */\n      dup4\n        /* \"#utility.yul\":24662:24682   */\n      tag_758\n      jump\t// in\n    tag_868:\n        /* \"#utility.yul\":24657:24682   */\n      swap3\n      pop\n        /* \"#utility.yul\":24701:24702   */\n      dup3\n        /* \"#utility.yul\":24698:24699   */\n      dup3\n        /* \"#utility.yul\":24695:24703   */\n      lt\n        /* \"#utility.yul\":24692:24694   */\n      iszero\n      tag_869\n      jumpi\n        /* \"#utility.yul\":24706:24724   */\n      tag_870\n      tag_823\n      jump\t// in\n    tag_870:\n        /* \"#utility.yul\":24692:24694   */\n    tag_869:\n        /* \"#utility.yul\":24751:24752   */\n      dup3\n        /* \"#utility.yul\":24748:24749   */\n      dup3\n        /* \"#utility.yul\":24744:24753   */\n      sub\n        /* \"#utility.yul\":24736:24753   */\n      swap1\n      pop\n        /* \"#utility.yul\":24613:24759   */\n      swap3\n      swap2\n      pop\n      pop\n      jump\t// out\n        /* \"#utility.yul\":24765:24861   */\n    tag_655:\n        /* \"#utility.yul\":24802:24809   */\n      0x00\n        /* \"#utility.yul\":24831:24855   */\n      tag_872\n        /* \"#utility.yul\":24849:24854   */\n      dup3\n        /* \"#utility.yul\":24831:24855   */\n      tag_873\n      jump\t// in\n    tag_872:\n        /* \"#utility.yul\":24820:24855   */\n      swap1\n      pop\n        /* \"#utility.yul\":24810:24861   */\n      swap2\n      swap1\n      pop\n      jump\t// out\n        /* \"#utility.yul\":24867:24971   */\n    tag_874:\n        /* \"#utility.yul\":24912:24919   */\n      0x00\n        /* \"#utility.yul\":24941:24965   */\n      tag_876\n        /* \"#utility.yul\":24959:24964   */\n      dup3\n        /* \"#utility.yul\":24941:24965   */\n      tag_873\n      jump\t// in\n    tag_876:\n        /* \"#utility.yul\":24930:24965   */\n      swap1\n      pop\n        /* \"#utility.yul\":24920:24971   */\n      swap2\n      swap1\n      pop\n      jump\t// out\n        /* \"#utility.yul\":24977:25067   */\n    tag_676:\n        /* \"#utility.yul\":25011:25018   */\n      0x00\n        /* \"#utility.yul\":25054:25059   */\n      dup2\n        /* \"#utility.yul\":25047:25060   */\n      iszero\n        /* \"#utility.yul\":25040:25061   */\n      iszero\n        /* \"#utility.yul\":25029:25061   */\n      swap1\n      pop\n        /* \"#utility.yul\":25019:25067   */\n      swap2\n      swap1\n      pop\n      jump\t// out\n        /* \"#utility.yul\":25073:25149   */\n    tag_878:\n        /* \"#utility.yul\":25109:25116   */\n      0x00\n        /* \"#utility.yul\":25138:25143   */\n      dup2\n        /* \"#utility.yul\":25127:25143   */\n      swap1\n      pop\n        /* \"#utility.yul\":25117:25149   */\n      swap2\n      swap1\n      pop\n      jump\t// out\n        /* \"#utility.yul\":25155:25281   */\n    tag_873:\n        /* \"#utility.yul\":25192:25199   */\n      0x00\n        /* \"#utility.yul\":25232:25274   */\n      0xffffffffffffffffffffffffffffffffffffffff\n        /* \"#utility.yul\":25225:25230   */\n      dup3\n        /* \"#utility.yul\":25221:25275   */\n      and\n        /* \"#utility.yul\":25210:25275   */\n      swap1\n      pop\n        /* \"#utility.yul\":25200:25281   */\n      swap2\n      swap1\n      pop\n      jump\t// out\n        /* \"#utility.yul\":25287:25364   */\n    tag_758:\n        /* \"#utility.yul\":25324:25331   */\n      0x00\n        /* \"#utility.yul\":25353:25358   */\n      dup2\n        /* \"#utility.yul\":25342:25358   */\n      swap1\n      pop\n        /* \"#utility.yul\":25332:25364   */\n      swap2\n      swap1\n      pop\n      jump\t// out\n        /* \"#utility.yul\":25370:25550   */\n    tag_680:\n        /* \"#utility.yul\":25447:25456   */\n      0x00\n        /* \"#utility.yul\":25480:25544   */\n      tag_883\n        /* \"#utility.yul\":25538:25543   */\n      dup3\n        /* \"#utility.yul\":25480:25544   */\n      tag_884\n      jump\t// in\n    tag_883:\n        /* \"#utility.yul\":25467:25544   */\n      swap1\n      pop\n        /* \"#utility.yul\":25457:25550   */\n      swap2\n      swap1\n      pop\n      jump\t// out\n        /* \"#utility.yul\":25556:25696   */\n    tag_884:\n        /* \"#utility.yul\":25633:25642   */\n      0x00\n        /* \"#utility.yul\":25666:25690   */\n      tag_886\n        /* \"#utility.yul\":25684:25689   */\n      dup3\n        /* \"#utility.yul\":25666:25690   */\n      tag_873\n      jump\t// in\n    tag_886:\n        /* \"#utility.yul\":25653:25690   */\n      swap1\n      pop\n        /* \"#utility.yul\":25643:25696   */\n      swap2\n      swap1\n      pop\n      jump\t// out\n        /* \"#utility.yul\":25702:25823   */\n    tag_684:\n        /* \"#utility.yul\":25760:25769   */\n      0x00\n        /* \"#utility.yul\":25793:25817   */\n      tag_888\n        /* \"#utility.yul\":25811:25816   */\n      dup3\n        /* \"#utility.yul\":25793:25817   */\n      tag_758\n      jump\t// in\n    tag_888:\n        /* \"#utility.yul\":25780:25817   */\n      swap1\n      pop\n        /* \"#utility.yul\":25770:25823   */\n      swap2\n      swap1\n      pop\n      jump\t// out\n        /* \"#utility.yul\":25829:26136   */\n    tag_692:\n        /* \"#utility.yul\":25897:25898   */\n      0x00\n        /* \"#utility.yul\":25907:26020   */\n    tag_890:\n        /* \"#utility.yul\":25921:25927   */\n      dup4\n        /* \"#utility.yul\":25918:25919   */\n      dup2\n        /* \"#utility.yul\":25915:25928   */\n      lt\n        /* \"#utility.yul\":25907:26020   */\n      iszero\n      tag_892\n      jumpi\n        /* \"#utility.yul\":26006:26007   */\n      dup1\n        /* \"#utility.yul\":26001:26004   */\n      dup3\n        /* \"#utility.yul\":25997:26008   */\n      add\n        /* \"#utility.yul\":25991:26009   */\n      mload\n        /* \"#utility.yul\":25987:25988   */\n      dup2\n        /* \"#utility.yul\":25982:25985   */\n      dup5\n        /* \"#utility.yul\":25978:25989   */\n      add\n        /* \"#utility.yul\":25971:26010   */\n      mstore\n        /* \"#utility.yul\":25943:25945   */\n      0x20\n        /* \"#utility.yul\":25940:25941   */\n      dup2\n        /* \"#utility.yul\":25936:25946   */\n      add\n        /* \"#utility.yul\":25931:25946   */\n      swap1\n      pop\n        /* \"#utility.yul\":25907:26020   */\n      jump(tag_890)\n    tag_892:\n        /* \"#utility.yul\":26038:26044   */\n      dup4\n        /* \"#utility.yul\":26035:26036   */\n      dup2\n        /* \"#utility.yul\":26032:26045   */\n      gt\n        /* \"#utility.yul\":26029:26031   */\n      iszero\n      tag_893\n      jumpi\n        /* \"#utility.yul\":26118:26119   */\n      0x00\n        /* \"#utility.yul\":26109:26115   */\n      dup5\n        /* \"#utility.yul\":26104:26107   */\n      dup5\n        /* \"#utility.yul\":26100:26116   */\n      add\n        /* \"#utility.yul\":26093:26120   */\n      mstore\n        /* \"#utility.yul\":26029:26031   */\n    tag_893:\n        /* \"#utility.yul\":25878:26136   */\n      pop\n      pop\n      pop\n      pop\n      jump\t// out\n        /* \"#utility.yul\":26142:26462   */\n    tag_265:\n        /* \"#utility.yul\":26186:26192   */\n      0x00\n        /* \"#utility.yul\":26223:26224   */\n      0x02\n        /* \"#utility.yul\":26217:26221   */\n      dup3\n        /* \"#utility.yul\":26213:26225   */\n      div\n        /* \"#utility.yul\":26203:26225   */\n      swap1\n      pop\n        /* \"#utility.yul\":26270:26271   */\n      0x01\n        /* \"#utility.yul\":26264:26268   */\n      dup3\n        /* \"#utility.yul\":26260:26272   */\n      and\n        /* \"#utility.yul\":26291:26309   */\n      dup1\n        /* \"#utility.yul\":26281:26283   */\n      tag_895\n      jumpi\n        /* \"#utility.yul\":26347:26351   */\n      0x7f\n        /* \"#utility.yul\":26339:26345   */\n      dup3\n        /* \"#utility.yul\":26335:26352   */\n      and\n        /* \"#utility.yul\":26325:26352   */\n      swap2\n      pop\n        /* \"#utility.yul\":26281:26283   */\n    tag_895:\n        /* \"#utility.yul\":26409:26411   */\n      0x20\n        /* \"#utility.yul\":26401:26407   */\n      dup3\n        /* \"#utility.yul\":26398:26412   */\n      lt\n        /* \"#utility.yul\":26378:26396   */\n      dup2\n        /* \"#utility.yul\":26375:26413   */\n      eq\n        /* \"#utility.yul\":26372:26374   */\n      iszero\n      tag_896\n      jumpi\n        /* \"#utility.yul\":26428:26446   */\n      tag_897\n      tag_898\n      jump\t// in\n    tag_897:\n        /* \"#utility.yul\":26372:26374   */\n    tag_896:\n        /* \"#utility.yul\":26193:26462   */\n      pop\n      swap2\n      swap1\n      pop\n      jump\t// out\n        /* \"#utility.yul\":26468:26699   */\n    tag_573:\n        /* \"#utility.yul\":26506:26509   */\n      0x00\n        /* \"#utility.yul\":26529:26552   */\n      tag_900\n        /* \"#utility.yul\":26546:26551   */\n      dup3\n        /* \"#utility.yul\":26529:26552   */\n      tag_878\n      jump\t// in\n    tag_900:\n        /* \"#utility.yul\":26520:26552   */\n      swap2\n      pop\n        /* \"#utility.yul\":26574:26640   */\n      0x7fffffffffffffffffffffffffffffffffffffffffffffffffffffffffffffff\n        /* \"#utility.yul\":26567:26572   */\n      dup3\n        /* \"#utility.yul\":26564:26641   */\n      eq\n        /* \"#utility.yul\":26561:26563   */\n      iszero\n      tag_901\n      jumpi\n        /* \"#utility.yul\":26644:26662   */\n      tag_902\n      tag_823\n      jump\t// in\n    tag_902:\n        /* \"#utility.yul\":26561:26563   */\n    tag_901:\n        /* \"#utility.yul\":26691:26692   */\n      0x01\n        /* \"#utility.yul\":26684:26689   */\n      dup3\n        /* \"#utility.yul\":26680:26693   */\n      add\n        /* \"#utility.yul\":26673:26693   */\n      swap1\n      pop\n        /* \"#utility.yul\":26510:26699   */\n      swap2\n      swap1\n      pop\n      jump\t// out\n        /* \"#utility.yul\":26705:26885   */\n    tag_823:\n        /* \"#utility.yul\":26753:26830   */\n      0x4e487b7100000000000000000000000000000000000000000000000000000000\n        /* \"#utility.yul\":26750:26751   */\n      0x00\n        /* \"#utility.yul\":26743:26831   */\n      mstore\n        /* \"#utility.yul\":26850:26854   */\n      0x11\n        /* \"#utility.yul\":26847:26848   */\n      0x04\n        /* \"#utility.yul\":26840:26855   */\n      mstore\n        /* \"#utility.yul\":26874:26878   */\n      0x24\n        /* \"#utility.yul\":26871:26872   */\n      0x00\n        /* \"#utility.yul\":26864:26879   */\n      revert\n        /* \"#utility.yul\":26891:27071   */\n    tag_829:\n        /* \"#utility.yul\":26939:27016   */\n      0x4e487b7100000000000000000000000000000000000000000000000000000000\n        /* \"#utility.yul\":26936:26937   */\n      0x00\n        /* \"#utility.yul\":26929:27017   */\n      mstore\n        /* \"#utility.yul\":27036:27040   */\n      0x12\n        /* \"#utility.yul\":27033:27034   */\n      0x04\n        /* \"#utility.yul\":27026:27041   */\n      mstore\n        /* \"#utility.yul\":27060:27064   */\n      0x24\n        /* \"#utility.yul\":27057:27058   */\n      0x00\n        /* \"#utility.yul\":27050:27065   */\n      revert\n        /* \"#utility.yul\":27077:27257   */\n    tag_898:\n        /* \"#utility.yul\":27125:27202   */\n      0x4e487b7100000000000000000000000000000000000000000000000000000000\n        /* \"#utility.yul\":27122:27123   */\n      0x00\n        /* \"#utility.yul\":27115:27203   */\n      mstore\n        /* \"#utility.yul\":27222:27226   */\n      0x22\n        /* \"#utility.yul\":27219:27220   */\n      0x04\n        /* \"#utility.yul\":27212:27227   */\n      mstore\n        /* \"#utility.yul\":27246:27250   */\n      0x24\n        /* \"#utility.yul\":27243:27244   */\n      0x00\n        /* \"#utility.yul\":27236:27251   */\n      revert\n        /* \"#utility.yul\":27263:27443   */\n    tag_491:\n        /* \"#utility.yul\":27311:27388   */\n      0x4e487b7100000000000000000000000000000000000000000000000000000000\n        /* \"#utility.yul\":27308:27309   */\n      0x00\n        /* \"#utility.yul\":27301:27389   */\n      mstore\n        /* \"#utility.yul\":27408:27412   */\n      0x32\n        /* \"#utility.yul\":27405:27406   */\n      0x04\n        /* \"#utility.yul\":27398:27413   */\n      mstore\n        /* \"#utility.yul\":27432:27436   */\n      0x24\n        /* \"#utility.yul\":27429:27430   */\n      0x00\n        /* \"#utility.yul\":27422:27437   */\n      revert\n        /* \"#utility.yul\":27449:27629   */\n    tag_487:\n        /* \"#utility.yul\":27497:27574   */\n      0x4e487b7100000000000000000000000000000000000000000000000000000000\n        /* \"#utility.yul\":27494:27495   */\n      0x00\n        /* \"#utility.yul\":27487:27575   */\n      mstore\n        /* \"#utility.yul\":27594:27598   */\n      0x41\n        /* \"#utility.yul\":27591:27592   */\n      0x04\n        /* \"#utility.yul\":27584:27599   */\n      mstore\n        /* \"#utility.yul\":27618:27622   */\n      0x24\n        /* \"#utility.yul\":27615:27616   */\n      0x00\n        /* \"#utility.yul\":27608:27623   */\n      revert\n        /* \"#utility.yul\":27758:27875   */\n    tag_603:\n        /* \"#utility.yul\":27867:27868   */\n      0x00\n        /* \"#utility.yul\":27864:27865   */\n      dup1\n        /* \"#utility.yul\":27857:27869   */\n      revert\n        /* \"#utility.yul\":27881:27983   */\n    tag_694:\n        /* \"#utility.yul\":27922:27928   */\n      0x00\n        /* \"#utility.yul\":27973:27975   */\n      0x1f\n        /* \"#utility.yul\":27969:27976   */\n      not\n        /* \"#utility.yul\":27964:27966   */\n      0x1f\n        /* \"#utility.yul\":27957:27962   */\n      dup4\n        /* \"#utility.yul\":27953:27967   */\n      add\n        /* \"#utility.yul\":27949:27977   */\n      and\n        /* \"#utility.yul\":27939:27977   */\n      swap1\n      pop\n        /* \"#utility.yul\":27929:27983   */\n      swap2\n      swap1\n      pop\n      jump\t// out\n        /* \"#utility.yul\":27989:28091   */\n    tag_839:\n        /* \"#utility.yul\":28031:28039   */\n      0x00\n        /* \"#utility.yul\":28078:28083   */\n      dup2\n        /* \"#utility.yul\":28075:28076   */\n      0x01\n        /* \"#utility.yul\":28071:28084   */\n      shr\n        /* \"#utility.yul\":28050:28084   */\n      swap1\n      pop\n        /* \"#utility.yul\":28040:28091   */\n      swap2\n      swap1\n      pop\n      jump\t// out\n        /* \"#utility.yul\":28097:28319   */\n    tag_699:\n        /* \"#utility.yul\":28237:28271   */\n      0x45524332303a207472616e7366657220746f20746865207a65726f2061646472\n        /* \"#utility.yul\":28233:28234   */\n      0x00\n        /* \"#utility.yul\":28225:28231   */\n      dup3\n        /* \"#utility.yul\":28221:28235   */\n      add\n        /* \"#utility.yul\":28214:28272   */\n      mstore\n        /* \"#utility.yul\":28306:28311   */\n      0x6573730000000000000000000000000000000000000000000000000000000000\n        /* \"#utility.yul\":28301:28303   */\n      0x20\n        /* \"#utility.yul\":28293:28299   */\n      dup3\n        /* \"#utility.yul\":28289:28304   */\n      add\n        /* \"#utility.yul\":28282:28312   */\n      mstore\n        /* \"#utility.yul\":28203:28319   */\n      pop\n      jump\t// out\n        /* \"#utility.yul\":28325:28554   */\n    tag_704:\n        /* \"#utility.yul\":28465:28499   */\n      0x416d6f756e74206d757374206265206c657373207468616e20746f74616c2072\n        /* \"#utility.yul\":28461:28462   */\n      0x00\n        /* \"#utility.yul\":28453:28459   */\n      dup3\n        /* \"#utility.yul\":28449:28463   */\n      add\n        /* \"#utility.yul\":28442:28500   */\n      mstore\n        /* \"#utility.yul\":28534:28546   */\n      0x65666c656374696f6e7300000000000000000000000000000000000000000000\n        /* \"#utility.yul\":28529:28531   */\n      0x20\n        /* \"#utility.yul\":28521:28527   */\n      dup3\n        /* \"#utility.yul\":28517:28532   */\n      add\n        /* \"#utility.yul\":28510:28547   */\n      mstore\n        /* \"#utility.yul\":28431:28554   */\n      pop\n      jump\t// out\n        /* \"#utility.yul\":28560:28785   */\n    tag_709:\n        /* \"#utility.yul\":28700:28734   */\n      0x4f776e61626c653a206e6577206f776e657220697320746865207a65726f2061\n        /* \"#utility.yul\":28696:28697   */\n      0x00\n        /* \"#utility.yul\":28688:28694   */\n      dup3\n        /* \"#utility.yul\":28684:28698   */\n      add\n        /* \"#utility.yul\":28677:28735   */\n      mstore\n        /* \"#utility.yul\":28769:28777   */\n      0x6464726573730000000000000000000000000000000000000000000000000000\n        /* \"#utility.yul\":28764:28766   */\n      0x20\n        /* \"#utility.yul\":28756:28762   */\n      dup3\n        /* \"#utility.yul\":28752:28767   */\n      add\n        /* \"#utility.yul\":28745:28778   */\n      mstore\n        /* \"#utility.yul\":28666:28785   */\n      pop\n      jump\t// out\n        /* \"#utility.yul\":28791:29012   */\n    tag_714:\n        /* \"#utility.yul\":28931:28965   */\n      0x45524332303a20617070726f766520746f20746865207a65726f206164647265\n        /* \"#utility.yul\":28927:28928   */\n      0x00\n        /* \"#utility.yul\":28919:28925   */\n      dup3\n        /* \"#utility.yul\":28915:28929   */\n      add\n        /* \"#utility.yul\":28908:28966   */\n      mstore\n        /* \"#utility.yul\":29000:29004   */\n      0x7373000000000000000000000000000000000000000000000000000000000000\n        /* \"#utility.yul\":28995:28997   */\n      0x20\n        /* \"#utility.yul\":28987:28993   */\n      dup3\n        /* \"#utility.yul\":28983:28998   */\n      add\n        /* \"#utility.yul\":28976:29005   */\n      mstore\n        /* \"#utility.yul\":28897:29012   */\n      pop\n      jump\t// out\n        /* \"#utility.yul\":29018:29195   */\n    tag_719:\n        /* \"#utility.yul\":29158:29187   */\n      0x536166654d6174683a206164646974696f6e206f766572666c6f770000000000\n        /* \"#utility.yul\":29154:29155   */\n      0x00\n        /* \"#utility.yul\":29146:29152   */\n      dup3\n        /* \"#utility.yul\":29142:29156   */\n      add\n        /* \"#utility.yul\":29135:29188   */\n      mstore\n        /* \"#utility.yul\":29124:29195   */\n      pop\n      jump\t// out\n        /* \"#utility.yul\":29201:29421   */\n    tag_724:\n        /* \"#utility.yul\":29341:29375   */\n      0x536166654d6174683a206d756c7469706c69636174696f6e206f766572666c6f\n        /* \"#utility.yul\":29337:29338   */\n      0x00\n        /* \"#utility.yul\":29329:29335   */\n      dup3\n        /* \"#utility.yul\":29325:29339   */\n      add\n        /* \"#utility.yul\":29318:29376   */\n      mstore\n        /* \"#utility.yul\":29410:29413   */\n      0x7700000000000000000000000000000000000000000000000000000000000000\n        /* \"#utility.yul\":29405:29407   */\n      0x20\n        /* \"#utility.yul\":29397:29403   */\n      dup3\n        /* \"#utility.yul\":29393:29408   */\n      add\n        /* \"#utility.yul\":29386:29414   */\n      mstore\n        /* \"#utility.yul\":29307:29421   */\n      pop\n      jump\t// out\n        /* \"#utility.yul\":29427:29609   */\n    tag_729:\n        /* \"#utility.yul\":29567:29601   */\n      0x4f776e61626c653a2063616c6c6572206973206e6f7420746865206f776e6572\n        /* \"#utility.yul\":29563:29564   */\n      0x00\n        /* \"#utility.yul\":29555:29561   */\n      dup3\n        /* \"#utility.yul\":29551:29565   */\n      add\n        /* \"#utility.yul\":29544:29602   */\n      mstore\n        /* \"#utility.yul\":29533:29609   */\n      pop\n      jump\t// out\n        /* \"#utility.yul\":29615:29843   */\n    tag_734:\n        /* \"#utility.yul\":29755:29789   */\n      0x5472616e7366657220616d6f756e74206d757374206265206772656174657220\n        /* \"#utility.yul\":29751:29752   */\n      0x00\n        /* \"#utility.yul\":29743:29749   */\n      dup3\n        /* \"#utility.yul\":29739:29753   */\n      add\n        /* \"#utility.yul\":29732:29790   */\n      mstore\n        /* \"#utility.yul\":29824:29835   */\n      0x7468616e207a65726f0000000000000000000000000000000000000000000000\n        /* \"#utility.yul\":29819:29821   */\n      0x20\n        /* \"#utility.yul\":29811:29817   */\n      dup3\n        /* \"#utility.yul\":29807:29822   */\n      add\n        /* \"#utility.yul\":29800:29836   */\n      mstore\n        /* \"#utility.yul\":29721:29843   */\n      pop\n      jump\t// out\n        /* \"#utility.yul\":29849:30073   */\n    tag_739:\n        /* \"#utility.yul\":29989:30023   */\n      0x45524332303a207472616e736665722066726f6d20746865207a65726f206164\n        /* \"#utility.yul\":29985:29986   */\n      0x00\n        /* \"#utility.yul\":29977:29983   */\n      dup3\n        /* \"#utility.yul\":29973:29987   */\n      add\n        /* \"#utility.yul\":29966:30024   */\n      mstore\n        /* \"#utility.yul\":30058:30065   */\n      0x6472657373000000000000000000000000000000000000000000000000000000\n        /* \"#utility.yul\":30053:30055   */\n      0x20\n        /* \"#utility.yul\":30045:30051   */\n      dup3\n        /* \"#utility.yul\":30041:30056   */\n      add\n        /* \"#utility.yul\":30034:30066   */\n      mstore\n        /* \"#utility.yul\":29955:30073   */\n      pop\n      jump\t// out\n        /* \"#utility.yul\":30079:30302   */\n    tag_744:\n        /* \"#utility.yul\":30219:30253   */\n      0x45524332303a20617070726f76652066726f6d20746865207a65726f20616464\n        /* \"#utility.yul\":30215:30216   */\n      0x00\n        /* \"#utility.yul\":30207:30213   */\n      dup3\n        /* \"#utility.yul\":30203:30217   */\n      add\n        /* \"#utility.yul\":30196:30254   */\n      mstore\n        /* \"#utility.yul\":30288:30294   */\n      0x7265737300000000000000000000000000000000000000000000000000000000\n        /* \"#utility.yul\":30283:30285   */\n      0x20\n        /* \"#utility.yul\":30275:30281   */\n      dup3\n        /* \"#utility.yul\":30271:30286   */\n      add\n        /* \"#utility.yul\":30264:30295   */\n      mstore\n        /* \"#utility.yul\":30185:30302   */\n      pop\n      jump\t// out\n        /* \"#utility.yul\":30308:30489   */\n    tag_749:\n        /* \"#utility.yul\":30448:30481   */\n      0x436f6e7472616374206973206c6f636b656420756e74696c2037206461797300\n        /* \"#utility.yul\":30444:30445   */\n      0x00\n        /* \"#utility.yul\":30436:30442   */\n      dup3\n        /* \"#utility.yul\":30432:30446   */\n      add\n        /* \"#utility.yul\":30425:30482   */\n      mstore\n        /* \"#utility.yul\":30414:30489   */\n      pop\n      jump\t// out\n        /* \"#utility.yul\":30495:30717   */\n    tag_754:\n        /* \"#utility.yul\":30635:30669   */\n      0x596f7520646f6e27742068617665207065726d697373696f6e20746f20756e6c\n        /* \"#utility.yul\":30631:30632   */\n      0x00\n        /* \"#utility.yul\":30623:30629   */\n      dup3\n        /* \"#utility.yul\":30619:30633   */\n      add\n        /* \"#utility.yul\":30612:30670   */\n      mstore\n        /* \"#utility.yul\":30704:30709   */\n      0x6f636b0000000000000000000000000000000000000000000000000000000000\n        /* \"#utility.yul\":30699:30701   */\n      0x20\n        /* \"#utility.yul\":30691:30697   */\n      dup3\n        /* \"#utility.yul\":30687:30702   */\n      add\n        /* \"#utility.yul\":30680:30710   */\n      mstore\n        /* \"#utility.yul\":30601:30717   */\n      pop\n      jump\t// out\n        /* \"#utility.yul\":30723:30845   */\n    tag_581:\n        /* \"#utility.yul\":30796:30820   */\n      tag_926\n        /* \"#utility.yul\":30814:30819   */\n      dup2\n        /* \"#utility.yul\":30796:30820   */\n      tag_655\n      jump\t// in\n    tag_926:\n        /* \"#utility.yul\":30789:30794   */\n      dup2\n        /* \"#utility.yul\":30786:30821   */\n      eq\n        /* \"#utility.yul\":30776:30778   */\n      tag_927\n      jumpi\n        /* \"#utility.yul\":30835:30836   */\n      0x00\n        /* \"#utility.yul\":30832:30833   */\n      dup1\n        /* \"#utility.yul\":30825:30837   */\n      revert\n        /* \"#utility.yul\":30776:30778   */\n    tag_927:\n        /* \"#utility.yul\":30766:30845   */\n      pop\n      jump\t// out\n        /* \"#utility.yul\":30851:30989   */\n    tag_588:\n        /* \"#utility.yul\":30932:30964   */\n      tag_929\n        /* \"#utility.yul\":30958:30963   */\n      dup2\n        /* \"#utility.yul\":30932:30964   */\n      tag_874\n      jump\t// in\n    tag_929:\n        /* \"#utility.yul\":30925:30930   */\n      dup2\n        /* \"#utility.yul\":30922:30965   */\n      eq\n        /* \"#utility.yul\":30912:30914   */\n      tag_930\n      jumpi\n        /* \"#utility.yul\":30979:30980   */\n      0x00\n        /* \"#utility.yul\":30976:30977   */\n      dup1\n        /* \"#utility.yul\":30969:30981   */\n      revert\n        /* \"#utility.yul\":30912:30914   */\n    tag_930:\n        /* \"#utility.yul\":30902:30989   */\n      pop\n      jump\t// out\n        /* \"#utility.yul\":30995:31111   */\n    tag_592:\n        /* \"#utility.yul\":31065:31086   */\n      tag_932\n        /* \"#utility.yul\":31080:31085   */\n      dup2\n        /* \"#utility.yul\":31065:31086   */\n      tag_676\n      jump\t// in\n    tag_932:\n        /* \"#utility.yul\":31058:31063   */\n      dup2\n        /* \"#utility.yul\":31055:31087   */\n      eq\n        /* \"#utility.yul\":31045:31047   */\n      tag_933\n      jumpi\n        /* \"#utility.yul\":31101:31102   */\n      0x00\n        /* \"#utility.yul\":31098:31099   */\n      dup1\n        /* \"#utility.yul\":31091:31103   */\n      revert\n        /* \"#utility.yul\":31045:31047   */\n    tag_933:\n        /* \"#utility.yul\":31035:31111   */\n      pop\n      jump\t// out\n        /* \"#utility.yul\":31117:31239   */\n    tag_596:\n        /* \"#utility.yul\":31190:31214   */\n      tag_935\n        /* \"#utility.yul\":31208:31213   */\n      dup2\n        /* \"#utility.yul\":31190:31214   */\n      tag_758\n      jump\t// in\n    tag_935:\n        /* \"#utility.yul\":31183:31188   */\n      dup2\n        /* \"#utility.yul\":31180:31215   */\n      eq\n        /* \"#utility.yul\":31170:31172   */\n      tag_936\n      jumpi\n        /* \"#utility.yul\":31229:31230   */\n      0x00\n        /* \"#utility.yul\":31226:31227   */\n      dup1\n        /* \"#utility.yul\":31219:31231   */\n      revert\n        /* \"#utility.yul\":31170:31172   */\n    tag_936:\n        /* \"#utility.yul\":31160:31239   */\n      pop\n      jump\t// out\n    stop\n    data_974d1b4421da69cc60b481194f0dad36a5bb4e23da810da7a7fb30cdba178330 45524332303a207472616e7366657220616d6f756e74206578636565647320616c6c6f77616e6365\n    data_f8b476f7d28209d77d4a4ac1fe36b9f8259aa1bb6bddfa6e89de7e51615cf8a8 45524332303a2064656372656173656420616c6c6f77616e63652062656c6f77207a65726f\n\n    auxdata: 0xa2646970667358221220a9aafbeb218ca4c40b3331a8a884940e0286233f0a28cade44462d0ed7e54a1264736f6c63430008060033\n}\n",
				"bytecode": {
					"linkReferences": {},
					"object": "60c06040526000600d556000600f55600060115561dead601460006101000a81548173ffffffffffffffffffffffffffffffffffffffff021916908373ffffffffffffffffffffffffffffffffffffffff160217905550600060155560646017556001601860016101000a81548160ff0219169083151502179055503480156200008857600080fd5b5060405162005556380380620055568339818101604052810190620000ae919062000708565b6000339050806000806101000a81548173ffffffffffffffffffffffffffffffffffffffff021916908373ffffffffffffffffffffffffffffffffffffffff1602179055508073ffffffffffffffffffffffffffffffffffffffff16600073ffffffffffffffffffffffffffffffffffffffff167f8be0079c531659141344cd1fd0a4f28419497f9722a3daafe3b4186f6b6457e060405160405180910390a3506040518060400160405280600481526020017f4741434300000000000000000000000000000000000000000000000000000000815250600a90805190602001906200019c92919062000641565b506040518060400160405280600481526020017f4741434300000000000000000000000000000000000000000000000000000000815250600b9080519060200190620001ea92919062000641565b506040518060400160405280600481526020017f4741434300000000000000000000000000000000000000000000000000000000815250600b90805190602001906200023892919062000641565b506012600c81905550600c54600a62000252919062000801565b60016200026091906200093e565b601b81905550601b5460126200027791906200093e565b601a81905550601b546305f5b9f06200029191906200093e565b600781905550600754600019620002a9919062000a4e565b600019620002b891906200099f565b600881905550600854600360008373ffffffffffffffffffffffffffffffffffffffff1673ffffffffffffffffffffffffffffffffffffffff1681526020019081526020016000208190555060007310ed43c718714eb63d5aa57b78b54704e256024e90508073ffffffffffffffffffffffffffffffffffffffff1663c45a01556040518163ffffffff1660e01b815260040160206040518083038186803b1580156200036457600080fd5b505afa15801562000379573d6000803e3d6000fd5b505050506040513d601f19601f820116820180604052508101906200039f919062000708565b73ffffffffffffffffffffffffffffffffffffffff1663c9c65396308373ffffffffffffffffffffffffffffffffffffffff1663ad5c46486040518163ffffffff1660e01b815260040160206040518083038186803b1580156200040257600080fd5b505afa15801562000417573d6000803e3d6000fd5b505050506040513d601f19601f820116820180604052508101906200043d919062000708565b6040518363ffffffff1660e01b81526004016200045c9291906200075c565b602060405180830381600087803b1580156200047757600080fd5b505af11580156200048c573d6000803e3d6000fd5b505050506040513d601f19601f82011682018060405250810190620004b2919062000708565b73ffffffffffffffffffffffffffffffffffffffff1660a08173ffffffffffffffffffffffffffffffffffffffff1660601b815250508073ffffffffffffffffffffffffffffffffffffffff1660808173ffffffffffffffffffffffffffffffffffffffff1660601b815250506001600660008473ffffffffffffffffffffffffffffffffffffffff1673ffffffffffffffffffffffffffffffffffffffff16815260200190815260200160002060006101000a81548160ff0219169083151502179055506001600660003073ffffffffffffffffffffffffffffffffffffffff1673ffffffffffffffffffffffffffffffffffffffff16815260200190815260200160002060006101000a81548160ff0219169083151502179055508173ffffffffffffffffffffffffffffffffffffffff16600073ffffffffffffffffffffffffffffffffffffffff167fddf252ad1be2c89b69c2b068fc378daa952ba7f163c4a11628f55a4df523b3ef60075460405162000631919062000789565b60405180910390a3505062000b3f565b8280546200064f9062000a18565b90600052602060002090601f016020900481019282620006735760008555620006bf565b82601f106200068e57805160ff1916838001178555620006bf565b82800160010185558215620006bf579182015b82811115620006be578251825591602001919060010190620006a1565b5b509050620006ce9190620006d2565b5090565b5b80821115620006ed576000816000905550600101620006d3565b5090565b600081519050620007028162000b25565b92915050565b60006020828403121562000721576200072062000b13565b5b60006200073184828501620006f1565b91505092915050565b6200074581620009da565b82525050565b620007568162000a0e565b82525050565b60006040820190506200077360008301856200073a565b6200078260208301846200073a565b9392505050565b6000602082019050620007a060008301846200074b565b92915050565b6000808291508390505b6001851115620007f857808604811115620007d057620007cf62000a86565b5b6001851615620007e05780820291505b8081029050620007f08562000b18565b9450620007b0565b94509492505050565b60006200080e8262000a0e565b91506200081b8362000a0e565b92506200084a7fffffffffffffffffffffffffffffffffffffffffffffffffffffffffffffffff848462000852565b905092915050565b60008262000864576001905062000937565b8162000874576000905062000937565b81600181146200088d57600281146200089857620008ce565b600191505062000937565b60ff841115620008ad57620008ac62000a86565b5b8360020a915084821115620008c757620008c662000a86565b5b5062000937565b5060208310610133831016604e8410600b8410161715620009085782820a90508381111562000902576200090162000a86565b5b62000937565b620009178484846001620007a6565b9250905081840481111562000931576200093062000a86565b5b81810290505b9392505050565b60006200094b8262000a0e565b9150620009588362000a0e565b9250817fffffffffffffffffffffffffffffffffffffffffffffffffffffffffffffffff048311821515161562000994576200099362000a86565b5b828202905092915050565b6000620009ac8262000a0e565b9150620009b98362000a0e565b925082821015620009cf57620009ce62000a86565b5b828203905092915050565b6000620009e782620009ee565b9050919050565b600073ffffffffffffffffffffffffffffffffffffffff82169050919050565b6000819050919050565b6000600282049050600182168062000a3157607f821691505b6020821081141562000a485762000a4762000ae4565b5b50919050565b600062000a5b8262000a0e565b915062000a688362000a0e565b92508262000a7b5762000a7a62000ab5565b5b828206905092915050565b7f4e487b7100000000000000000000000000000000000000000000000000000000600052601160045260246000fd5b7f4e487b7100000000000000000000000000000000000000000000000000000000600052601260045260246000fd5b7f4e487b7100000000000000000000000000000000000000000000000000000000600052602260045260246000fd5b600080fd5b60008160011c9050919050565b62000b3081620009da565b811462000b3c57600080fd5b50565b60805160601c60a05160601c6149a562000bb1600039600081816110d401528181612408015281816124e0015281816126c60152818161347001526134cc015260008181610c9701528181612bff01528181612cef01528181612d1601528181612db20152612dd901526149a56000f3fe6080604052600436106102605760003560e01c8063715018a611610144578063a9059cbb116100b6578063dd62ed3e1161007a578063dd62ed3e146108f7578063ea2f0b3714610934578063ec28438a1461095d578063ee8f0b7a14610986578063f0f165af146109c3578063f2fde38b146109ec57610267565b8063a9059cbb14610814578063b060346a14610851578063c49b9a801461087a578063d12a7688146108a3578063dd467064146108ce57610267565b80638ee88c53116101085780638ee88c531461071657806395d89b411461073f578063964e45f51461076a578063a41a08fb14610795578063a457c2d7146107c0578063a69df4b5146107fd57610267565b8063715018a614610655578063766fbb2c1461066c57806377975e0b146106975780637d1db4a5146106c05780638da5cb5b146106eb57610267565b8063313ce567116101dd57806349bd5a5e116101a157806349bd5a5e1461052f5780634a74bb021461055a5780635342acb414610585578063557ed1ba146105c25780636bc87c3a146105ed57806370a082311461061857610267565b8063313ce5671461044a5780633927b46914610475578063395093511461049e5780633b124fe7146104db578063437823ec1461050657610267565b80631694505e116102245780631694505e1461035157806318160ddd1461037c57806323b872dd146103a7578063293e2a71146103e45780632d8381191461040d57610267565b80630422f5471461026c578063061c82d01461029557806306fdde03146102be578063095ea7b3146102e957806313114a9d1461032657610267565b3661026757005b600080fd5b34801561027857600080fd5b50610293600480360381019061028e91906138a6565b610a15565b005b3480156102a157600080fd5b506102bc60048036038101906102b791906139e6565b610b4a565b005b3480156102ca57600080fd5b506102d3610be2565b6040516102e09190613e05565b60405180910390f35b3480156102f557600080fd5b50610310600480360381019061030b9190613979565b610c74565b60405161031d9190613dcf565b60405180910390f35b34801561033257600080fd5b5061033b610c8b565b6040516103489190613fa7565b60405180910390f35b34801561035d57600080fd5b50610366610c95565b6040516103739190613dea565b60405180910390f35b34801561038857600080fd5b50610391610cb9565b60405161039e9190613fa7565b60405180910390f35b3480156103b357600080fd5b506103ce60048036038101906103c99190613926565b610cc3565b6040516103db9190613dcf565b60405180910390f35b3480156103f057600080fd5b5061040b600480360381019061040691906139e6565b610d8e565b005b34801561041957600080fd5b50610434600480360381019061042f91906139e6565b610e26565b6040516104419190613fa7565b60405180910390f35b34801561045657600080fd5b5061045f610e94565b60405161046c9190613fa7565b60405180910390f35b34801561048157600080fd5b5061049c60048036038101906104979190613a13565b610e9e565b005b3480156104aa57600080fd5b506104c560048036038101906104c09190613979565b610f3e565b6040516104d29190613dcf565b60405180910390f35b3480156104e757600080fd5b506104f0610fe3565b6040516104fd9190613fa7565b60405180910390f35b34801561051257600080fd5b5061052d6004803603810190610528919061384c565b610fe9565b005b34801561053b57600080fd5b506105446110d2565b6040516105519190613d53565b60405180910390f35b34801561056657600080fd5b5061056f6110f6565b60405161057c9190613dcf565b60405180910390f35b34801561059157600080fd5b506105ac60048036038101906105a7919061384c565b611109565b6040516105b99190613dcf565b60405180910390f35b3480156105ce57600080fd5b506105d761115f565b6040516105e49190613fa7565b60405180910390f35b3480156105f957600080fd5b50610602611167565b60405161060f9190613fa7565b60405180910390f35b34801561062457600080fd5b5061063f600480360381019061063a919061384c565b61116d565b60405161064c9190613fa7565b60405180910390f35b34801561066157600080fd5b5061066a6111be565b005b34801561067857600080fd5b5061068161130a565b60405161068e9190613fa7565b60405180910390f35b3480156106a357600080fd5b506106be60048036038101906106b9919061384c565b611310565b005b3480156106cc57600080fd5b506106d56113e2565b6040516106e29190613fa7565b60405180910390f35b3480156106f757600080fd5b506107006113e8565b60405161070d9190613d53565b60405180910390f35b34801561072257600080fd5b5061073d600480360381019061073891906139e6565b611411565b005b34801561074b57600080fd5b506107546114a9565b6040516107619190613e05565b60405180910390f35b34801561077657600080fd5b5061077f61153b565b60405161078c9190613fa7565b60405180910390f35b3480156107a157600080fd5b506107aa611541565b6040516107b79190613fa7565b60405180910390f35b3480156107cc57600080fd5b506107e760048036038101906107e29190613979565b611547565b6040516107f49190613dcf565b60405180910390f35b34801561080957600080fd5b50610812611606565b005b34801561082057600080fd5b5061083b60048036038101906108369190613979565b6117da565b6040516108489190613dcf565b60405180910390f35b34801561085d57600080fd5b50610878600480360381019061087391906139e6565b6117f1565b005b34801561088657600080fd5b506108a1600480360381019061089c91906139b9565b611889565b005b3480156108af57600080fd5b506108b861196b565b6040516108c59190613fa7565b60405180910390f35b3480156108da57600080fd5b506108f560048036038101906108f091906139e6565b611971565b005b34801561090357600080fd5b5061091e600480360381019061091991906138e6565b611b31565b60405161092b9190613fa7565b60405180910390f35b34801561094057600080fd5b5061095b6004803603810190610956919061384c565b611bb8565b005b34801561096957600080fd5b50610984600480360381019061097f91906139e6565b611ca1565b005b34801561099257600080fd5b506109ad60048036038101906109a8919061384c565b611d52565b6040516109ba9190613d53565b60405180910390f35b3480156109cf57600080fd5b506109ea60048036038101906109e591906139e6565b611d85565b005b3480156109f857600080fd5b50610a136004803603810190610a0e919061384c565b611e36565b005b3373ffffffffffffffffffffffffffffffffffffffff1660008054906101000a900473ffffffffffffffffffffffffffffffffffffffff1673ffffffffffffffffffffffffffffffffffffffff1614610aa3576040517f08c379a0000000000000000000000000000000000000000000000000000000008152600401610a9a90613ee7565b60405180910390fd5b6000811115610af8578173ffffffffffffffffffffffffffffffffffffffff166108fc829081150290604051600060405180830381858888f19350505050158015610af2573d6000803e3d6000fd5b50610b46565b60004790508273ffffffffffffffffffffffffffffffffffffffff166108fc829081150290604051600060405180830381858888f19350505050158015610b43573d6000803e3d6000fd5b50505b5050565b3373ffffffffffffffffffffffffffffffffffffffff1660008054906101000a900473ffffffffffffffffffffffffffffffffffffffff1673ffffffffffffffffffffffffffffffffffffffff1614610bd8576040517f08c379a0000000000000000000000000000000000000000000000000000000008152600401610bcf90613ee7565b60405180910390fd5b80600d8190555050565b6060600a8054610bf1906143fb565b80601f0160208091040260200160405190810160405280929190818152602001828054610c1d906143fb565b8015610c6a5780601f10610c3f57610100808354040283529160200191610c6a565b820191906000526020600020905b815481529060010190602001808311610c4d57829003601f168201915b5050505050905090565b6000610c81338484611ff1565b6001905092915050565b6000600954905090565b7f000000000000000000000000000000000000000000000000000000000000000081565b6000600754905090565b6000610cd08484846121bc565b610d838433610d7e8560405180606001604052806028815260200161492360289139600560008b73ffffffffffffffffffffffffffffffffffffffff1673ffffffffffffffffffffffffffffffffffffffff16815260200190815260200160002060003373ffffffffffffffffffffffffffffffffffffffff1673ffffffffffffffffffffffffffffffffffffffff168152602001908152602001600020546127b19092919063ffffffff16565b611ff1565b600190509392505050565b3373ffffffffffffffffffffffffffffffffffffffff1660008054906101000a900473ffffffffffffffffffffffffffffffffffffffff1673ffffffffffffffffffffffffffffffffffffffff1614610e1c576040517f08c379a0000000000000000000000000000000000000000000000000000000008152600401610e1390613ee7565b60405180910390fd5b8060178190555050565b6000600854821115610e6d576040517f08c379a0000000000000000000000000000000000000000000000000000000008152600401610e6490613e47565b60405180910390fd5b6000610e77612815565b9050610e8c818461284090919063ffffffff16565b915050919050565b6000600c54905090565b3373ffffffffffffffffffffffffffffffffffffffff1660008054906101000a900473ffffffffffffffffffffffffffffffffffffffff1673ffffffffffffffffffffffffffffffffffffffff1614610f2c576040517f08c379a0000000000000000000000000000000000000000000000000000000008152600401610f2390613ee7565b60405180910390fd5b81600d8190555080600f819055505050565b6000610fd93384610fd485600560003373ffffffffffffffffffffffffffffffffffffffff1673ffffffffffffffffffffffffffffffffffffffff16815260200190815260200160002060008973ffffffffffffffffffffffffffffffffffffffff1673ffffffffffffffffffffffffffffffffffffffff1681526020019081526020016000205461288a90919063ffffffff16565b611ff1565b6001905092915050565b600d5481565b3373ffffffffffffffffffffffffffffffffffffffff1660008054906101000a900473ffffffffffffffffffffffffffffffffffffffff1673ffffffffffffffffffffffffffffffffffffffff1614611077576040517f08c379a000000000000000000000000000000000000000000000000000000000815260040161106e90613ee7565b60405180910390fd5b6001600660008373ffffffffffffffffffffffffffffffffffffffff1673ffffffffffffffffffffffffffffffffffffffff16815260200190815260200160002060006101000a81548160ff02191690831515021790555050565b7f000000000000000000000000000000000000000000000000000000000000000081565b601860019054906101000a900460ff1681565b6000600660008373ffffffffffffffffffffffffffffffffffffffff1673ffffffffffffffffffffffffffffffffffffffff16815260200190815260200160002060009054906101000a900460ff169050919050565b600042905090565b600f5481565b60006111b7600360008473ffffffffffffffffffffffffffffffffffffffff1673ffffffffffffffffffffffffffffffffffffffff16815260200190815260200160002054610e26565b9050919050565b3373ffffffffffffffffffffffffffffffffffffffff1660008054906101000a900473ffffffffffffffffffffffffffffffffffffffff1673ffffffffffffffffffffffffffffffffffffffff161461124c576040517f08c379a000000000000000000000000000000000000000000000000000000000815260040161124390613ee7565b60405180910390fd5b600073ffffffffffffffffffffffffffffffffffffffff1660008054906101000a900473ffffffffffffffffffffffffffffffffffffffff1673ffffffffffffffffffffffffffffffffffffffff167f8be0079c531659141344cd1fd0a4f28419497f9722a3daafe3b4186f6b6457e060405160405180910390a360008060006101000a81548173ffffffffffffffffffffffffffffffffffffffff021916908373ffffffffffffffffffffffffffffffffffffffff160217905550565b60175481565b3373ffffffffffffffffffffffffffffffffffffffff1660008054906101000a900473ffffffffffffffffffffffffffffffffffffffff1673ffffffffffffffffffffffffffffffffffffffff161461139e576040517f08c379a000000000000000000000000000000000000000000000000000000000815260040161139590613ee7565b60405180910390fd5b80601360006101000a81548173ffffffffffffffffffffffffffffffffffffffff021916908373ffffffffffffffffffffffffffffffffffffffff16021790555050565b60195481565b60008060009054906101000a900473ffffffffffffffffffffffffffffffffffffffff16905090565b3373ffffffffffffffffffffffffffffffffffffffff1660008054906101000a900473ffffffffffffffffffffffffffffffffffffffff1673ffffffffffffffffffffffffffffffffffffffff161461149f576040517f08c379a000000000000000000000000000000000000000000000000000000000815260040161149690613ee7565b60405180910390fd5b80600f8190555050565b6060600b80546114b8906143fb565b80601f01602080910402602001604051908101604052809291908181526020018280546114e4906143fb565b80156115315780601f1061150657610100808354040283529160200191611531565b820191906000526020600020905b81548152906001019060200180831161151457829003601f168201915b5050505050905090565b60115481565b60155481565b60006115fc33846115f78560405180606001604052806025815260200161494b60259139600560003373ffffffffffffffffffffffffffffffffffffffff1673ffffffffffffffffffffffffffffffffffffffff16815260200190815260200160002060008a73ffffffffffffffffffffffffffffffffffffffff1673ffffffffffffffffffffffffffffffffffffffff168152602001908152602001600020546127b19092919063ffffffff16565b611ff1565b6001905092915050565b3373ffffffffffffffffffffffffffffffffffffffff16600160009054906101000a900473ffffffffffffffffffffffffffffffffffffffff1673ffffffffffffffffffffffffffffffffffffffff1614611696576040517f08c379a000000000000000000000000000000000000000000000000000000000815260040161168d90613f87565b60405180910390fd5b60025442116116da576040517f08c379a00000000000000000000000000000000000000000000000000000000081526004016116d190613f67565b60405180910390fd5b600160009054906101000a900473ffffffffffffffffffffffffffffffffffffffff1673ffffffffffffffffffffffffffffffffffffffff1660008054906101000a900473ffffffffffffffffffffffffffffffffffffffff1673ffffffffffffffffffffffffffffffffffffffff167f8be0079c531659141344cd1fd0a4f28419497f9722a3daafe3b4186f6b6457e060405160405180910390a3600160009054906101000a900473ffffffffffffffffffffffffffffffffffffffff166000806101000a81548173ffffffffffffffffffffffffffffffffffffffff021916908373ffffffffffffffffffffffffffffffffffffffff160217905550565b60006117e73384846121bc565b6001905092915050565b3373ffffffffffffffffffffffffffffffffffffffff1660008054906101000a900473ffffffffffffffffffffffffffffffffffffffff1673ffffffffffffffffffffffffffffffffffffffff161461187f576040517f08c379a000000000000000000000000000000000000000000000000000000000815260040161187690613ee7565b60405180910390fd5b8060118190555050565b3373ffffffffffffffffffffffffffffffffffffffff1660008054906101000a900473ffffffffffffffffffffffffffffffffffffffff1673ffffffffffffffffffffffffffffffffffffffff1614611917576040517f08c379a000000000000000000000000000000000000000000000000000000000815260040161190e90613ee7565b60405180910390fd5b80601860016101000a81548160ff0219169083151502179055507f53726dfcaf90650aa7eb35524f4d3220f07413c8d6cb404cc8c18bf5591bc159816040516119609190613dcf565b60405180910390a150565b601a5481565b3373ffffffffffffffffffffffffffffffffffffffff1660008054906101000a900473ffffffffffffffffffffffffffffffffffffffff1673ffffffffffffffffffffffffffffffffffffffff16146119ff576040517f08c379a00000000000000000000000000000000000000000000000000000000081526004016119f690613ee7565b60405180910390fd5b60008054906101000a900473ffffffffffffffffffffffffffffffffffffffff16600160006101000a81548173ffffffffffffffffffffffffffffffffffffffff021916908373ffffffffffffffffffffffffffffffffffffffff16021790555060008060006101000a81548173ffffffffffffffffffffffffffffffffffffffff021916908373ffffffffffffffffffffffffffffffffffffffff1602179055508042611aad91906140a8565b600281905550600073ffffffffffffffffffffffffffffffffffffffff1660008054906101000a900473ffffffffffffffffffffffffffffffffffffffff1673ffffffffffffffffffffffffffffffffffffffff167f8be0079c531659141344cd1fd0a4f28419497f9722a3daafe3b4186f6b6457e060405160405180910390a350565b6000600560008473ffffffffffffffffffffffffffffffffffffffff1673ffffffffffffffffffffffffffffffffffffffff16815260200190815260200160002060008373ffffffffffffffffffffffffffffffffffffffff1673ffffffffffffffffffffffffffffffffffffffff16815260200190815260200160002054905092915050565b3373ffffffffffffffffffffffffffffffffffffffff1660008054906101000a900473ffffffffffffffffffffffffffffffffffffffff1673ffffffffffffffffffffffffffffffffffffffff1614611c46576040517f08c379a0000000000000000000000000000000000000000000000000000000008152600401611c3d90613ee7565b60405180910390fd5b6000600660008373ffffffffffffffffffffffffffffffffffffffff1673ffffffffffffffffffffffffffffffffffffffff16815260200190815260200160002060006101000a81548160ff02191690831515021790555050565b3373ffffffffffffffffffffffffffffffffffffffff1660008054906101000a900473ffffffffffffffffffffffffffffffffffffffff1673ffffffffffffffffffffffffffffffffffffffff1614611d2f576040517f08c379a0000000000000000000000000000000000000000000000000000000008152600401611d2690613ee7565b60405180910390fd5b600c54600a611d3e9190614182565b81611d4991906142a0565b60198190555050565b601c6020528060005260406000206000915054906101000a900473ffffffffffffffffffffffffffffffffffffffff1681565b3373ffffffffffffffffffffffffffffffffffffffff1660008054906101000a900473ffffffffffffffffffffffffffffffffffffffff1673ffffffffffffffffffffffffffffffffffffffff1614611e13576040517f08c379a0000000000000000000000000000000000000000000000000000000008152600401611e0a90613ee7565b60405180910390fd5b600c54600a611e229190614182565b81611e2d91906142a0565b601a8190555050565b3373ffffffffffffffffffffffffffffffffffffffff1660008054906101000a900473ffffffffffffffffffffffffffffffffffffffff1673ffffffffffffffffffffffffffffffffffffffff1614611ec4576040517f08c379a0000000000000000000000000000000000000000000000000000000008152600401611ebb90613ee7565b60405180910390fd5b600073ffffffffffffffffffffffffffffffffffffffff168173ffffffffffffffffffffffffffffffffffffffff161415611f34576040517f08c379a0000000000000000000000000000000000000000000000000000000008152600401611f2b90613e67565b60405180910390fd5b8073ffffffffffffffffffffffffffffffffffffffff1660008054906101000a900473ffffffffffffffffffffffffffffffffffffffff1673ffffffffffffffffffffffffffffffffffffffff167f8be0079c531659141344cd1fd0a4f28419497f9722a3daafe3b4186f6b6457e060405160405180910390a3806000806101000a81548173ffffffffffffffffffffffffffffffffffffffff021916908373ffffffffffffffffffffffffffffffffffffffff16021790555050565b600073ffffffffffffffffffffffffffffffffffffffff168373ffffffffffffffffffffffffffffffffffffffff161415612061576040517f08c379a000000000000000000000000000000000000000000000000000000000815260040161205890613f47565b60405180910390fd5b600073ffffffffffffffffffffffffffffffffffffffff168273ffffffffffffffffffffffffffffffffffffffff1614156120d1576040517f08c379a00000000000000000000000000000000000000000000000000000000081526004016120c890613e87565b60405180910390fd5b80600560008573ffffffffffffffffffffffffffffffffffffffff1673ffffffffffffffffffffffffffffffffffffffff16815260200190815260200160002060008473ffffffffffffffffffffffffffffffffffffffff1673ffffffffffffffffffffffffffffffffffffffff168152602001908152602001600020819055508173ffffffffffffffffffffffffffffffffffffffff168373ffffffffffffffffffffffffffffffffffffffff167f8c5be1e5ebec7d5bd14f71427d1e84f3dd0314c0f7b2291e5b200ac8c7c3b925836040516121af9190613fa7565b60405180910390a3505050565b600073ffffffffffffffffffffffffffffffffffffffff168373ffffffffffffffffffffffffffffffffffffffff16141561222c576040517f08c379a000000000000000000000000000000000000000000000000000000000815260040161222390613f27565b60405180910390fd5b600073ffffffffffffffffffffffffffffffffffffffff168273ffffffffffffffffffffffffffffffffffffffff16141561229c576040517f08c379a000000000000000000000000000000000000000000000000000000000815260040161229390613e27565b60405180910390fd5b600081116122df576040517f08c379a00000000000000000000000000000000000000000000000000000000081526004016122d690613f07565b60405180910390fd5b6122e76113e8565b73ffffffffffffffffffffffffffffffffffffffff168373ffffffffffffffffffffffffffffffffffffffff161415801561235557506123256113e8565b73ffffffffffffffffffffffffffffffffffffffff168273ffffffffffffffffffffffffffffffffffffffff1614155b80156123ab5750600660008473ffffffffffffffffffffffffffffffffffffffff1673ffffffffffffffffffffffffffffffffffffffff16815260200190815260200160002060009054906101000a900460ff16155b80156124015750600660008373ffffffffffffffffffffffffffffffffffffffff1673ffffffffffffffffffffffffffffffffffffffff16815260200190815260200160002060009054906101000a900460ff16155b156124a6577f000000000000000000000000000000000000000000000000000000000000000073ffffffffffffffffffffffffffffffffffffffff168373ffffffffffffffffffffffffffffffffffffffff1614156124a55761248560175461247761271060075461284090919063ffffffff16565b6128e890919063ffffffff16565b8161248f8461116d565b61249991906140a8565b11156124a457600080fd5b5b5b60006124b13061116d565b90506000601a5482101590508080156124d75750601860009054906101000a900460ff16155b801561252e57507f000000000000000000000000000000000000000000000000000000000000000073ffffffffffffffffffffffffffffffffffffffff168473ffffffffffffffffffffffffffffffffffffffff16145b80156125465750601860019054906101000a900460ff165b801561255457506000601a54115b1561256857601a54915061256782612963565b5b600060019050600660008773ffffffffffffffffffffffffffffffffffffffff1673ffffffffffffffffffffffffffffffffffffffff16815260200190815260200160002060009054906101000a900460ff168061260f5750600660008673ffffffffffffffffffffffffffffffffffffffff1673ffffffffffffffffffffffffffffffffffffffff16815260200190815260200160002060009054906101000a900460ff165b1561261957600090505b6000806126258761116d565b1480156126bd5750600073ffffffffffffffffffffffffffffffffffffffff16601c60008873ffffffffffffffffffffffffffffffffffffffff1673ffffffffffffffffffffffffffffffffffffffff16815260200190815260200160002060009054906101000a900473ffffffffffffffffffffffffffffffffffffffff1673ffffffffffffffffffffffffffffffffffffffff16145b801561271557507f000000000000000000000000000000000000000000000000000000000000000073ffffffffffffffffffffffffffffffffffffffff168773ffffffffffffffffffffffffffffffffffffffff1614155b905061272387878785612a39565b80156127a85786601c60008873ffffffffffffffffffffffffffffffffffffffff1673ffffffffffffffffffffffffffffffffffffffff16815260200190815260200160002060006101000a81548173ffffffffffffffffffffffffffffffffffffffff021916908373ffffffffffffffffffffffffffffffffffffffff1602179055505b50505050505050565b60008383111582906127f9576040517f08c379a00000000000000000000000000000000000000000000000000000000081526004016127f09190613e05565b60405180910390fd5b506000838561280891906142fa565b9050809150509392505050565b6000806000612822612a66565b91509150612839818361284090919063ffffffff16565b9250505090565b600061288283836040518060400160405280601a81526020017f536166654d6174683a206469766973696f6e206279207a65726f000000000000815250612ab3565b905092915050565b600080828461289991906140a8565b9050838110156128de576040517f08c379a00000000000000000000000000000000000000000000000000000000081526004016128d590613ea7565b60405180910390fd5b8091505092915050565b6000808314156128fb576000905061295d565b6000828461290991906142a0565b905082848261291891906140fe565b14612958576040517f08c379a000000000000000000000000000000000000000000000000000000000815260040161294f90613ec7565b60405180910390fd5b809150505b92915050565b6001601860006101000a81548160ff021916908315150217905550600061299460028361284090919063ffffffff16565b905060006129ab8284612b1690919063ffffffff16565b905060004790506129bb83612b60565b60006129d08247612b1690919063ffffffff16565b90506129dc8382612dac565b7f17bbfb9a6069321b6ded73bd96327c9e6b7212a5cd51ff219cd61370acafb561848285604051612a0f9392919061401c565b60405180910390a1505050506000601860006101000a81548160ff02191690831515021790555050565b80612a4757612a46612eb7565b5b612a52848484612efd565b80612a6057612a5f613201565b5b50505050565b6000806000600854905060006007549050612a8e60075460085461284090919063ffffffff16565b821015612aa657600854600754935093505050612aaf565b81819350935050505b9091565b60008083118290612afa576040517f08c379a0000000000000000000000000000000000000000000000000000000008152600401612af19190613e05565b60405180910390fd5b5060008385612b0991906140fe565b9050809150509392505050565b6000612b5883836040518060400160405280601e81526020017f536166654d6174683a207375627472616374696f6e206f766572666c6f7700008152506127b1565b905092915050565b6000600267ffffffffffffffff811115612b7d57612b7c614532565b5b604051908082528060200260200182016040528015612bab5781602001602082028036833780820191505090505b5090503081600081518110612bc357612bc2614503565b5b602002602001019073ffffffffffffffffffffffffffffffffffffffff16908173ffffffffffffffffffffffffffffffffffffffff16815250507f000000000000000000000000000000000000000000000000000000000000000073ffffffffffffffffffffffffffffffffffffffff1663ad5c46486040518163ffffffff1660e01b815260040160206040518083038186803b158015612c6357600080fd5b505afa158015612c77573d6000803e3d6000fd5b505050506040513d601f19601f82011682018060405250810190612c9b9190613879565b81600181518110612caf57612cae614503565b5b602002602001019073ffffffffffffffffffffffffffffffffffffffff16908173ffffffffffffffffffffffffffffffffffffffff1681525050612d14307f000000000000000000000000000000000000000000000000000000000000000084611ff1565b7f000000000000000000000000000000000000000000000000000000000000000073ffffffffffffffffffffffffffffffffffffffff1663791ac9478360008430426040518663ffffffff1660e01b8152600401612d76959493929190613fc2565b600060405180830381600087803b158015612d9057600080fd5b505af1158015612da4573d6000803e3d6000fd5b505050505050565b612dd7307f000000000000000000000000000000000000000000000000000000000000000084611ff1565b7f000000000000000000000000000000000000000000000000000000000000000073ffffffffffffffffffffffffffffffffffffffff1663f305d719823085600080601360009054906101000a900473ffffffffffffffffffffffffffffffffffffffff16426040518863ffffffff1660e01b8152600401612e5e96959493929190613d6e565b6060604051808303818588803b158015612e7757600080fd5b505af1158015612e8b573d6000803e3d6000fd5b50505050506040513d601f19601f82011682018060405250810190612eb09190613a53565b5050505050565b600d54600e81905550600f546010819055506011546012819055506015546016819055506000600d819055506000600f8190555060006015819055506000601181905550565b6000612f07612815565b90506000612f1e82846128e890919063ffffffff16565b9050612f7281600360008873ffffffffffffffffffffffffffffffffffffffff1673ffffffffffffffffffffffffffffffffffffffff16815260200190815260200160002054612b1690919063ffffffff16565b600360008773ffffffffffffffffffffffffffffffffffffffff1673ffffffffffffffffffffffffffffffffffffffff16815260200190815260200160002081905550612fe785612fe1601154612fd360648861284090919063ffffffff16565b6128e890919063ffffffff16565b84613227565b613017613012600f5461300460648561284090919063ffffffff16565b6128e890919063ffffffff16565b6133b5565b6130238585858561345c565b61307b61304e600d5461304060648561284090919063ffffffff16565b6128e890919063ffffffff16565b613076600d5461306860648861284090919063ffffffff16565b6128e890919063ffffffff16565b613794565b6000601554601154600d54600f54606461309591906142fa565b61309f91906142fa565b6130a991906142fa565b6130b391906142fa565b905061312c6130de826130d060648661284090919063ffffffff16565b6128e890919063ffffffff16565b600360008873ffffffffffffffffffffffffffffffffffffffff1673ffffffffffffffffffffffffffffffffffffffff1681526020019081526020016000205461288a90919063ffffffff16565b600360008773ffffffffffffffffffffffffffffffffffffffff1673ffffffffffffffffffffffffffffffffffffffff168152602001908152602001600020819055508473ffffffffffffffffffffffffffffffffffffffff168673ffffffffffffffffffffffffffffffffffffffff167fddf252ad1be2c89b69c2b068fc378daa952ba7f163c4a11628f55a4df523b3ef6131e4846131d660648a61284090919063ffffffff16565b6128e890919063ffffffff16565b6040516131f19190613fa7565b60405180910390a3505050505050565b600e54600d81905550601054600f81905550601654601581905550601254601181905550565b60006011541415613237576133b0565b600061324c82846128e890919063ffffffff16565b90506132c28160036000601460009054906101000a900473ffffffffffffffffffffffffffffffffffffffff1673ffffffffffffffffffffffffffffffffffffffff1673ffffffffffffffffffffffffffffffffffffffff1681526020019081526020016000205461288a90919063ffffffff16565b60036000601460009054906101000a900473ffffffffffffffffffffffffffffffffffffffff1673ffffffffffffffffffffffffffffffffffffffff1673ffffffffffffffffffffffffffffffffffffffff16815260200190815260200160002081905550601460009054906101000a900473ffffffffffffffffffffffffffffffffffffffff1673ffffffffffffffffffffffffffffffffffffffff168473ffffffffffffffffffffffffffffffffffffffff167fddf252ad1be2c89b69c2b068fc378daa952ba7f163c4a11628f55a4df523b3ef856040516133a69190613fa7565b60405180910390a3505b505050565b60008114156133c357613459565b61341581600360003073ffffffffffffffffffffffffffffffffffffffff1673ffffffffffffffffffffffffffffffffffffffff1681526020019081526020016000205461288a90919063ffffffff16565b600360003073ffffffffffffffffffffffffffffffffffffffff1673ffffffffffffffffffffffffffffffffffffffff168152602001908152602001600020819055505b50565b6000601554141561346c5761378e565b60007f000000000000000000000000000000000000000000000000000000000000000073ffffffffffffffffffffffffffffffffffffffff168573ffffffffffffffffffffffffffffffffffffffff1614156134ca57839050613523565b7f000000000000000000000000000000000000000000000000000000000000000073ffffffffffffffffffffffffffffffffffffffff168473ffffffffffffffffffffffffffffffffffffffff161415613522578490505b5b600073ffffffffffffffffffffffffffffffffffffffff168173ffffffffffffffffffffffffffffffffffffffff16141561355e575061378e565b600080600090505b600581121561378a576000808214156135825760029050613587565b600190505b601c60008573ffffffffffffffffffffffffffffffffffffffff1673ffffffffffffffffffffffffffffffffffffffff16815260200190815260200160002060009054906101000a900473ffffffffffffffffffffffffffffffffffffffff169350600073ffffffffffffffffffffffffffffffffffffffff168473ffffffffffffffffffffffffffffffffffffffff161415613624575061378a565b613637818461288a90919063ffffffff16565b925060006136618261365360648a61284090919063ffffffff16565b6128e890919063ffffffff16565b9050600061367887836128e890919063ffffffff16565b90506136cc81600360008973ffffffffffffffffffffffffffffffffffffffff1673ffffffffffffffffffffffffffffffffffffffff1681526020019081526020016000205461288a90919063ffffffff16565b600360008873ffffffffffffffffffffffffffffffffffffffff1673ffffffffffffffffffffffffffffffffffffffff168152602001908152602001600020819055508573ffffffffffffffffffffffffffffffffffffffff168a73ffffffffffffffffffffffffffffffffffffffff167fddf252ad1be2c89b69c2b068fc378daa952ba7f163c4a11628f55a4df523b3ef8460405161376c9190613fa7565b60405180910390a350505080806137829061442d565b915050613566565b5050505b50505050565b6137a982600854612b1690919063ffffffff16565b6008819055506137c48160095461288a90919063ffffffff16565b6009819055505050565b6000813590506137dd816148c6565b92915050565b6000815190506137f2816148c6565b92915050565b600081359050613807816148dd565b92915050565b60008135905061381c816148f4565b92915050565b6000813590506138318161490b565b92915050565b6000815190506138468161490b565b92915050565b60006020828403121561386257613861614561565b5b6000613870848285016137ce565b91505092915050565b60006020828403121561388f5761388e614561565b5b600061389d848285016137e3565b91505092915050565b600080604083850312156138bd576138bc614561565b5b60006138cb858286016137f8565b92505060206138dc85828601613822565b9150509250929050565b600080604083850312156138fd576138fc614561565b5b600061390b858286016137ce565b925050602061391c858286016137ce565b9150509250929050565b60008060006060848603121561393f5761393e614561565b5b600061394d868287016137ce565b935050602061395e868287016137ce565b925050604061396f86828701613822565b9150509250925092565b600080604083850312156139905761398f614561565b5b600061399e858286016137ce565b92505060206139af85828601613822565b9150509250929050565b6000602082840312156139cf576139ce614561565b5b60006139dd8482850161380d565b91505092915050565b6000602082840312156139fc576139fb614561565b5b6000613a0a84828501613822565b91505092915050565b60008060408385031215613a2a57613a29614561565b5b6000613a3885828601613822565b9250506020613a4985828601613822565b9150509250929050565b600080600060608486031215613a6c57613a6b614561565b5b6000613a7a86828701613837565b9350506020613a8b86828701613837565b9250506040613a9c86828701613837565b9150509250925092565b6000613ab28383613abe565b60208301905092915050565b613ac78161432e565b82525050565b613ad68161432e565b82525050565b6000613ae782614063565b613af18185614086565b9350613afc83614053565b8060005b83811015613b2d578151613b148882613aa6565b9750613b1f83614079565b925050600181019050613b00565b5085935050505092915050565b613b4381614352565b82525050565b613b5281614392565b82525050565b613b61816143b6565b82525050565b6000613b728261406e565b613b7c8185614097565b9350613b8c8185602086016143c8565b613b9581614566565b840191505092915050565b6000613bad602383614097565b9150613bb882614584565b604082019050919050565b6000613bd0602a83614097565b9150613bdb826145d3565b604082019050919050565b6000613bf3602683614097565b9150613bfe82614622565b604082019050919050565b6000613c16602283614097565b9150613c2182614671565b604082019050919050565b6000613c39601b83614097565b9150613c44826146c0565b602082019050919050565b6000613c5c602183614097565b9150613c67826146e9565b604082019050919050565b6000613c7f602083614097565b9150613c8a82614738565b602082019050919050565b6000613ca2602983614097565b9150613cad82614761565b604082019050919050565b6000613cc5602583614097565b9150613cd0826147b0565b604082019050919050565b6000613ce8602483614097565b9150613cf3826147ff565b604082019050919050565b6000613d0b601f83614097565b9150613d168261484e565b602082019050919050565b6000613d2e602383614097565b9150613d3982614877565b604082019050919050565b613d4d81614388565b82525050565b6000602082019050613d686000830184613acd565b92915050565b600060c082019050613d836000830189613acd565b613d906020830188613d44565b613d9d6040830187613b58565b613daa6060830186613b58565b613db76080830185613acd565b613dc460a0830184613d44565b979650505050505050565b6000602082019050613de46000830184613b3a565b92915050565b6000602082019050613dff6000830184613b49565b92915050565b60006020820190508181036000830152613e1f8184613b67565b905092915050565b60006020820190508181036000830152613e4081613ba0565b9050919050565b60006020820190508181036000830152613e6081613bc3565b9050919050565b60006020820190508181036000830152613e8081613be6565b9050919050565b60006020820190508181036000830152613ea081613c09565b9050919050565b60006020820190508181036000830152613ec081613c2c565b9050919050565b60006020820190508181036000830152613ee081613c4f565b9050919050565b60006020820190508181036000830152613f0081613c72565b9050919050565b60006020820190508181036000830152613f2081613c95565b9050919050565b60006020820190508181036000830152613f4081613cb8565b9050919050565b60006020820190508181036000830152613f6081613cdb565b9050919050565b60006020820190508181036000830152613f8081613cfe565b9050919050565b60006020820190508181036000830152613fa081613d21565b9050919050565b6000602082019050613fbc6000830184613d44565b92915050565b600060a082019050613fd76000830188613d44565b613fe46020830187613b58565b8181036040830152613ff68186613adc565b90506140056060830185613acd565b6140126080830184613d44565b9695505050505050565b60006060820190506140316000830186613d44565b61403e6020830185613d44565b61404b6040830184613d44565b949350505050565b6000819050602082019050919050565b600081519050919050565b600081519050919050565b6000602082019050919050565b600082825260208201905092915050565b600082825260208201905092915050565b60006140b382614388565b91506140be83614388565b9250827fffffffffffffffffffffffffffffffffffffffffffffffffffffffffffffffff038211156140f3576140f2614476565b5b828201905092915050565b600061410982614388565b915061411483614388565b925082614124576141236144a5565b5b828204905092915050565b6000808291508390505b60018511156141795780860481111561415557614154614476565b5b60018516156141645780820291505b808102905061417285614577565b9450614139565b94509492505050565b600061418d82614388565b915061419883614388565b92506141c57fffffffffffffffffffffffffffffffffffffffffffffffffffffffffffffffff84846141cd565b905092915050565b6000826141dd5760019050614299565b816141eb5760009050614299565b8160018114614201576002811461420b5761423a565b6001915050614299565b60ff84111561421d5761421c614476565b5b8360020a91508482111561423457614233614476565b5b50614299565b5060208310610133831016604e8410600b841016171561426f5782820a90508381111561426a57614269614476565b5b614299565b61427c848484600161412f565b9250905081840481111561429357614292614476565b5b81810290505b9392505050565b60006142ab82614388565b91506142b683614388565b9250817fffffffffffffffffffffffffffffffffffffffffffffffffffffffffffffffff04831182151516156142ef576142ee614476565b5b828202905092915050565b600061430582614388565b915061431083614388565b92508282101561432357614322614476565b5b828203905092915050565b600061433982614368565b9050919050565b600061434b82614368565b9050919050565b60008115159050919050565b6000819050919050565b600073ffffffffffffffffffffffffffffffffffffffff82169050919050565b6000819050919050565b600061439d826143a4565b9050919050565b60006143af82614368565b9050919050565b60006143c182614388565b9050919050565b60005b838110156143e65780820151818401526020810190506143cb565b838111156143f5576000848401525b50505050565b6000600282049050600182168061441357607f821691505b60208210811415614427576144266144d4565b5b50919050565b60006144388261435e565b91507f7fffffffffffffffffffffffffffffffffffffffffffffffffffffffffffffff82141561446b5761446a614476565b5b600182019050919050565b7f4e487b7100000000000000000000000000000000000000000000000000000000600052601160045260246000fd5b7f4e487b7100000000000000000000000000000000000000000000000000000000600052601260045260246000fd5b7f4e487b7100000000000000000000000000000000000000000000000000000000600052602260045260246000fd5b7f4e487b7100000000000000000000000000000000000000000000000000000000600052603260045260246000fd5b7f4e487b7100000000000000000000000000000000000000000000000000000000600052604160045260246000fd5b600080fd5b6000601f19601f8301169050919050565b60008160011c9050919050565b7f45524332303a207472616e7366657220746f20746865207a65726f206164647260008201527f6573730000000000000000000000000000000000000000000000000000000000602082015250565b7f416d6f756e74206d757374206265206c657373207468616e20746f74616c207260008201527f65666c656374696f6e7300000000000000000000000000000000000000000000602082015250565b7f4f776e61626c653a206e6577206f776e657220697320746865207a65726f206160008201527f6464726573730000000000000000000000000000000000000000000000000000602082015250565b7f45524332303a20617070726f766520746f20746865207a65726f20616464726560008201527f7373000000000000000000000000000000000000000000000000000000000000602082015250565b7f536166654d6174683a206164646974696f6e206f766572666c6f770000000000600082015250565b7f536166654d6174683a206d756c7469706c69636174696f6e206f766572666c6f60008201527f7700000000000000000000000000000000000000000000000000000000000000602082015250565b7f4f776e61626c653a2063616c6c6572206973206e6f7420746865206f776e6572600082015250565b7f5472616e7366657220616d6f756e74206d75737420626520677265617465722060008201527f7468616e207a65726f0000000000000000000000000000000000000000000000602082015250565b7f45524332303a207472616e736665722066726f6d20746865207a65726f20616460008201527f6472657373000000000000000000000000000000000000000000000000000000602082015250565b7f45524332303a20617070726f76652066726f6d20746865207a65726f2061646460008201527f7265737300000000000000000000000000000000000000000000000000000000602082015250565b7f436f6e7472616374206973206c6f636b656420756e74696c2037206461797300600082015250565b7f596f7520646f6e27742068617665207065726d697373696f6e20746f20756e6c60008201527f6f636b0000000000000000000000000000000000000000000000000000000000602082015250565b6148cf8161432e565b81146148da57600080fd5b50565b6148e681614340565b81146148f157600080fd5b50565b6148fd81614352565b811461490857600080fd5b50565b61491481614388565b811461491f57600080fd5b5056fe45524332303a207472616e7366657220616d6f756e74206578636565647320616c6c6f77616e636545524332303a2064656372656173656420616c6c6f77616e63652062656c6f77207a65726fa2646970667358221220a9aafbeb218ca4c40b3331a8a884940e0286233f0a28cade44462d0ed7e54a1264736f6c63430008060033",
					"opcodes": "PUSH1 0xC0 PUSH1 0x40 MSTORE PUSH1 0x0 PUSH1 0xD SSTORE PUSH1 0x0 PUSH1 0xF SSTORE PUSH1 0x0 PUSH1 0x11 SSTORE PUSH2 0xDEAD PUSH1 0x14 PUSH1 0x0 PUSH2 0x100 EXP DUP2 SLOAD DUP2 PUSH20 0xFFFFFFFFFFFFFFFFFFFFFFFFFFFFFFFFFFFFFFFF MUL NOT AND SWAP1 DUP4 PUSH20 0xFFFFFFFFFFFFFFFFFFFFFFFFFFFFFFFFFFFFFFFF AND MUL OR SWAP1 SSTORE POP PUSH1 0x0 PUSH1 0x15 SSTORE PUSH1 0x64 PUSH1 0x17 SSTORE PUSH1 0x1 PUSH1 0x18 PUSH1 0x1 PUSH2 0x100 EXP DUP2 SLOAD DUP2 PUSH1 0xFF MUL NOT AND SWAP1 DUP4 ISZERO ISZERO MUL OR SWAP1 SSTORE POP CALLVALUE DUP1 ISZERO PUSH3 0x88 JUMPI PUSH1 0x0 DUP1 REVERT JUMPDEST POP PUSH1 0x40 MLOAD PUSH3 0x5556 CODESIZE SUB DUP1 PUSH3 0x5556 DUP4 CODECOPY DUP2 DUP2 ADD PUSH1 0x40 MSTORE DUP2 ADD SWAP1 PUSH3 0xAE SWAP2 SWAP1 PUSH3 0x708 JUMP JUMPDEST PUSH1 0x0 CALLER SWAP1 POP DUP1 PUSH1 0x0 DUP1 PUSH2 0x100 EXP DUP2 SLOAD DUP2 PUSH20 0xFFFFFFFFFFFFFFFFFFFFFFFFFFFFFFFFFFFFFFFF MUL NOT AND SWAP1 DUP4 PUSH20 0xFFFFFFFFFFFFFFFFFFFFFFFFFFFFFFFFFFFFFFFF AND MUL OR SWAP1 SSTORE POP DUP1 PUSH20 0xFFFFFFFFFFFFFFFFFFFFFFFFFFFFFFFFFFFFFFFF AND PUSH1 0x0 PUSH20 0xFFFFFFFFFFFFFFFFFFFFFFFFFFFFFFFFFFFFFFFF AND PUSH32 0x8BE0079C531659141344CD1FD0A4F28419497F9722A3DAAFE3B4186F6B6457E0 PUSH1 0x40 MLOAD PUSH1 0x40 MLOAD DUP1 SWAP2 SUB SWAP1 LOG3 POP PUSH1 0x40 MLOAD DUP1 PUSH1 0x40 ADD PUSH1 0x40 MSTORE DUP1 PUSH1 0x4 DUP2 MSTORE PUSH1 0x20 ADD PUSH32 0x4741434300000000000000000000000000000000000000000000000000000000 DUP2 MSTORE POP PUSH1 0xA SWAP1 DUP1 MLOAD SWAP1 PUSH1 0x20 ADD SWAP1 PUSH3 0x19C SWAP3 SWAP2 SWAP1 PUSH3 0x641 JUMP JUMPDEST POP PUSH1 0x40 MLOAD DUP1 PUSH1 0x40 ADD PUSH1 0x40 MSTORE DUP1 PUSH1 0x4 DUP2 MSTORE PUSH1 0x20 ADD PUSH32 0x4741434300000000000000000000000000000000000000000000000000000000 DUP2 MSTORE POP PUSH1 0xB SWAP1 DUP1 MLOAD SWAP1 PUSH1 0x20 ADD SWAP1 PUSH3 0x1EA SWAP3 SWAP2 SWAP1 PUSH3 0x641 JUMP JUMPDEST POP PUSH1 0x40 MLOAD DUP1 PUSH1 0x40 ADD PUSH1 0x40 MSTORE DUP1 PUSH1 0x4 DUP2 MSTORE PUSH1 0x20 ADD PUSH32 0x4741434300000000000000000000000000000000000000000000000000000000 DUP2 MSTORE POP PUSH1 0xB SWAP1 DUP1 MLOAD SWAP1 PUSH1 0x20 ADD SWAP1 PUSH3 0x238 SWAP3 SWAP2 SWAP1 PUSH3 0x641 JUMP JUMPDEST POP PUSH1 0x12 PUSH1 0xC DUP2 SWAP1 SSTORE POP PUSH1 0xC SLOAD PUSH1 0xA PUSH3 0x252 SWAP2 SWAP1 PUSH3 0x801 JUMP JUMPDEST PUSH1 0x1 PUSH3 0x260 SWAP2 SWAP1 PUSH3 0x93E JUMP JUMPDEST PUSH1 0x1B DUP2 SWAP1 SSTORE POP PUSH1 0x1B SLOAD PUSH1 0x12 PUSH3 0x277 SWAP2 SWAP1 PUSH3 0x93E JUMP JUMPDEST PUSH1 0x1A DUP2 SWAP1 SSTORE POP PUSH1 0x1B SLOAD PUSH4 0x5F5B9F0 PUSH3 0x291 SWAP2 SWAP1 PUSH3 0x93E JUMP JUMPDEST PUSH1 0x7 DUP2 SWAP1 SSTORE POP PUSH1 0x7 SLOAD PUSH1 0x0 NOT PUSH3 0x2A9 SWAP2 SWAP1 PUSH3 0xA4E JUMP JUMPDEST PUSH1 0x0 NOT PUSH3 0x2B8 SWAP2 SWAP1 PUSH3 0x99F JUMP JUMPDEST PUSH1 0x8 DUP2 SWAP1 SSTORE POP PUSH1 0x8 SLOAD PUSH1 0x3 PUSH1 0x0 DUP4 PUSH20 0xFFFFFFFFFFFFFFFFFFFFFFFFFFFFFFFFFFFFFFFF AND PUSH20 0xFFFFFFFFFFFFFFFFFFFFFFFFFFFFFFFFFFFFFFFF AND DUP2 MSTORE PUSH1 0x20 ADD SWAP1 DUP2 MSTORE PUSH1 0x20 ADD PUSH1 0x0 KECCAK256 DUP2 SWAP1 SSTORE POP PUSH1 0x0 PUSH20 0x10ED43C718714EB63D5AA57B78B54704E256024E SWAP1 POP DUP1 PUSH20 0xFFFFFFFFFFFFFFFFFFFFFFFFFFFFFFFFFFFFFFFF AND PUSH4 0xC45A0155 PUSH1 0x40 MLOAD DUP2 PUSH4 0xFFFFFFFF AND PUSH1 0xE0 SHL DUP2 MSTORE PUSH1 0x4 ADD PUSH1 0x20 PUSH1 0x40 MLOAD DUP1 DUP4 SUB DUP2 DUP7 DUP1 EXTCODESIZE ISZERO DUP1 ISZERO PUSH3 0x364 JUMPI PUSH1 0x0 DUP1 REVERT JUMPDEST POP GAS STATICCALL ISZERO DUP1 ISZERO PUSH3 0x379 JUMPI RETURNDATASIZE PUSH1 0x0 DUP1 RETURNDATACOPY RETURNDATASIZE PUSH1 0x0 REVERT JUMPDEST POP POP POP POP PUSH1 0x40 MLOAD RETURNDATASIZE PUSH1 0x1F NOT PUSH1 0x1F DUP3 ADD AND DUP3 ADD DUP1 PUSH1 0x40 MSTORE POP DUP2 ADD SWAP1 PUSH3 0x39F SWAP2 SWAP1 PUSH3 0x708 JUMP JUMPDEST PUSH20 0xFFFFFFFFFFFFFFFFFFFFFFFFFFFFFFFFFFFFFFFF AND PUSH4 0xC9C65396 ADDRESS DUP4 PUSH20 0xFFFFFFFFFFFFFFFFFFFFFFFFFFFFFFFFFFFFFFFF AND PUSH4 0xAD5C4648 PUSH1 0x40 MLOAD DUP2 PUSH4 0xFFFFFFFF AND PUSH1 0xE0 SHL DUP2 MSTORE PUSH1 0x4 ADD PUSH1 0x20 PUSH1 0x40 MLOAD DUP1 DUP4 SUB DUP2 DUP7 DUP1 EXTCODESIZE ISZERO DUP1 ISZERO PUSH3 0x402 JUMPI PUSH1 0x0 DUP1 REVERT JUMPDEST POP GAS STATICCALL ISZERO DUP1 ISZERO PUSH3 0x417 JUMPI RETURNDATASIZE PUSH1 0x0 DUP1 RETURNDATACOPY RETURNDATASIZE PUSH1 0x0 REVERT JUMPDEST POP POP POP POP PUSH1 0x40 MLOAD RETURNDATASIZE PUSH1 0x1F NOT PUSH1 0x1F DUP3 ADD AND DUP3 ADD DUP1 PUSH1 0x40 MSTORE POP DUP2 ADD SWAP1 PUSH3 0x43D SWAP2 SWAP1 PUSH3 0x708 JUMP JUMPDEST PUSH1 0x40 MLOAD DUP4 PUSH4 0xFFFFFFFF AND PUSH1 0xE0 SHL DUP2 MSTORE PUSH1 0x4 ADD PUSH3 0x45C SWAP3 SWAP2 SWAP1 PUSH3 0x75C JUMP JUMPDEST PUSH1 0x20 PUSH1 0x40 MLOAD DUP1 DUP4 SUB DUP2 PUSH1 0x0 DUP8 DUP1 EXTCODESIZE ISZERO DUP1 ISZERO PUSH3 0x477 JUMPI PUSH1 0x0 DUP1 REVERT JUMPDEST POP GAS CALL ISZERO DUP1 ISZERO PUSH3 0x48C JUMPI RETURNDATASIZE PUSH1 0x0 DUP1 RETURNDATACOPY RETURNDATASIZE PUSH1 0x0 REVERT JUMPDEST POP POP POP POP PUSH1 0x40 MLOAD RETURNDATASIZE PUSH1 0x1F NOT PUSH1 0x1F DUP3 ADD AND DUP3 ADD DUP1 PUSH1 0x40 MSTORE POP DUP2 ADD SWAP1 PUSH3 0x4B2 SWAP2 SWAP1 PUSH3 0x708 JUMP JUMPDEST PUSH20 0xFFFFFFFFFFFFFFFFFFFFFFFFFFFFFFFFFFFFFFFF AND PUSH1 0xA0 DUP2 PUSH20 0xFFFFFFFFFFFFFFFFFFFFFFFFFFFFFFFFFFFFFFFF AND PUSH1 0x60 SHL DUP2 MSTORE POP POP DUP1 PUSH20 0xFFFFFFFFFFFFFFFFFFFFFFFFFFFFFFFFFFFFFFFF AND PUSH1 0x80 DUP2 PUSH20 0xFFFFFFFFFFFFFFFFFFFFFFFFFFFFFFFFFFFFFFFF AND PUSH1 0x60 SHL DUP2 MSTORE POP POP PUSH1 0x1 PUSH1 0x6 PUSH1 0x0 DUP5 PUSH20 0xFFFFFFFFFFFFFFFFFFFFFFFFFFFFFFFFFFFFFFFF AND PUSH20 0xFFFFFFFFFFFFFFFFFFFFFFFFFFFFFFFFFFFFFFFF AND DUP2 MSTORE PUSH1 0x20 ADD SWAP1 DUP2 MSTORE PUSH1 0x20 ADD PUSH1 0x0 KECCAK256 PUSH1 0x0 PUSH2 0x100 EXP DUP2 SLOAD DUP2 PUSH1 0xFF MUL NOT AND SWAP1 DUP4 ISZERO ISZERO MUL OR SWAP1 SSTORE POP PUSH1 0x1 PUSH1 0x6 PUSH1 0x0 ADDRESS PUSH20 0xFFFFFFFFFFFFFFFFFFFFFFFFFFFFFFFFFFFFFFFF AND PUSH20 0xFFFFFFFFFFFFFFFFFFFFFFFFFFFFFFFFFFFFFFFF AND DUP2 MSTORE PUSH1 0x20 ADD SWAP1 DUP2 MSTORE PUSH1 0x20 ADD PUSH1 0x0 KECCAK256 PUSH1 0x0 PUSH2 0x100 EXP DUP2 SLOAD DUP2 PUSH1 0xFF MUL NOT AND SWAP1 DUP4 ISZERO ISZERO MUL OR SWAP1 SSTORE POP DUP2 PUSH20 0xFFFFFFFFFFFFFFFFFFFFFFFFFFFFFFFFFFFFFFFF AND PUSH1 0x0 PUSH20 0xFFFFFFFFFFFFFFFFFFFFFFFFFFFFFFFFFFFFFFFF AND PUSH32 0xDDF252AD1BE2C89B69C2B068FC378DAA952BA7F163C4A11628F55A4DF523B3EF PUSH1 0x7 SLOAD PUSH1 0x40 MLOAD PUSH3 0x631 SWAP2 SWAP1 PUSH3 0x789 JUMP JUMPDEST PUSH1 0x40 MLOAD DUP1 SWAP2 SUB SWAP1 LOG3 POP POP PUSH3 0xB3F JUMP JUMPDEST DUP3 DUP1 SLOAD PUSH3 0x64F SWAP1 PUSH3 0xA18 JUMP JUMPDEST SWAP1 PUSH1 0x0 MSTORE PUSH1 0x20 PUSH1 0x0 KECCAK256 SWAP1 PUSH1 0x1F ADD PUSH1 0x20 SWAP1 DIV DUP2 ADD SWAP3 DUP3 PUSH3 0x673 JUMPI PUSH1 0x0 DUP6 SSTORE PUSH3 0x6BF JUMP JUMPDEST DUP3 PUSH1 0x1F LT PUSH3 0x68E JUMPI DUP1 MLOAD PUSH1 0xFF NOT AND DUP4 DUP1 ADD OR DUP6 SSTORE PUSH3 0x6BF JUMP JUMPDEST DUP3 DUP1 ADD PUSH1 0x1 ADD DUP6 SSTORE DUP3 ISZERO PUSH3 0x6BF JUMPI SWAP2 DUP3 ADD JUMPDEST DUP3 DUP2 GT ISZERO PUSH3 0x6BE JUMPI DUP3 MLOAD DUP3 SSTORE SWAP2 PUSH1 0x20 ADD SWAP2 SWAP1 PUSH1 0x1 ADD SWAP1 PUSH3 0x6A1 JUMP JUMPDEST JUMPDEST POP SWAP1 POP PUSH3 0x6CE SWAP2 SWAP1 PUSH3 0x6D2 JUMP JUMPDEST POP SWAP1 JUMP JUMPDEST JUMPDEST DUP1 DUP3 GT ISZERO PUSH3 0x6ED JUMPI PUSH1 0x0 DUP2 PUSH1 0x0 SWAP1 SSTORE POP PUSH1 0x1 ADD PUSH3 0x6D3 JUMP JUMPDEST POP SWAP1 JUMP JUMPDEST PUSH1 0x0 DUP2 MLOAD SWAP1 POP PUSH3 0x702 DUP2 PUSH3 0xB25 JUMP JUMPDEST SWAP3 SWAP2 POP POP JUMP JUMPDEST PUSH1 0x0 PUSH1 0x20 DUP3 DUP5 SUB SLT ISZERO PUSH3 0x721 JUMPI PUSH3 0x720 PUSH3 0xB13 JUMP JUMPDEST JUMPDEST PUSH1 0x0 PUSH3 0x731 DUP5 DUP3 DUP6 ADD PUSH3 0x6F1 JUMP JUMPDEST SWAP2 POP POP SWAP3 SWAP2 POP POP JUMP JUMPDEST PUSH3 0x745 DUP2 PUSH3 0x9DA JUMP JUMPDEST DUP3 MSTORE POP POP JUMP JUMPDEST PUSH3 0x756 DUP2 PUSH3 0xA0E JUMP JUMPDEST DUP3 MSTORE POP POP JUMP JUMPDEST PUSH1 0x0 PUSH1 0x40 DUP3 ADD SWAP1 POP PUSH3 0x773 PUSH1 0x0 DUP4 ADD DUP6 PUSH3 0x73A JUMP JUMPDEST PUSH3 0x782 PUSH1 0x20 DUP4 ADD DUP5 PUSH3 0x73A JUMP JUMPDEST SWAP4 SWAP3 POP POP POP JUMP JUMPDEST PUSH1 0x0 PUSH1 0x20 DUP3 ADD SWAP1 POP PUSH3 0x7A0 PUSH1 0x0 DUP4 ADD DUP5 PUSH3 0x74B JUMP JUMPDEST SWAP3 SWAP2 POP POP JUMP JUMPDEST PUSH1 0x0 DUP1 DUP3 SWAP2 POP DUP4 SWAP1 POP JUMPDEST PUSH1 0x1 DUP6 GT ISZERO PUSH3 0x7F8 JUMPI DUP1 DUP7 DIV DUP2 GT ISZERO PUSH3 0x7D0 JUMPI PUSH3 0x7CF PUSH3 0xA86 JUMP JUMPDEST JUMPDEST PUSH1 0x1 DUP6 AND ISZERO PUSH3 0x7E0 JUMPI DUP1 DUP3 MUL SWAP2 POP JUMPDEST DUP1 DUP2 MUL SWAP1 POP PUSH3 0x7F0 DUP6 PUSH3 0xB18 JUMP JUMPDEST SWAP5 POP PUSH3 0x7B0 JUMP JUMPDEST SWAP5 POP SWAP5 SWAP3 POP POP POP JUMP JUMPDEST PUSH1 0x0 PUSH3 0x80E DUP3 PUSH3 0xA0E JUMP JUMPDEST SWAP2 POP PUSH3 0x81B DUP4 PUSH3 0xA0E JUMP JUMPDEST SWAP3 POP PUSH3 0x84A PUSH32 0xFFFFFFFFFFFFFFFFFFFFFFFFFFFFFFFFFFFFFFFFFFFFFFFFFFFFFFFFFFFFFFFF DUP5 DUP5 PUSH3 0x852 JUMP JUMPDEST SWAP1 POP SWAP3 SWAP2 POP POP JUMP JUMPDEST PUSH1 0x0 DUP3 PUSH3 0x864 JUMPI PUSH1 0x1 SWAP1 POP PUSH3 0x937 JUMP JUMPDEST DUP2 PUSH3 0x874 JUMPI PUSH1 0x0 SWAP1 POP PUSH3 0x937 JUMP JUMPDEST DUP2 PUSH1 0x1 DUP2 EQ PUSH3 0x88D JUMPI PUSH1 0x2 DUP2 EQ PUSH3 0x898 JUMPI PUSH3 0x8CE JUMP JUMPDEST PUSH1 0x1 SWAP2 POP POP PUSH3 0x937 JUMP JUMPDEST PUSH1 0xFF DUP5 GT ISZERO PUSH3 0x8AD JUMPI PUSH3 0x8AC PUSH3 0xA86 JUMP JUMPDEST JUMPDEST DUP4 PUSH1 0x2 EXP SWAP2 POP DUP5 DUP3 GT ISZERO PUSH3 0x8C7 JUMPI PUSH3 0x8C6 PUSH3 0xA86 JUMP JUMPDEST JUMPDEST POP PUSH3 0x937 JUMP JUMPDEST POP PUSH1 0x20 DUP4 LT PUSH2 0x133 DUP4 LT AND PUSH1 0x4E DUP5 LT PUSH1 0xB DUP5 LT AND OR ISZERO PUSH3 0x908 JUMPI DUP3 DUP3 EXP SWAP1 POP DUP4 DUP2 GT ISZERO PUSH3 0x902 JUMPI PUSH3 0x901 PUSH3 0xA86 JUMP JUMPDEST JUMPDEST PUSH3 0x937 JUMP JUMPDEST PUSH3 0x917 DUP5 DUP5 DUP5 PUSH1 0x1 PUSH3 0x7A6 JUMP JUMPDEST SWAP3 POP SWAP1 POP DUP2 DUP5 DIV DUP2 GT ISZERO PUSH3 0x931 JUMPI PUSH3 0x930 PUSH3 0xA86 JUMP JUMPDEST JUMPDEST DUP2 DUP2 MUL SWAP1 POP JUMPDEST SWAP4 SWAP3 POP POP POP JUMP JUMPDEST PUSH1 0x0 PUSH3 0x94B DUP3 PUSH3 0xA0E JUMP JUMPDEST SWAP2 POP PUSH3 0x958 DUP4 PUSH3 0xA0E JUMP JUMPDEST SWAP3 POP DUP2 PUSH32 0xFFFFFFFFFFFFFFFFFFFFFFFFFFFFFFFFFFFFFFFFFFFFFFFFFFFFFFFFFFFFFFFF DIV DUP4 GT DUP3 ISZERO ISZERO AND ISZERO PUSH3 0x994 JUMPI PUSH3 0x993 PUSH3 0xA86 JUMP JUMPDEST JUMPDEST DUP3 DUP3 MUL SWAP1 POP SWAP3 SWAP2 POP POP JUMP JUMPDEST PUSH1 0x0 PUSH3 0x9AC DUP3 PUSH3 0xA0E JUMP JUMPDEST SWAP2 POP PUSH3 0x9B9 DUP4 PUSH3 0xA0E JUMP JUMPDEST SWAP3 POP DUP3 DUP3 LT ISZERO PUSH3 0x9CF JUMPI PUSH3 0x9CE PUSH3 0xA86 JUMP JUMPDEST JUMPDEST DUP3 DUP3 SUB SWAP1 POP SWAP3 SWAP2 POP POP JUMP JUMPDEST PUSH1 0x0 PUSH3 0x9E7 DUP3 PUSH3 0x9EE JUMP JUMPDEST SWAP1 POP SWAP2 SWAP1 POP JUMP JUMPDEST PUSH1 0x0 PUSH20 0xFFFFFFFFFFFFFFFFFFFFFFFFFFFFFFFFFFFFFFFF DUP3 AND SWAP1 POP SWAP2 SWAP1 POP JUMP JUMPDEST PUSH1 0x0 DUP2 SWAP1 POP SWAP2 SWAP1 POP JUMP JUMPDEST PUSH1 0x0 PUSH1 0x2 DUP3 DIV SWAP1 POP PUSH1 0x1 DUP3 AND DUP1 PUSH3 0xA31 JUMPI PUSH1 0x7F DUP3 AND SWAP2 POP JUMPDEST PUSH1 0x20 DUP3 LT DUP2 EQ ISZERO PUSH3 0xA48 JUMPI PUSH3 0xA47 PUSH3 0xAE4 JUMP JUMPDEST JUMPDEST POP SWAP2 SWAP1 POP JUMP JUMPDEST PUSH1 0x0 PUSH3 0xA5B DUP3 PUSH3 0xA0E JUMP JUMPDEST SWAP2 POP PUSH3 0xA68 DUP4 PUSH3 0xA0E JUMP JUMPDEST SWAP3 POP DUP3 PUSH3 0xA7B JUMPI PUSH3 0xA7A PUSH3 0xAB5 JUMP JUMPDEST JUMPDEST DUP3 DUP3 MOD SWAP1 POP SWAP3 SWAP2 POP POP JUMP JUMPDEST PUSH32 0x4E487B7100000000000000000000000000000000000000000000000000000000 PUSH1 0x0 MSTORE PUSH1 0x11 PUSH1 0x4 MSTORE PUSH1 0x24 PUSH1 0x0 REVERT JUMPDEST PUSH32 0x4E487B7100000000000000000000000000000000000000000000000000000000 PUSH1 0x0 MSTORE PUSH1 0x12 PUSH1 0x4 MSTORE PUSH1 0x24 PUSH1 0x0 REVERT JUMPDEST PUSH32 0x4E487B7100000000000000000000000000000000000000000000000000000000 PUSH1 0x0 MSTORE PUSH1 0x22 PUSH1 0x4 MSTORE PUSH1 0x24 PUSH1 0x0 REVERT JUMPDEST PUSH1 0x0 DUP1 REVERT JUMPDEST PUSH1 0x0 DUP2 PUSH1 0x1 SHR SWAP1 POP SWAP2 SWAP1 POP JUMP JUMPDEST PUSH3 0xB30 DUP2 PUSH3 0x9DA JUMP JUMPDEST DUP2 EQ PUSH3 0xB3C JUMPI PUSH1 0x0 DUP1 REVERT JUMPDEST POP JUMP JUMPDEST PUSH1 0x80 MLOAD PUSH1 0x60 SHR PUSH1 0xA0 MLOAD PUSH1 0x60 SHR PUSH2 0x49A5 PUSH3 0xBB1 PUSH1 0x0 CODECOPY PUSH1 0x0 DUP2 DUP2 PUSH2 0x10D4 ADD MSTORE DUP2 DUP2 PUSH2 0x2408 ADD MSTORE DUP2 DUP2 PUSH2 0x24E0 ADD MSTORE DUP2 DUP2 PUSH2 0x26C6 ADD MSTORE DUP2 DUP2 PUSH2 0x3470 ADD MSTORE PUSH2 0x34CC ADD MSTORE PUSH1 0x0 DUP2 DUP2 PUSH2 0xC97 ADD MSTORE DUP2 DUP2 PUSH2 0x2BFF ADD MSTORE DUP2 DUP2 PUSH2 0x2CEF ADD MSTORE DUP2 DUP2 PUSH2 0x2D16 ADD MSTORE DUP2 DUP2 PUSH2 0x2DB2 ADD MSTORE PUSH2 0x2DD9 ADD MSTORE PUSH2 0x49A5 PUSH1 0x0 RETURN INVALID PUSH1 0x80 PUSH1 0x40 MSTORE PUSH1 0x4 CALLDATASIZE LT PUSH2 0x260 JUMPI PUSH1 0x0 CALLDATALOAD PUSH1 0xE0 SHR DUP1 PUSH4 0x715018A6 GT PUSH2 0x144 JUMPI DUP1 PUSH4 0xA9059CBB GT PUSH2 0xB6 JUMPI DUP1 PUSH4 0xDD62ED3E GT PUSH2 0x7A JUMPI DUP1 PUSH4 0xDD62ED3E EQ PUSH2 0x8F7 JUMPI DUP1 PUSH4 0xEA2F0B37 EQ PUSH2 0x934 JUMPI DUP1 PUSH4 0xEC28438A EQ PUSH2 0x95D JUMPI DUP1 PUSH4 0xEE8F0B7A EQ PUSH2 0x986 JUMPI DUP1 PUSH4 0xF0F165AF EQ PUSH2 0x9C3 JUMPI DUP1 PUSH4 0xF2FDE38B EQ PUSH2 0x9EC JUMPI PUSH2 0x267 JUMP JUMPDEST DUP1 PUSH4 0xA9059CBB EQ PUSH2 0x814 JUMPI DUP1 PUSH4 0xB060346A EQ PUSH2 0x851 JUMPI DUP1 PUSH4 0xC49B9A80 EQ PUSH2 0x87A JUMPI DUP1 PUSH4 0xD12A7688 EQ PUSH2 0x8A3 JUMPI DUP1 PUSH4 0xDD467064 EQ PUSH2 0x8CE JUMPI PUSH2 0x267 JUMP JUMPDEST DUP1 PUSH4 0x8EE88C53 GT PUSH2 0x108 JUMPI DUP1 PUSH4 0x8EE88C53 EQ PUSH2 0x716 JUMPI DUP1 PUSH4 0x95D89B41 EQ PUSH2 0x73F JUMPI DUP1 PUSH4 0x964E45F5 EQ PUSH2 0x76A JUMPI DUP1 PUSH4 0xA41A08FB EQ PUSH2 0x795 JUMPI DUP1 PUSH4 0xA457C2D7 EQ PUSH2 0x7C0 JUMPI DUP1 PUSH4 0xA69DF4B5 EQ PUSH2 0x7FD JUMPI PUSH2 0x267 JUMP JUMPDEST DUP1 PUSH4 0x715018A6 EQ PUSH2 0x655 JUMPI DUP1 PUSH4 0x766FBB2C EQ PUSH2 0x66C JUMPI DUP1 PUSH4 0x77975E0B EQ PUSH2 0x697 JUMPI DUP1 PUSH4 0x7D1DB4A5 EQ PUSH2 0x6C0 JUMPI DUP1 PUSH4 0x8DA5CB5B EQ PUSH2 0x6EB JUMPI PUSH2 0x267 JUMP JUMPDEST DUP1 PUSH4 0x313CE567 GT PUSH2 0x1DD JUMPI DUP1 PUSH4 0x49BD5A5E GT PUSH2 0x1A1 JUMPI DUP1 PUSH4 0x49BD5A5E EQ PUSH2 0x52F JUMPI DUP1 PUSH4 0x4A74BB02 EQ PUSH2 0x55A JUMPI DUP1 PUSH4 0x5342ACB4 EQ PUSH2 0x585 JUMPI DUP1 PUSH4 0x557ED1BA EQ PUSH2 0x5C2 JUMPI DUP1 PUSH4 0x6BC87C3A EQ PUSH2 0x5ED JUMPI DUP1 PUSH4 0x70A08231 EQ PUSH2 0x618 JUMPI PUSH2 0x267 JUMP JUMPDEST DUP1 PUSH4 0x313CE567 EQ PUSH2 0x44A JUMPI DUP1 PUSH4 0x3927B469 EQ PUSH2 0x475 JUMPI DUP1 PUSH4 0x39509351 EQ PUSH2 0x49E JUMPI DUP1 PUSH4 0x3B124FE7 EQ PUSH2 0x4DB JUMPI DUP1 PUSH4 0x437823EC EQ PUSH2 0x506 JUMPI PUSH2 0x267 JUMP JUMPDEST DUP1 PUSH4 0x1694505E GT PUSH2 0x224 JUMPI DUP1 PUSH4 0x1694505E EQ PUSH2 0x351 JUMPI DUP1 PUSH4 0x18160DDD EQ PUSH2 0x37C JUMPI DUP1 PUSH4 0x23B872DD EQ PUSH2 0x3A7 JUMPI DUP1 PUSH4 0x293E2A71 EQ PUSH2 0x3E4 JUMPI DUP1 PUSH4 0x2D838119 EQ PUSH2 0x40D JUMPI PUSH2 0x267 JUMP JUMPDEST DUP1 PUSH4 0x422F547 EQ PUSH2 0x26C JUMPI DUP1 PUSH4 0x61C82D0 EQ PUSH2 0x295 JUMPI DUP1 PUSH4 0x6FDDE03 EQ PUSH2 0x2BE JUMPI DUP1 PUSH4 0x95EA7B3 EQ PUSH2 0x2E9 JUMPI DUP1 PUSH4 0x13114A9D EQ PUSH2 0x326 JUMPI PUSH2 0x267 JUMP JUMPDEST CALLDATASIZE PUSH2 0x267 JUMPI STOP JUMPDEST PUSH1 0x0 DUP1 REVERT JUMPDEST CALLVALUE DUP1 ISZERO PUSH2 0x278 JUMPI PUSH1 0x0 DUP1 REVERT JUMPDEST POP PUSH2 0x293 PUSH1 0x4 DUP1 CALLDATASIZE SUB DUP2 ADD SWAP1 PUSH2 0x28E SWAP2 SWAP1 PUSH2 0x38A6 JUMP JUMPDEST PUSH2 0xA15 JUMP JUMPDEST STOP JUMPDEST CALLVALUE DUP1 ISZERO PUSH2 0x2A1 JUMPI PUSH1 0x0 DUP1 REVERT JUMPDEST POP PUSH2 0x2BC PUSH1 0x4 DUP1 CALLDATASIZE SUB DUP2 ADD SWAP1 PUSH2 0x2B7 SWAP2 SWAP1 PUSH2 0x39E6 JUMP JUMPDEST PUSH2 0xB4A JUMP JUMPDEST STOP JUMPDEST CALLVALUE DUP1 ISZERO PUSH2 0x2CA JUMPI PUSH1 0x0 DUP1 REVERT JUMPDEST POP PUSH2 0x2D3 PUSH2 0xBE2 JUMP JUMPDEST PUSH1 0x40 MLOAD PUSH2 0x2E0 SWAP2 SWAP1 PUSH2 0x3E05 JUMP JUMPDEST PUSH1 0x40 MLOAD DUP1 SWAP2 SUB SWAP1 RETURN JUMPDEST CALLVALUE DUP1 ISZERO PUSH2 0x2F5 JUMPI PUSH1 0x0 DUP1 REVERT JUMPDEST POP PUSH2 0x310 PUSH1 0x4 DUP1 CALLDATASIZE SUB DUP2 ADD SWAP1 PUSH2 0x30B SWAP2 SWAP1 PUSH2 0x3979 JUMP JUMPDEST PUSH2 0xC74 JUMP JUMPDEST PUSH1 0x40 MLOAD PUSH2 0x31D SWAP2 SWAP1 PUSH2 0x3DCF JUMP JUMPDEST PUSH1 0x40 MLOAD DUP1 SWAP2 SUB SWAP1 RETURN JUMPDEST CALLVALUE DUP1 ISZERO PUSH2 0x332 JUMPI PUSH1 0x0 DUP1 REVERT JUMPDEST POP PUSH2 0x33B PUSH2 0xC8B JUMP JUMPDEST PUSH1 0x40 MLOAD PUSH2 0x348 SWAP2 SWAP1 PUSH2 0x3FA7 JUMP JUMPDEST PUSH1 0x40 MLOAD DUP1 SWAP2 SUB SWAP1 RETURN JUMPDEST CALLVALUE DUP1 ISZERO PUSH2 0x35D JUMPI PUSH1 0x0 DUP1 REVERT JUMPDEST POP PUSH2 0x366 PUSH2 0xC95 JUMP JUMPDEST PUSH1 0x40 MLOAD PUSH2 0x373 SWAP2 SWAP1 PUSH2 0x3DEA JUMP JUMPDEST PUSH1 0x40 MLOAD DUP1 SWAP2 SUB SWAP1 RETURN JUMPDEST CALLVALUE DUP1 ISZERO PUSH2 0x388 JUMPI PUSH1 0x0 DUP1 REVERT JUMPDEST POP PUSH2 0x391 PUSH2 0xCB9 JUMP JUMPDEST PUSH1 0x40 MLOAD PUSH2 0x39E SWAP2 SWAP1 PUSH2 0x3FA7 JUMP JUMPDEST PUSH1 0x40 MLOAD DUP1 SWAP2 SUB SWAP1 RETURN JUMPDEST CALLVALUE DUP1 ISZERO PUSH2 0x3B3 JUMPI PUSH1 0x0 DUP1 REVERT JUMPDEST POP PUSH2 0x3CE PUSH1 0x4 DUP1 CALLDATASIZE SUB DUP2 ADD SWAP1 PUSH2 0x3C9 SWAP2 SWAP1 PUSH2 0x3926 JUMP JUMPDEST PUSH2 0xCC3 JUMP JUMPDEST PUSH1 0x40 MLOAD PUSH2 0x3DB SWAP2 SWAP1 PUSH2 0x3DCF JUMP JUMPDEST PUSH1 0x40 MLOAD DUP1 SWAP2 SUB SWAP1 RETURN JUMPDEST CALLVALUE DUP1 ISZERO PUSH2 0x3F0 JUMPI PUSH1 0x0 DUP1 REVERT JUMPDEST POP PUSH2 0x40B PUSH1 0x4 DUP1 CALLDATASIZE SUB DUP2 ADD SWAP1 PUSH2 0x406 SWAP2 SWAP1 PUSH2 0x39E6 JUMP JUMPDEST PUSH2 0xD8E JUMP JUMPDEST STOP JUMPDEST CALLVALUE DUP1 ISZERO PUSH2 0x419 JUMPI PUSH1 0x0 DUP1 REVERT JUMPDEST POP PUSH2 0x434 PUSH1 0x4 DUP1 CALLDATASIZE SUB DUP2 ADD SWAP1 PUSH2 0x42F SWAP2 SWAP1 PUSH2 0x39E6 JUMP JUMPDEST PUSH2 0xE26 JUMP JUMPDEST PUSH1 0x40 MLOAD PUSH2 0x441 SWAP2 SWAP1 PUSH2 0x3FA7 JUMP JUMPDEST PUSH1 0x40 MLOAD DUP1 SWAP2 SUB SWAP1 RETURN JUMPDEST CALLVALUE DUP1 ISZERO PUSH2 0x456 JUMPI PUSH1 0x0 DUP1 REVERT JUMPDEST POP PUSH2 0x45F PUSH2 0xE94 JUMP JUMPDEST PUSH1 0x40 MLOAD PUSH2 0x46C SWAP2 SWAP1 PUSH2 0x3FA7 JUMP JUMPDEST PUSH1 0x40 MLOAD DUP1 SWAP2 SUB SWAP1 RETURN JUMPDEST CALLVALUE DUP1 ISZERO PUSH2 0x481 JUMPI PUSH1 0x0 DUP1 REVERT JUMPDEST POP PUSH2 0x49C PUSH1 0x4 DUP1 CALLDATASIZE SUB DUP2 ADD SWAP1 PUSH2 0x497 SWAP2 SWAP1 PUSH2 0x3A13 JUMP JUMPDEST PUSH2 0xE9E JUMP JUMPDEST STOP JUMPDEST CALLVALUE DUP1 ISZERO PUSH2 0x4AA JUMPI PUSH1 0x0 DUP1 REVERT JUMPDEST POP PUSH2 0x4C5 PUSH1 0x4 DUP1 CALLDATASIZE SUB DUP2 ADD SWAP1 PUSH2 0x4C0 SWAP2 SWAP1 PUSH2 0x3979 JUMP JUMPDEST PUSH2 0xF3E JUMP JUMPDEST PUSH1 0x40 MLOAD PUSH2 0x4D2 SWAP2 SWAP1 PUSH2 0x3DCF JUMP JUMPDEST PUSH1 0x40 MLOAD DUP1 SWAP2 SUB SWAP1 RETURN JUMPDEST CALLVALUE DUP1 ISZERO PUSH2 0x4E7 JUMPI PUSH1 0x0 DUP1 REVERT JUMPDEST POP PUSH2 0x4F0 PUSH2 0xFE3 JUMP JUMPDEST PUSH1 0x40 MLOAD PUSH2 0x4FD SWAP2 SWAP1 PUSH2 0x3FA7 JUMP JUMPDEST PUSH1 0x40 MLOAD DUP1 SWAP2 SUB SWAP1 RETURN JUMPDEST CALLVALUE DUP1 ISZERO PUSH2 0x512 JUMPI PUSH1 0x0 DUP1 REVERT JUMPDEST POP PUSH2 0x52D PUSH1 0x4 DUP1 CALLDATASIZE SUB DUP2 ADD SWAP1 PUSH2 0x528 SWAP2 SWAP1 PUSH2 0x384C JUMP JUMPDEST PUSH2 0xFE9 JUMP JUMPDEST STOP JUMPDEST CALLVALUE DUP1 ISZERO PUSH2 0x53B JUMPI PUSH1 0x0 DUP1 REVERT JUMPDEST POP PUSH2 0x544 PUSH2 0x10D2 JUMP JUMPDEST PUSH1 0x40 MLOAD PUSH2 0x551 SWAP2 SWAP1 PUSH2 0x3D53 JUMP JUMPDEST PUSH1 0x40 MLOAD DUP1 SWAP2 SUB SWAP1 RETURN JUMPDEST CALLVALUE DUP1 ISZERO PUSH2 0x566 JUMPI PUSH1 0x0 DUP1 REVERT JUMPDEST POP PUSH2 0x56F PUSH2 0x10F6 JUMP JUMPDEST PUSH1 0x40 MLOAD PUSH2 0x57C SWAP2 SWAP1 PUSH2 0x3DCF JUMP JUMPDEST PUSH1 0x40 MLOAD DUP1 SWAP2 SUB SWAP1 RETURN JUMPDEST CALLVALUE DUP1 ISZERO PUSH2 0x591 JUMPI PUSH1 0x0 DUP1 REVERT JUMPDEST POP PUSH2 0x5AC PUSH1 0x4 DUP1 CALLDATASIZE SUB DUP2 ADD SWAP1 PUSH2 0x5A7 SWAP2 SWAP1 PUSH2 0x384C JUMP JUMPDEST PUSH2 0x1109 JUMP JUMPDEST PUSH1 0x40 MLOAD PUSH2 0x5B9 SWAP2 SWAP1 PUSH2 0x3DCF JUMP JUMPDEST PUSH1 0x40 MLOAD DUP1 SWAP2 SUB SWAP1 RETURN JUMPDEST CALLVALUE DUP1 ISZERO PUSH2 0x5CE JUMPI PUSH1 0x0 DUP1 REVERT JUMPDEST POP PUSH2 0x5D7 PUSH2 0x115F JUMP JUMPDEST PUSH1 0x40 MLOAD PUSH2 0x5E4 SWAP2 SWAP1 PUSH2 0x3FA7 JUMP JUMPDEST PUSH1 0x40 MLOAD DUP1 SWAP2 SUB SWAP1 RETURN JUMPDEST CALLVALUE DUP1 ISZERO PUSH2 0x5F9 JUMPI PUSH1 0x0 DUP1 REVERT JUMPDEST POP PUSH2 0x602 PUSH2 0x1167 JUMP JUMPDEST PUSH1 0x40 MLOAD PUSH2 0x60F SWAP2 SWAP1 PUSH2 0x3FA7 JUMP JUMPDEST PUSH1 0x40 MLOAD DUP1 SWAP2 SUB SWAP1 RETURN JUMPDEST CALLVALUE DUP1 ISZERO PUSH2 0x624 JUMPI PUSH1 0x0 DUP1 REVERT JUMPDEST POP PUSH2 0x63F PUSH1 0x4 DUP1 CALLDATASIZE SUB DUP2 ADD SWAP1 PUSH2 0x63A SWAP2 SWAP1 PUSH2 0x384C JUMP JUMPDEST PUSH2 0x116D JUMP JUMPDEST PUSH1 0x40 MLOAD PUSH2 0x64C SWAP2 SWAP1 PUSH2 0x3FA7 JUMP JUMPDEST PUSH1 0x40 MLOAD DUP1 SWAP2 SUB SWAP1 RETURN JUMPDEST CALLVALUE DUP1 ISZERO PUSH2 0x661 JUMPI PUSH1 0x0 DUP1 REVERT JUMPDEST POP PUSH2 0x66A PUSH2 0x11BE JUMP JUMPDEST STOP JUMPDEST CALLVALUE DUP1 ISZERO PUSH2 0x678 JUMPI PUSH1 0x0 DUP1 REVERT JUMPDEST POP PUSH2 0x681 PUSH2 0x130A JUMP JUMPDEST PUSH1 0x40 MLOAD PUSH2 0x68E SWAP2 SWAP1 PUSH2 0x3FA7 JUMP JUMPDEST PUSH1 0x40 MLOAD DUP1 SWAP2 SUB SWAP1 RETURN JUMPDEST CALLVALUE DUP1 ISZERO PUSH2 0x6A3 JUMPI PUSH1 0x0 DUP1 REVERT JUMPDEST POP PUSH2 0x6BE PUSH1 0x4 DUP1 CALLDATASIZE SUB DUP2 ADD SWAP1 PUSH2 0x6B9 SWAP2 SWAP1 PUSH2 0x384C JUMP JUMPDEST PUSH2 0x1310 JUMP JUMPDEST STOP JUMPDEST CALLVALUE DUP1 ISZERO PUSH2 0x6CC JUMPI PUSH1 0x0 DUP1 REVERT JUMPDEST POP PUSH2 0x6D5 PUSH2 0x13E2 JUMP JUMPDEST PUSH1 0x40 MLOAD PUSH2 0x6E2 SWAP2 SWAP1 PUSH2 0x3FA7 JUMP JUMPDEST PUSH1 0x40 MLOAD DUP1 SWAP2 SUB SWAP1 RETURN JUMPDEST CALLVALUE DUP1 ISZERO PUSH2 0x6F7 JUMPI PUSH1 0x0 DUP1 REVERT JUMPDEST POP PUSH2 0x700 PUSH2 0x13E8 JUMP JUMPDEST PUSH1 0x40 MLOAD PUSH2 0x70D SWAP2 SWAP1 PUSH2 0x3D53 JUMP JUMPDEST PUSH1 0x40 MLOAD DUP1 SWAP2 SUB SWAP1 RETURN JUMPDEST CALLVALUE DUP1 ISZERO PUSH2 0x722 JUMPI PUSH1 0x0 DUP1 REVERT JUMPDEST POP PUSH2 0x73D PUSH1 0x4 DUP1 CALLDATASIZE SUB DUP2 ADD SWAP1 PUSH2 0x738 SWAP2 SWAP1 PUSH2 0x39E6 JUMP JUMPDEST PUSH2 0x1411 JUMP JUMPDEST STOP JUMPDEST CALLVALUE DUP1 ISZERO PUSH2 0x74B JUMPI PUSH1 0x0 DUP1 REVERT JUMPDEST POP PUSH2 0x754 PUSH2 0x14A9 JUMP JUMPDEST PUSH1 0x40 MLOAD PUSH2 0x761 SWAP2 SWAP1 PUSH2 0x3E05 JUMP JUMPDEST PUSH1 0x40 MLOAD DUP1 SWAP2 SUB SWAP1 RETURN JUMPDEST CALLVALUE DUP1 ISZERO PUSH2 0x776 JUMPI PUSH1 0x0 DUP1 REVERT JUMPDEST POP PUSH2 0x77F PUSH2 0x153B JUMP JUMPDEST PUSH1 0x40 MLOAD PUSH2 0x78C SWAP2 SWAP1 PUSH2 0x3FA7 JUMP JUMPDEST PUSH1 0x40 MLOAD DUP1 SWAP2 SUB SWAP1 RETURN JUMPDEST CALLVALUE DUP1 ISZERO PUSH2 0x7A1 JUMPI PUSH1 0x0 DUP1 REVERT JUMPDEST POP PUSH2 0x7AA PUSH2 0x1541 JUMP JUMPDEST PUSH1 0x40 MLOAD PUSH2 0x7B7 SWAP2 SWAP1 PUSH2 0x3FA7 JUMP JUMPDEST PUSH1 0x40 MLOAD DUP1 SWAP2 SUB SWAP1 RETURN JUMPDEST CALLVALUE DUP1 ISZERO PUSH2 0x7CC JUMPI PUSH1 0x0 DUP1 REVERT JUMPDEST POP PUSH2 0x7E7 PUSH1 0x4 DUP1 CALLDATASIZE SUB DUP2 ADD SWAP1 PUSH2 0x7E2 SWAP2 SWAP1 PUSH2 0x3979 JUMP JUMPDEST PUSH2 0x1547 JUMP JUMPDEST PUSH1 0x40 MLOAD PUSH2 0x7F4 SWAP2 SWAP1 PUSH2 0x3DCF JUMP JUMPDEST PUSH1 0x40 MLOAD DUP1 SWAP2 SUB SWAP1 RETURN JUMPDEST CALLVALUE DUP1 ISZERO PUSH2 0x809 JUMPI PUSH1 0x0 DUP1 REVERT JUMPDEST POP PUSH2 0x812 PUSH2 0x1606 JUMP JUMPDEST STOP JUMPDEST CALLVALUE DUP1 ISZERO PUSH2 0x820 JUMPI PUSH1 0x0 DUP1 REVERT JUMPDEST POP PUSH2 0x83B PUSH1 0x4 DUP1 CALLDATASIZE SUB DUP2 ADD SWAP1 PUSH2 0x836 SWAP2 SWAP1 PUSH2 0x3979 JUMP JUMPDEST PUSH2 0x17DA JUMP JUMPDEST PUSH1 0x40 MLOAD PUSH2 0x848 SWAP2 SWAP1 PUSH2 0x3DCF JUMP JUMPDEST PUSH1 0x40 MLOAD DUP1 SWAP2 SUB SWAP1 RETURN JUMPDEST CALLVALUE DUP1 ISZERO PUSH2 0x85D JUMPI PUSH1 0x0 DUP1 REVERT JUMPDEST POP PUSH2 0x878 PUSH1 0x4 DUP1 CALLDATASIZE SUB DUP2 ADD SWAP1 PUSH2 0x873 SWAP2 SWAP1 PUSH2 0x39E6 JUMP JUMPDEST PUSH2 0x17F1 JUMP JUMPDEST STOP JUMPDEST CALLVALUE DUP1 ISZERO PUSH2 0x886 JUMPI PUSH1 0x0 DUP1 REVERT JUMPDEST POP PUSH2 0x8A1 PUSH1 0x4 DUP1 CALLDATASIZE SUB DUP2 ADD SWAP1 PUSH2 0x89C SWAP2 SWAP1 PUSH2 0x39B9 JUMP JUMPDEST PUSH2 0x1889 JUMP JUMPDEST STOP JUMPDEST CALLVALUE DUP1 ISZERO PUSH2 0x8AF JUMPI PUSH1 0x0 DUP1 REVERT JUMPDEST POP PUSH2 0x8B8 PUSH2 0x196B JUMP JUMPDEST PUSH1 0x40 MLOAD PUSH2 0x8C5 SWAP2 SWAP1 PUSH2 0x3FA7 JUMP JUMPDEST PUSH1 0x40 MLOAD DUP1 SWAP2 SUB SWAP1 RETURN JUMPDEST CALLVALUE DUP1 ISZERO PUSH2 0x8DA JUMPI PUSH1 0x0 DUP1 REVERT JUMPDEST POP PUSH2 0x8F5 PUSH1 0x4 DUP1 CALLDATASIZE SUB DUP2 ADD SWAP1 PUSH2 0x8F0 SWAP2 SWAP1 PUSH2 0x39E6 JUMP JUMPDEST PUSH2 0x1971 JUMP JUMPDEST STOP JUMPDEST CALLVALUE DUP1 ISZERO PUSH2 0x903 JUMPI PUSH1 0x0 DUP1 REVERT JUMPDEST POP PUSH2 0x91E PUSH1 0x4 DUP1 CALLDATASIZE SUB DUP2 ADD SWAP1 PUSH2 0x919 SWAP2 SWAP1 PUSH2 0x38E6 JUMP JUMPDEST PUSH2 0x1B31 JUMP JUMPDEST PUSH1 0x40 MLOAD PUSH2 0x92B SWAP2 SWAP1 PUSH2 0x3FA7 JUMP JUMPDEST PUSH1 0x40 MLOAD DUP1 SWAP2 SUB SWAP1 RETURN JUMPDEST CALLVALUE DUP1 ISZERO PUSH2 0x940 JUMPI PUSH1 0x0 DUP1 REVERT JUMPDEST POP PUSH2 0x95B PUSH1 0x4 DUP1 CALLDATASIZE SUB DUP2 ADD SWAP1 PUSH2 0x956 SWAP2 SWAP1 PUSH2 0x384C JUMP JUMPDEST PUSH2 0x1BB8 JUMP JUMPDEST STOP JUMPDEST CALLVALUE DUP1 ISZERO PUSH2 0x969 JUMPI PUSH1 0x0 DUP1 REVERT JUMPDEST POP PUSH2 0x984 PUSH1 0x4 DUP1 CALLDATASIZE SUB DUP2 ADD SWAP1 PUSH2 0x97F SWAP2 SWAP1 PUSH2 0x39E6 JUMP JUMPDEST PUSH2 0x1CA1 JUMP JUMPDEST STOP JUMPDEST CALLVALUE DUP1 ISZERO PUSH2 0x992 JUMPI PUSH1 0x0 DUP1 REVERT JUMPDEST POP PUSH2 0x9AD PUSH1 0x4 DUP1 CALLDATASIZE SUB DUP2 ADD SWAP1 PUSH2 0x9A8 SWAP2 SWAP1 PUSH2 0x384C JUMP JUMPDEST PUSH2 0x1D52 JUMP JUMPDEST PUSH1 0x40 MLOAD PUSH2 0x9BA SWAP2 SWAP1 PUSH2 0x3D53 JUMP JUMPDEST PUSH1 0x40 MLOAD DUP1 SWAP2 SUB SWAP1 RETURN JUMPDEST CALLVALUE DUP1 ISZERO PUSH2 0x9CF JUMPI PUSH1 0x0 DUP1 REVERT JUMPDEST POP PUSH2 0x9EA PUSH1 0x4 DUP1 CALLDATASIZE SUB DUP2 ADD SWAP1 PUSH2 0x9E5 SWAP2 SWAP1 PUSH2 0x39E6 JUMP JUMPDEST PUSH2 0x1D85 JUMP JUMPDEST STOP JUMPDEST CALLVALUE DUP1 ISZERO PUSH2 0x9F8 JUMPI PUSH1 0x0 DUP1 REVERT JUMPDEST POP PUSH2 0xA13 PUSH1 0x4 DUP1 CALLDATASIZE SUB DUP2 ADD SWAP1 PUSH2 0xA0E SWAP2 SWAP1 PUSH2 0x384C JUMP JUMPDEST PUSH2 0x1E36 JUMP JUMPDEST STOP JUMPDEST CALLER PUSH20 0xFFFFFFFFFFFFFFFFFFFFFFFFFFFFFFFFFFFFFFFF AND PUSH1 0x0 DUP1 SLOAD SWAP1 PUSH2 0x100 EXP SWAP1 DIV PUSH20 0xFFFFFFFFFFFFFFFFFFFFFFFFFFFFFFFFFFFFFFFF AND PUSH20 0xFFFFFFFFFFFFFFFFFFFFFFFFFFFFFFFFFFFFFFFF AND EQ PUSH2 0xAA3 JUMPI PUSH1 0x40 MLOAD PUSH32 0x8C379A000000000000000000000000000000000000000000000000000000000 DUP2 MSTORE PUSH1 0x4 ADD PUSH2 0xA9A SWAP1 PUSH2 0x3EE7 JUMP JUMPDEST PUSH1 0x40 MLOAD DUP1 SWAP2 SUB SWAP1 REVERT JUMPDEST PUSH1 0x0 DUP2 GT ISZERO PUSH2 0xAF8 JUMPI DUP2 PUSH20 0xFFFFFFFFFFFFFFFFFFFFFFFFFFFFFFFFFFFFFFFF AND PUSH2 0x8FC DUP3 SWAP1 DUP2 ISZERO MUL SWAP1 PUSH1 0x40 MLOAD PUSH1 0x0 PUSH1 0x40 MLOAD DUP1 DUP4 SUB DUP2 DUP6 DUP9 DUP9 CALL SWAP4 POP POP POP POP ISZERO DUP1 ISZERO PUSH2 0xAF2 JUMPI RETURNDATASIZE PUSH1 0x0 DUP1 RETURNDATACOPY RETURNDATASIZE PUSH1 0x0 REVERT JUMPDEST POP PUSH2 0xB46 JUMP JUMPDEST PUSH1 0x0 SELFBALANCE SWAP1 POP DUP3 PUSH20 0xFFFFFFFFFFFFFFFFFFFFFFFFFFFFFFFFFFFFFFFF AND PUSH2 0x8FC DUP3 SWAP1 DUP2 ISZERO MUL SWAP1 PUSH1 0x40 MLOAD PUSH1 0x0 PUSH1 0x40 MLOAD DUP1 DUP4 SUB DUP2 DUP6 DUP9 DUP9 CALL SWAP4 POP POP POP POP ISZERO DUP1 ISZERO PUSH2 0xB43 JUMPI RETURNDATASIZE PUSH1 0x0 DUP1 RETURNDATACOPY RETURNDATASIZE PUSH1 0x0 REVERT JUMPDEST POP POP JUMPDEST POP POP JUMP JUMPDEST CALLER PUSH20 0xFFFFFFFFFFFFFFFFFFFFFFFFFFFFFFFFFFFFFFFF AND PUSH1 0x0 DUP1 SLOAD SWAP1 PUSH2 0x100 EXP SWAP1 DIV PUSH20 0xFFFFFFFFFFFFFFFFFFFFFFFFFFFFFFFFFFFFFFFF AND PUSH20 0xFFFFFFFFFFFFFFFFFFFFFFFFFFFFFFFFFFFFFFFF AND EQ PUSH2 0xBD8 JUMPI PUSH1 0x40 MLOAD PUSH32 0x8C379A000000000000000000000000000000000000000000000000000000000 DUP2 MSTORE PUSH1 0x4 ADD PUSH2 0xBCF SWAP1 PUSH2 0x3EE7 JUMP JUMPDEST PUSH1 0x40 MLOAD DUP1 SWAP2 SUB SWAP1 REVERT JUMPDEST DUP1 PUSH1 0xD DUP2 SWAP1 SSTORE POP POP JUMP JUMPDEST PUSH1 0x60 PUSH1 0xA DUP1 SLOAD PUSH2 0xBF1 SWAP1 PUSH2 0x43FB JUMP JUMPDEST DUP1 PUSH1 0x1F ADD PUSH1 0x20 DUP1 SWAP2 DIV MUL PUSH1 0x20 ADD PUSH1 0x40 MLOAD SWAP1 DUP2 ADD PUSH1 0x40 MSTORE DUP1 SWAP3 SWAP2 SWAP1 DUP2 DUP2 MSTORE PUSH1 0x20 ADD DUP3 DUP1 SLOAD PUSH2 0xC1D SWAP1 PUSH2 0x43FB JUMP JUMPDEST DUP1 ISZERO PUSH2 0xC6A JUMPI DUP1 PUSH1 0x1F LT PUSH2 0xC3F JUMPI PUSH2 0x100 DUP1 DUP4 SLOAD DIV MUL DUP4 MSTORE SWAP2 PUSH1 0x20 ADD SWAP2 PUSH2 0xC6A JUMP JUMPDEST DUP3 ADD SWAP2 SWAP1 PUSH1 0x0 MSTORE PUSH1 0x20 PUSH1 0x0 KECCAK256 SWAP1 JUMPDEST DUP2 SLOAD DUP2 MSTORE SWAP1 PUSH1 0x1 ADD SWAP1 PUSH1 0x20 ADD DUP1 DUP4 GT PUSH2 0xC4D JUMPI DUP3 SWAP1 SUB PUSH1 0x1F AND DUP3 ADD SWAP2 JUMPDEST POP POP POP POP POP SWAP1 POP SWAP1 JUMP JUMPDEST PUSH1 0x0 PUSH2 0xC81 CALLER DUP5 DUP5 PUSH2 0x1FF1 JUMP JUMPDEST PUSH1 0x1 SWAP1 POP SWAP3 SWAP2 POP POP JUMP JUMPDEST PUSH1 0x0 PUSH1 0x9 SLOAD SWAP1 POP SWAP1 JUMP JUMPDEST PUSH32 0x0 DUP2 JUMP JUMPDEST PUSH1 0x0 PUSH1 0x7 SLOAD SWAP1 POP SWAP1 JUMP JUMPDEST PUSH1 0x0 PUSH2 0xCD0 DUP5 DUP5 DUP5 PUSH2 0x21BC JUMP JUMPDEST PUSH2 0xD83 DUP5 CALLER PUSH2 0xD7E DUP6 PUSH1 0x40 MLOAD DUP1 PUSH1 0x60 ADD PUSH1 0x40 MSTORE DUP1 PUSH1 0x28 DUP2 MSTORE PUSH1 0x20 ADD PUSH2 0x4923 PUSH1 0x28 SWAP2 CODECOPY PUSH1 0x5 PUSH1 0x0 DUP12 PUSH20 0xFFFFFFFFFFFFFFFFFFFFFFFFFFFFFFFFFFFFFFFF AND PUSH20 0xFFFFFFFFFFFFFFFFFFFFFFFFFFFFFFFFFFFFFFFF AND DUP2 MSTORE PUSH1 0x20 ADD SWAP1 DUP2 MSTORE PUSH1 0x20 ADD PUSH1 0x0 KECCAK256 PUSH1 0x0 CALLER PUSH20 0xFFFFFFFFFFFFFFFFFFFFFFFFFFFFFFFFFFFFFFFF AND PUSH20 0xFFFFFFFFFFFFFFFFFFFFFFFFFFFFFFFFFFFFFFFF AND DUP2 MSTORE PUSH1 0x20 ADD SWAP1 DUP2 MSTORE PUSH1 0x20 ADD PUSH1 0x0 KECCAK256 SLOAD PUSH2 0x27B1 SWAP1 SWAP3 SWAP2 SWAP1 PUSH4 0xFFFFFFFF AND JUMP JUMPDEST PUSH2 0x1FF1 JUMP JUMPDEST PUSH1 0x1 SWAP1 POP SWAP4 SWAP3 POP POP POP JUMP JUMPDEST CALLER PUSH20 0xFFFFFFFFFFFFFFFFFFFFFFFFFFFFFFFFFFFFFFFF AND PUSH1 0x0 DUP1 SLOAD SWAP1 PUSH2 0x100 EXP SWAP1 DIV PUSH20 0xFFFFFFFFFFFFFFFFFFFFFFFFFFFFFFFFFFFFFFFF AND PUSH20 0xFFFFFFFFFFFFFFFFFFFFFFFFFFFFFFFFFFFFFFFF AND EQ PUSH2 0xE1C JUMPI PUSH1 0x40 MLOAD PUSH32 0x8C379A000000000000000000000000000000000000000000000000000000000 DUP2 MSTORE PUSH1 0x4 ADD PUSH2 0xE13 SWAP1 PUSH2 0x3EE7 JUMP JUMPDEST PUSH1 0x40 MLOAD DUP1 SWAP2 SUB SWAP1 REVERT JUMPDEST DUP1 PUSH1 0x17 DUP2 SWAP1 SSTORE POP POP JUMP JUMPDEST PUSH1 0x0 PUSH1 0x8 SLOAD DUP3 GT ISZERO PUSH2 0xE6D JUMPI PUSH1 0x40 MLOAD PUSH32 0x8C379A000000000000000000000000000000000000000000000000000000000 DUP2 MSTORE PUSH1 0x4 ADD PUSH2 0xE64 SWAP1 PUSH2 0x3E47 JUMP JUMPDEST PUSH1 0x40 MLOAD DUP1 SWAP2 SUB SWAP1 REVERT JUMPDEST PUSH1 0x0 PUSH2 0xE77 PUSH2 0x2815 JUMP JUMPDEST SWAP1 POP PUSH2 0xE8C DUP2 DUP5 PUSH2 0x2840 SWAP1 SWAP2 SWAP1 PUSH4 0xFFFFFFFF AND JUMP JUMPDEST SWAP2 POP POP SWAP2 SWAP1 POP JUMP JUMPDEST PUSH1 0x0 PUSH1 0xC SLOAD SWAP1 POP SWAP1 JUMP JUMPDEST CALLER PUSH20 0xFFFFFFFFFFFFFFFFFFFFFFFFFFFFFFFFFFFFFFFF AND PUSH1 0x0 DUP1 SLOAD SWAP1 PUSH2 0x100 EXP SWAP1 DIV PUSH20 0xFFFFFFFFFFFFFFFFFFFFFFFFFFFFFFFFFFFFFFFF AND PUSH20 0xFFFFFFFFFFFFFFFFFFFFFFFFFFFFFFFFFFFFFFFF AND EQ PUSH2 0xF2C JUMPI PUSH1 0x40 MLOAD PUSH32 0x8C379A000000000000000000000000000000000000000000000000000000000 DUP2 MSTORE PUSH1 0x4 ADD PUSH2 0xF23 SWAP1 PUSH2 0x3EE7 JUMP JUMPDEST PUSH1 0x40 MLOAD DUP1 SWAP2 SUB SWAP1 REVERT JUMPDEST DUP2 PUSH1 0xD DUP2 SWAP1 SSTORE POP DUP1 PUSH1 0xF DUP2 SWAP1 SSTORE POP POP POP JUMP JUMPDEST PUSH1 0x0 PUSH2 0xFD9 CALLER DUP5 PUSH2 0xFD4 DUP6 PUSH1 0x5 PUSH1 0x0 CALLER PUSH20 0xFFFFFFFFFFFFFFFFFFFFFFFFFFFFFFFFFFFFFFFF AND PUSH20 0xFFFFFFFFFFFFFFFFFFFFFFFFFFFFFFFFFFFFFFFF AND DUP2 MSTORE PUSH1 0x20 ADD SWAP1 DUP2 MSTORE PUSH1 0x20 ADD PUSH1 0x0 KECCAK256 PUSH1 0x0 DUP10 PUSH20 0xFFFFFFFFFFFFFFFFFFFFFFFFFFFFFFFFFFFFFFFF AND PUSH20 0xFFFFFFFFFFFFFFFFFFFFFFFFFFFFFFFFFFFFFFFF AND DUP2 MSTORE PUSH1 0x20 ADD SWAP1 DUP2 MSTORE PUSH1 0x20 ADD PUSH1 0x0 KECCAK256 SLOAD PUSH2 0x288A SWAP1 SWAP2 SWAP1 PUSH4 0xFFFFFFFF AND JUMP JUMPDEST PUSH2 0x1FF1 JUMP JUMPDEST PUSH1 0x1 SWAP1 POP SWAP3 SWAP2 POP POP JUMP JUMPDEST PUSH1 0xD SLOAD DUP2 JUMP JUMPDEST CALLER PUSH20 0xFFFFFFFFFFFFFFFFFFFFFFFFFFFFFFFFFFFFFFFF AND PUSH1 0x0 DUP1 SLOAD SWAP1 PUSH2 0x100 EXP SWAP1 DIV PUSH20 0xFFFFFFFFFFFFFFFFFFFFFFFFFFFFFFFFFFFFFFFF AND PUSH20 0xFFFFFFFFFFFFFFFFFFFFFFFFFFFFFFFFFFFFFFFF AND EQ PUSH2 0x1077 JUMPI PUSH1 0x40 MLOAD PUSH32 0x8C379A000000000000000000000000000000000000000000000000000000000 DUP2 MSTORE PUSH1 0x4 ADD PUSH2 0x106E SWAP1 PUSH2 0x3EE7 JUMP JUMPDEST PUSH1 0x40 MLOAD DUP1 SWAP2 SUB SWAP1 REVERT JUMPDEST PUSH1 0x1 PUSH1 0x6 PUSH1 0x0 DUP4 PUSH20 0xFFFFFFFFFFFFFFFFFFFFFFFFFFFFFFFFFFFFFFFF AND PUSH20 0xFFFFFFFFFFFFFFFFFFFFFFFFFFFFFFFFFFFFFFFF AND DUP2 MSTORE PUSH1 0x20 ADD SWAP1 DUP2 MSTORE PUSH1 0x20 ADD PUSH1 0x0 KECCAK256 PUSH1 0x0 PUSH2 0x100 EXP DUP2 SLOAD DUP2 PUSH1 0xFF MUL NOT AND SWAP1 DUP4 ISZERO ISZERO MUL OR SWAP1 SSTORE POP POP JUMP JUMPDEST PUSH32 0x0 DUP2 JUMP JUMPDEST PUSH1 0x18 PUSH1 0x1 SWAP1 SLOAD SWAP1 PUSH2 0x100 EXP SWAP1 DIV PUSH1 0xFF AND DUP2 JUMP JUMPDEST PUSH1 0x0 PUSH1 0x6 PUSH1 0x0 DUP4 PUSH20 0xFFFFFFFFFFFFFFFFFFFFFFFFFFFFFFFFFFFFFFFF AND PUSH20 0xFFFFFFFFFFFFFFFFFFFFFFFFFFFFFFFFFFFFFFFF AND DUP2 MSTORE PUSH1 0x20 ADD SWAP1 DUP2 MSTORE PUSH1 0x20 ADD PUSH1 0x0 KECCAK256 PUSH1 0x0 SWAP1 SLOAD SWAP1 PUSH2 0x100 EXP SWAP1 DIV PUSH1 0xFF AND SWAP1 POP SWAP2 SWAP1 POP JUMP JUMPDEST PUSH1 0x0 TIMESTAMP SWAP1 POP SWAP1 JUMP JUMPDEST PUSH1 0xF SLOAD DUP2 JUMP JUMPDEST PUSH1 0x0 PUSH2 0x11B7 PUSH1 0x3 PUSH1 0x0 DUP5 PUSH20 0xFFFFFFFFFFFFFFFFFFFFFFFFFFFFFFFFFFFFFFFF AND PUSH20 0xFFFFFFFFFFFFFFFFFFFFFFFFFFFFFFFFFFFFFFFF AND DUP2 MSTORE PUSH1 0x20 ADD SWAP1 DUP2 MSTORE PUSH1 0x20 ADD PUSH1 0x0 KECCAK256 SLOAD PUSH2 0xE26 JUMP JUMPDEST SWAP1 POP SWAP2 SWAP1 POP JUMP JUMPDEST CALLER PUSH20 0xFFFFFFFFFFFFFFFFFFFFFFFFFFFFFFFFFFFFFFFF AND PUSH1 0x0 DUP1 SLOAD SWAP1 PUSH2 0x100 EXP SWAP1 DIV PUSH20 0xFFFFFFFFFFFFFFFFFFFFFFFFFFFFFFFFFFFFFFFF AND PUSH20 0xFFFFFFFFFFFFFFFFFFFFFFFFFFFFFFFFFFFFFFFF AND EQ PUSH2 0x124C JUMPI PUSH1 0x40 MLOAD PUSH32 0x8C379A000000000000000000000000000000000000000000000000000000000 DUP2 MSTORE PUSH1 0x4 ADD PUSH2 0x1243 SWAP1 PUSH2 0x3EE7 JUMP JUMPDEST PUSH1 0x40 MLOAD DUP1 SWAP2 SUB SWAP1 REVERT JUMPDEST PUSH1 0x0 PUSH20 0xFFFFFFFFFFFFFFFFFFFFFFFFFFFFFFFFFFFFFFFF AND PUSH1 0x0 DUP1 SLOAD SWAP1 PUSH2 0x100 EXP SWAP1 DIV PUSH20 0xFFFFFFFFFFFFFFFFFFFFFFFFFFFFFFFFFFFFFFFF AND PUSH20 0xFFFFFFFFFFFFFFFFFFFFFFFFFFFFFFFFFFFFFFFF AND PUSH32 0x8BE0079C531659141344CD1FD0A4F28419497F9722A3DAAFE3B4186F6B6457E0 PUSH1 0x40 MLOAD PUSH1 0x40 MLOAD DUP1 SWAP2 SUB SWAP1 LOG3 PUSH1 0x0 DUP1 PUSH1 0x0 PUSH2 0x100 EXP DUP2 SLOAD DUP2 PUSH20 0xFFFFFFFFFFFFFFFFFFFFFFFFFFFFFFFFFFFFFFFF MUL NOT AND SWAP1 DUP4 PUSH20 0xFFFFFFFFFFFFFFFFFFFFFFFFFFFFFFFFFFFFFFFF AND MUL OR SWAP1 SSTORE POP JUMP JUMPDEST PUSH1 0x17 SLOAD DUP2 JUMP JUMPDEST CALLER PUSH20 0xFFFFFFFFFFFFFFFFFFFFFFFFFFFFFFFFFFFFFFFF AND PUSH1 0x0 DUP1 SLOAD SWAP1 PUSH2 0x100 EXP SWAP1 DIV PUSH20 0xFFFFFFFFFFFFFFFFFFFFFFFFFFFFFFFFFFFFFFFF AND PUSH20 0xFFFFFFFFFFFFFFFFFFFFFFFFFFFFFFFFFFFFFFFF AND EQ PUSH2 0x139E JUMPI PUSH1 0x40 MLOAD PUSH32 0x8C379A000000000000000000000000000000000000000000000000000000000 DUP2 MSTORE PUSH1 0x4 ADD PUSH2 0x1395 SWAP1 PUSH2 0x3EE7 JUMP JUMPDEST PUSH1 0x40 MLOAD DUP1 SWAP2 SUB SWAP1 REVERT JUMPDEST DUP1 PUSH1 0x13 PUSH1 0x0 PUSH2 0x100 EXP DUP2 SLOAD DUP2 PUSH20 0xFFFFFFFFFFFFFFFFFFFFFFFFFFFFFFFFFFFFFFFF MUL NOT AND SWAP1 DUP4 PUSH20 0xFFFFFFFFFFFFFFFFFFFFFFFFFFFFFFFFFFFFFFFF AND MUL OR SWAP1 SSTORE POP POP JUMP JUMPDEST PUSH1 0x19 SLOAD DUP2 JUMP JUMPDEST PUSH1 0x0 DUP1 PUSH1 0x0 SWAP1 SLOAD SWAP1 PUSH2 0x100 EXP SWAP1 DIV PUSH20 0xFFFFFFFFFFFFFFFFFFFFFFFFFFFFFFFFFFFFFFFF AND SWAP1 POP SWAP1 JUMP JUMPDEST CALLER PUSH20 0xFFFFFFFFFFFFFFFFFFFFFFFFFFFFFFFFFFFFFFFF AND PUSH1 0x0 DUP1 SLOAD SWAP1 PUSH2 0x100 EXP SWAP1 DIV PUSH20 0xFFFFFFFFFFFFFFFFFFFFFFFFFFFFFFFFFFFFFFFF AND PUSH20 0xFFFFFFFFFFFFFFFFFFFFFFFFFFFFFFFFFFFFFFFF AND EQ PUSH2 0x149F JUMPI PUSH1 0x40 MLOAD PUSH32 0x8C379A000000000000000000000000000000000000000000000000000000000 DUP2 MSTORE PUSH1 0x4 ADD PUSH2 0x1496 SWAP1 PUSH2 0x3EE7 JUMP JUMPDEST PUSH1 0x40 MLOAD DUP1 SWAP2 SUB SWAP1 REVERT JUMPDEST DUP1 PUSH1 0xF DUP2 SWAP1 SSTORE POP POP JUMP JUMPDEST PUSH1 0x60 PUSH1 0xB DUP1 SLOAD PUSH2 0x14B8 SWAP1 PUSH2 0x43FB JUMP JUMPDEST DUP1 PUSH1 0x1F ADD PUSH1 0x20 DUP1 SWAP2 DIV MUL PUSH1 0x20 ADD PUSH1 0x40 MLOAD SWAP1 DUP2 ADD PUSH1 0x40 MSTORE DUP1 SWAP3 SWAP2 SWAP1 DUP2 DUP2 MSTORE PUSH1 0x20 ADD DUP3 DUP1 SLOAD PUSH2 0x14E4 SWAP1 PUSH2 0x43FB JUMP JUMPDEST DUP1 ISZERO PUSH2 0x1531 JUMPI DUP1 PUSH1 0x1F LT PUSH2 0x1506 JUMPI PUSH2 0x100 DUP1 DUP4 SLOAD DIV MUL DUP4 MSTORE SWAP2 PUSH1 0x20 ADD SWAP2 PUSH2 0x1531 JUMP JUMPDEST DUP3 ADD SWAP2 SWAP1 PUSH1 0x0 MSTORE PUSH1 0x20 PUSH1 0x0 KECCAK256 SWAP1 JUMPDEST DUP2 SLOAD DUP2 MSTORE SWAP1 PUSH1 0x1 ADD SWAP1 PUSH1 0x20 ADD DUP1 DUP4 GT PUSH2 0x1514 JUMPI DUP3 SWAP1 SUB PUSH1 0x1F AND DUP3 ADD SWAP2 JUMPDEST POP POP POP POP POP SWAP1 POP SWAP1 JUMP JUMPDEST PUSH1 0x11 SLOAD DUP2 JUMP JUMPDEST PUSH1 0x15 SLOAD DUP2 JUMP JUMPDEST PUSH1 0x0 PUSH2 0x15FC CALLER DUP5 PUSH2 0x15F7 DUP6 PUSH1 0x40 MLOAD DUP1 PUSH1 0x60 ADD PUSH1 0x40 MSTORE DUP1 PUSH1 0x25 DUP2 MSTORE PUSH1 0x20 ADD PUSH2 0x494B PUSH1 0x25 SWAP2 CODECOPY PUSH1 0x5 PUSH1 0x0 CALLER PUSH20 0xFFFFFFFFFFFFFFFFFFFFFFFFFFFFFFFFFFFFFFFF AND PUSH20 0xFFFFFFFFFFFFFFFFFFFFFFFFFFFFFFFFFFFFFFFF AND DUP2 MSTORE PUSH1 0x20 ADD SWAP1 DUP2 MSTORE PUSH1 0x20 ADD PUSH1 0x0 KECCAK256 PUSH1 0x0 DUP11 PUSH20 0xFFFFFFFFFFFFFFFFFFFFFFFFFFFFFFFFFFFFFFFF AND PUSH20 0xFFFFFFFFFFFFFFFFFFFFFFFFFFFFFFFFFFFFFFFF AND DUP2 MSTORE PUSH1 0x20 ADD SWAP1 DUP2 MSTORE PUSH1 0x20 ADD PUSH1 0x0 KECCAK256 SLOAD PUSH2 0x27B1 SWAP1 SWAP3 SWAP2 SWAP1 PUSH4 0xFFFFFFFF AND JUMP JUMPDEST PUSH2 0x1FF1 JUMP JUMPDEST PUSH1 0x1 SWAP1 POP SWAP3 SWAP2 POP POP JUMP JUMPDEST CALLER PUSH20 0xFFFFFFFFFFFFFFFFFFFFFFFFFFFFFFFFFFFFFFFF AND PUSH1 0x1 PUSH1 0x0 SWAP1 SLOAD SWAP1 PUSH2 0x100 EXP SWAP1 DIV PUSH20 0xFFFFFFFFFFFFFFFFFFFFFFFFFFFFFFFFFFFFFFFF AND PUSH20 0xFFFFFFFFFFFFFFFFFFFFFFFFFFFFFFFFFFFFFFFF AND EQ PUSH2 0x1696 JUMPI PUSH1 0x40 MLOAD PUSH32 0x8C379A000000000000000000000000000000000000000000000000000000000 DUP2 MSTORE PUSH1 0x4 ADD PUSH2 0x168D SWAP1 PUSH2 0x3F87 JUMP JUMPDEST PUSH1 0x40 MLOAD DUP1 SWAP2 SUB SWAP1 REVERT JUMPDEST PUSH1 0x2 SLOAD TIMESTAMP GT PUSH2 0x16DA JUMPI PUSH1 0x40 MLOAD PUSH32 0x8C379A000000000000000000000000000000000000000000000000000000000 DUP2 MSTORE PUSH1 0x4 ADD PUSH2 0x16D1 SWAP1 PUSH2 0x3F67 JUMP JUMPDEST PUSH1 0x40 MLOAD DUP1 SWAP2 SUB SWAP1 REVERT JUMPDEST PUSH1 0x1 PUSH1 0x0 SWAP1 SLOAD SWAP1 PUSH2 0x100 EXP SWAP1 DIV PUSH20 0xFFFFFFFFFFFFFFFFFFFFFFFFFFFFFFFFFFFFFFFF AND PUSH20 0xFFFFFFFFFFFFFFFFFFFFFFFFFFFFFFFFFFFFFFFF AND PUSH1 0x0 DUP1 SLOAD SWAP1 PUSH2 0x100 EXP SWAP1 DIV PUSH20 0xFFFFFFFFFFFFFFFFFFFFFFFFFFFFFFFFFFFFFFFF AND PUSH20 0xFFFFFFFFFFFFFFFFFFFFFFFFFFFFFFFFFFFFFFFF AND PUSH32 0x8BE0079C531659141344CD1FD0A4F28419497F9722A3DAAFE3B4186F6B6457E0 PUSH1 0x40 MLOAD PUSH1 0x40 MLOAD DUP1 SWAP2 SUB SWAP1 LOG3 PUSH1 0x1 PUSH1 0x0 SWAP1 SLOAD SWAP1 PUSH2 0x100 EXP SWAP1 DIV PUSH20 0xFFFFFFFFFFFFFFFFFFFFFFFFFFFFFFFFFFFFFFFF AND PUSH1 0x0 DUP1 PUSH2 0x100 EXP DUP2 SLOAD DUP2 PUSH20 0xFFFFFFFFFFFFFFFFFFFFFFFFFFFFFFFFFFFFFFFF MUL NOT AND SWAP1 DUP4 PUSH20 0xFFFFFFFFFFFFFFFFFFFFFFFFFFFFFFFFFFFFFFFF AND MUL OR SWAP1 SSTORE POP JUMP JUMPDEST PUSH1 0x0 PUSH2 0x17E7 CALLER DUP5 DUP5 PUSH2 0x21BC JUMP JUMPDEST PUSH1 0x1 SWAP1 POP SWAP3 SWAP2 POP POP JUMP JUMPDEST CALLER PUSH20 0xFFFFFFFFFFFFFFFFFFFFFFFFFFFFFFFFFFFFFFFF AND PUSH1 0x0 DUP1 SLOAD SWAP1 PUSH2 0x100 EXP SWAP1 DIV PUSH20 0xFFFFFFFFFFFFFFFFFFFFFFFFFFFFFFFFFFFFFFFF AND PUSH20 0xFFFFFFFFFFFFFFFFFFFFFFFFFFFFFFFFFFFFFFFF AND EQ PUSH2 0x187F JUMPI PUSH1 0x40 MLOAD PUSH32 0x8C379A000000000000000000000000000000000000000000000000000000000 DUP2 MSTORE PUSH1 0x4 ADD PUSH2 0x1876 SWAP1 PUSH2 0x3EE7 JUMP JUMPDEST PUSH1 0x40 MLOAD DUP1 SWAP2 SUB SWAP1 REVERT JUMPDEST DUP1 PUSH1 0x11 DUP2 SWAP1 SSTORE POP POP JUMP JUMPDEST CALLER PUSH20 0xFFFFFFFFFFFFFFFFFFFFFFFFFFFFFFFFFFFFFFFF AND PUSH1 0x0 DUP1 SLOAD SWAP1 PUSH2 0x100 EXP SWAP1 DIV PUSH20 0xFFFFFFFFFFFFFFFFFFFFFFFFFFFFFFFFFFFFFFFF AND PUSH20 0xFFFFFFFFFFFFFFFFFFFFFFFFFFFFFFFFFFFFFFFF AND EQ PUSH2 0x1917 JUMPI PUSH1 0x40 MLOAD PUSH32 0x8C379A000000000000000000000000000000000000000000000000000000000 DUP2 MSTORE PUSH1 0x4 ADD PUSH2 0x190E SWAP1 PUSH2 0x3EE7 JUMP JUMPDEST PUSH1 0x40 MLOAD DUP1 SWAP2 SUB SWAP1 REVERT JUMPDEST DUP1 PUSH1 0x18 PUSH1 0x1 PUSH2 0x100 EXP DUP2 SLOAD DUP2 PUSH1 0xFF MUL NOT AND SWAP1 DUP4 ISZERO ISZERO MUL OR SWAP1 SSTORE POP PUSH32 0x53726DFCAF90650AA7EB35524F4D3220F07413C8D6CB404CC8C18BF5591BC159 DUP2 PUSH1 0x40 MLOAD PUSH2 0x1960 SWAP2 SWAP1 PUSH2 0x3DCF JUMP JUMPDEST PUSH1 0x40 MLOAD DUP1 SWAP2 SUB SWAP1 LOG1 POP JUMP JUMPDEST PUSH1 0x1A SLOAD DUP2 JUMP JUMPDEST CALLER PUSH20 0xFFFFFFFFFFFFFFFFFFFFFFFFFFFFFFFFFFFFFFFF AND PUSH1 0x0 DUP1 SLOAD SWAP1 PUSH2 0x100 EXP SWAP1 DIV PUSH20 0xFFFFFFFFFFFFFFFFFFFFFFFFFFFFFFFFFFFFFFFF AND PUSH20 0xFFFFFFFFFFFFFFFFFFFFFFFFFFFFFFFFFFFFFFFF AND EQ PUSH2 0x19FF JUMPI PUSH1 0x40 MLOAD PUSH32 0x8C379A000000000000000000000000000000000000000000000000000000000 DUP2 MSTORE PUSH1 0x4 ADD PUSH2 0x19F6 SWAP1 PUSH2 0x3EE7 JUMP JUMPDEST PUSH1 0x40 MLOAD DUP1 SWAP2 SUB SWAP1 REVERT JUMPDEST PUSH1 0x0 DUP1 SLOAD SWAP1 PUSH2 0x100 EXP SWAP1 DIV PUSH20 0xFFFFFFFFFFFFFFFFFFFFFFFFFFFFFFFFFFFFFFFF AND PUSH1 0x1 PUSH1 0x0 PUSH2 0x100 EXP DUP2 SLOAD DUP2 PUSH20 0xFFFFFFFFFFFFFFFFFFFFFFFFFFFFFFFFFFFFFFFF MUL NOT AND SWAP1 DUP4 PUSH20 0xFFFFFFFFFFFFFFFFFFFFFFFFFFFFFFFFFFFFFFFF AND MUL OR SWAP1 SSTORE POP PUSH1 0x0 DUP1 PUSH1 0x0 PUSH2 0x100 EXP DUP2 SLOAD DUP2 PUSH20 0xFFFFFFFFFFFFFFFFFFFFFFFFFFFFFFFFFFFFFFFF MUL NOT AND SWAP1 DUP4 PUSH20 0xFFFFFFFFFFFFFFFFFFFFFFFFFFFFFFFFFFFFFFFF AND MUL OR SWAP1 SSTORE POP DUP1 TIMESTAMP PUSH2 0x1AAD SWAP2 SWAP1 PUSH2 0x40A8 JUMP JUMPDEST PUSH1 0x2 DUP2 SWAP1 SSTORE POP PUSH1 0x0 PUSH20 0xFFFFFFFFFFFFFFFFFFFFFFFFFFFFFFFFFFFFFFFF AND PUSH1 0x0 DUP1 SLOAD SWAP1 PUSH2 0x100 EXP SWAP1 DIV PUSH20 0xFFFFFFFFFFFFFFFFFFFFFFFFFFFFFFFFFFFFFFFF AND PUSH20 0xFFFFFFFFFFFFFFFFFFFFFFFFFFFFFFFFFFFFFFFF AND PUSH32 0x8BE0079C531659141344CD1FD0A4F28419497F9722A3DAAFE3B4186F6B6457E0 PUSH1 0x40 MLOAD PUSH1 0x40 MLOAD DUP1 SWAP2 SUB SWAP1 LOG3 POP JUMP JUMPDEST PUSH1 0x0 PUSH1 0x5 PUSH1 0x0 DUP5 PUSH20 0xFFFFFFFFFFFFFFFFFFFFFFFFFFFFFFFFFFFFFFFF AND PUSH20 0xFFFFFFFFFFFFFFFFFFFFFFFFFFFFFFFFFFFFFFFF AND DUP2 MSTORE PUSH1 0x20 ADD SWAP1 DUP2 MSTORE PUSH1 0x20 ADD PUSH1 0x0 KECCAK256 PUSH1 0x0 DUP4 PUSH20 0xFFFFFFFFFFFFFFFFFFFFFFFFFFFFFFFFFFFFFFFF AND PUSH20 0xFFFFFFFFFFFFFFFFFFFFFFFFFFFFFFFFFFFFFFFF AND DUP2 MSTORE PUSH1 0x20 ADD SWAP1 DUP2 MSTORE PUSH1 0x20 ADD PUSH1 0x0 KECCAK256 SLOAD SWAP1 POP SWAP3 SWAP2 POP POP JUMP JUMPDEST CALLER PUSH20 0xFFFFFFFFFFFFFFFFFFFFFFFFFFFFFFFFFFFFFFFF AND PUSH1 0x0 DUP1 SLOAD SWAP1 PUSH2 0x100 EXP SWAP1 DIV PUSH20 0xFFFFFFFFFFFFFFFFFFFFFFFFFFFFFFFFFFFFFFFF AND PUSH20 0xFFFFFFFFFFFFFFFFFFFFFFFFFFFFFFFFFFFFFFFF AND EQ PUSH2 0x1C46 JUMPI PUSH1 0x40 MLOAD PUSH32 0x8C379A000000000000000000000000000000000000000000000000000000000 DUP2 MSTORE PUSH1 0x4 ADD PUSH2 0x1C3D SWAP1 PUSH2 0x3EE7 JUMP JUMPDEST PUSH1 0x40 MLOAD DUP1 SWAP2 SUB SWAP1 REVERT JUMPDEST PUSH1 0x0 PUSH1 0x6 PUSH1 0x0 DUP4 PUSH20 0xFFFFFFFFFFFFFFFFFFFFFFFFFFFFFFFFFFFFFFFF AND PUSH20 0xFFFFFFFFFFFFFFFFFFFFFFFFFFFFFFFFFFFFFFFF AND DUP2 MSTORE PUSH1 0x20 ADD SWAP1 DUP2 MSTORE PUSH1 0x20 ADD PUSH1 0x0 KECCAK256 PUSH1 0x0 PUSH2 0x100 EXP DUP2 SLOAD DUP2 PUSH1 0xFF MUL NOT AND SWAP1 DUP4 ISZERO ISZERO MUL OR SWAP1 SSTORE POP POP JUMP JUMPDEST CALLER PUSH20 0xFFFFFFFFFFFFFFFFFFFFFFFFFFFFFFFFFFFFFFFF AND PUSH1 0x0 DUP1 SLOAD SWAP1 PUSH2 0x100 EXP SWAP1 DIV PUSH20 0xFFFFFFFFFFFFFFFFFFFFFFFFFFFFFFFFFFFFFFFF AND PUSH20 0xFFFFFFFFFFFFFFFFFFFFFFFFFFFFFFFFFFFFFFFF AND EQ PUSH2 0x1D2F JUMPI PUSH1 0x40 MLOAD PUSH32 0x8C379A000000000000000000000000000000000000000000000000000000000 DUP2 MSTORE PUSH1 0x4 ADD PUSH2 0x1D26 SWAP1 PUSH2 0x3EE7 JUMP JUMPDEST PUSH1 0x40 MLOAD DUP1 SWAP2 SUB SWAP1 REVERT JUMPDEST PUSH1 0xC SLOAD PUSH1 0xA PUSH2 0x1D3E SWAP2 SWAP1 PUSH2 0x4182 JUMP JUMPDEST DUP2 PUSH2 0x1D49 SWAP2 SWAP1 PUSH2 0x42A0 JUMP JUMPDEST PUSH1 0x19 DUP2 SWAP1 SSTORE POP POP JUMP JUMPDEST PUSH1 0x1C PUSH1 0x20 MSTORE DUP1 PUSH1 0x0 MSTORE PUSH1 0x40 PUSH1 0x0 KECCAK256 PUSH1 0x0 SWAP2 POP SLOAD SWAP1 PUSH2 0x100 EXP SWAP1 DIV PUSH20 0xFFFFFFFFFFFFFFFFFFFFFFFFFFFFFFFFFFFFFFFF AND DUP2 JUMP JUMPDEST CALLER PUSH20 0xFFFFFFFFFFFFFFFFFFFFFFFFFFFFFFFFFFFFFFFF AND PUSH1 0x0 DUP1 SLOAD SWAP1 PUSH2 0x100 EXP SWAP1 DIV PUSH20 0xFFFFFFFFFFFFFFFFFFFFFFFFFFFFFFFFFFFFFFFF AND PUSH20 0xFFFFFFFFFFFFFFFFFFFFFFFFFFFFFFFFFFFFFFFF AND EQ PUSH2 0x1E13 JUMPI PUSH1 0x40 MLOAD PUSH32 0x8C379A000000000000000000000000000000000000000000000000000000000 DUP2 MSTORE PUSH1 0x4 ADD PUSH2 0x1E0A SWAP1 PUSH2 0x3EE7 JUMP JUMPDEST PUSH1 0x40 MLOAD DUP1 SWAP2 SUB SWAP1 REVERT JUMPDEST PUSH1 0xC SLOAD PUSH1 0xA PUSH2 0x1E22 SWAP2 SWAP1 PUSH2 0x4182 JUMP JUMPDEST DUP2 PUSH2 0x1E2D SWAP2 SWAP1 PUSH2 0x42A0 JUMP JUMPDEST PUSH1 0x1A DUP2 SWAP1 SSTORE POP POP JUMP JUMPDEST CALLER PUSH20 0xFFFFFFFFFFFFFFFFFFFFFFFFFFFFFFFFFFFFFFFF AND PUSH1 0x0 DUP1 SLOAD SWAP1 PUSH2 0x100 EXP SWAP1 DIV PUSH20 0xFFFFFFFFFFFFFFFFFFFFFFFFFFFFFFFFFFFFFFFF AND PUSH20 0xFFFFFFFFFFFFFFFFFFFFFFFFFFFFFFFFFFFFFFFF AND EQ PUSH2 0x1EC4 JUMPI PUSH1 0x40 MLOAD PUSH32 0x8C379A000000000000000000000000000000000000000000000000000000000 DUP2 MSTORE PUSH1 0x4 ADD PUSH2 0x1EBB SWAP1 PUSH2 0x3EE7 JUMP JUMPDEST PUSH1 0x40 MLOAD DUP1 SWAP2 SUB SWAP1 REVERT JUMPDEST PUSH1 0x0 PUSH20 0xFFFFFFFFFFFFFFFFFFFFFFFFFFFFFFFFFFFFFFFF AND DUP2 PUSH20 0xFFFFFFFFFFFFFFFFFFFFFFFFFFFFFFFFFFFFFFFF AND EQ ISZERO PUSH2 0x1F34 JUMPI PUSH1 0x40 MLOAD PUSH32 0x8C379A000000000000000000000000000000000000000000000000000000000 DUP2 MSTORE PUSH1 0x4 ADD PUSH2 0x1F2B SWAP1 PUSH2 0x3E67 JUMP JUMPDEST PUSH1 0x40 MLOAD DUP1 SWAP2 SUB SWAP1 REVERT JUMPDEST DUP1 PUSH20 0xFFFFFFFFFFFFFFFFFFFFFFFFFFFFFFFFFFFFFFFF AND PUSH1 0x0 DUP1 SLOAD SWAP1 PUSH2 0x100 EXP SWAP1 DIV PUSH20 0xFFFFFFFFFFFFFFFFFFFFFFFFFFFFFFFFFFFFFFFF AND PUSH20 0xFFFFFFFFFFFFFFFFFFFFFFFFFFFFFFFFFFFFFFFF AND PUSH32 0x8BE0079C531659141344CD1FD0A4F28419497F9722A3DAAFE3B4186F6B6457E0 PUSH1 0x40 MLOAD PUSH1 0x40 MLOAD DUP1 SWAP2 SUB SWAP1 LOG3 DUP1 PUSH1 0x0 DUP1 PUSH2 0x100 EXP DUP2 SLOAD DUP2 PUSH20 0xFFFFFFFFFFFFFFFFFFFFFFFFFFFFFFFFFFFFFFFF MUL NOT AND SWAP1 DUP4 PUSH20 0xFFFFFFFFFFFFFFFFFFFFFFFFFFFFFFFFFFFFFFFF AND MUL OR SWAP1 SSTORE POP POP JUMP JUMPDEST PUSH1 0x0 PUSH20 0xFFFFFFFFFFFFFFFFFFFFFFFFFFFFFFFFFFFFFFFF AND DUP4 PUSH20 0xFFFFFFFFFFFFFFFFFFFFFFFFFFFFFFFFFFFFFFFF AND EQ ISZERO PUSH2 0x2061 JUMPI PUSH1 0x40 MLOAD PUSH32 0x8C379A000000000000000000000000000000000000000000000000000000000 DUP2 MSTORE PUSH1 0x4 ADD PUSH2 0x2058 SWAP1 PUSH2 0x3F47 JUMP JUMPDEST PUSH1 0x40 MLOAD DUP1 SWAP2 SUB SWAP1 REVERT JUMPDEST PUSH1 0x0 PUSH20 0xFFFFFFFFFFFFFFFFFFFFFFFFFFFFFFFFFFFFFFFF AND DUP3 PUSH20 0xFFFFFFFFFFFFFFFFFFFFFFFFFFFFFFFFFFFFFFFF AND EQ ISZERO PUSH2 0x20D1 JUMPI PUSH1 0x40 MLOAD PUSH32 0x8C379A000000000000000000000000000000000000000000000000000000000 DUP2 MSTORE PUSH1 0x4 ADD PUSH2 0x20C8 SWAP1 PUSH2 0x3E87 JUMP JUMPDEST PUSH1 0x40 MLOAD DUP1 SWAP2 SUB SWAP1 REVERT JUMPDEST DUP1 PUSH1 0x5 PUSH1 0x0 DUP6 PUSH20 0xFFFFFFFFFFFFFFFFFFFFFFFFFFFFFFFFFFFFFFFF AND PUSH20 0xFFFFFFFFFFFFFFFFFFFFFFFFFFFFFFFFFFFFFFFF AND DUP2 MSTORE PUSH1 0x20 ADD SWAP1 DUP2 MSTORE PUSH1 0x20 ADD PUSH1 0x0 KECCAK256 PUSH1 0x0 DUP5 PUSH20 0xFFFFFFFFFFFFFFFFFFFFFFFFFFFFFFFFFFFFFFFF AND PUSH20 0xFFFFFFFFFFFFFFFFFFFFFFFFFFFFFFFFFFFFFFFF AND DUP2 MSTORE PUSH1 0x20 ADD SWAP1 DUP2 MSTORE PUSH1 0x20 ADD PUSH1 0x0 KECCAK256 DUP2 SWAP1 SSTORE POP DUP2 PUSH20 0xFFFFFFFFFFFFFFFFFFFFFFFFFFFFFFFFFFFFFFFF AND DUP4 PUSH20 0xFFFFFFFFFFFFFFFFFFFFFFFFFFFFFFFFFFFFFFFF AND PUSH32 0x8C5BE1E5EBEC7D5BD14F71427D1E84F3DD0314C0F7B2291E5B200AC8C7C3B925 DUP4 PUSH1 0x40 MLOAD PUSH2 0x21AF SWAP2 SWAP1 PUSH2 0x3FA7 JUMP JUMPDEST PUSH1 0x40 MLOAD DUP1 SWAP2 SUB SWAP1 LOG3 POP POP POP JUMP JUMPDEST PUSH1 0x0 PUSH20 0xFFFFFFFFFFFFFFFFFFFFFFFFFFFFFFFFFFFFFFFF AND DUP4 PUSH20 0xFFFFFFFFFFFFFFFFFFFFFFFFFFFFFFFFFFFFFFFF AND EQ ISZERO PUSH2 0x222C JUMPI PUSH1 0x40 MLOAD PUSH32 0x8C379A000000000000000000000000000000000000000000000000000000000 DUP2 MSTORE PUSH1 0x4 ADD PUSH2 0x2223 SWAP1 PUSH2 0x3F27 JUMP JUMPDEST PUSH1 0x40 MLOAD DUP1 SWAP2 SUB SWAP1 REVERT JUMPDEST PUSH1 0x0 PUSH20 0xFFFFFFFFFFFFFFFFFFFFFFFFFFFFFFFFFFFFFFFF AND DUP3 PUSH20 0xFFFFFFFFFFFFFFFFFFFFFFFFFFFFFFFFFFFFFFFF AND EQ ISZERO PUSH2 0x229C JUMPI PUSH1 0x40 MLOAD PUSH32 0x8C379A000000000000000000000000000000000000000000000000000000000 DUP2 MSTORE PUSH1 0x4 ADD PUSH2 0x2293 SWAP1 PUSH2 0x3E27 JUMP JUMPDEST PUSH1 0x40 MLOAD DUP1 SWAP2 SUB SWAP1 REVERT JUMPDEST PUSH1 0x0 DUP2 GT PUSH2 0x22DF JUMPI PUSH1 0x40 MLOAD PUSH32 0x8C379A000000000000000000000000000000000000000000000000000000000 DUP2 MSTORE PUSH1 0x4 ADD PUSH2 0x22D6 SWAP1 PUSH2 0x3F07 JUMP JUMPDEST PUSH1 0x40 MLOAD DUP1 SWAP2 SUB SWAP1 REVERT JUMPDEST PUSH2 0x22E7 PUSH2 0x13E8 JUMP JUMPDEST PUSH20 0xFFFFFFFFFFFFFFFFFFFFFFFFFFFFFFFFFFFFFFFF AND DUP4 PUSH20 0xFFFFFFFFFFFFFFFFFFFFFFFFFFFFFFFFFFFFFFFF AND EQ ISZERO DUP1 ISZERO PUSH2 0x2355 JUMPI POP PUSH2 0x2325 PUSH2 0x13E8 JUMP JUMPDEST PUSH20 0xFFFFFFFFFFFFFFFFFFFFFFFFFFFFFFFFFFFFFFFF AND DUP3 PUSH20 0xFFFFFFFFFFFFFFFFFFFFFFFFFFFFFFFFFFFFFFFF AND EQ ISZERO JUMPDEST DUP1 ISZERO PUSH2 0x23AB JUMPI POP PUSH1 0x6 PUSH1 0x0 DUP5 PUSH20 0xFFFFFFFFFFFFFFFFFFFFFFFFFFFFFFFFFFFFFFFF AND PUSH20 0xFFFFFFFFFFFFFFFFFFFFFFFFFFFFFFFFFFFFFFFF AND DUP2 MSTORE PUSH1 0x20 ADD SWAP1 DUP2 MSTORE PUSH1 0x20 ADD PUSH1 0x0 KECCAK256 PUSH1 0x0 SWAP1 SLOAD SWAP1 PUSH2 0x100 EXP SWAP1 DIV PUSH1 0xFF AND ISZERO JUMPDEST DUP1 ISZERO PUSH2 0x2401 JUMPI POP PUSH1 0x6 PUSH1 0x0 DUP4 PUSH20 0xFFFFFFFFFFFFFFFFFFFFFFFFFFFFFFFFFFFFFFFF AND PUSH20 0xFFFFFFFFFFFFFFFFFFFFFFFFFFFFFFFFFFFFFFFF AND DUP2 MSTORE PUSH1 0x20 ADD SWAP1 DUP2 MSTORE PUSH1 0x20 ADD PUSH1 0x0 KECCAK256 PUSH1 0x0 SWAP1 SLOAD SWAP1 PUSH2 0x100 EXP SWAP1 DIV PUSH1 0xFF AND ISZERO JUMPDEST ISZERO PUSH2 0x24A6 JUMPI PUSH32 0x0 PUSH20 0xFFFFFFFFFFFFFFFFFFFFFFFFFFFFFFFFFFFFFFFF AND DUP4 PUSH20 0xFFFFFFFFFFFFFFFFFFFFFFFFFFFFFFFFFFFFFFFF AND EQ ISZERO PUSH2 0x24A5 JUMPI PUSH2 0x2485 PUSH1 0x17 SLOAD PUSH2 0x2477 PUSH2 0x2710 PUSH1 0x7 SLOAD PUSH2 0x2840 SWAP1 SWAP2 SWAP1 PUSH4 0xFFFFFFFF AND JUMP JUMPDEST PUSH2 0x28E8 SWAP1 SWAP2 SWAP1 PUSH4 0xFFFFFFFF AND JUMP JUMPDEST DUP2 PUSH2 0x248F DUP5 PUSH2 0x116D JUMP JUMPDEST PUSH2 0x2499 SWAP2 SWAP1 PUSH2 0x40A8 JUMP JUMPDEST GT ISZERO PUSH2 0x24A4 JUMPI PUSH1 0x0 DUP1 REVERT JUMPDEST JUMPDEST JUMPDEST PUSH1 0x0 PUSH2 0x24B1 ADDRESS PUSH2 0x116D JUMP JUMPDEST SWAP1 POP PUSH1 0x0 PUSH1 0x1A SLOAD DUP3 LT ISZERO SWAP1 POP DUP1 DUP1 ISZERO PUSH2 0x24D7 JUMPI POP PUSH1 0x18 PUSH1 0x0 SWAP1 SLOAD SWAP1 PUSH2 0x100 EXP SWAP1 DIV PUSH1 0xFF AND ISZERO JUMPDEST DUP1 ISZERO PUSH2 0x252E JUMPI POP PUSH32 0x0 PUSH20 0xFFFFFFFFFFFFFFFFFFFFFFFFFFFFFFFFFFFFFFFF AND DUP5 PUSH20 0xFFFFFFFFFFFFFFFFFFFFFFFFFFFFFFFFFFFFFFFF AND EQ JUMPDEST DUP1 ISZERO PUSH2 0x2546 JUMPI POP PUSH1 0x18 PUSH1 0x1 SWAP1 SLOAD SWAP1 PUSH2 0x100 EXP SWAP1 DIV PUSH1 0xFF AND JUMPDEST DUP1 ISZERO PUSH2 0x2554 JUMPI POP PUSH1 0x0 PUSH1 0x1A SLOAD GT JUMPDEST ISZERO PUSH2 0x2568 JUMPI PUSH1 0x1A SLOAD SWAP2 POP PUSH2 0x2567 DUP3 PUSH2 0x2963 JUMP JUMPDEST JUMPDEST PUSH1 0x0 PUSH1 0x1 SWAP1 POP PUSH1 0x6 PUSH1 0x0 DUP8 PUSH20 0xFFFFFFFFFFFFFFFFFFFFFFFFFFFFFFFFFFFFFFFF AND PUSH20 0xFFFFFFFFFFFFFFFFFFFFFFFFFFFFFFFFFFFFFFFF AND DUP2 MSTORE PUSH1 0x20 ADD SWAP1 DUP2 MSTORE PUSH1 0x20 ADD PUSH1 0x0 KECCAK256 PUSH1 0x0 SWAP1 SLOAD SWAP1 PUSH2 0x100 EXP SWAP1 DIV PUSH1 0xFF AND DUP1 PUSH2 0x260F JUMPI POP PUSH1 0x6 PUSH1 0x0 DUP7 PUSH20 0xFFFFFFFFFFFFFFFFFFFFFFFFFFFFFFFFFFFFFFFF AND PUSH20 0xFFFFFFFFFFFFFFFFFFFFFFFFFFFFFFFFFFFFFFFF AND DUP2 MSTORE PUSH1 0x20 ADD SWAP1 DUP2 MSTORE PUSH1 0x20 ADD PUSH1 0x0 KECCAK256 PUSH1 0x0 SWAP1 SLOAD SWAP1 PUSH2 0x100 EXP SWAP1 DIV PUSH1 0xFF AND JUMPDEST ISZERO PUSH2 0x2619 JUMPI PUSH1 0x0 SWAP1 POP JUMPDEST PUSH1 0x0 DUP1 PUSH2 0x2625 DUP8 PUSH2 0x116D JUMP JUMPDEST EQ DUP1 ISZERO PUSH2 0x26BD JUMPI POP PUSH1 0x0 PUSH20 0xFFFFFFFFFFFFFFFFFFFFFFFFFFFFFFFFFFFFFFFF AND PUSH1 0x1C PUSH1 0x0 DUP9 PUSH20 0xFFFFFFFFFFFFFFFFFFFFFFFFFFFFFFFFFFFFFFFF AND PUSH20 0xFFFFFFFFFFFFFFFFFFFFFFFFFFFFFFFFFFFFFFFF AND DUP2 MSTORE PUSH1 0x20 ADD SWAP1 DUP2 MSTORE PUSH1 0x20 ADD PUSH1 0x0 KECCAK256 PUSH1 0x0 SWAP1 SLOAD SWAP1 PUSH2 0x100 EXP SWAP1 DIV PUSH20 0xFFFFFFFFFFFFFFFFFFFFFFFFFFFFFFFFFFFFFFFF AND PUSH20 0xFFFFFFFFFFFFFFFFFFFFFFFFFFFFFFFFFFFFFFFF AND EQ JUMPDEST DUP1 ISZERO PUSH2 0x2715 JUMPI POP PUSH32 0x0 PUSH20 0xFFFFFFFFFFFFFFFFFFFFFFFFFFFFFFFFFFFFFFFF AND DUP8 PUSH20 0xFFFFFFFFFFFFFFFFFFFFFFFFFFFFFFFFFFFFFFFF AND EQ ISZERO JUMPDEST SWAP1 POP PUSH2 0x2723 DUP8 DUP8 DUP8 DUP6 PUSH2 0x2A39 JUMP JUMPDEST DUP1 ISZERO PUSH2 0x27A8 JUMPI DUP7 PUSH1 0x1C PUSH1 0x0 DUP9 PUSH20 0xFFFFFFFFFFFFFFFFFFFFFFFFFFFFFFFFFFFFFFFF AND PUSH20 0xFFFFFFFFFFFFFFFFFFFFFFFFFFFFFFFFFFFFFFFF AND DUP2 MSTORE PUSH1 0x20 ADD SWAP1 DUP2 MSTORE PUSH1 0x20 ADD PUSH1 0x0 KECCAK256 PUSH1 0x0 PUSH2 0x100 EXP DUP2 SLOAD DUP2 PUSH20 0xFFFFFFFFFFFFFFFFFFFFFFFFFFFFFFFFFFFFFFFF MUL NOT AND SWAP1 DUP4 PUSH20 0xFFFFFFFFFFFFFFFFFFFFFFFFFFFFFFFFFFFFFFFF AND MUL OR SWAP1 SSTORE POP JUMPDEST POP POP POP POP POP POP POP JUMP JUMPDEST PUSH1 0x0 DUP4 DUP4 GT ISZERO DUP3 SWAP1 PUSH2 0x27F9 JUMPI PUSH1 0x40 MLOAD PUSH32 0x8C379A000000000000000000000000000000000000000000000000000000000 DUP2 MSTORE PUSH1 0x4 ADD PUSH2 0x27F0 SWAP2 SWAP1 PUSH2 0x3E05 JUMP JUMPDEST PUSH1 0x40 MLOAD DUP1 SWAP2 SUB SWAP1 REVERT JUMPDEST POP PUSH1 0x0 DUP4 DUP6 PUSH2 0x2808 SWAP2 SWAP1 PUSH2 0x42FA JUMP JUMPDEST SWAP1 POP DUP1 SWAP2 POP POP SWAP4 SWAP3 POP POP POP JUMP JUMPDEST PUSH1 0x0 DUP1 PUSH1 0x0 PUSH2 0x2822 PUSH2 0x2A66 JUMP JUMPDEST SWAP2 POP SWAP2 POP PUSH2 0x2839 DUP2 DUP4 PUSH2 0x2840 SWAP1 SWAP2 SWAP1 PUSH4 0xFFFFFFFF AND JUMP JUMPDEST SWAP3 POP POP POP SWAP1 JUMP JUMPDEST PUSH1 0x0 PUSH2 0x2882 DUP4 DUP4 PUSH1 0x40 MLOAD DUP1 PUSH1 0x40 ADD PUSH1 0x40 MSTORE DUP1 PUSH1 0x1A DUP2 MSTORE PUSH1 0x20 ADD PUSH32 0x536166654D6174683A206469766973696F6E206279207A65726F000000000000 DUP2 MSTORE POP PUSH2 0x2AB3 JUMP JUMPDEST SWAP1 POP SWAP3 SWAP2 POP POP JUMP JUMPDEST PUSH1 0x0 DUP1 DUP3 DUP5 PUSH2 0x2899 SWAP2 SWAP1 PUSH2 0x40A8 JUMP JUMPDEST SWAP1 POP DUP4 DUP2 LT ISZERO PUSH2 0x28DE JUMPI PUSH1 0x40 MLOAD PUSH32 0x8C379A000000000000000000000000000000000000000000000000000000000 DUP2 MSTORE PUSH1 0x4 ADD PUSH2 0x28D5 SWAP1 PUSH2 0x3EA7 JUMP JUMPDEST PUSH1 0x40 MLOAD DUP1 SWAP2 SUB SWAP1 REVERT JUMPDEST DUP1 SWAP2 POP POP SWAP3 SWAP2 POP POP JUMP JUMPDEST PUSH1 0x0 DUP1 DUP4 EQ ISZERO PUSH2 0x28FB JUMPI PUSH1 0x0 SWAP1 POP PUSH2 0x295D JUMP JUMPDEST PUSH1 0x0 DUP3 DUP5 PUSH2 0x2909 SWAP2 SWAP1 PUSH2 0x42A0 JUMP JUMPDEST SWAP1 POP DUP3 DUP5 DUP3 PUSH2 0x2918 SWAP2 SWAP1 PUSH2 0x40FE JUMP JUMPDEST EQ PUSH2 0x2958 JUMPI PUSH1 0x40 MLOAD PUSH32 0x8C379A000000000000000000000000000000000000000000000000000000000 DUP2 MSTORE PUSH1 0x4 ADD PUSH2 0x294F SWAP1 PUSH2 0x3EC7 JUMP JUMPDEST PUSH1 0x40 MLOAD DUP1 SWAP2 SUB SWAP1 REVERT JUMPDEST DUP1 SWAP2 POP POP JUMPDEST SWAP3 SWAP2 POP POP JUMP JUMPDEST PUSH1 0x1 PUSH1 0x18 PUSH1 0x0 PUSH2 0x100 EXP DUP2 SLOAD DUP2 PUSH1 0xFF MUL NOT AND SWAP1 DUP4 ISZERO ISZERO MUL OR SWAP1 SSTORE POP PUSH1 0x0 PUSH2 0x2994 PUSH1 0x2 DUP4 PUSH2 0x2840 SWAP1 SWAP2 SWAP1 PUSH4 0xFFFFFFFF AND JUMP JUMPDEST SWAP1 POP PUSH1 0x0 PUSH2 0x29AB DUP3 DUP5 PUSH2 0x2B16 SWAP1 SWAP2 SWAP1 PUSH4 0xFFFFFFFF AND JUMP JUMPDEST SWAP1 POP PUSH1 0x0 SELFBALANCE SWAP1 POP PUSH2 0x29BB DUP4 PUSH2 0x2B60 JUMP JUMPDEST PUSH1 0x0 PUSH2 0x29D0 DUP3 SELFBALANCE PUSH2 0x2B16 SWAP1 SWAP2 SWAP1 PUSH4 0xFFFFFFFF AND JUMP JUMPDEST SWAP1 POP PUSH2 0x29DC DUP4 DUP3 PUSH2 0x2DAC JUMP JUMPDEST PUSH32 0x17BBFB9A6069321B6DED73BD96327C9E6B7212A5CD51FF219CD61370ACAFB561 DUP5 DUP3 DUP6 PUSH1 0x40 MLOAD PUSH2 0x2A0F SWAP4 SWAP3 SWAP2 SWAP1 PUSH2 0x401C JUMP JUMPDEST PUSH1 0x40 MLOAD DUP1 SWAP2 SUB SWAP1 LOG1 POP POP POP POP PUSH1 0x0 PUSH1 0x18 PUSH1 0x0 PUSH2 0x100 EXP DUP2 SLOAD DUP2 PUSH1 0xFF MUL NOT AND SWAP1 DUP4 ISZERO ISZERO MUL OR SWAP1 SSTORE POP POP JUMP JUMPDEST DUP1 PUSH2 0x2A47 JUMPI PUSH2 0x2A46 PUSH2 0x2EB7 JUMP JUMPDEST JUMPDEST PUSH2 0x2A52 DUP5 DUP5 DUP5 PUSH2 0x2EFD JUMP JUMPDEST DUP1 PUSH2 0x2A60 JUMPI PUSH2 0x2A5F PUSH2 0x3201 JUMP JUMPDEST JUMPDEST POP POP POP POP JUMP JUMPDEST PUSH1 0x0 DUP1 PUSH1 0x0 PUSH1 0x8 SLOAD SWAP1 POP PUSH1 0x0 PUSH1 0x7 SLOAD SWAP1 POP PUSH2 0x2A8E PUSH1 0x7 SLOAD PUSH1 0x8 SLOAD PUSH2 0x2840 SWAP1 SWAP2 SWAP1 PUSH4 0xFFFFFFFF AND JUMP JUMPDEST DUP3 LT ISZERO PUSH2 0x2AA6 JUMPI PUSH1 0x8 SLOAD PUSH1 0x7 SLOAD SWAP4 POP SWAP4 POP POP POP PUSH2 0x2AAF JUMP JUMPDEST DUP2 DUP2 SWAP4 POP SWAP4 POP POP POP JUMPDEST SWAP1 SWAP2 JUMP JUMPDEST PUSH1 0x0 DUP1 DUP4 GT DUP3 SWAP1 PUSH2 0x2AFA JUMPI PUSH1 0x40 MLOAD PUSH32 0x8C379A000000000000000000000000000000000000000000000000000000000 DUP2 MSTORE PUSH1 0x4 ADD PUSH2 0x2AF1 SWAP2 SWAP1 PUSH2 0x3E05 JUMP JUMPDEST PUSH1 0x40 MLOAD DUP1 SWAP2 SUB SWAP1 REVERT JUMPDEST POP PUSH1 0x0 DUP4 DUP6 PUSH2 0x2B09 SWAP2 SWAP1 PUSH2 0x40FE JUMP JUMPDEST SWAP1 POP DUP1 SWAP2 POP POP SWAP4 SWAP3 POP POP POP JUMP JUMPDEST PUSH1 0x0 PUSH2 0x2B58 DUP4 DUP4 PUSH1 0x40 MLOAD DUP1 PUSH1 0x40 ADD PUSH1 0x40 MSTORE DUP1 PUSH1 0x1E DUP2 MSTORE PUSH1 0x20 ADD PUSH32 0x536166654D6174683A207375627472616374696F6E206F766572666C6F770000 DUP2 MSTORE POP PUSH2 0x27B1 JUMP JUMPDEST SWAP1 POP SWAP3 SWAP2 POP POP JUMP JUMPDEST PUSH1 0x0 PUSH1 0x2 PUSH8 0xFFFFFFFFFFFFFFFF DUP2 GT ISZERO PUSH2 0x2B7D JUMPI PUSH2 0x2B7C PUSH2 0x4532 JUMP JUMPDEST JUMPDEST PUSH1 0x40 MLOAD SWAP1 DUP1 DUP3 MSTORE DUP1 PUSH1 0x20 MUL PUSH1 0x20 ADD DUP3 ADD PUSH1 0x40 MSTORE DUP1 ISZERO PUSH2 0x2BAB JUMPI DUP2 PUSH1 0x20 ADD PUSH1 0x20 DUP3 MUL DUP1 CALLDATASIZE DUP4 CALLDATACOPY DUP1 DUP3 ADD SWAP2 POP POP SWAP1 POP JUMPDEST POP SWAP1 POP ADDRESS DUP2 PUSH1 0x0 DUP2 MLOAD DUP2 LT PUSH2 0x2BC3 JUMPI PUSH2 0x2BC2 PUSH2 0x4503 JUMP JUMPDEST JUMPDEST PUSH1 0x20 MUL PUSH1 0x20 ADD ADD SWAP1 PUSH20 0xFFFFFFFFFFFFFFFFFFFFFFFFFFFFFFFFFFFFFFFF AND SWAP1 DUP2 PUSH20 0xFFFFFFFFFFFFFFFFFFFFFFFFFFFFFFFFFFFFFFFF AND DUP2 MSTORE POP POP PUSH32 0x0 PUSH20 0xFFFFFFFFFFFFFFFFFFFFFFFFFFFFFFFFFFFFFFFF AND PUSH4 0xAD5C4648 PUSH1 0x40 MLOAD DUP2 PUSH4 0xFFFFFFFF AND PUSH1 0xE0 SHL DUP2 MSTORE PUSH1 0x4 ADD PUSH1 0x20 PUSH1 0x40 MLOAD DUP1 DUP4 SUB DUP2 DUP7 DUP1 EXTCODESIZE ISZERO DUP1 ISZERO PUSH2 0x2C63 JUMPI PUSH1 0x0 DUP1 REVERT JUMPDEST POP GAS STATICCALL ISZERO DUP1 ISZERO PUSH2 0x2C77 JUMPI RETURNDATASIZE PUSH1 0x0 DUP1 RETURNDATACOPY RETURNDATASIZE PUSH1 0x0 REVERT JUMPDEST POP POP POP POP PUSH1 0x40 MLOAD RETURNDATASIZE PUSH1 0x1F NOT PUSH1 0x1F DUP3 ADD AND DUP3 ADD DUP1 PUSH1 0x40 MSTORE POP DUP2 ADD SWAP1 PUSH2 0x2C9B SWAP2 SWAP1 PUSH2 0x3879 JUMP JUMPDEST DUP2 PUSH1 0x1 DUP2 MLOAD DUP2 LT PUSH2 0x2CAF JUMPI PUSH2 0x2CAE PUSH2 0x4503 JUMP JUMPDEST JUMPDEST PUSH1 0x20 MUL PUSH1 0x20 ADD ADD SWAP1 PUSH20 0xFFFFFFFFFFFFFFFFFFFFFFFFFFFFFFFFFFFFFFFF AND SWAP1 DUP2 PUSH20 0xFFFFFFFFFFFFFFFFFFFFFFFFFFFFFFFFFFFFFFFF AND DUP2 MSTORE POP POP PUSH2 0x2D14 ADDRESS PUSH32 0x0 DUP5 PUSH2 0x1FF1 JUMP JUMPDEST PUSH32 0x0 PUSH20 0xFFFFFFFFFFFFFFFFFFFFFFFFFFFFFFFFFFFFFFFF AND PUSH4 0x791AC947 DUP4 PUSH1 0x0 DUP5 ADDRESS TIMESTAMP PUSH1 0x40 MLOAD DUP7 PUSH4 0xFFFFFFFF AND PUSH1 0xE0 SHL DUP2 MSTORE PUSH1 0x4 ADD PUSH2 0x2D76 SWAP6 SWAP5 SWAP4 SWAP3 SWAP2 SWAP1 PUSH2 0x3FC2 JUMP JUMPDEST PUSH1 0x0 PUSH1 0x40 MLOAD DUP1 DUP4 SUB DUP2 PUSH1 0x0 DUP8 DUP1 EXTCODESIZE ISZERO DUP1 ISZERO PUSH2 0x2D90 JUMPI PUSH1 0x0 DUP1 REVERT JUMPDEST POP GAS CALL ISZERO DUP1 ISZERO PUSH2 0x2DA4 JUMPI RETURNDATASIZE PUSH1 0x0 DUP1 RETURNDATACOPY RETURNDATASIZE PUSH1 0x0 REVERT JUMPDEST POP POP POP POP POP POP JUMP JUMPDEST PUSH2 0x2DD7 ADDRESS PUSH32 0x0 DUP5 PUSH2 0x1FF1 JUMP JUMPDEST PUSH32 0x0 PUSH20 0xFFFFFFFFFFFFFFFFFFFFFFFFFFFFFFFFFFFFFFFF AND PUSH4 0xF305D719 DUP3 ADDRESS DUP6 PUSH1 0x0 DUP1 PUSH1 0x13 PUSH1 0x0 SWAP1 SLOAD SWAP1 PUSH2 0x100 EXP SWAP1 DIV PUSH20 0xFFFFFFFFFFFFFFFFFFFFFFFFFFFFFFFFFFFFFFFF AND TIMESTAMP PUSH1 0x40 MLOAD DUP9 PUSH4 0xFFFFFFFF AND PUSH1 0xE0 SHL DUP2 MSTORE PUSH1 0x4 ADD PUSH2 0x2E5E SWAP7 SWAP6 SWAP5 SWAP4 SWAP3 SWAP2 SWAP1 PUSH2 0x3D6E JUMP JUMPDEST PUSH1 0x60 PUSH1 0x40 MLOAD DUP1 DUP4 SUB DUP2 DUP6 DUP9 DUP1 EXTCODESIZE ISZERO DUP1 ISZERO PUSH2 0x2E77 JUMPI PUSH1 0x0 DUP1 REVERT JUMPDEST POP GAS CALL ISZERO DUP1 ISZERO PUSH2 0x2E8B JUMPI RETURNDATASIZE PUSH1 0x0 DUP1 RETURNDATACOPY RETURNDATASIZE PUSH1 0x0 REVERT JUMPDEST POP POP POP POP POP PUSH1 0x40 MLOAD RETURNDATASIZE PUSH1 0x1F NOT PUSH1 0x1F DUP3 ADD AND DUP3 ADD DUP1 PUSH1 0x40 MSTORE POP DUP2 ADD SWAP1 PUSH2 0x2EB0 SWAP2 SWAP1 PUSH2 0x3A53 JUMP JUMPDEST POP POP POP POP POP JUMP JUMPDEST PUSH1 0xD SLOAD PUSH1 0xE DUP2 SWAP1 SSTORE POP PUSH1 0xF SLOAD PUSH1 0x10 DUP2 SWAP1 SSTORE POP PUSH1 0x11 SLOAD PUSH1 0x12 DUP2 SWAP1 SSTORE POP PUSH1 0x15 SLOAD PUSH1 0x16 DUP2 SWAP1 SSTORE POP PUSH1 0x0 PUSH1 0xD DUP2 SWAP1 SSTORE POP PUSH1 0x0 PUSH1 0xF DUP2 SWAP1 SSTORE POP PUSH1 0x0 PUSH1 0x15 DUP2 SWAP1 SSTORE POP PUSH1 0x0 PUSH1 0x11 DUP2 SWAP1 SSTORE POP JUMP JUMPDEST PUSH1 0x0 PUSH2 0x2F07 PUSH2 0x2815 JUMP JUMPDEST SWAP1 POP PUSH1 0x0 PUSH2 0x2F1E DUP3 DUP5 PUSH2 0x28E8 SWAP1 SWAP2 SWAP1 PUSH4 0xFFFFFFFF AND JUMP JUMPDEST SWAP1 POP PUSH2 0x2F72 DUP2 PUSH1 0x3 PUSH1 0x0 DUP9 PUSH20 0xFFFFFFFFFFFFFFFFFFFFFFFFFFFFFFFFFFFFFFFF AND PUSH20 0xFFFFFFFFFFFFFFFFFFFFFFFFFFFFFFFFFFFFFFFF AND DUP2 MSTORE PUSH1 0x20 ADD SWAP1 DUP2 MSTORE PUSH1 0x20 ADD PUSH1 0x0 KECCAK256 SLOAD PUSH2 0x2B16 SWAP1 SWAP2 SWAP1 PUSH4 0xFFFFFFFF AND JUMP JUMPDEST PUSH1 0x3 PUSH1 0x0 DUP8 PUSH20 0xFFFFFFFFFFFFFFFFFFFFFFFFFFFFFFFFFFFFFFFF AND PUSH20 0xFFFFFFFFFFFFFFFFFFFFFFFFFFFFFFFFFFFFFFFF AND DUP2 MSTORE PUSH1 0x20 ADD SWAP1 DUP2 MSTORE PUSH1 0x20 ADD PUSH1 0x0 KECCAK256 DUP2 SWAP1 SSTORE POP PUSH2 0x2FE7 DUP6 PUSH2 0x2FE1 PUSH1 0x11 SLOAD PUSH2 0x2FD3 PUSH1 0x64 DUP9 PUSH2 0x2840 SWAP1 SWAP2 SWAP1 PUSH4 0xFFFFFFFF AND JUMP JUMPDEST PUSH2 0x28E8 SWAP1 SWAP2 SWAP1 PUSH4 0xFFFFFFFF AND JUMP JUMPDEST DUP5 PUSH2 0x3227 JUMP JUMPDEST PUSH2 0x3017 PUSH2 0x3012 PUSH1 0xF SLOAD PUSH2 0x3004 PUSH1 0x64 DUP6 PUSH2 0x2840 SWAP1 SWAP2 SWAP1 PUSH4 0xFFFFFFFF AND JUMP JUMPDEST PUSH2 0x28E8 SWAP1 SWAP2 SWAP1 PUSH4 0xFFFFFFFF AND JUMP JUMPDEST PUSH2 0x33B5 JUMP JUMPDEST PUSH2 0x3023 DUP6 DUP6 DUP6 DUP6 PUSH2 0x345C JUMP JUMPDEST PUSH2 0x307B PUSH2 0x304E PUSH1 0xD SLOAD PUSH2 0x3040 PUSH1 0x64 DUP6 PUSH2 0x2840 SWAP1 SWAP2 SWAP1 PUSH4 0xFFFFFFFF AND JUMP JUMPDEST PUSH2 0x28E8 SWAP1 SWAP2 SWAP1 PUSH4 0xFFFFFFFF AND JUMP JUMPDEST PUSH2 0x3076 PUSH1 0xD SLOAD PUSH2 0x3068 PUSH1 0x64 DUP9 PUSH2 0x2840 SWAP1 SWAP2 SWAP1 PUSH4 0xFFFFFFFF AND JUMP JUMPDEST PUSH2 0x28E8 SWAP1 SWAP2 SWAP1 PUSH4 0xFFFFFFFF AND JUMP JUMPDEST PUSH2 0x3794 JUMP JUMPDEST PUSH1 0x0 PUSH1 0x15 SLOAD PUSH1 0x11 SLOAD PUSH1 0xD SLOAD PUSH1 0xF SLOAD PUSH1 0x64 PUSH2 0x3095 SWAP2 SWAP1 PUSH2 0x42FA JUMP JUMPDEST PUSH2 0x309F SWAP2 SWAP1 PUSH2 0x42FA JUMP JUMPDEST PUSH2 0x30A9 SWAP2 SWAP1 PUSH2 0x42FA JUMP JUMPDEST PUSH2 0x30B3 SWAP2 SWAP1 PUSH2 0x42FA JUMP JUMPDEST SWAP1 POP PUSH2 0x312C PUSH2 0x30DE DUP3 PUSH2 0x30D0 PUSH1 0x64 DUP7 PUSH2 0x2840 SWAP1 SWAP2 SWAP1 PUSH4 0xFFFFFFFF AND JUMP JUMPDEST PUSH2 0x28E8 SWAP1 SWAP2 SWAP1 PUSH4 0xFFFFFFFF AND JUMP JUMPDEST PUSH1 0x3 PUSH1 0x0 DUP9 PUSH20 0xFFFFFFFFFFFFFFFFFFFFFFFFFFFFFFFFFFFFFFFF AND PUSH20 0xFFFFFFFFFFFFFFFFFFFFFFFFFFFFFFFFFFFFFFFF AND DUP2 MSTORE PUSH1 0x20 ADD SWAP1 DUP2 MSTORE PUSH1 0x20 ADD PUSH1 0x0 KECCAK256 SLOAD PUSH2 0x288A SWAP1 SWAP2 SWAP1 PUSH4 0xFFFFFFFF AND JUMP JUMPDEST PUSH1 0x3 PUSH1 0x0 DUP8 PUSH20 0xFFFFFFFFFFFFFFFFFFFFFFFFFFFFFFFFFFFFFFFF AND PUSH20 0xFFFFFFFFFFFFFFFFFFFFFFFFFFFFFFFFFFFFFFFF AND DUP2 MSTORE PUSH1 0x20 ADD SWAP1 DUP2 MSTORE PUSH1 0x20 ADD PUSH1 0x0 KECCAK256 DUP2 SWAP1 SSTORE POP DUP5 PUSH20 0xFFFFFFFFFFFFFFFFFFFFFFFFFFFFFFFFFFFFFFFF AND DUP7 PUSH20 0xFFFFFFFFFFFFFFFFFFFFFFFFFFFFFFFFFFFFFFFF AND PUSH32 0xDDF252AD1BE2C89B69C2B068FC378DAA952BA7F163C4A11628F55A4DF523B3EF PUSH2 0x31E4 DUP5 PUSH2 0x31D6 PUSH1 0x64 DUP11 PUSH2 0x2840 SWAP1 SWAP2 SWAP1 PUSH4 0xFFFFFFFF AND JUMP JUMPDEST PUSH2 0x28E8 SWAP1 SWAP2 SWAP1 PUSH4 0xFFFFFFFF AND JUMP JUMPDEST PUSH1 0x40 MLOAD PUSH2 0x31F1 SWAP2 SWAP1 PUSH2 0x3FA7 JUMP JUMPDEST PUSH1 0x40 MLOAD DUP1 SWAP2 SUB SWAP1 LOG3 POP POP POP POP POP POP JUMP JUMPDEST PUSH1 0xE SLOAD PUSH1 0xD DUP2 SWAP1 SSTORE POP PUSH1 0x10 SLOAD PUSH1 0xF DUP2 SWAP1 SSTORE POP PUSH1 0x16 SLOAD PUSH1 0x15 DUP2 SWAP1 SSTORE POP PUSH1 0x12 SLOAD PUSH1 0x11 DUP2 SWAP1 SSTORE POP JUMP JUMPDEST PUSH1 0x0 PUSH1 0x11 SLOAD EQ ISZERO PUSH2 0x3237 JUMPI PUSH2 0x33B0 JUMP JUMPDEST PUSH1 0x0 PUSH2 0x324C DUP3 DUP5 PUSH2 0x28E8 SWAP1 SWAP2 SWAP1 PUSH4 0xFFFFFFFF AND JUMP JUMPDEST SWAP1 POP PUSH2 0x32C2 DUP2 PUSH1 0x3 PUSH1 0x0 PUSH1 0x14 PUSH1 0x0 SWAP1 SLOAD SWAP1 PUSH2 0x100 EXP SWAP1 DIV PUSH20 0xFFFFFFFFFFFFFFFFFFFFFFFFFFFFFFFFFFFFFFFF AND PUSH20 0xFFFFFFFFFFFFFFFFFFFFFFFFFFFFFFFFFFFFFFFF AND PUSH20 0xFFFFFFFFFFFFFFFFFFFFFFFFFFFFFFFFFFFFFFFF AND DUP2 MSTORE PUSH1 0x20 ADD SWAP1 DUP2 MSTORE PUSH1 0x20 ADD PUSH1 0x0 KECCAK256 SLOAD PUSH2 0x288A SWAP1 SWAP2 SWAP1 PUSH4 0xFFFFFFFF AND JUMP JUMPDEST PUSH1 0x3 PUSH1 0x0 PUSH1 0x14 PUSH1 0x0 SWAP1 SLOAD SWAP1 PUSH2 0x100 EXP SWAP1 DIV PUSH20 0xFFFFFFFFFFFFFFFFFFFFFFFFFFFFFFFFFFFFFFFF AND PUSH20 0xFFFFFFFFFFFFFFFFFFFFFFFFFFFFFFFFFFFFFFFF AND PUSH20 0xFFFFFFFFFFFFFFFFFFFFFFFFFFFFFFFFFFFFFFFF AND DUP2 MSTORE PUSH1 0x20 ADD SWAP1 DUP2 MSTORE PUSH1 0x20 ADD PUSH1 0x0 KECCAK256 DUP2 SWAP1 SSTORE POP PUSH1 0x14 PUSH1 0x0 SWAP1 SLOAD SWAP1 PUSH2 0x100 EXP SWAP1 DIV PUSH20 0xFFFFFFFFFFFFFFFFFFFFFFFFFFFFFFFFFFFFFFFF AND PUSH20 0xFFFFFFFFFFFFFFFFFFFFFFFFFFFFFFFFFFFFFFFF AND DUP5 PUSH20 0xFFFFFFFFFFFFFFFFFFFFFFFFFFFFFFFFFFFFFFFF AND PUSH32 0xDDF252AD1BE2C89B69C2B068FC378DAA952BA7F163C4A11628F55A4DF523B3EF DUP6 PUSH1 0x40 MLOAD PUSH2 0x33A6 SWAP2 SWAP1 PUSH2 0x3FA7 JUMP JUMPDEST PUSH1 0x40 MLOAD DUP1 SWAP2 SUB SWAP1 LOG3 POP JUMPDEST POP POP POP JUMP JUMPDEST PUSH1 0x0 DUP2 EQ ISZERO PUSH2 0x33C3 JUMPI PUSH2 0x3459 JUMP JUMPDEST PUSH2 0x3415 DUP2 PUSH1 0x3 PUSH1 0x0 ADDRESS PUSH20 0xFFFFFFFFFFFFFFFFFFFFFFFFFFFFFFFFFFFFFFFF AND PUSH20 0xFFFFFFFFFFFFFFFFFFFFFFFFFFFFFFFFFFFFFFFF AND DUP2 MSTORE PUSH1 0x20 ADD SWAP1 DUP2 MSTORE PUSH1 0x20 ADD PUSH1 0x0 KECCAK256 SLOAD PUSH2 0x288A SWAP1 SWAP2 SWAP1 PUSH4 0xFFFFFFFF AND JUMP JUMPDEST PUSH1 0x3 PUSH1 0x0 ADDRESS PUSH20 0xFFFFFFFFFFFFFFFFFFFFFFFFFFFFFFFFFFFFFFFF AND PUSH20 0xFFFFFFFFFFFFFFFFFFFFFFFFFFFFFFFFFFFFFFFF AND DUP2 MSTORE PUSH1 0x20 ADD SWAP1 DUP2 MSTORE PUSH1 0x20 ADD PUSH1 0x0 KECCAK256 DUP2 SWAP1 SSTORE POP JUMPDEST POP JUMP JUMPDEST PUSH1 0x0 PUSH1 0x15 SLOAD EQ ISZERO PUSH2 0x346C JUMPI PUSH2 0x378E JUMP JUMPDEST PUSH1 0x0 PUSH32 0x0 PUSH20 0xFFFFFFFFFFFFFFFFFFFFFFFFFFFFFFFFFFFFFFFF AND DUP6 PUSH20 0xFFFFFFFFFFFFFFFFFFFFFFFFFFFFFFFFFFFFFFFF AND EQ ISZERO PUSH2 0x34CA JUMPI DUP4 SWAP1 POP PUSH2 0x3523 JUMP JUMPDEST PUSH32 0x0 PUSH20 0xFFFFFFFFFFFFFFFFFFFFFFFFFFFFFFFFFFFFFFFF AND DUP5 PUSH20 0xFFFFFFFFFFFFFFFFFFFFFFFFFFFFFFFFFFFFFFFF AND EQ ISZERO PUSH2 0x3522 JUMPI DUP5 SWAP1 POP JUMPDEST JUMPDEST PUSH1 0x0 PUSH20 0xFFFFFFFFFFFFFFFFFFFFFFFFFFFFFFFFFFFFFFFF AND DUP2 PUSH20 0xFFFFFFFFFFFFFFFFFFFFFFFFFFFFFFFFFFFFFFFF AND EQ ISZERO PUSH2 0x355E JUMPI POP PUSH2 0x378E JUMP JUMPDEST PUSH1 0x0 DUP1 PUSH1 0x0 SWAP1 POP JUMPDEST PUSH1 0x5 DUP2 SLT ISZERO PUSH2 0x378A JUMPI PUSH1 0x0 DUP1 DUP3 EQ ISZERO PUSH2 0x3582 JUMPI PUSH1 0x2 SWAP1 POP PUSH2 0x3587 JUMP JUMPDEST PUSH1 0x1 SWAP1 POP JUMPDEST PUSH1 0x1C PUSH1 0x0 DUP6 PUSH20 0xFFFFFFFFFFFFFFFFFFFFFFFFFFFFFFFFFFFFFFFF AND PUSH20 0xFFFFFFFFFFFFFFFFFFFFFFFFFFFFFFFFFFFFFFFF AND DUP2 MSTORE PUSH1 0x20 ADD SWAP1 DUP2 MSTORE PUSH1 0x20 ADD PUSH1 0x0 KECCAK256 PUSH1 0x0 SWAP1 SLOAD SWAP1 PUSH2 0x100 EXP SWAP1 DIV PUSH20 0xFFFFFFFFFFFFFFFFFFFFFFFFFFFFFFFFFFFFFFFF AND SWAP4 POP PUSH1 0x0 PUSH20 0xFFFFFFFFFFFFFFFFFFFFFFFFFFFFFFFFFFFFFFFF AND DUP5 PUSH20 0xFFFFFFFFFFFFFFFFFFFFFFFFFFFFFFFFFFFFFFFF AND EQ ISZERO PUSH2 0x3624 JUMPI POP PUSH2 0x378A JUMP JUMPDEST PUSH2 0x3637 DUP2 DUP5 PUSH2 0x288A SWAP1 SWAP2 SWAP1 PUSH4 0xFFFFFFFF AND JUMP JUMPDEST SWAP3 POP PUSH1 0x0 PUSH2 0x3661 DUP3 PUSH2 0x3653 PUSH1 0x64 DUP11 PUSH2 0x2840 SWAP1 SWAP2 SWAP1 PUSH4 0xFFFFFFFF AND JUMP JUMPDEST PUSH2 0x28E8 SWAP1 SWAP2 SWAP1 PUSH4 0xFFFFFFFF AND JUMP JUMPDEST SWAP1 POP PUSH1 0x0 PUSH2 0x3678 DUP8 DUP4 PUSH2 0x28E8 SWAP1 SWAP2 SWAP1 PUSH4 0xFFFFFFFF AND JUMP JUMPDEST SWAP1 POP PUSH2 0x36CC DUP2 PUSH1 0x3 PUSH1 0x0 DUP10 PUSH20 0xFFFFFFFFFFFFFFFFFFFFFFFFFFFFFFFFFFFFFFFF AND PUSH20 0xFFFFFFFFFFFFFFFFFFFFFFFFFFFFFFFFFFFFFFFF AND DUP2 MSTORE PUSH1 0x20 ADD SWAP1 DUP2 MSTORE PUSH1 0x20 ADD PUSH1 0x0 KECCAK256 SLOAD PUSH2 0x288A SWAP1 SWAP2 SWAP1 PUSH4 0xFFFFFFFF AND JUMP JUMPDEST PUSH1 0x3 PUSH1 0x0 DUP9 PUSH20 0xFFFFFFFFFFFFFFFFFFFFFFFFFFFFFFFFFFFFFFFF AND PUSH20 0xFFFFFFFFFFFFFFFFFFFFFFFFFFFFFFFFFFFFFFFF AND DUP2 MSTORE PUSH1 0x20 ADD SWAP1 DUP2 MSTORE PUSH1 0x20 ADD PUSH1 0x0 KECCAK256 DUP2 SWAP1 SSTORE POP DUP6 PUSH20 0xFFFFFFFFFFFFFFFFFFFFFFFFFFFFFFFFFFFFFFFF AND DUP11 PUSH20 0xFFFFFFFFFFFFFFFFFFFFFFFFFFFFFFFFFFFFFFFF AND PUSH32 0xDDF252AD1BE2C89B69C2B068FC378DAA952BA7F163C4A11628F55A4DF523B3EF DUP5 PUSH1 0x40 MLOAD PUSH2 0x376C SWAP2 SWAP1 PUSH2 0x3FA7 JUMP JUMPDEST PUSH1 0x40 MLOAD DUP1 SWAP2 SUB SWAP1 LOG3 POP POP POP DUP1 DUP1 PUSH2 0x3782 SWAP1 PUSH2 0x442D JUMP JUMPDEST SWAP2 POP POP PUSH2 0x3566 JUMP JUMPDEST POP POP POP JUMPDEST POP POP POP POP JUMP JUMPDEST PUSH2 0x37A9 DUP3 PUSH1 0x8 SLOAD PUSH2 0x2B16 SWAP1 SWAP2 SWAP1 PUSH4 0xFFFFFFFF AND JUMP JUMPDEST PUSH1 0x8 DUP2 SWAP1 SSTORE POP PUSH2 0x37C4 DUP2 PUSH1 0x9 SLOAD PUSH2 0x288A SWAP1 SWAP2 SWAP1 PUSH4 0xFFFFFFFF AND JUMP JUMPDEST PUSH1 0x9 DUP2 SWAP1 SSTORE POP POP POP JUMP JUMPDEST PUSH1 0x0 DUP2 CALLDATALOAD SWAP1 POP PUSH2 0x37DD DUP2 PUSH2 0x48C6 JUMP JUMPDEST SWAP3 SWAP2 POP POP JUMP JUMPDEST PUSH1 0x0 DUP2 MLOAD SWAP1 POP PUSH2 0x37F2 DUP2 PUSH2 0x48C6 JUMP JUMPDEST SWAP3 SWAP2 POP POP JUMP JUMPDEST PUSH1 0x0 DUP2 CALLDATALOAD SWAP1 POP PUSH2 0x3807 DUP2 PUSH2 0x48DD JUMP JUMPDEST SWAP3 SWAP2 POP POP JUMP JUMPDEST PUSH1 0x0 DUP2 CALLDATALOAD SWAP1 POP PUSH2 0x381C DUP2 PUSH2 0x48F4 JUMP JUMPDEST SWAP3 SWAP2 POP POP JUMP JUMPDEST PUSH1 0x0 DUP2 CALLDATALOAD SWAP1 POP PUSH2 0x3831 DUP2 PUSH2 0x490B JUMP JUMPDEST SWAP3 SWAP2 POP POP JUMP JUMPDEST PUSH1 0x0 DUP2 MLOAD SWAP1 POP PUSH2 0x3846 DUP2 PUSH2 0x490B JUMP JUMPDEST SWAP3 SWAP2 POP POP JUMP JUMPDEST PUSH1 0x0 PUSH1 0x20 DUP3 DUP5 SUB SLT ISZERO PUSH2 0x3862 JUMPI PUSH2 0x3861 PUSH2 0x4561 JUMP JUMPDEST JUMPDEST PUSH1 0x0 PUSH2 0x3870 DUP5 DUP3 DUP6 ADD PUSH2 0x37CE JUMP JUMPDEST SWAP2 POP POP SWAP3 SWAP2 POP POP JUMP JUMPDEST PUSH1 0x0 PUSH1 0x20 DUP3 DUP5 SUB SLT ISZERO PUSH2 0x388F JUMPI PUSH2 0x388E PUSH2 0x4561 JUMP JUMPDEST JUMPDEST PUSH1 0x0 PUSH2 0x389D DUP5 DUP3 DUP6 ADD PUSH2 0x37E3 JUMP JUMPDEST SWAP2 POP POP SWAP3 SWAP2 POP POP JUMP JUMPDEST PUSH1 0x0 DUP1 PUSH1 0x40 DUP4 DUP6 SUB SLT ISZERO PUSH2 0x38BD JUMPI PUSH2 0x38BC PUSH2 0x4561 JUMP JUMPDEST JUMPDEST PUSH1 0x0 PUSH2 0x38CB DUP6 DUP3 DUP7 ADD PUSH2 0x37F8 JUMP JUMPDEST SWAP3 POP POP PUSH1 0x20 PUSH2 0x38DC DUP6 DUP3 DUP7 ADD PUSH2 0x3822 JUMP JUMPDEST SWAP2 POP POP SWAP3 POP SWAP3 SWAP1 POP JUMP JUMPDEST PUSH1 0x0 DUP1 PUSH1 0x40 DUP4 DUP6 SUB SLT ISZERO PUSH2 0x38FD JUMPI PUSH2 0x38FC PUSH2 0x4561 JUMP JUMPDEST JUMPDEST PUSH1 0x0 PUSH2 0x390B DUP6 DUP3 DUP7 ADD PUSH2 0x37CE JUMP JUMPDEST SWAP3 POP POP PUSH1 0x20 PUSH2 0x391C DUP6 DUP3 DUP7 ADD PUSH2 0x37CE JUMP JUMPDEST SWAP2 POP POP SWAP3 POP SWAP3 SWAP1 POP JUMP JUMPDEST PUSH1 0x0 DUP1 PUSH1 0x0 PUSH1 0x60 DUP5 DUP7 SUB SLT ISZERO PUSH2 0x393F JUMPI PUSH2 0x393E PUSH2 0x4561 JUMP JUMPDEST JUMPDEST PUSH1 0x0 PUSH2 0x394D DUP7 DUP3 DUP8 ADD PUSH2 0x37CE JUMP JUMPDEST SWAP4 POP POP PUSH1 0x20 PUSH2 0x395E DUP7 DUP3 DUP8 ADD PUSH2 0x37CE JUMP JUMPDEST SWAP3 POP POP PUSH1 0x40 PUSH2 0x396F DUP7 DUP3 DUP8 ADD PUSH2 0x3822 JUMP JUMPDEST SWAP2 POP POP SWAP3 POP SWAP3 POP SWAP3 JUMP JUMPDEST PUSH1 0x0 DUP1 PUSH1 0x40 DUP4 DUP6 SUB SLT ISZERO PUSH2 0x3990 JUMPI PUSH2 0x398F PUSH2 0x4561 JUMP JUMPDEST JUMPDEST PUSH1 0x0 PUSH2 0x399E DUP6 DUP3 DUP7 ADD PUSH2 0x37CE JUMP JUMPDEST SWAP3 POP POP PUSH1 0x20 PUSH2 0x39AF DUP6 DUP3 DUP7 ADD PUSH2 0x3822 JUMP JUMPDEST SWAP2 POP POP SWAP3 POP SWAP3 SWAP1 POP JUMP JUMPDEST PUSH1 0x0 PUSH1 0x20 DUP3 DUP5 SUB SLT ISZERO PUSH2 0x39CF JUMPI PUSH2 0x39CE PUSH2 0x4561 JUMP JUMPDEST JUMPDEST PUSH1 0x0 PUSH2 0x39DD DUP5 DUP3 DUP6 ADD PUSH2 0x380D JUMP JUMPDEST SWAP2 POP POP SWAP3 SWAP2 POP POP JUMP JUMPDEST PUSH1 0x0 PUSH1 0x20 DUP3 DUP5 SUB SLT ISZERO PUSH2 0x39FC JUMPI PUSH2 0x39FB PUSH2 0x4561 JUMP JUMPDEST JUMPDEST PUSH1 0x0 PUSH2 0x3A0A DUP5 DUP3 DUP6 ADD PUSH2 0x3822 JUMP JUMPDEST SWAP2 POP POP SWAP3 SWAP2 POP POP JUMP JUMPDEST PUSH1 0x0 DUP1 PUSH1 0x40 DUP4 DUP6 SUB SLT ISZERO PUSH2 0x3A2A JUMPI PUSH2 0x3A29 PUSH2 0x4561 JUMP JUMPDEST JUMPDEST PUSH1 0x0 PUSH2 0x3A38 DUP6 DUP3 DUP7 ADD PUSH2 0x3822 JUMP JUMPDEST SWAP3 POP POP PUSH1 0x20 PUSH2 0x3A49 DUP6 DUP3 DUP7 ADD PUSH2 0x3822 JUMP JUMPDEST SWAP2 POP POP SWAP3 POP SWAP3 SWAP1 POP JUMP JUMPDEST PUSH1 0x0 DUP1 PUSH1 0x0 PUSH1 0x60 DUP5 DUP7 SUB SLT ISZERO PUSH2 0x3A6C JUMPI PUSH2 0x3A6B PUSH2 0x4561 JUMP JUMPDEST JUMPDEST PUSH1 0x0 PUSH2 0x3A7A DUP7 DUP3 DUP8 ADD PUSH2 0x3837 JUMP JUMPDEST SWAP4 POP POP PUSH1 0x20 PUSH2 0x3A8B DUP7 DUP3 DUP8 ADD PUSH2 0x3837 JUMP JUMPDEST SWAP3 POP POP PUSH1 0x40 PUSH2 0x3A9C DUP7 DUP3 DUP8 ADD PUSH2 0x3837 JUMP JUMPDEST SWAP2 POP POP SWAP3 POP SWAP3 POP SWAP3 JUMP JUMPDEST PUSH1 0x0 PUSH2 0x3AB2 DUP4 DUP4 PUSH2 0x3ABE JUMP JUMPDEST PUSH1 0x20 DUP4 ADD SWAP1 POP SWAP3 SWAP2 POP POP JUMP JUMPDEST PUSH2 0x3AC7 DUP2 PUSH2 0x432E JUMP JUMPDEST DUP3 MSTORE POP POP JUMP JUMPDEST PUSH2 0x3AD6 DUP2 PUSH2 0x432E JUMP JUMPDEST DUP3 MSTORE POP POP JUMP JUMPDEST PUSH1 0x0 PUSH2 0x3AE7 DUP3 PUSH2 0x4063 JUMP JUMPDEST PUSH2 0x3AF1 DUP2 DUP6 PUSH2 0x4086 JUMP JUMPDEST SWAP4 POP PUSH2 0x3AFC DUP4 PUSH2 0x4053 JUMP JUMPDEST DUP1 PUSH1 0x0 JUMPDEST DUP4 DUP2 LT ISZERO PUSH2 0x3B2D JUMPI DUP2 MLOAD PUSH2 0x3B14 DUP9 DUP3 PUSH2 0x3AA6 JUMP JUMPDEST SWAP8 POP PUSH2 0x3B1F DUP4 PUSH2 0x4079 JUMP JUMPDEST SWAP3 POP POP PUSH1 0x1 DUP2 ADD SWAP1 POP PUSH2 0x3B00 JUMP JUMPDEST POP DUP6 SWAP4 POP POP POP POP SWAP3 SWAP2 POP POP JUMP JUMPDEST PUSH2 0x3B43 DUP2 PUSH2 0x4352 JUMP JUMPDEST DUP3 MSTORE POP POP JUMP JUMPDEST PUSH2 0x3B52 DUP2 PUSH2 0x4392 JUMP JUMPDEST DUP3 MSTORE POP POP JUMP JUMPDEST PUSH2 0x3B61 DUP2 PUSH2 0x43B6 JUMP JUMPDEST DUP3 MSTORE POP POP JUMP JUMPDEST PUSH1 0x0 PUSH2 0x3B72 DUP3 PUSH2 0x406E JUMP JUMPDEST PUSH2 0x3B7C DUP2 DUP6 PUSH2 0x4097 JUMP JUMPDEST SWAP4 POP PUSH2 0x3B8C DUP2 DUP6 PUSH1 0x20 DUP7 ADD PUSH2 0x43C8 JUMP JUMPDEST PUSH2 0x3B95 DUP2 PUSH2 0x4566 JUMP JUMPDEST DUP5 ADD SWAP2 POP POP SWAP3 SWAP2 POP POP JUMP JUMPDEST PUSH1 0x0 PUSH2 0x3BAD PUSH1 0x23 DUP4 PUSH2 0x4097 JUMP JUMPDEST SWAP2 POP PUSH2 0x3BB8 DUP3 PUSH2 0x4584 JUMP JUMPDEST PUSH1 0x40 DUP3 ADD SWAP1 POP SWAP2 SWAP1 POP JUMP JUMPDEST PUSH1 0x0 PUSH2 0x3BD0 PUSH1 0x2A DUP4 PUSH2 0x4097 JUMP JUMPDEST SWAP2 POP PUSH2 0x3BDB DUP3 PUSH2 0x45D3 JUMP JUMPDEST PUSH1 0x40 DUP3 ADD SWAP1 POP SWAP2 SWAP1 POP JUMP JUMPDEST PUSH1 0x0 PUSH2 0x3BF3 PUSH1 0x26 DUP4 PUSH2 0x4097 JUMP JUMPDEST SWAP2 POP PUSH2 0x3BFE DUP3 PUSH2 0x4622 JUMP JUMPDEST PUSH1 0x40 DUP3 ADD SWAP1 POP SWAP2 SWAP1 POP JUMP JUMPDEST PUSH1 0x0 PUSH2 0x3C16 PUSH1 0x22 DUP4 PUSH2 0x4097 JUMP JUMPDEST SWAP2 POP PUSH2 0x3C21 DUP3 PUSH2 0x4671 JUMP JUMPDEST PUSH1 0x40 DUP3 ADD SWAP1 POP SWAP2 SWAP1 POP JUMP JUMPDEST PUSH1 0x0 PUSH2 0x3C39 PUSH1 0x1B DUP4 PUSH2 0x4097 JUMP JUMPDEST SWAP2 POP PUSH2 0x3C44 DUP3 PUSH2 0x46C0 JUMP JUMPDEST PUSH1 0x20 DUP3 ADD SWAP1 POP SWAP2 SWAP1 POP JUMP JUMPDEST PUSH1 0x0 PUSH2 0x3C5C PUSH1 0x21 DUP4 PUSH2 0x4097 JUMP JUMPDEST SWAP2 POP PUSH2 0x3C67 DUP3 PUSH2 0x46E9 JUMP JUMPDEST PUSH1 0x40 DUP3 ADD SWAP1 POP SWAP2 SWAP1 POP JUMP JUMPDEST PUSH1 0x0 PUSH2 0x3C7F PUSH1 0x20 DUP4 PUSH2 0x4097 JUMP JUMPDEST SWAP2 POP PUSH2 0x3C8A DUP3 PUSH2 0x4738 JUMP JUMPDEST PUSH1 0x20 DUP3 ADD SWAP1 POP SWAP2 SWAP1 POP JUMP JUMPDEST PUSH1 0x0 PUSH2 0x3CA2 PUSH1 0x29 DUP4 PUSH2 0x4097 JUMP JUMPDEST SWAP2 POP PUSH2 0x3CAD DUP3 PUSH2 0x4761 JUMP JUMPDEST PUSH1 0x40 DUP3 ADD SWAP1 POP SWAP2 SWAP1 POP JUMP JUMPDEST PUSH1 0x0 PUSH2 0x3CC5 PUSH1 0x25 DUP4 PUSH2 0x4097 JUMP JUMPDEST SWAP2 POP PUSH2 0x3CD0 DUP3 PUSH2 0x47B0 JUMP JUMPDEST PUSH1 0x40 DUP3 ADD SWAP1 POP SWAP2 SWAP1 POP JUMP JUMPDEST PUSH1 0x0 PUSH2 0x3CE8 PUSH1 0x24 DUP4 PUSH2 0x4097 JUMP JUMPDEST SWAP2 POP PUSH2 0x3CF3 DUP3 PUSH2 0x47FF JUMP JUMPDEST PUSH1 0x40 DUP3 ADD SWAP1 POP SWAP2 SWAP1 POP JUMP JUMPDEST PUSH1 0x0 PUSH2 0x3D0B PUSH1 0x1F DUP4 PUSH2 0x4097 JUMP JUMPDEST SWAP2 POP PUSH2 0x3D16 DUP3 PUSH2 0x484E JUMP JUMPDEST PUSH1 0x20 DUP3 ADD SWAP1 POP SWAP2 SWAP1 POP JUMP JUMPDEST PUSH1 0x0 PUSH2 0x3D2E PUSH1 0x23 DUP4 PUSH2 0x4097 JUMP JUMPDEST SWAP2 POP PUSH2 0x3D39 DUP3 PUSH2 0x4877 JUMP JUMPDEST PUSH1 0x40 DUP3 ADD SWAP1 POP SWAP2 SWAP1 POP JUMP JUMPDEST PUSH2 0x3D4D DUP2 PUSH2 0x4388 JUMP JUMPDEST DUP3 MSTORE POP POP JUMP JUMPDEST PUSH1 0x0 PUSH1 0x20 DUP3 ADD SWAP1 POP PUSH2 0x3D68 PUSH1 0x0 DUP4 ADD DUP5 PUSH2 0x3ACD JUMP JUMPDEST SWAP3 SWAP2 POP POP JUMP JUMPDEST PUSH1 0x0 PUSH1 0xC0 DUP3 ADD SWAP1 POP PUSH2 0x3D83 PUSH1 0x0 DUP4 ADD DUP10 PUSH2 0x3ACD JUMP JUMPDEST PUSH2 0x3D90 PUSH1 0x20 DUP4 ADD DUP9 PUSH2 0x3D44 JUMP JUMPDEST PUSH2 0x3D9D PUSH1 0x40 DUP4 ADD DUP8 PUSH2 0x3B58 JUMP JUMPDEST PUSH2 0x3DAA PUSH1 0x60 DUP4 ADD DUP7 PUSH2 0x3B58 JUMP JUMPDEST PUSH2 0x3DB7 PUSH1 0x80 DUP4 ADD DUP6 PUSH2 0x3ACD JUMP JUMPDEST PUSH2 0x3DC4 PUSH1 0xA0 DUP4 ADD DUP5 PUSH2 0x3D44 JUMP JUMPDEST SWAP8 SWAP7 POP POP POP POP POP POP POP JUMP JUMPDEST PUSH1 0x0 PUSH1 0x20 DUP3 ADD SWAP1 POP PUSH2 0x3DE4 PUSH1 0x0 DUP4 ADD DUP5 PUSH2 0x3B3A JUMP JUMPDEST SWAP3 SWAP2 POP POP JUMP JUMPDEST PUSH1 0x0 PUSH1 0x20 DUP3 ADD SWAP1 POP PUSH2 0x3DFF PUSH1 0x0 DUP4 ADD DUP5 PUSH2 0x3B49 JUMP JUMPDEST SWAP3 SWAP2 POP POP JUMP JUMPDEST PUSH1 0x0 PUSH1 0x20 DUP3 ADD SWAP1 POP DUP2 DUP2 SUB PUSH1 0x0 DUP4 ADD MSTORE PUSH2 0x3E1F DUP2 DUP5 PUSH2 0x3B67 JUMP JUMPDEST SWAP1 POP SWAP3 SWAP2 POP POP JUMP JUMPDEST PUSH1 0x0 PUSH1 0x20 DUP3 ADD SWAP1 POP DUP2 DUP2 SUB PUSH1 0x0 DUP4 ADD MSTORE PUSH2 0x3E40 DUP2 PUSH2 0x3BA0 JUMP JUMPDEST SWAP1 POP SWAP2 SWAP1 POP JUMP JUMPDEST PUSH1 0x0 PUSH1 0x20 DUP3 ADD SWAP1 POP DUP2 DUP2 SUB PUSH1 0x0 DUP4 ADD MSTORE PUSH2 0x3E60 DUP2 PUSH2 0x3BC3 JUMP JUMPDEST SWAP1 POP SWAP2 SWAP1 POP JUMP JUMPDEST PUSH1 0x0 PUSH1 0x20 DUP3 ADD SWAP1 POP DUP2 DUP2 SUB PUSH1 0x0 DUP4 ADD MSTORE PUSH2 0x3E80 DUP2 PUSH2 0x3BE6 JUMP JUMPDEST SWAP1 POP SWAP2 SWAP1 POP JUMP JUMPDEST PUSH1 0x0 PUSH1 0x20 DUP3 ADD SWAP1 POP DUP2 DUP2 SUB PUSH1 0x0 DUP4 ADD MSTORE PUSH2 0x3EA0 DUP2 PUSH2 0x3C09 JUMP JUMPDEST SWAP1 POP SWAP2 SWAP1 POP JUMP JUMPDEST PUSH1 0x0 PUSH1 0x20 DUP3 ADD SWAP1 POP DUP2 DUP2 SUB PUSH1 0x0 DUP4 ADD MSTORE PUSH2 0x3EC0 DUP2 PUSH2 0x3C2C JUMP JUMPDEST SWAP1 POP SWAP2 SWAP1 POP JUMP JUMPDEST PUSH1 0x0 PUSH1 0x20 DUP3 ADD SWAP1 POP DUP2 DUP2 SUB PUSH1 0x0 DUP4 ADD MSTORE PUSH2 0x3EE0 DUP2 PUSH2 0x3C4F JUMP JUMPDEST SWAP1 POP SWAP2 SWAP1 POP JUMP JUMPDEST PUSH1 0x0 PUSH1 0x20 DUP3 ADD SWAP1 POP DUP2 DUP2 SUB PUSH1 0x0 DUP4 ADD MSTORE PUSH2 0x3F00 DUP2 PUSH2 0x3C72 JUMP JUMPDEST SWAP1 POP SWAP2 SWAP1 POP JUMP JUMPDEST PUSH1 0x0 PUSH1 0x20 DUP3 ADD SWAP1 POP DUP2 DUP2 SUB PUSH1 0x0 DUP4 ADD MSTORE PUSH2 0x3F20 DUP2 PUSH2 0x3C95 JUMP JUMPDEST SWAP1 POP SWAP2 SWAP1 POP JUMP JUMPDEST PUSH1 0x0 PUSH1 0x20 DUP3 ADD SWAP1 POP DUP2 DUP2 SUB PUSH1 0x0 DUP4 ADD MSTORE PUSH2 0x3F40 DUP2 PUSH2 0x3CB8 JUMP JUMPDEST SWAP1 POP SWAP2 SWAP1 POP JUMP JUMPDEST PUSH1 0x0 PUSH1 0x20 DUP3 ADD SWAP1 POP DUP2 DUP2 SUB PUSH1 0x0 DUP4 ADD MSTORE PUSH2 0x3F60 DUP2 PUSH2 0x3CDB JUMP JUMPDEST SWAP1 POP SWAP2 SWAP1 POP JUMP JUMPDEST PUSH1 0x0 PUSH1 0x20 DUP3 ADD SWAP1 POP DUP2 DUP2 SUB PUSH1 0x0 DUP4 ADD MSTORE PUSH2 0x3F80 DUP2 PUSH2 0x3CFE JUMP JUMPDEST SWAP1 POP SWAP2 SWAP1 POP JUMP JUMPDEST PUSH1 0x0 PUSH1 0x20 DUP3 ADD SWAP1 POP DUP2 DUP2 SUB PUSH1 0x0 DUP4 ADD MSTORE PUSH2 0x3FA0 DUP2 PUSH2 0x3D21 JUMP JUMPDEST SWAP1 POP SWAP2 SWAP1 POP JUMP JUMPDEST PUSH1 0x0 PUSH1 0x20 DUP3 ADD SWAP1 POP PUSH2 0x3FBC PUSH1 0x0 DUP4 ADD DUP5 PUSH2 0x3D44 JUMP JUMPDEST SWAP3 SWAP2 POP POP JUMP JUMPDEST PUSH1 0x0 PUSH1 0xA0 DUP3 ADD SWAP1 POP PUSH2 0x3FD7 PUSH1 0x0 DUP4 ADD DUP9 PUSH2 0x3D44 JUMP JUMPDEST PUSH2 0x3FE4 PUSH1 0x20 DUP4 ADD DUP8 PUSH2 0x3B58 JUMP JUMPDEST DUP2 DUP2 SUB PUSH1 0x40 DUP4 ADD MSTORE PUSH2 0x3FF6 DUP2 DUP7 PUSH2 0x3ADC JUMP JUMPDEST SWAP1 POP PUSH2 0x4005 PUSH1 0x60 DUP4 ADD DUP6 PUSH2 0x3ACD JUMP JUMPDEST PUSH2 0x4012 PUSH1 0x80 DUP4 ADD DUP5 PUSH2 0x3D44 JUMP JUMPDEST SWAP7 SWAP6 POP POP POP POP POP POP JUMP JUMPDEST PUSH1 0x0 PUSH1 0x60 DUP3 ADD SWAP1 POP PUSH2 0x4031 PUSH1 0x0 DUP4 ADD DUP7 PUSH2 0x3D44 JUMP JUMPDEST PUSH2 0x403E PUSH1 0x20 DUP4 ADD DUP6 PUSH2 0x3D44 JUMP JUMPDEST PUSH2 0x404B PUSH1 0x40 DUP4 ADD DUP5 PUSH2 0x3D44 JUMP JUMPDEST SWAP5 SWAP4 POP POP POP POP JUMP JUMPDEST PUSH1 0x0 DUP2 SWAP1 POP PUSH1 0x20 DUP3 ADD SWAP1 POP SWAP2 SWAP1 POP JUMP JUMPDEST PUSH1 0x0 DUP2 MLOAD SWAP1 POP SWAP2 SWAP1 POP JUMP JUMPDEST PUSH1 0x0 DUP2 MLOAD SWAP1 POP SWAP2 SWAP1 POP JUMP JUMPDEST PUSH1 0x0 PUSH1 0x20 DUP3 ADD SWAP1 POP SWAP2 SWAP1 POP JUMP JUMPDEST PUSH1 0x0 DUP3 DUP3 MSTORE PUSH1 0x20 DUP3 ADD SWAP1 POP SWAP3 SWAP2 POP POP JUMP JUMPDEST PUSH1 0x0 DUP3 DUP3 MSTORE PUSH1 0x20 DUP3 ADD SWAP1 POP SWAP3 SWAP2 POP POP JUMP JUMPDEST PUSH1 0x0 PUSH2 0x40B3 DUP3 PUSH2 0x4388 JUMP JUMPDEST SWAP2 POP PUSH2 0x40BE DUP4 PUSH2 0x4388 JUMP JUMPDEST SWAP3 POP DUP3 PUSH32 0xFFFFFFFFFFFFFFFFFFFFFFFFFFFFFFFFFFFFFFFFFFFFFFFFFFFFFFFFFFFFFFFF SUB DUP3 GT ISZERO PUSH2 0x40F3 JUMPI PUSH2 0x40F2 PUSH2 0x4476 JUMP JUMPDEST JUMPDEST DUP3 DUP3 ADD SWAP1 POP SWAP3 SWAP2 POP POP JUMP JUMPDEST PUSH1 0x0 PUSH2 0x4109 DUP3 PUSH2 0x4388 JUMP JUMPDEST SWAP2 POP PUSH2 0x4114 DUP4 PUSH2 0x4388 JUMP JUMPDEST SWAP3 POP DUP3 PUSH2 0x4124 JUMPI PUSH2 0x4123 PUSH2 0x44A5 JUMP JUMPDEST JUMPDEST DUP3 DUP3 DIV SWAP1 POP SWAP3 SWAP2 POP POP JUMP JUMPDEST PUSH1 0x0 DUP1 DUP3 SWAP2 POP DUP4 SWAP1 POP JUMPDEST PUSH1 0x1 DUP6 GT ISZERO PUSH2 0x4179 JUMPI DUP1 DUP7 DIV DUP2 GT ISZERO PUSH2 0x4155 JUMPI PUSH2 0x4154 PUSH2 0x4476 JUMP JUMPDEST JUMPDEST PUSH1 0x1 DUP6 AND ISZERO PUSH2 0x4164 JUMPI DUP1 DUP3 MUL SWAP2 POP JUMPDEST DUP1 DUP2 MUL SWAP1 POP PUSH2 0x4172 DUP6 PUSH2 0x4577 JUMP JUMPDEST SWAP5 POP PUSH2 0x4139 JUMP JUMPDEST SWAP5 POP SWAP5 SWAP3 POP POP POP JUMP JUMPDEST PUSH1 0x0 PUSH2 0x418D DUP3 PUSH2 0x4388 JUMP JUMPDEST SWAP2 POP PUSH2 0x4198 DUP4 PUSH2 0x4388 JUMP JUMPDEST SWAP3 POP PUSH2 0x41C5 PUSH32 0xFFFFFFFFFFFFFFFFFFFFFFFFFFFFFFFFFFFFFFFFFFFFFFFFFFFFFFFFFFFFFFFF DUP5 DUP5 PUSH2 0x41CD JUMP JUMPDEST SWAP1 POP SWAP3 SWAP2 POP POP JUMP JUMPDEST PUSH1 0x0 DUP3 PUSH2 0x41DD JUMPI PUSH1 0x1 SWAP1 POP PUSH2 0x4299 JUMP JUMPDEST DUP2 PUSH2 0x41EB JUMPI PUSH1 0x0 SWAP1 POP PUSH2 0x4299 JUMP JUMPDEST DUP2 PUSH1 0x1 DUP2 EQ PUSH2 0x4201 JUMPI PUSH1 0x2 DUP2 EQ PUSH2 0x420B JUMPI PUSH2 0x423A JUMP JUMPDEST PUSH1 0x1 SWAP2 POP POP PUSH2 0x4299 JUMP JUMPDEST PUSH1 0xFF DUP5 GT ISZERO PUSH2 0x421D JUMPI PUSH2 0x421C PUSH2 0x4476 JUMP JUMPDEST JUMPDEST DUP4 PUSH1 0x2 EXP SWAP2 POP DUP5 DUP3 GT ISZERO PUSH2 0x4234 JUMPI PUSH2 0x4233 PUSH2 0x4476 JUMP JUMPDEST JUMPDEST POP PUSH2 0x4299 JUMP JUMPDEST POP PUSH1 0x20 DUP4 LT PUSH2 0x133 DUP4 LT AND PUSH1 0x4E DUP5 LT PUSH1 0xB DUP5 LT AND OR ISZERO PUSH2 0x426F JUMPI DUP3 DUP3 EXP SWAP1 POP DUP4 DUP2 GT ISZERO PUSH2 0x426A JUMPI PUSH2 0x4269 PUSH2 0x4476 JUMP JUMPDEST JUMPDEST PUSH2 0x4299 JUMP JUMPDEST PUSH2 0x427C DUP5 DUP5 DUP5 PUSH1 0x1 PUSH2 0x412F JUMP JUMPDEST SWAP3 POP SWAP1 POP DUP2 DUP5 DIV DUP2 GT ISZERO PUSH2 0x4293 JUMPI PUSH2 0x4292 PUSH2 0x4476 JUMP JUMPDEST JUMPDEST DUP2 DUP2 MUL SWAP1 POP JUMPDEST SWAP4 SWAP3 POP POP POP JUMP JUMPDEST PUSH1 0x0 PUSH2 0x42AB DUP3 PUSH2 0x4388 JUMP JUMPDEST SWAP2 POP PUSH2 0x42B6 DUP4 PUSH2 0x4388 JUMP JUMPDEST SWAP3 POP DUP2 PUSH32 0xFFFFFFFFFFFFFFFFFFFFFFFFFFFFFFFFFFFFFFFFFFFFFFFFFFFFFFFFFFFFFFFF DIV DUP4 GT DUP3 ISZERO ISZERO AND ISZERO PUSH2 0x42EF JUMPI PUSH2 0x42EE PUSH2 0x4476 JUMP JUMPDEST JUMPDEST DUP3 DUP3 MUL SWAP1 POP SWAP3 SWAP2 POP POP JUMP JUMPDEST PUSH1 0x0 PUSH2 0x4305 DUP3 PUSH2 0x4388 JUMP JUMPDEST SWAP2 POP PUSH2 0x4310 DUP4 PUSH2 0x4388 JUMP JUMPDEST SWAP3 POP DUP3 DUP3 LT ISZERO PUSH2 0x4323 JUMPI PUSH2 0x4322 PUSH2 0x4476 JUMP JUMPDEST JUMPDEST DUP3 DUP3 SUB SWAP1 POP SWAP3 SWAP2 POP POP JUMP JUMPDEST PUSH1 0x0 PUSH2 0x4339 DUP3 PUSH2 0x4368 JUMP JUMPDEST SWAP1 POP SWAP2 SWAP1 POP JUMP JUMPDEST PUSH1 0x0 PUSH2 0x434B DUP3 PUSH2 0x4368 JUMP JUMPDEST SWAP1 POP SWAP2 SWAP1 POP JUMP JUMPDEST PUSH1 0x0 DUP2 ISZERO ISZERO SWAP1 POP SWAP2 SWAP1 POP JUMP JUMPDEST PUSH1 0x0 DUP2 SWAP1 POP SWAP2 SWAP1 POP JUMP JUMPDEST PUSH1 0x0 PUSH20 0xFFFFFFFFFFFFFFFFFFFFFFFFFFFFFFFFFFFFFFFF DUP3 AND SWAP1 POP SWAP2 SWAP1 POP JUMP JUMPDEST PUSH1 0x0 DUP2 SWAP1 POP SWAP2 SWAP1 POP JUMP JUMPDEST PUSH1 0x0 PUSH2 0x439D DUP3 PUSH2 0x43A4 JUMP JUMPDEST SWAP1 POP SWAP2 SWAP1 POP JUMP JUMPDEST PUSH1 0x0 PUSH2 0x43AF DUP3 PUSH2 0x4368 JUMP JUMPDEST SWAP1 POP SWAP2 SWAP1 POP JUMP JUMPDEST PUSH1 0x0 PUSH2 0x43C1 DUP3 PUSH2 0x4388 JUMP JUMPDEST SWAP1 POP SWAP2 SWAP1 POP JUMP JUMPDEST PUSH1 0x0 JUMPDEST DUP4 DUP2 LT ISZERO PUSH2 0x43E6 JUMPI DUP1 DUP3 ADD MLOAD DUP2 DUP5 ADD MSTORE PUSH1 0x20 DUP2 ADD SWAP1 POP PUSH2 0x43CB JUMP JUMPDEST DUP4 DUP2 GT ISZERO PUSH2 0x43F5 JUMPI PUSH1 0x0 DUP5 DUP5 ADD MSTORE JUMPDEST POP POP POP POP JUMP JUMPDEST PUSH1 0x0 PUSH1 0x2 DUP3 DIV SWAP1 POP PUSH1 0x1 DUP3 AND DUP1 PUSH2 0x4413 JUMPI PUSH1 0x7F DUP3 AND SWAP2 POP JUMPDEST PUSH1 0x20 DUP3 LT DUP2 EQ ISZERO PUSH2 0x4427 JUMPI PUSH2 0x4426 PUSH2 0x44D4 JUMP JUMPDEST JUMPDEST POP SWAP2 SWAP1 POP JUMP JUMPDEST PUSH1 0x0 PUSH2 0x4438 DUP3 PUSH2 0x435E JUMP JUMPDEST SWAP2 POP PUSH32 0x7FFFFFFFFFFFFFFFFFFFFFFFFFFFFFFFFFFFFFFFFFFFFFFFFFFFFFFFFFFFFFFF DUP3 EQ ISZERO PUSH2 0x446B JUMPI PUSH2 0x446A PUSH2 0x4476 JUMP JUMPDEST JUMPDEST PUSH1 0x1 DUP3 ADD SWAP1 POP SWAP2 SWAP1 POP JUMP JUMPDEST PUSH32 0x4E487B7100000000000000000000000000000000000000000000000000000000 PUSH1 0x0 MSTORE PUSH1 0x11 PUSH1 0x4 MSTORE PUSH1 0x24 PUSH1 0x0 REVERT JUMPDEST PUSH32 0x4E487B7100000000000000000000000000000000000000000000000000000000 PUSH1 0x0 MSTORE PUSH1 0x12 PUSH1 0x4 MSTORE PUSH1 0x24 PUSH1 0x0 REVERT JUMPDEST PUSH32 0x4E487B7100000000000000000000000000000000000000000000000000000000 PUSH1 0x0 MSTORE PUSH1 0x22 PUSH1 0x4 MSTORE PUSH1 0x24 PUSH1 0x0 REVERT JUMPDEST PUSH32 0x4E487B7100000000000000000000000000000000000000000000000000000000 PUSH1 0x0 MSTORE PUSH1 0x32 PUSH1 0x4 MSTORE PUSH1 0x24 PUSH1 0x0 REVERT JUMPDEST PUSH32 0x4E487B7100000000000000000000000000000000000000000000000000000000 PUSH1 0x0 MSTORE PUSH1 0x41 PUSH1 0x4 MSTORE PUSH1 0x24 PUSH1 0x0 REVERT JUMPDEST PUSH1 0x0 DUP1 REVERT JUMPDEST PUSH1 0x0 PUSH1 0x1F NOT PUSH1 0x1F DUP4 ADD AND SWAP1 POP SWAP2 SWAP1 POP JUMP JUMPDEST PUSH1 0x0 DUP2 PUSH1 0x1 SHR SWAP1 POP SWAP2 SWAP1 POP JUMP JUMPDEST PUSH32 0x45524332303A207472616E7366657220746F20746865207A65726F2061646472 PUSH1 0x0 DUP3 ADD MSTORE PUSH32 0x6573730000000000000000000000000000000000000000000000000000000000 PUSH1 0x20 DUP3 ADD MSTORE POP JUMP JUMPDEST PUSH32 0x416D6F756E74206D757374206265206C657373207468616E20746F74616C2072 PUSH1 0x0 DUP3 ADD MSTORE PUSH32 0x65666C656374696F6E7300000000000000000000000000000000000000000000 PUSH1 0x20 DUP3 ADD MSTORE POP JUMP JUMPDEST PUSH32 0x4F776E61626C653A206E6577206F776E657220697320746865207A65726F2061 PUSH1 0x0 DUP3 ADD MSTORE PUSH32 0x6464726573730000000000000000000000000000000000000000000000000000 PUSH1 0x20 DUP3 ADD MSTORE POP JUMP JUMPDEST PUSH32 0x45524332303A20617070726F766520746F20746865207A65726F206164647265 PUSH1 0x0 DUP3 ADD MSTORE PUSH32 0x7373000000000000000000000000000000000000000000000000000000000000 PUSH1 0x20 DUP3 ADD MSTORE POP JUMP JUMPDEST PUSH32 0x536166654D6174683A206164646974696F6E206F766572666C6F770000000000 PUSH1 0x0 DUP3 ADD MSTORE POP JUMP JUMPDEST PUSH32 0x536166654D6174683A206D756C7469706C69636174696F6E206F766572666C6F PUSH1 0x0 DUP3 ADD MSTORE PUSH32 0x7700000000000000000000000000000000000000000000000000000000000000 PUSH1 0x20 DUP3 ADD MSTORE POP JUMP JUMPDEST PUSH32 0x4F776E61626C653A2063616C6C6572206973206E6F7420746865206F776E6572 PUSH1 0x0 DUP3 ADD MSTORE POP JUMP JUMPDEST PUSH32 0x5472616E7366657220616D6F756E74206D757374206265206772656174657220 PUSH1 0x0 DUP3 ADD MSTORE PUSH32 0x7468616E207A65726F0000000000000000000000000000000000000000000000 PUSH1 0x20 DUP3 ADD MSTORE POP JUMP JUMPDEST PUSH32 0x45524332303A207472616E736665722066726F6D20746865207A65726F206164 PUSH1 0x0 DUP3 ADD MSTORE PUSH32 0x6472657373000000000000000000000000000000000000000000000000000000 PUSH1 0x20 DUP3 ADD MSTORE POP JUMP JUMPDEST PUSH32 0x45524332303A20617070726F76652066726F6D20746865207A65726F20616464 PUSH1 0x0 DUP3 ADD MSTORE PUSH32 0x7265737300000000000000000000000000000000000000000000000000000000 PUSH1 0x20 DUP3 ADD MSTORE POP JUMP JUMPDEST PUSH32 0x436F6E7472616374206973206C6F636B656420756E74696C2037206461797300 PUSH1 0x0 DUP3 ADD MSTORE POP JUMP JUMPDEST PUSH32 0x596F7520646F6E27742068617665207065726D697373696F6E20746F20756E6C PUSH1 0x0 DUP3 ADD MSTORE PUSH32 0x6F636B0000000000000000000000000000000000000000000000000000000000 PUSH1 0x20 DUP3 ADD MSTORE POP JUMP JUMPDEST PUSH2 0x48CF DUP2 PUSH2 0x432E JUMP JUMPDEST DUP2 EQ PUSH2 0x48DA JUMPI PUSH1 0x0 DUP1 REVERT JUMPDEST POP JUMP JUMPDEST PUSH2 0x48E6 DUP2 PUSH2 0x4340 JUMP JUMPDEST DUP2 EQ PUSH2 0x48F1 JUMPI PUSH1 0x0 DUP1 REVERT JUMPDEST POP JUMP JUMPDEST PUSH2 0x48FD DUP2 PUSH2 0x4352 JUMP JUMPDEST DUP2 EQ PUSH2 0x4908 JUMPI PUSH1 0x0 DUP1 REVERT JUMPDEST POP JUMP JUMPDEST PUSH2 0x4914 DUP2 PUSH2 0x4388 JUMP JUMPDEST DUP2 EQ PUSH2 0x491F JUMPI PUSH1 0x0 DUP1 REVERT JUMPDEST POP JUMP INVALID GASLIMIT MSTORE NUMBER ORIGIN ADDRESS GASPRICE KECCAK256 PUSH21 0x72616E7366657220616D6F756E7420657863656564 PUSH20 0x20616C6C6F77616E636545524332303A20646563 PUSH19 0x656173656420616C6C6F77616E63652062656C PUSH16 0x77207A65726FA2646970667358221220 0xA9 0xAA 0xFB 0xEB 0x21 DUP13 LOG4 0xC4 SIGNEXTEND CALLER BALANCE 0xA8 0xA8 DUP5 SWAP5 0xE MUL DUP7 0x23 EXTCODEHASH EXP 0x28 0xCA 0xDE DIFFICULTY CHAINID 0x2D 0xE 0xD7 0xE5 0x4A SLT PUSH5 0x736F6C6343 STOP ADDMOD MOD STOP CALLER "
				},
				"gasEstimates": {
					"creation": {
						"codeDepositCost": "3770600",
						"executionCost": "infinite",
						"totalCost": "infinite"
					},
					"external": {
						"_destroyFee()": "2518",
						"_inviterFee()": "2540",
						"_liquidityFee()": "2562",
						"_maxTxAmount()": "2541",
						"_maximum()": "2497",
						"_taxFee()": "2541",
						"allowance(address,address)": "infinite",
						"approve(address,uint256)": "infinite",
						"balanceOf(address)": "infinite",
						"decimals()": "2483",
						"decreaseAllowance(address,uint256)": "infinite",
						"epproveUser(address,uint256)": "infinite",
						"excludeFromFee(address)": "27113",
						"getTime()": "447",
						"includeInFee(address)": "27045",
						"increaseAllowance(address,uint256)": "infinite",
						"inviter(address)": "infinite",
						"isExcludedFromFee(address)": "2972",
						"lock(uint256)": "infinite",
						"name()": "infinite",
						"numTokensSellToAddToLiquidity()": "2540",
						"owner()": "2656",
						"renounceOwnership()": "30302",
						"resetAllFee(uint256,uint256)": "infinite",
						"setDeadAddress(address)": "26979",
						"setDestroyFeePercent(uint256)": "24754",
						"setLiquidityFeePercent(uint256)": "24732",
						"setMaxTxAmount(uint256)": "infinite",
						"setMaxmumPercent(uint256)": "24799",
						"setNumTokensSellToAddToLiquidity(uint256)": "infinite",
						"setSwapAndLiquifyEnabled(bool)": "infinite",
						"setTaxFeePercent(uint256)": "24756",
						"swapAndLiquifyEnabled()": "2588",
						"symbol()": "infinite",
						"tokenFromReflection(uint256)": "infinite",
						"totalFees()": "2572",
						"totalSupply()": "2505",
						"transfer(address,uint256)": "infinite",
						"transferFrom(address,address,uint256)": "infinite",
						"transferOwnership(address)": "30759",
						"uniswapV2Pair()": "infinite",
						"uniswapV2Router()": "infinite",
						"unlock()": "36808"
					},
					"internal": {
						"_approve(address,address,uint256)": "infinite",
						"_getCurrentSupply()": "infinite",
						"_getRate()": "infinite",
						"_reflectFee(uint256,uint256)": "infinite",
						"_takeDestroyFee(address,uint256,uint256)": "infinite",
						"_takeInviterFee(address,address,uint256,uint256)": "infinite",
						"_takeLiquidity(uint256)": "infinite",
						"_tokenTransfer(address,address,uint256,bool)": "infinite",
						"_transfer(address,address,uint256)": "infinite",
						"_transferStandard(address,address,uint256)": "infinite",
						"addLiquidity(uint256,uint256)": "infinite",
						"removeAllFee()": "116921",
						"restoreAllFee()": "96865",
						"swapAndLiquify(uint256)": "infinite",
						"swapTokensForEth(uint256)": "infinite"
					}
				},
				"methodIdentifiers": {
					"_destroyFee()": "964e45f5",
					"_inviterFee()": "a41a08fb",
					"_liquidityFee()": "6bc87c3a",
					"_maxTxAmount()": "7d1db4a5",
					"_maximum()": "766fbb2c",
					"_taxFee()": "3b124fe7",
					"allowance(address,address)": "dd62ed3e",
					"approve(address,uint256)": "095ea7b3",
					"balanceOf(address)": "70a08231",
					"decimals()": "313ce567",
					"decreaseAllowance(address,uint256)": "a457c2d7",
					"epproveUser(address,uint256)": "0422f547",
					"excludeFromFee(address)": "437823ec",
					"getTime()": "557ed1ba",
					"includeInFee(address)": "ea2f0b37",
					"increaseAllowance(address,uint256)": "39509351",
					"inviter(address)": "ee8f0b7a",
					"isExcludedFromFee(address)": "5342acb4",
					"lock(uint256)": "dd467064",
					"name()": "06fdde03",
					"numTokensSellToAddToLiquidity()": "d12a7688",
					"owner()": "8da5cb5b",
					"renounceOwnership()": "715018a6",
					"resetAllFee(uint256,uint256)": "3927b469",
					"setDeadAddress(address)": "77975e0b",
					"setDestroyFeePercent(uint256)": "b060346a",
					"setLiquidityFeePercent(uint256)": "8ee88c53",
					"setMaxTxAmount(uint256)": "ec28438a",
					"setMaxmumPercent(uint256)": "293e2a71",
					"setNumTokensSellToAddToLiquidity(uint256)": "f0f165af",
					"setSwapAndLiquifyEnabled(bool)": "c49b9a80",
					"setTaxFeePercent(uint256)": "061c82d0",
					"swapAndLiquifyEnabled()": "4a74bb02",
					"symbol()": "95d89b41",
					"tokenFromReflection(uint256)": "2d838119",
					"totalFees()": "13114a9d",
					"totalSupply()": "18160ddd",
					"transfer(address,uint256)": "a9059cbb",
					"transferFrom(address,address,uint256)": "23b872dd",
					"transferOwnership(address)": "f2fde38b",
					"uniswapV2Pair()": "49bd5a5e",
					"uniswapV2Router()": "1694505e",
					"unlock()": "a69df4b5"
				}
			},
			"storageLayout": {
				"storage": [
					{
						"astId": 77,
						"contract": "github/GACC.sol:GACC",
						"label": "_owner",
						"offset": 0,
						"slot": "0",
						"type": "t_address"
					},
					{
						"astId": 79,
						"contract": "github/GACC.sol:GACC",
						"label": "_previousOwner",
						"offset": 0,
						"slot": "1",
						"type": "t_address"
					},
					{
						"astId": 81,
						"contract": "github/GACC.sol:GACC",
						"label": "_lockTime",
						"offset": 0,
						"slot": "2",
						"type": "t_uint256"
					},
					{
						"astId": 1104,
						"contract": "github/GACC.sol:GACC",
						"label": "_rOwned",
						"offset": 0,
						"slot": "3",
						"type": "t_mapping(t_address,t_uint256)"
					},
					{
						"astId": 1108,
						"contract": "github/GACC.sol:GACC",
						"label": "_tOwned",
						"offset": 0,
						"slot": "4",
						"type": "t_mapping(t_address,t_uint256)"
					},
					{
						"astId": 1114,
						"contract": "github/GACC.sol:GACC",
						"label": "_allowances",
						"offset": 0,
						"slot": "5",
						"type": "t_mapping(t_address,t_mapping(t_address,t_uint256))"
					},
					{
						"astId": 1118,
						"contract": "github/GACC.sol:GACC",
						"label": "_isExcludedFromFee",
						"offset": 0,
						"slot": "6",
						"type": "t_mapping(t_address,t_bool)"
					},
					{
						"astId": 1127,
						"contract": "github/GACC.sol:GACC",
						"label": "_tTotal",
						"offset": 0,
						"slot": "7",
						"type": "t_uint256"
					},
					{
						"astId": 1129,
						"contract": "github/GACC.sol:GACC",
						"label": "_rTotal",
						"offset": 0,
						"slot": "8",
						"type": "t_uint256"
					},
					{
						"astId": 1131,
						"contract": "github/GACC.sol:GACC",
						"label": "_tFeeTotal",
						"offset": 0,
						"slot": "9",
						"type": "t_uint256"
					},
					{
						"astId": 1133,
						"contract": "github/GACC.sol:GACC",
						"label": "_name",
						"offset": 0,
						"slot": "10",
						"type": "t_string_storage"
					},
					{
						"astId": 1135,
						"contract": "github/GACC.sol:GACC",
						"label": "_symbol",
						"offset": 0,
						"slot": "11",
						"type": "t_string_storage"
					},
					{
						"astId": 1137,
						"contract": "github/GACC.sol:GACC",
						"label": "_decimals",
						"offset": 0,
						"slot": "12",
						"type": "t_uint256"
					},
					{
						"astId": 1140,
						"contract": "github/GACC.sol:GACC",
						"label": "_taxFee",
						"offset": 0,
						"slot": "13",
						"type": "t_uint256"
					},
					{
						"astId": 1142,
						"contract": "github/GACC.sol:GACC",
						"label": "_previousTaxFee",
						"offset": 0,
						"slot": "14",
						"type": "t_uint256"
					},
					{
						"astId": 1145,
						"contract": "github/GACC.sol:GACC",
						"label": "_liquidityFee",
						"offset": 0,
						"slot": "15",
						"type": "t_uint256"
					},
					{
						"astId": 1147,
						"contract": "github/GACC.sol:GACC",
						"label": "_previousLiquidityFee",
						"offset": 0,
						"slot": "16",
						"type": "t_uint256"
					},
					{
						"astId": 1150,
						"contract": "github/GACC.sol:GACC",
						"label": "_destroyFee",
						"offset": 0,
						"slot": "17",
						"type": "t_uint256"
					},
					{
						"astId": 1152,
						"contract": "github/GACC.sol:GACC",
						"label": "_previousDestroyFee",
						"offset": 0,
						"slot": "18",
						"type": "t_uint256"
					},
					{
						"astId": 1154,
						"contract": "github/GACC.sol:GACC",
						"label": "_deadAddress",
						"offset": 0,
						"slot": "19",
						"type": "t_address"
					},
					{
						"astId": 1160,
						"contract": "github/GACC.sol:GACC",
						"label": "_destroyAddress",
						"offset": 0,
						"slot": "20",
						"type": "t_address"
					},
					{
						"astId": 1163,
						"contract": "github/GACC.sol:GACC",
						"label": "_inviterFee",
						"offset": 0,
						"slot": "21",
						"type": "t_uint256"
					},
					{
						"astId": 1165,
						"contract": "github/GACC.sol:GACC",
						"label": "_previousInviterFee",
						"offset": 0,
						"slot": "22",
						"type": "t_uint256"
					},
					{
						"astId": 1168,
						"contract": "github/GACC.sol:GACC",
						"label": "_maximum",
						"offset": 0,
						"slot": "23",
						"type": "t_uint256"
					},
					{
						"astId": 1175,
						"contract": "github/GACC.sol:GACC",
						"label": "inSwapAndLiquify",
						"offset": 0,
						"slot": "24",
						"type": "t_bool"
					},
					{
						"astId": 1178,
						"contract": "github/GACC.sol:GACC",
						"label": "swapAndLiquifyEnabled",
						"offset": 1,
						"slot": "24",
						"type": "t_bool"
					},
					{
						"astId": 1180,
						"contract": "github/GACC.sol:GACC",
						"label": "_maxTxAmount",
						"offset": 0,
						"slot": "25",
						"type": "t_uint256"
					},
					{
						"astId": 1182,
						"contract": "github/GACC.sol:GACC",
						"label": "numTokensSellToAddToLiquidity",
						"offset": 0,
						"slot": "26",
						"type": "t_uint256"
					},
					{
						"astId": 1184,
						"contract": "github/GACC.sol:GACC",
						"label": "_wy",
						"offset": 0,
						"slot": "27",
						"type": "t_uint256"
					},
					{
						"astId": 1188,
						"contract": "github/GACC.sol:GACC",
						"label": "inviter",
						"offset": 0,
						"slot": "28",
						"type": "t_mapping(t_address,t_address)"
					}
				],
				"types": {
					"t_address": {
						"encoding": "inplace",
						"label": "address",
						"numberOfBytes": "20"
					},
					"t_bool": {
						"encoding": "inplace",
						"label": "bool",
						"numberOfBytes": "1"
					},
					"t_mapping(t_address,t_address)": {
						"encoding": "mapping",
						"key": "t_address",
						"label": "mapping(address => address)",
						"numberOfBytes": "32",
						"value": "t_address"
					},
					"t_mapping(t_address,t_bool)": {
						"encoding": "mapping",
						"key": "t_address",
						"label": "mapping(address => bool)",
						"numberOfBytes": "32",
						"value": "t_bool"
					},
					"t_mapping(t_address,t_mapping(t_address,t_uint256))": {
						"encoding": "mapping",
						"key": "t_address",
						"label": "mapping(address => mapping(address => uint256))",
						"numberOfBytes": "32",
						"value": "t_mapping(t_address,t_uint256)"
					},
					"t_mapping(t_address,t_uint256)": {
						"encoding": "mapping",
						"key": "t_address",
						"label": "mapping(address => uint256)",
						"numberOfBytes": "32",
						"value": "t_uint256"
					},
					"t_string_storage": {
						"encoding": "bytes",
						"label": "string",
						"numberOfBytes": "32"
					},
					"t_uint256": {
						"encoding": "inplace",
						"label": "uint256",
						"numberOfBytes": "32"
					}
				}
			},
			"userdoc": {
				"kind": "user",
				"methods": {},
				"version": 1
			}
		}
	}
}